:020000040000fa
:080000000002040000000000f2
:020000040000fa
:100008009a0200009a0200009a0200009a02000078
:100018009a0200009a0200009a0200009a02000068
:100028009a0200009a0200009a0200009a02000058
:100038009a0200009a0200009a020000f40f0000e1
:100048009a0200009a0200009a0200009a02000038
:100058009a0200009a0200009a0200009a02000028
:100068009a0200009a0200009a0200006e10000036
:100078009a0200009a0200009a0200009a02000008
:100088009a0200009a0200009a0200009a020000f8
:100098009a0200009a0200002e1000005c10000076
:1000a8009a020000641000009a0200009a02000000
:1000b8009a0200009a0200009a0200009a020000c8
:1000c8009a0200009a0200009a0200009a020000b8
:1000d8009a0200009a0200009a0200009a020000a8
:1000e8009a0200009a0200009a0200009a02000098
:1000f8009a0200009a0200009a0200009a02000088
:100108009a0200009a0200009a0200009a02000077
:100118009a0200009a0200009a0200009a02000067
:100128009a0200009a0200009a0200009a02000057
:100138009a0200009a0200009a0200009a02000047
:100148009a0200009a0200009a0200009a02000037
:100158009a0200009a0200009a0200009a02000027
:100168009a0200009a0200009a0200009a02000017
:100178009a0200009a0200009a0200009a02000007
:100188009a0200009a0200009a0200009a020000f7
:100198009a0200009a0200009a0200009a020000e7
:1001a8009a0200009a0200009a0200009a020000d7
:1001b8009a0200009a0200009a0200009a020000c7
:1001c8009a0200009a0200009a0200009a020000b7
:1001d8009a0200009a0200009a0200009a020000a7
:1001e8009a0200009a0200009a0200009a02000097
:0801f8009a0200009a020000c7
:020000040000fa
:100208009a0200009a0200009a0200009a02000076
:100218009a0200009a0200009a0200009a02000066
:100228009a0200009a0200009a0200009a02000056
:100238009a0200009a0200009a020000f40f0000df
:100248009a0200009a0200009a0200009a02000036
:100258009a0200009a0200009a0200009a02000026
:100268009a0200009a0200009a0200006e10000034
:100278009a0200009a0200009a0200009a02000006
:100288009a0200009a0200009a0200009a020000f6
:100298009a0200009a0200002e1000005c10000074
:1002a8009a020000641000009a0200009a020000fe
:1002b8009a0200009a0200009a0200009a020000c6
:1002c8009a0200009a0200009a0200009a020000b6
:1002d8009a0200009a0200009a0200009a020000a6
:1002e8009a0200009a0200009a0200009a02000096
:1002f8009a0200009a0200009a0200009a02000086
:100308009a0200009a0200009a0200009a02000075
:100318009a0200009a0200009a0200009a02000065
:100328009a0200009a0200009a0200009a02000055
:100338009a0200009a0200009a0200009a02000045
:100348009a0200009a0200009a0200009a02000035
:100358009a0200009a0200009a0200009a02000025
:100368009a0200009a0200009a0200009a02000015
:100378009a0200009a0200009a0200009a02000005
:100388009a0200009a0200009a0200009a020000f5
:100398009a0200009a0200009a0200009a020000e5
:1003a8009a0200009a0200009a0200009a020000d5
:1003b8009a0200009a0200009a0200009a020000c5
:1003c8009a0200009a0200009a0200009a020000b5
:1003d8009a0200009a0200009a0200009a020000a5
:1003e8009a0200009a0200009a0200009a02000095
:0803f8009a0200009a020000c5
:020000040000fa
:100400000f8220000e7f24000e01880000000000f3
:10041000000020000000e000020032000001200087
:10042000200288000c000700800f2100010020003e
:1004300011000700000020000000e0000200320070
:100440000000020000000000141102000000000083
:100450000040da000000fe004440a9000000200037
:100460000000e0000300320000002000a00188002e
:100470004440a80000000600910188008000780038
:100480000000eb0015003700e280400032a0b4000d
:100490009101ba00e280400032a0b4009102ba009b
:1004a000e280400032a0b4000002eb00472bde00e7
:1004b000f507b200602ce10004003a000059eb009f
:1004c0008301e900fdff3e00040037006128e100e0
:1004d000010032000082eb00040007001101ba00a5
:1004e0000200e000e8ff3a00000006003159ba00bf
:1004f0008301e9000c0032002159ba008301e900b0
:10050000080032000400e00003003a00e2804000ee
:1005100032a0b400f5ff370011d9ba008301e90019
:10052000faff3a008100e800e180400032a0b40008
:10053000000006000040da000000fe0084e0a90090
:1005400067026000f5ff28004c22dd0036058000c0
:100550008682620068006000850272004300de004f
:100560003505880061006000f4f72f004700dd00ca
:10057000a50480000502620004027000a404880043
:10058000000006000621ef0061088800800888004e
:100590001061a90000000600001020003202b60021
:1005a0000000e9004f00de000000060087c0a9003f
:1005b0006702600087e0a9004822dd00f58f2f0068
:1005c0009605800086826200850272000002780033
:1005d000950588000407b200f5ff28004822dd00d9
:1005e00096058000868262008502720068026000c3
:1005f000950588004322de00f5ff2b0061026200b2
:10060000b6048000868262004e22dd000008b2003f
:10061000850272004700de00b504880061006000ba
:10062000f4ff27004f00dd00b504800005026200e2
:1006300004027000b40488000000060090118000dd
:100640006140600000000600c2118800801188002f
:10065000911188000000060084118000660262008b
:10066000e60f520002003a00b011800000000600c0
:10067000b0118000f00fb20000000600841180006d
:1006800066026200e60f520001003200f00fb20075
:10069000a01188000000060003f0a200889fbe00a1
:1006a0008a9fbe008c1f78004e0107005501330061
:1006b0006450e1004f0032006420e100520032003b
:1006c00003826c0007003b000905d0000306d00040
:1006d000820f54000c065d00020039000200320057
:1006e00089017800030678008582550004003d00ea
:1006f0000003fd008103fd008502ea008b854200b6
:10070000840f720002003b0060001000e0801800bf
:100710006011b8000005eb007a28e1000a003900fa
:1007200006007800c75ddd00f707b200878075001e
:100730002d003700828171000a0178006105600098
:100740008180d1000080d3008502e900f9ff3b00e1
:10075000060440008784480002003b006004140047
:10076000e0841c000988a300070032008a81710020
:1007700082817100610164008904d1000884d30082
:100780008b05e800170037000978a30013003a0032
:100790000b00e000130034008b05e900080444005e
:1007a00089844c000a4474000978a3000d003a00c3
:1007b0000b00e000070034008b05e900080444004a
:1007c00089844c0001003a000b0020000978a30046
:1007d000f7ff32000001eb00020037008281710058
:1007e0000a017800c40007000cf0a70001f0a00087
:1007f0000d0137006420e10002003a00838f6c0095
:100800000d0133000801be000200be0006013700e2
:10081000889fbe008a9fbe008c1f7800f1000700f1
:10082000f800330003866c006450e1002e003200b3
:100830006420e100330032006150e1002f003200fb
:100840006120e1003100320085855500eb07b000e2
:1008500009002000080420000500370008044400b7
:1008600089844c000a0031000603430087834b0053
:100870000001530081815b00f8ff33000203be00da
:100880000800a0000804440089844c00f6ff3900e9
:10089000c639dd008301730001003200130020001f
:1008a0008904d1000884d3000998a3000500320010
:1008b0000800a7000300a0008904d1000884d30029
:1008c0008b05e8008904d1000884d3000001eb0007
:1008d0000281d2008800070001f0a1000cf0a700ff
:1008e00001f0a000d00037006420e100d200320007
:1008f0000801be000200be00f7ff37006120e100e2
:10090000cd0032006000b800f3ff37000000200087
:1009100001f82700f0ff370014002000fd00370029
:10092000f4ff2f00fb0037000001be009800070015
:100930000470a70003f0a1006509b10016003200a1
:100940000d0035006828e10006003500f0ff2f009b
:10095000f1ff27000300e00013003b000100280026
:100960000000050000004000818048008502e90089
:10097000fcff3a0008003700f88f420002003c00fc
:100980008000eb00000005008100d1000080d30052
:100990008502e800fcff3a000300e00002003b0093
:1009a00060001000e0801800000006006011b80030
:1009b000f30037000400200000003700889fbe00cd
:1009c0008a9fbe008c1f78004f26dd00850007003f
:1009d0008c0033006120e100430032006250e100ee
:1009e00041003e003e0039006420e1003c0032003e
:1009f000058255000f003b000402e80038003a0071
:100a0000800f5300818f5b00350034000800be006a
:100a100003f0a10001f0a60003f0a0000cf0a70075
:100a20001eff0700800037000603430087834b004a
:100a30000c4646000005530081855b000200330030
:100a40000a03be000c00a0000402e900f6ff3b0010
:100a5000850578000602430087824b0004003a00b7
:100a60006000b80009f0a70001f0a0006e00370098
:100a70000002520081825a000704e00004003300a3
:100a80000603430087834b008b05e900faff37001c
:100a9000090578000604be000203be006011b8001c
:100aa00015000700e00f5200e08f5a0007003500e4
:100ab00002003c000c08a300040032000601be0046
:100ac00003f0a0000cf0a700f4fe07000a85680000
:100ad00001f0a1000af0a70001f0a00052003700c9
:100ae0000800be0050003700100220000cf0a600e5
:100af000f0408800500037008100200061805500e0
:100b00000b003d000b00200061fe2f000100e10002
:100b10001d00340082817100610164008904d100ec
:100b20000884d3000000e800faff3a0071002000ba
:100b300061006400030070000200600009003200e0
:100b400061044400e0844c000988a50005003200df
:100b50008b05e8006808e10002003a008904d10032
:100b60000884d300f20f20000258e10005003d0088
:100b7000c75ddd00f907b2008980750008007800c4
:100b8000000006000bf827008b007800000005002d
:100b9000c70ade00f107b200f50fb200080032000c
:100ba000e1cf4200020032000170a00024000500e5
:100bb000810f7000010032000408050044000500a8
:100bc000810f700002003a00140005008502e90060
:100bd0000000400081c04800fcff3b000170a00005
:100be000240005000004be00e9ff07000003be006a
:100bf0000405be000200be00e5ff0700844f75003b
:100c0000000006000200be006450e100050036004e
:100c10006420e100020036000968a30001003a00e8
:100c20000800be000160a0004f0678004f05be001e
:100c30004f04be0000000600f0ff2f00f1ff270068
:100c4000f9ff3700889fbe008a9fbe008c1f780086
:100c5000e4ff0700ebff330003866c006450e10003
:100c6000240032006420e100270032006150e100de
:100c7000220032006120e100210032008b85420019
:100c8000eb07b1000134b800003ab8000804420094
:100c900089844a00013ab8000030b80088804000da
:100ca00009014a0004003300000040008180480030
:100cb000020149008b05e900c909dd0083017000cc
:100cc0000100320013002000c814de004814dd00cb
:100cd0004709de001200b200c808de000884700078
:100ce00085ff070001f0a1000cf0a70001f0a000b3
:100cf000cdff37006120e100cfff32000801be00c8
:100d00000200be00f7ff37006150e100fcff3a002f
:100d1000c9ff3700889fbe008a9fbe00841f7800ed
:100d2000b0ff07004f00780011003300f0ff2f00e4
:100d3000838f6c0006003b00040565000a00a700d5
:100d40000800370009f0a600100020000800370056
:100d5000820f5400838f5c000300390010002000d4
:100d600001003e000000200009f0a7000000ea009a
:100d70004f05be004f04be000000e000000006006a
:100d8000889fbe008a9fbe0000827000040271002e
:100d900004827100260032000004be000200be0082
:100da0006011b8006b092000950220000182cf007d
:100db0000a0039000541b1000082cf000700390068
:100dc0000541b1000982cf00040039000541b1009e
:100dd0000882cf00010039000541b10005425200f0
:100de000120032000a003b00828171006101640040
:100df0008100d1000080d3008984d3000884d3000f
:100e00008b05e8000442e800f7ff3a0007003700ce
:100e10000804440089844c00000048008180480098
:100e20008b05e9000442e900f9ff3a0032ff0700b0
:0c0e30004f05be004f04be00000006008d
:020000040000fa
:100e3c000000fa00c1e1a800040e80000420a1000b
:100e4c000430a100040e8800040e80000400a100f0
:100e5c000410a100040e8800c45d2000240e88003c
:100e6c00c921a800c941a800c881a800c8a1a80030
:100e7c00c8c1a900c801a900c821a900c841a9007e
:100e8c000002eb00b40e88000002eb00d40e8800c8
:100e9c00c922a900c962a900c9a2a900c142a9001e
:100eac00cd22a900cd62a900cda2a900c542a900fe
:100ebc000080fa00000006000000fa00e1a1a80082
:100ecc00040f80000480a1000490a00004a0a000e6
:100edc00040f8800e041a900e021a900e53480005e
:100eec0004fe2f00048262006401b300e434880025
:100efc00e5348000f40f2e0084826200048021000f
:100f0c0005027200e4348800f1a1a800840f80006f
:100f1c000480a1000490a00004a0a000840f88000d
:100f2c00f041a900f021a9000535800004fe2f0036
:100f3c00048262007401b30004358800053580001a
:100f4c00f40f2e00848262000490210005027200ce
:100f5c00043588000080fa00000006000a00fa0040
:100f6c00881f780010079800210798003207980016
:100f7c0043079800180020006011b8003e00900054
:100f8c00ce00900063fe070000027800e00f5200d4
:100f9c0001003d000004eb00080f78001e027800f1
:100fac0004427800614262000482fb00610262002c
:100fbc004922dd0066168000f5df2f0085026300f4
:100fcc0005027200641688001e02780004f0a70067
:100fdc000402ea000402e9004f22de000442780019
:100fec000482fb00610262004b22dd006616800069
:100ffc00f57f2f00850263000502720064168800dd
:10100c00180020006011b8001e009000ae00900087
:10101c0040fe070000027800e00f520001003d0086
:10102c000004eb00080f78001e02780004f0a70003
:10103c000402ea000402e9004f22de0004427800b8
:10104c000482fb00610262004d22dd006616800006
:10105c00f5ff2d00850263000502720064168800fe
:10106c001e02780004427800614262000482fb0098
:10107c00610262004a22dd0026168000f5bf2f00b7
:10108c00850263000502720024168800c45d2000ee
:10109c00240e880004002000852c2400020020006f
:1010ac00832c2c001e009000ae0090001d03070046
:1010bc000002be00140798002507980004002000c9
:1010cc00852c240002002000832c2c003e00900074
:1010dc00ce009000130307000002be0034079800f6
:1010ec00450798001e029000ae02900005f0a1008a
:1010fc0002002000031f24000400be00cefe0700e7
:10110c000002be000400be0004fe07000002be0088
:10111c0004027800b40e88003e029000ce029000cb
:10112c0005f0a10002002000031f24000400be00f3
:10113c00c1fe07000002be000400be00f7fd070060
:10114c000002be0004027800d40e88004f04780020
:10115c000080fa00000006000e00fa00881f7800dc
:10116c001007980021079800320798004307980051
:10117c005407980065079800180020006011b8000b
:10118c005e009000ee009000e2fd07000002780087
:10119c00e00f520001003d000004eb00080f780046
:1011ac001e02780004427800614262000482fb0057
:1011bc00610262004922dd0066168000f5df2f0017
:1011cc008502630005027200641688001e02780016
:1011dc0004f0a7000402ea000402e9004f22de003a
:1011ec00044278000482fb00610262004b22dd00a5
:1011fc0066168000f57f2f008502630005027200e1
:10120c0064168800180020006011b8003e009000a1
:10121c00ce009000bffd070000027800e00f5200e6
:10122c0001003d000004eb00080f78001e0278005e
:10123c0004f0a7000402ea000402e9004f22de00d9
:10124c00044278000482fb00610262004d22dd0042
:10125c0066168000f5ff2d00850263000502720002
:10126c00641688001e027800044278006142620015
:10127c000482fb00610262004a22dd002616800017
:10128c00f5bf2f008502630005027200241688004a
:10129c001e019000ae0190000068290081c124005d
:1012ac0058fd07000002be000400be009bfd0700b5
:1012bc000003be0004d0270005002000c25d200002
:1012cc00030020000600be00be0207000002be00a4
:1012dc0004027800240e880004002000852c2400d1
:1012ec0002002000832c2c003e009000ce009000c9
:1012fc008c0207000002be003407980045079800d6
:10130c0004002000852c240002002000832c2c00db
:10131c005e009000ee009000820207000002be000a
:10132c005407980065079800240e800004024200c0
:10133c00050020000400be0099fd07000003be005c
:10134c003e029000ce02900005f0a1000401be0008
:10135c000600be0038fe07000002be00020020009e
:10136c00832c24000400be0026fd07000002be00f2
:10137c003407980045079800240e800004024200b0
:10138c00050020000400be0085fd07000003be0020
:10139c005e029000ee02900005f0a1000401be0078
:1013ac000600be0024fe07000002be000200200062
:1013bc00832c24000400be0012fd07000002be00b6
:1013cc0054079800650798003e009000ce009000ee
:1013dc0052fd07000003be0004a02f0005002000f2
:1013ec006011b8000600be00760207000002be00c5
:1013fc0004027800b40e88005e009000ee009000ad
:10140c0046fd07000003be0004a02f0005002000cd
:10141c006011b8000600be006a0207000002be00a0
:10142c0004027800d40e88004f0478000080fa0083
:10143c00000006000600fa00881f780010079800cc
:10144c0021079800180020006011b8001e009000c1
:10145c00ae0090002ffd070000027800e00f520054
:10146c0001003d000004eb00080f78001e0278001c
:10147c0004f0a7000402ea000402e9004f22de0097
:10148c00044278000482fb00610262004d22dd0000
:10149c0066168000f5ff2d008502630005027200c0
:1014ac00641688001e0278000442780061426200d3
:1014bc000482fb00610262004a22dd0026168000d5
:1014cc00f5bf2f0085026300050272002416880008
:1014dc00c45d2000240e880004002000852c24000c
:1014ec0002002000832c2c001e009000ae00900007
:1014fc000c0207000002be00140798002507980094
:10150c001e029000ae02900005f0a1000200200027
:10151c00031f24000400be00c7fd07000002be002c
:10152c000400be00fdfc07000002be0004027800af
:10153c00b40e88004f0478000080fa00000006000a
:10154c000600fa00881f7800100798002107980001
:10155c00180020006011b8001e009000ae00900032
:10156c00ecfc070000027800e00f520001003d0087
:10157c000004eb00080f78001e027800044278008b
:10158c00614262000482fb00610262004922dd00bc
:10159c0066168000f5df2f008502630005027200dd
:1015ac00641688001e02780004f0a7000402ea000a
:1015bc000402e9004f22de00044278000482fb00a2
:1015cc00610262004b22dd0066168000f57f2f0061
:1015dc00850263000502720064168800c45d200059
:1015ec00240e880004002000852c2400020020001a
:1015fc00832c2c001e009000ae009000c901070047
:10160c000002be0014079800250798001e029000e7
:10161c00ae02900005f0a10002002000031f240080
:10162c000400be0084fd07000002be000400be00e2
:10163c00bafc07000002be0004027800d40e880039
:10164c004f0478000080fa00000006000000fa0049
:10165c00153a8000f40b200004836200640420001f
:10166c007505200027742000844b7800854b78008a
:10167c00864b780034358000f401b3003435880093
:10168c0035368000f40f2e00848262000450200056
:10169c000502720034368800153a800004042000dc
:1016ac0005037200640420007505200027742000d7
:1016bc00844b7800854b7800864b78000080fa00cc
:1016cc00000006000000fa00153a8000f40b200020
:1016dc000483620064042000750520002774200038
:1016ec00844b7800854b7800864b7800353680002b
:1016fc00f40f2e00048262003436880035358000e9
:10170c0004fe2f00048262007400b300343588009c
:10171c00153a8000040420000503720064042000c4
:10172c007505200027742000844b7800854b7800c9
:10173c00864b78000080fa00000006000200fa00d8
:10174c00004f78000000000095118000042020005c
:10175c0004826200e00f5200fbff3a009e427800c8
:10176c000582fb0004007800c1fb07000480200008
:10177c00144278001e424200844278000680200009
:10178c00054b78000080fa00000006000400fa0007
:10179c00004f78001147980022479800abff0700d4
:1017ac0000c0eb00e5ff070000c0eb00e3ff070003
:1017bc000042eb000443780005802000864a780044
:1017cc001e407800ddff07001e42900004c2e800b6
:1017dc0004407800d9ff07002e409000d7ff070087
:1017ec000080fa00000006000600fa00204798006e
:1017fc00210798000042eb00044f780008003700e6
:10180c009e4278000582fb00ae02900004824200ea
:10181c001442780004407800c8ff07001e4fe8000f
:10182c002e4290009e42780084cf5200f4ff390083
:10183c000080fa00000006000000fa00048020007e
:10184c001442780004c2ea0004407800bbff070091
:10185c00000000004dfb070000427800e04f5200f2
:10186c00fcff3a0097ff07000080fa00000006001a
:10187c000200fa007000370074fb070000027800c9
:10188c0004427800044f7800e4408000e50f4200e9
:10189c0006003a001e427800e14f420003003a0075
:1018ac00c4ff2f00e440880063003700e440800050
:1018bc00e40f42000d003a001e427800e14f420056
:1018cc000a003a00d4ff2f00e44088000042eb00ed
:1018dc000443780005802000864a7800448020006c
:1018ec0015c0b3001542980053003700e440800047
:1018fc00e30f420006003a00e4ff2f00e4408800aa
:10190c009e42780044802000054a78004a00370047
:10191c00e4408000e20f420011003a001e427800c1
:10192c00e54f52000e003e000082eb00e4408800c0
:10193c0044802000944278001e42780004c2420089
:10194c000443780005802000864a78001e42780007
:10195c0084c2e9004480200015429800360037000c
:10196c00e4408000e10f420007003a000002eb0067
:10197c00e44088008e027800448020001503780033
:10198c00160298002c003700e4408000e00f520053
:10199c001600350044802000144290008482fb0025
:1019ac00e4408000848f520010003400e44080003a
:1019bc000403780085802000850243001e437800d4
:1019cc00864a78000402e800e44088000580200084
:1019dc00954278001e42780004c24200044378000d
:1019ec0005802000864a78001300370044802000d0
:1019fc00144290008482fb00e4408000848f5200eb
:101a0c000b003a009e4278000480200014427800bb
:101a1c0004c26200e04f520005003a00140020009e
:101a2c0014408800b4ff2f00e44088000200370007
:101a3c00b4ff2f00e4408800fdfa07000042780054
:101a4c00e04f52008cff3a000080fa0000000600c4
:101a5c000200fa00004f780012c0b30021c0b3009e
:101a6c001e40780049ff070073ff07000080fa0052
:101a7c00000006000400fa00004f7800114798009f
:101a8c002247980022c0b30021c0b3001e4078004a
:101a9c003eff07001e40900028ff07002e409000dc
:101aac0026ff070064ff07000080fa000000060014
:101abc000600fa00004f7800114798002247980062
:101acc00230798002e4290000442e80032c0b30075
:101adc00844078001e4078002cff07001e409000c8
:101aec0016ff0700ae0090002e4090003eff07004e
:101afc0051ff07000080fa00000006000600fa0003
:101b0c00004f78001147980022479800230798004f
:101b1c002e4290000442e80042c0b300844078009a
:101b2c001e40780019ff07001e40900003ff0700bd
:101b3c00ae0090002e4090002bff07003eff0700e8
:101b4c000080fa00000006000200fa00004f780046
:101b5c0052c0b3008040eb001e4078000bff070022
:101b6c0035ff07000080fa00000006000200fa00b2
:101b7c00004f780062c0b3008040eb001e4078003c
:101b8c0002ff07002cff07000080fa00000006008f
:101b9c000200fa00004f78009e4278000582fb009c
:101bac00cfa2de000603200007002000860f5200a3
:101bbc00878f5a0036003e00046001003200370067
:101bcc00330037002e0037002d0037002c00370073
:101bdc002b0037002c0037002d0037002a0037006f
:101bec002b0037002a00370025003700240037006f
:101bfc002300370024003700250037002000370071
:101c0c001f0037001e0037001d0037001e00370074
:101c1c001f0037001c0037001d003700180037006c
:101c2c001700370016003700150037001400370076
:101c3c00130037001400370015003700120037006e
:101c4c001300370010003700110037000e0037006a
:101c5c000f0037000c0037000d0037000a0037006a
:101c6c000b00370006003700050037000400370072
:101c7c000700370002003700010037000200370070
:101c8c0014c0b3000300370024c0b30001003700b8
:101c9c000042eb00044078000080fa0000000600cf
:101cac000400fa00881f7800004f78001147980054
:101cbc00120798000002eb00144088000e84e80024
:101ccc001e409000b2ff07000042780088017800a7
:101cdc00044178009e4090001e40780074ff07007d
:101cec004f0478000080fa00000006000200fa00a1
:101cfc00004f7800114798000002eb001440880058
:101d0c001e409000a2ff07000042780004417800ba
:101d1c009e4090001e40780056ff07000080fa009d
:101d2c00000006000c00fa00881f7800008fbe002f
:101d3c00220798003307980044079800550798002d
:101d4c0018c0b3002e019000be0190001e00be0012
:101d5c00eefa070000027800e00f52000100350097
:101d6c000044eb00e04f5400030032002e029000c0
:101d7c00be0290000f00370018c0b3004e01900057
:101d8c00de0190001e00be00e2fa0700000278009f
:101d9c00e00f520001003c000044eb00e04f540007
:101dac00030032004e029000de029000010037006a
:101dbc001e02be000400be004f0478000080fa0032
:101dcc00000006000c00fa00008fbe0022079800ed
:101ddc003307980044079800550798002e0290008e
:101dec00be0290001e03be00840f5300858f5b0063
:101dfc0003003d002e029000be0290000a00370046
:101e0c004e029000de0290001e03be00840f5300b1
:101e1c00858f5b00030034004e029000de029000c0
:101e2c00010037001e02be000400be000080fa0054
:101e3c00000006000800fa00881f780020079800b0
:101e4c00310798002e029000be02900005f0a10010
:101e5c0018c0b300b2fd2000930424000400be009f
:101e6c00aafa070000027800e00f520001003500ca
:101e7c000044eb00e04f5400030032002e029000af
:101e8c00be0290002a003700b2fd2000930c240003
:101e9c002e009000be009000c3fa07000002be00a6
:101eac00048fbe0018c0b300b2fd200093042c00b8
:101ebc001e00be0095fa070000027800e00f5200e9
:101ecc00010035000044eb00e04f540006003200e6
:101edc00b2fd2000930c24001e00be00ecf907009c
:101eec000002be00048fbe0018c0b300b2fd20007b
:101efc00930424001e00be0086fa0700000278003e
:101f0c00e00f520001003c000044eb00e04f540095
:101f1c0006003200b2fd2000930c24001e00be000f
:101f2c00daf907000002be00048fbe001e02be00dc
:101f3c000400be004f0478000080fa000000060088
:101f4c000000fa00c8e2a800cee2a80081e0a900d7
:101f5c000082eb0064198800a2022000d1552900f0
:101f6c0000402c00b5f90700d0f52f008cf90700c4
:101f7c0051c32000d0fa2d007ff90700c0ff2f00bd
:101f8c006bf907008820a900a40580000440a1007b
:101f9c000450a0000460a100a40588009820a800ab
:101fac000080fa00000006000000fa00c122a80020
:101fbc00d062a8006380a8006405800004c0a00063
:101fcc0004d0a00004e0a100640588009660a8007d
:101fdc008660a9000080fa00000006003600f800b8
:101fec00809fbe00829fbe00849fbe00869fbe0065
:101ffc003400f80000002000a00188000000fa0066
:10200c0084e0a900240f800084408800a40f800085
:10201c0094408800a4408000b5408000c6408000f9
:10202c00d74080000401be000600be00cbfb0700b9
:10203c000080fa003400f9004f03be004f02be00ce
:10204c004f01be004f00be003600f90000400600f4
:10205c00849fbe00861f78000000fa0087c0a9008c
:10206c00241680006402620004f0a7000402ea0057
:10207c000402e9004f22de00044278000482fb00d7
:10208c00610262004222dd0026168000b5ff2f009f
:10209c008502630005027200241688000080fa0095
:1020ac004f0378004f02be00004006000000fa000b
:1020bc0087e0a9000080fa00004006000000fa004a
:1020cc00c442a8008820a9000080fa000040060045
:1020dc003600f800809fbe00829fbe00849fbe0029
:1020ec00869fbe000000fa00941680006802620011
:1020fc00e00f52000300320000d022001113200028
:10210c002a0007008660a9000080fa004f03be0079
:10211c004f02be004f01be004f00be003600f9005a
:10212c00004006000000fa00353a800004e02f0061
:10213c00848262006409200005027200343a88002f
:10214c00253a800004fe2f00048262005400b30084
:10215c00243a8800243a80000460a1000470a10095
:10216c00243a880000000000153a80000402200088
:10217c0004826200e00f5200fbff32000080fa0084
:10218c00000006000000fa00e6ff07006cff0700e5
:10219c0000d02200111320000400070024fb0700cc
:0c21ac0045fb07000080fa000000060060
:020000040000fa
:1021b800f03fb1000180b10006003500ee030900d0
:1021c80000000000403fb1000180b100fbff3d006e
:1021d8001000b000203fb000020035000080090068
:0821e8000000000000000600e9
:020000040000fa
:1021f000100800000c0000000000000000080000b3
:1022000010000000000000001c0800000200000098
:1022100002000000fbff00001e080000020000009a
:082220000000000000000000b6
:020000040000fa
:102228000400fa00000f780011079800d6ff070095
:102238001200200031c0b300e0cfb30099fe0700c0
:04224800fbff370061
:020000040000fa
:0200000401f009
:04000c0079ff000078
:020000040000fa
:0200000401f009
:04001000bbff000032
:020000040000fa
:0200000401f009
:040014007fff00006a
:020000040000fa
:0200000401f009
:040018007fff000066
:020000040000fa
:0200000401f009
:04001c00ddff000004
:00000001FF
