:020000040000fa
:080000000002040000000000f2
:020000040000fa
:100008009a0200009a0200009a0200009a02000078
:100018009a0200009a0200009a0200009a02000068
:100028009a0200009a0200009a0200009a02000058
:100038009a0200009a0200009a0200009a02000048
:020000040000fa
:020000040000fa
:100400002f8020000e7f24000e01880000000000d5
:10041000000020000000e000020032000001200087
:10042000200288000c000700e0bf2000010020002f
:1004300011000700000020000000e0000200320070
:100440000000020000000000f00b020000000000ad
:100450000040da000000fe004440a9000000200037
:100460000000e0000300320000002000a00188002e
:100470004440a80000000600910188008000780038
:100480000000eb0015003700e280400032a0b4000d
:100490009101ba00e280400032a0b4009102ba009b
:1004a000e280400032a0b4000002eb00472bde00e7
:1004b000f507b200602ce10004003a000059eb009f
:1004c0008301e900fdff3e00040037006128e100e0
:1004d000010032000082eb00040007001101ba00a5
:1004e0000200e000e8ff3a00000006003159ba00bf
:1004f0008301e9000c0032002159ba008301e900b0
:10050000080032000400e00003003a00e2804000ee
:1005100032a0b400f5ff370011d9ba008301e90019
:10052000faff3a008100e800e180400032a0b40008
:10053000000006000040da000000fe0003f0a20008
:10054000889fbe008a9fbe008c1f78004e01070066
:10055000550133006450e1004f0032006420e10097
:100560005200320003826c0007003b000905d000f6
:100570000306d000820f54000c065d000200390013
:100580000200320089017800030678008582550058
:1005900004003d000003fd008103fd008502ea0028
:1005a0008b854200840f720002003b006000100047
:1005b000e08018006011b8000005eb007a28e10027
:1005c0000a00390006007800c75ddd00f707b200b9
:1005d000878075002d003700828171000a01780044
:1005e000610560008180d1000080d3008502e900b0
:1005f000f9ff3b00060440008784480002003b00ee
:1006000060041400e0841c000988a3000700320085
:100610008a81710082817100610164008904d100c6
:100620000884d3008b05e800170037000978a30081
:1006300013003a000b00e000130034008b05e900c2
:100640000804440089844c000a4474000978a3001b
:100650000d003a000b00e000070034008b05e900b4
:100660000804440089844c0001003a000b0020007b
:100670000978a300f7ff32000001eb000200370009
:10068000828171000a017800c40007000cf0a70005
:1006900001f0a0000d0137006420e10002003a00e3
:1006a000838f6c000d0133000801be000200be0004
:1006b00006013700889fbe008a9fbe008c1f78000d
:1006c000f1000700f800330003866c006450e1007d
:1006d0002e0032006420e100330032006150e1005e
:1006e0002f0032006120e100310032008585550085
:1006f000eb07b000090020000804200005003700c7
:100700000804440089844c000a00310006034300b9
:1007100087834b000001530081815b00f8ff3300a9
:100720000203be000800a0000804440089844c00b5
:10073000f6ff3900c639dd00830173000100320085
:10074000130020008904d1000884d3000998a30075
:10075000050032000800a7000300a0008904d100b2
:100760000884d3008b05e8008904d1000884d300f5
:100770000001eb000281d2008800070001f0a10017
:100780000cf0a70001f0a000d00037006420e100c9
:10079000d20032000801be000200be00f7ff3700a1
:1007a0006120e100cd0032006000b800f3ff3700a7
:1007b0000000200001f82700f0ff3700140020009f
:1007c000fd003700f4ff2f00fb0037000001be00e2
:1007d000980007000470a70003f0a1006509b100ac
:1007e000160032000d0035006828e10006003500d3
:1007f000f0ff2f00f1ff27000300e00013003b0093
:100800000100280000000500000040008180480031
:100810008502e900fcff3a0008003700f88f42002b
:1008200002003c008000eb00000005008100d100c8
:100830000080d3008502e800fcff3a000300e000de
:1008400002003b0060001000e0801800000006007d
:100850006011b800f30037000400200000003700ea
:10086000889fbe008a9fbe008c1f78004f26dd0047
:10087000850007008c0033006120e1004300320056
:100880006250e10041003e003e0039006420e1007a
:100890003c003200058255000f003b000402e800d6
:1008a00038003a00800f5300818f5b003500340020
:1008b0000800be0003f0a10001f0a60003f0a000b4
:1008c0000cf0a7001eff070080003700060343005e
:1008d00087834b000c4646000005530081855b0072
:1008e000020033000a03be000c00a0000402e9006d
:1008f000f6ff3b00850578000602430087824b0027
:1009000004003a006000b80009f0a70001f0a00060
:100910006e0037000002520081825a000704e00096
:10092000040033000603430087834b008b05e90076
:10093000faff3700090578000604be000203be0076
:100940006011b80015000700e00f5200e08f5a0058
:100950000700350002003c000c08a3000400320030
:100960000601be0003f0a0000cf0a700f4fe070093
:100970000a85680001f0a1000af0a70001f0a000bc
:10098000520037000800be0050003700100220005f
:100990000cf0a600004088005000370081002000c5
:1009a000618055000b003d000b00200061fe2f0010
:1009b0000100e1001d0034008281710061016400ca
:1009c0008904d1000884d3000000e800faff3a004f
:1009d00071002000610064000300700002006000ec
:1009e0000900320061044400e0844c000988a5003d
:1009f000050032008b05e8006808e10002003a00bb
:100a00008904d1000884d300f20f20000258e100cd
:100a100005003d00c75ddd00f907b2008980750063
:100a200008007800000006000bf827008b00780013
:100a300000000500c70ade00f107b200f50fb200a2
:100a400008003200e1cf4200020032000170a00035
:100a500024000500810f7000010032000408050029
:100a600044000500810f700002003a0014000500e8
:100a70008502e9000000400081c04800fcff3b0007
:100a80000170a000240005000004be00e9ff07007b
:100a90000003be000405be000200be00e5ff070023
:100aa000844f7500000006000200be006450e100a3
:100ab000050036006420e100020036000968a3004a
:100ac00001003a000800be000160a0004f06780057
:100ad0004f05be004f04be0000000600f0ff2f00cf
:100ae000f1ff2700f9ff3700889fbe008a9fbe00f4
:100af0008c1f7800e4ff0700ebff330003866c00d7
:100b00006450e100240032006420e100270032003c
:100b10006150e100220032006120e100210032003a
:100b20008b854200eb07b1000134b800003ab800f1
:100b30000804420089844a00013ab8000030b80035
:100b40008880400009014a00040033000000400092
:100b500081804800020149008b05e900c909dd00d8
:100b6000830170000100320013002000c814de0071
:100b70004814dd004709de001200b200c808de009c
:100b80000884700085ff070001f0a1000cf0a700a9
:100b900001f0a000cdff37006120e100cfff32005f
:100ba0000801be000200be00f7ff37006150e100ff
:100bb000fcff3a00c9ff3700889fbe008a9fbe0035
:100bc000841f7800b0ff07004f0078001100330049
:100bd000f0ff2f00838f6c0006003b0004056500ca
:100be0000a00a7000800370009f0a6001000200046
:100bf00008003700820f5400838f5c000300390027
:100c00001000200001003e000000200009f0a700b5
:100c10000000ea004f05be004f04be000000e000e7
:100c200000000600889fbe008a9fbe000082700000
:100c30000402710004827100260032000004be002c
:100c40000200be006011b8006b0920009502200070
:100c50000182cf000a0039000541b1000082cf00b7
:100c6000070039000541b1000982cf0004003900b6
:100c70000541b1000882cf00010039000541b100f3
:100c800005425200120032000a003b0082817100ce
:100c9000610164008100d1000080d3008984d30009
:100ca0000884d3008b05e8000442e800f7ff3a000f
:100cb000070037000804440089844c000000480005
:100cc000818048008b05e9000442e900f9ff3a0001
:100cd00032ff07004f05be004f04be0000000600b3
:020000040000fa
:100ce0000000fa00c1e1a800040e80000420a10069
:100cf0000430a100040e8800040e80000400a1004e
:100d00000410a100040e8800c45d2000240e880099
:100d1000c921a800c941a800c881a800c8a1a9008c
:100d2000c8c1a800c801a900c821a900c841a900dc
:100d30000002eb00b40e88000002eb00d40e880025
:100d4000c922a900c962a900c9a2a900c142a9007b
:100d5000cd22a900cd62a900cda2a900c542a9005b
:100d60000080fa00000006000000fa00e1a1a800df
:100d7000040f80000480a1000490a00004a0a00043
:100d8000040f8800e041a900e021a900e5348000bb
:100d900004fe2f00048262006401b300e434880082
:100da000e5348000f40f2e0084826200049021005c
:100db00005027200e4348800f1a1a800840f8000cd
:100dc0000480a1000490a00004a0a000840f88006b
:100dd000f041a900f021a9000535800004fe2f0094
:100de000048262007401b300043588000535800078
:100df000f40f2e008482620004802100050272003c
:100e0000043588000080fa00000006000a00fa009d
:100e1000881f780010079800210798003207980073
:100e200043079800180020006011b8003e009000b1
:100e3000ce00900063fe070000027800e00f520031
:100e400001003d000004eb00080f78001e0278004e
:100e500004427800614262000482fb006102620089
:100e60004922dd0066168000f5df2f008502630051
:100e700005027200641688001e02780004f0a700c4
:100e80000402ea000402e9004f22de000442780076
:100e90000482fb00610262004b22dd0066168000c6
:100ea000f57f2f008502630005027200641688003a
:100eb000180020006011b8001e009000ae009000e5
:100ec00040fe070000027800e00f520001003d00e4
:100ed0000004eb00080f78001e02780004f0a70061
:100ee0000402ea000402e9004f22de000442780016
:100ef0000482fb00610262004d22dd006616800064
:100f0000f5ff2d008502630005027200641688005b
:100f10001e02780004427800614262000482fb00f5
:100f2000610262004a22dd0026168000f5bf2f0014
:100f3000850263000502720024168800c45d20004b
:100f4000240e880004002000852c240002002000cc
:100f5000832c2c001e009000ae009000670107005b
:100f60000002be0014079800250798000400200026
:100f7000852c240002002000832c2c003e009000d1
:100f8000ce0090005d0107000002be00340798000b
:100f9000450798001e029000ae02900005f0a100e7
:100fa00002002000031f24000400be00cefe070044
:100fb0000002be000400be0004fe07000002be00e6
:100fc00004027800b40e88003e029000ce02900029
:100fd00005f0a10002002000031f24000400be0051
:100fe000c1fe07000002be000400be00f7fd0700be
:100ff0000002be0004027800d40e88004f0478007e
:101000000080fa00000006000e00fa00881f780039
:1010100010079800210798003207980043079800ae
:101020005407980065079800180020006011b80068
:101030005e009000ee009000e2fd070000027800e4
:10104000e00f520001003d000004eb00080f7800a3
:101050001e02780004427800614262000482fb00b4
:10106000610262004922dd0066168000f5df2f0074
:101070008502630005027200641688001e02780073
:1010800004f0a7000402ea000402e9004f22de0097
:10109000044278000482fb00610262004b22dd0002
:1010a00066168000f57f2f0085026300050272003e
:1010b00064168800180020006011b8003e009000ff
:1010c000ce009000bffd070000027800e00f520044
:1010d00001003d000004eb00080f78001e027800bc
:1010e00004f0a7000402ea000402e9004f22de0037
:1010f000044278000482fb00610262004d22dd00a0
:1011000066168000f5ff2d0085026300050272005f
:10111000641688001e027800044278006142620072
:101120000482fb00610262004a22dd002616800074
:10113000f5bf2f00850263000502720024168800a7
:101140001e019000ae0190000068290081c12400ba
:1011500058fd07000002be000400be009bfd070012
:101160000003be0004d0270005002000c25d20005f
:10117000030020000600be00080107000002be00b8
:1011800004027800240e880004002000852c24002e
:1011900002002000832c2c003e009000ce00900026
:1011a000d60007000002be003407980045079800eb
:1011b00004002000852c240002002000832c2c0039
:1011c0005e009000ee009000cc0007000002be0020
:1011d0005407980065079800240e8000040242001e
:1011e000050020000400be0099fd07000003be00ba
:1011f0003e029000ce02900005f0a1000401be0066
:101200000600be0038fe07000002be0002002000fb
:10121000832c24000400be0026fd07000002be004f
:101220003407980045079800240e8000040242000d
:10123000050020000400be0085fd07000003be007d
:101240005e029000ee02900005f0a1000401be00d5
:101250000600be0024fe07000002be0002002000bf
:10126000832c24000400be0012fd07000002be0013
:1012700054079800650798003e009000ce0090004b
:1012800052fd07000003be0004a02f00050020004f
:101290006011b8000600be00c00007000002be00da
:1012a00004027800b40e88005e009000ee0090000a
:1012b00046fd07000003be0004a02f00050020002b
:1012c0006011b8000600be00b40007000002be00b6
:1012d00004027800d40e88004f0478000080fa00e1
:1012e000000006000600fa00881f7800100798002a
:1012f00021079800180020006011b8001e0090001f
:10130000ae0090002ffd070000027800e00f5200b1
:1013100001003d000004eb00080f78001e02780079
:1013200004f0a7000402ea000402e9004f22de00f4
:10133000044278000482fb00610262004d22dd005d
:1013400066168000f5ff2d0085026300050272001d
:10135000641688001e027800044278006142620030
:101360000482fb00610262004a22dd002616800032
:10137000f5bf2f0085026300050272002416880065
:10138000c45d2000240e880004002000852c240069
:1013900002002000832c2c001e009000ae00900064
:1013a000560007000002be001407980025079800a9
:1013b0001e029000ae02900005f0a1000200200085
:1013c000031f24000400be00c7fd07000002be008a
:1013d0000400be00fdfc07000002be00040278000d
:1013e000b40e88004f0478000080fa000000060068
:1013f0000600fa00881f780010079800210798005f
:10140000180020006011b8001e009000ae0090008f
:10141000ecfc070000027800e00f520001003d00e4
:101420000004eb00080f78001e02780004427800e8
:10143000614262000482fb00610262004922dd0019
:1014400066168000f5df2f0085026300050272003a
:10145000641688001e02780004f0a7000402ea0067
:101460000402e9004f22de00044278000482fb00ff
:10147000610262004b22dd0066168000f57f2f00be
:10148000850263000502720064168800c45d2000b6
:10149000240e880004002000852c24000200200077
:1014a000832c2c001e009000ae009000130007005b
:1014b0000002be0014079800250798001e02900045
:1014c000ae02900005f0a10002002000031f2400de
:1014d0000400be0084fd07000002be000400be0040
:1014e000bafc07000002be0004027800d40e880097
:1014f0004f0478000080fa00000006000c00fa009b
:10150000881f7800008fbe002207980033079800dc
:10151000440798005507980018c0b3002e019000aa
:10152000be0190001e00be00a4fc0700000278006f
:10153000e00f5200010035000044eb00e04f540082
:10154000030032002e029000be0290000f00370010
:1015500018c0b3004e019000de0190001e00be00d6
:1015600098fc070000027800e00f520001003c00e8
:101570000044eb00e04f5400030032004e029000a4
:10158000de029000010037001e02be000400be0013
:101590004f0478000080fa00000006000c00fa00fa
:1015a000008fbe0022079800330798004407980078
:1015b000550798002e029000be0290001e03be0048
:1015c000840f5300858f5b0003003d002e029000c6
:1015d000be0290000a0037004e029000de0290002a
:1015e0001e03be00840f5300858f5b000300340090
:1015f0004e029000de029000010037001e02be0085
:101600000400be000080fa00000006000800fa0096
:10161000881f780020079800310798002e0290005c
:10162000be02900005f0a10018c0b300b2fd20007a
:10163000930424000400be0060fc07000002780050
:10164000e00f5200010035000044eb00e04f540071
:10165000030032002e029000be0290002a003700e4
:10166000b2fd2000930c24002e009000be009000dc
:1016700079fc07000002be00048fbe0018c0b30052
:10168000b2fd200093042c001e00be004bfc07009e
:1016900000027800e00f5200010035000044eb002a
:1016a000e04f540006003200b2fd2000930c2400ed
:1016b0001e00be00a2fb07000002be00048fbe0099
:1016c00018c0b300b2fd2000930424001e00be0029
:1016d0003cfc070000027800e00f520001003c00d3
:1016e0000044eb00e04f540006003200b2fd200041
:1016f000930c24001e00be0090fb07000002be00f9
:10170000048fbe001e02be000400be004f0478001d
:101710000080fa00000006000000fa00353a800060
:1017200004e02f0084826200640920000502720038
:10173000343a8800253a800004fe2f0004826200bb
:101740005400b300243a8800243a80000460a100c9
:101750000470a100243a880000000000153a8000bf
:101760000402200004826200e00f5200fbff3200fe
:101770000080fa00000006000000fa00e6ff070003
:1017800000d02200111320000700070054fd0700bd
:1017900075fd070000d02200111320000200070091
:0817a0000080fa0000000600c1
:020000040000fa
:1017a800f03fb1000180b10006003500ee030900ea
:1017b80000000000403fb1000180b100fbff3d0088
:1017c8001000b000203fb000020035000080090082
:0817d800000000000000060003
:020000040000fa
:1017e0000400fa00000f7800110798000002eb00d7
:0c17f000040078000080fa0000000600f1
:020000040000fa
:1017fc0000080000020000000000000000000000d3
:00000001FF
