:020000040000fa
:080000000002040000000000f2
:020000040000fa
:100008009a0200009a0200009a0200009a02000078
:100018009a0200009a0200009a0200009a02000068
:100028009a0200009a0200009a0200009a02000058
:100038009a0200009a0200009a0200009c1e00002a
:100048009a0200009a0200009a020000f01e0000c6
:10005800f81e00009a0200009a0200009a020000ae
:100068009a0200009a0200009a0200000a1f00008b
:100078009a0200009a0200009a0200009a02000008
:100088009a0200009a0200009a0200009a020000f8
:100098009a0200009a020000e01e0000e81e00001c
:1000a8009a020000001f00009a0200009a02000055
:1000b8009a0200009a0200009a0200009a020000c8
:1000c8009a0200009a0200009a0200009a020000b8
:1000d8009a0200009a0200009a0200009a020000a8
:1000e8009a0200009a0200009a0200009a02000098
:1000f8009a0200009a0200009a0200009a02000088
:100108009a0200009a0200009a0200009a02000077
:100118009a0200009a0200009a0200009a02000067
:100128009a0200009a0200009a0200009a02000057
:100138009a0200009a0200009a0200009a02000047
:100148009a0200009a0200009a0200009a02000037
:100158009a0200009a0200009a0200009a02000027
:100168009a0200009a0200009a0200009a02000017
:100178009a0200009a0200009a0200009a02000007
:100188009a0200009a0200009a0200009a020000f7
:100198009a0200009a0200009a0200009a020000e7
:1001a8009a0200009a0200009a0200009a020000d7
:1001b8009a0200009a0200009a0200009a020000c7
:1001c8009a0200009a0200009a0200009a020000b7
:1001d8009a0200009a0200009a0200009a020000a7
:1001e8009a0200009a0200009a0200009a02000097
:0801f8009a0200009a020000c7
:020000040000fa
:100208009a0200009a0200009a0200009a02000076
:100218009a0200009a0200009a0200009a02000066
:100228009a0200009a0200009a0200009a02000056
:100238009a0200009a0200009a0200009c1e000028
:100248009a0200009a0200009a020000f01e0000c4
:10025800f81e00009a0200009a0200009a020000ac
:100268009a0200009a0200009a0200000a1f000089
:100278009a0200009a0200009a0200009a02000006
:100288009a0200009a0200009a0200009a020000f6
:100298009a0200009a020000e01e0000e81e00001a
:1002a8009a020000001f00009a0200009a02000053
:1002b8009a0200009a0200009a0200009a020000c6
:1002c8009a0200009a0200009a0200009a020000b6
:1002d8009a0200009a0200009a0200009a020000a6
:1002e8009a0200009a0200009a0200009a02000096
:1002f8009a0200009a0200009a0200009a02000086
:100308009a0200009a0200009a0200009a02000075
:100318009a0200009a0200009a0200009a02000065
:100328009a0200009a0200009a0200009a02000055
:100338009a0200009a0200009a0200009a02000045
:100348009a0200009a0200009a0200009a02000035
:100358009a0200009a0200009a0200009a02000025
:100368009a0200009a0200009a0200009a02000015
:100378009a0200009a0200009a0200009a02000005
:100388009a0200009a0200009a0200009a020000f5
:100398009a0200009a0200009a0200009a020000e5
:1003a8009a0200009a0200009a0200009a020000d5
:1003b8009a0200009a0200009a0200009a020000c5
:1003c8009a0200009a0200009a0200009a020000b5
:1003d8009a0200009a0200009a0200009a020000a5
:1003e8009a0200009a0200009a0200009a02000095
:0803f8009a0200009a020000c5
:020000040000fa
:10040000cf9a20000e7f24000e018800000000001b
:10041000000020000000e000020032000001200087
:10042000200288000c000700200a220001002000a2
:1004300011000700000020000000e0000200320070
:100440000000020000000000d022020000000000b6
:100450000040da000000fe004440a90040012000f6
:100460000000e0000300320000002000a00188002e
:100470004440a80000000600910188008000780038
:100480000000eb0015003700e280400032a0b4000d
:100490009101ba00e280400032a0b4009102ba009b
:1004a000e280400032a0b4000002eb00472bde00e7
:1004b000f507b200602ce10004003a000059eb009f
:1004c0008301e900fdff3e00040037006128e100e0
:1004d000010032000082eb00040007001101ba00a5
:1004e0000200e000e8ff3a00000006003159ba00bf
:1004f0008301e9000c0032002159ba008301e900b0
:10050000080032000400e00003003a00e2804000ee
:1005100032a0b400f5ff370011d9ba008301e90019
:10052000faff3a008100e800e180400032a0b40008
:10053000000006000040da000000fe000a00fa0099
:10054000e20f500022003e00544d8000e10f5200a7
:1005500006003200872320004623200024232000a9
:1005600005232000e08f530004003a00872220007a
:10057000462220002422200005222000000028001e
:100580001500600003003a00800b78000700280087
:10059000958a7300054020009482620001003a00b1
:1005a00014a0a000820278000600370094037800af
:1005b0000710b200fdff3200b103fb00070b78000b
:1005c0008502e900e08f5200f8ff3a00080037008a
:1005d00034002000c0bf9f00e2bf9f00b4bf9f0057
:1005e000d1bf9f006a805700290607006fb99700a6
:1005f000020078000080fa000000060084e0a900f4
:1006000067026000f5ff28004c22dd0036058000ff
:100610008682620068006000850272004300de008e
:100620003505880061006000f4f72f004700dd0009
:10063000a50480000502620004027000a404880082
:10064000000006000621ef0061088800800888008d
:100650001061a90000000600001020003202b60060
:100660000000e9004f00de00000006008560a900e0
:10067000670260008580a9004c22dd00f5ff28009c
:1006800046058000868262008502720000027800c2
:10069000450588000407b20085ff2f004422de00d4
:1006a0005605800086826200850272006802600042
:1006b000550588004322de00f57f2f0061026200ad
:1006c000a6048000868262004b22dd000008b20092
:1006d000850272004700de00a5048800610060000a
:1006e000f4ff2e004c00dd00a5048000050262002e
:1006f00004027000a40488000000060087c0a9005e
:100700006702600087e0a9004822dd00f58f2f0016
:1007100096058000868262008502720000027800e1
:10072000950588000407b200f5ff28004822dd0087
:100730009605800086826200850272006802600071
:10074000950588004322de00f5ff2b006102620060
:10075000b6048000868262004e22dd000008b200ee
:10076000850272004700de00b50488006100600069
:10077000f4ff27004f00dd00b50480000502620091
:1007800004027000b404880000000600901180008c
:1007900061406000000006004211880000118800de
:1007a0001111880000000600c21188008011880025
:1007b000911188000000060084118000660262002a
:1007c000e60f520002003a00b0118000000006005f
:1007d000b0118000f00fb20000000600041180008c
:1007e00066026200e60f520001003200f00fb20014
:1007f000201188000000060084118000660262005b
:10080000e60f520001003200f00fb200a011880084
:100810000000060003f0a200889fbe008a9fbe0071
:100820008c1f7800530107005a0133006450e10027
:100830004f0032006420e1005200320003826c005d
:1008400007003b000905d0000306d000820f5400ca
:100850000c065d00020039000200320089017800b8
:10086000030678008582550004003d000003fd006a
:100870008103fd008502ea008b854200840f72002f
:1008800002003b0060001000e08018006011b8001a
:100890000005eb007a28e1000a0039000600780024
:1008a000c75ddd00f707b200878075002d003700b7
:1008b000828171000a017800610560008180d100a9
:1008c0000080d3008502e900f9ff3b0006044000e8
:1008d0008784480002003b0060041400e0841c0090
:1008e0000988a300070032008a81710082817100ab
:1008f000610164008904d1000884d3008b05e800fd
:10090000170037000978a30013003a000b00e0003d
:10091000130034008b05e9000804440089844c006e
:100920000a4474000978a3000d003a000b00e000af
:10093000070034008b05e9000804440089844c005a
:1009400001003a000b0020000978a300f7ff3200f5
:100950000001eb0002003700828171000a0178007b
:10096000c90007000cf0a70001f0a0001201370039
:100970006420e10002003a00838f6c001201330012
:100980000801be000200be000b0137000081eb0031
:1009900044013700889fbe008a9fbe008c1f7800ec
:1009a000f4000700fb00330003866c006450e10094
:1009b0002e0032006420e100330032006150e1007b
:1009c0002f0032006120e1003100320085855500a2
:1009d000eb07b000090020000804200005003700e4
:1009e0000804440089844c000a00310006034300d7
:1009f00087834b000001530081815b00f8ff3300c7
:100a00000203be000800a0000804440089844c00d2
:100a1000f6ff3900c639dd008301730001003200a2
:100a2000130020008904d1000884d3000998a30092
:100a3000050032000800a7000300a0008904d100cf
:100a40000884d3008b05e8008904d1000884d30012
:100a50000001eb000281d2008b00070001f0a10031
:100a60000cf0a70001f0a000d30037006420e100e3
:100a7000d50032000801be000200be00f7ff3700bb
:100a80006120e100d00032006000b800f3ff3700c1
:100a90000000200001f82700f0ff370014002000bc
:100aa0006b013700f4ff2f00690137000001be0021
:100ab0009b0007000470a70003f0a1006509b100c6
:100ac000160032000d0035006828e10006003500f0
:100ad000f0ff2f00f1ff27000300e00013003b00b0
:100ae000010028000000050000004000818048004f
:100af0008502e900fcff3a0008003700f88f420049
:100b000002003c008000eb00000005008100d100e5
:100b10000080d3008502e800fcff3a000300e000fb
:100b200002003b0060001000e0801800000006009a
:100b30004f89de0082017800600137006011b80043
:100b40006e0137000400200000003700889fbe00bf
:100b50008a9fbe008c1f78004f26dd0085000700ad
:100b60008c0033006120e100430032006250e1005c
:100b700041003e003e0039006420e1003c003200ac
:100b8000058255000f003b000402e80038003a00df
:100b9000800f5300818f5b00350034000800be00d9
:100ba00003f0a10001f0a60003f0a0000cf0a700e4
:100bb00019ff0700800037000603430087834b00be
:100bc0000c4646000005530081855b00020033009f
:100bd0000a03be000c00a0000402e900f6ff3b007f
:100be000850578000602430087824b0004003a0026
:100bf0006000b80009f0a70001f0a0006e00370007
:100c00000002520081825a000704e0000400330011
:100c10000603430087834b008b05e900faff37008a
:100c2000090578000604be000203be006011b8008a
:100c300015000700e00f5200e08f5a000700350052
:100c400002003c000c08a300040032000601be00b4
:100c500003f0a0000cf0a700effe07000a85680073
:100c600001f0a1000af0a70001f0a0005200370037
:100c70000800be0050003700100220000cf0a60053
:100c8000004088005000370081002000618055003e
:100c90000b003d000b00200061fe2f000100e10071
:100ca0001d00340082817100610164008904d1005b
:100cb0000884d3000000e800faff3a007100200029
:100cc000610064000300700002006000090032004f
:100cd00061044400e0844c000988a500050032004e
:100ce0008b05e8006808e10002003a008904d100a1
:100cf0000884d300f20f20000258e10005003d00f7
:100d0000c75ddd00f907b200898075000800780032
:100d1000000006000bf827008b007800000005009b
:100d2000c70ade00f107b200f50fb200080032007a
:100d3000e1cf4200020032000170a0002400050053
:100d4000810f700001003200040805004400050016
:100d5000810f700002003a00140005008502e900ce
:100d60000000400081c04800fcff3b000170a00073
:100d7000240005000004be00e9ff07000003be00d8
:100d80000405be000200be00e5ff0700844f7500a9
:100d9000000006000200be006450e10005003600bd
:100da0006420e100020036000968a30001003a0057
:100db0000800be000160a0004f0678004f05be008d
:100dc0004f04be0000000600f0ff2f00f1ff2700d7
:100dd000f9ff3700889fbe008a9fbe008c1f7800f5
:100de000e4ff0700ebff330003866c006450e10072
:100df000240032006420e100270032006150e1004d
:100e0000220032006120e100210032008b85420087
:100e1000eb07b1000134b800003ab8000804420002
:100e200089844a00013ab8000030b8008880400048
:100e300009014a000400330000004000818048009e
:100e4000020149008b05e900c909dd00830170003a
:100e50000100320013002000c814de004814dd0039
:100e60004709de001200b200c808de0008847000e6
:100e700085ff070001f0a1000cf0a70001f0a00021
:100e8000cdff37006120e100cfff32000801be0036
:100e90000200be00f7ff37006150e100fcff3a009e
:100ea000c9ff3700889fbe008a9fbe008c9fbe008e
:100eb000820578000004be0099ff07000800be000c
:100ec0006420e1000700390002003a00f1ff27002a
:100ed000f0ff2f000160a0001202200002408800f5
:100ee000550037006120e10003003a000b00a70025
:100ef00001f823005000370001f0a100020021009a
:100f000093642400e5fe07000800be0004003500dd
:100f1000b2fd2000930c24000aff07000004be006d
:100f20000005eb000b00a6004f0dde0001f0a10054
:100f30000004be0032982f0023ea2300a5ff07001b
:100f40000001eb0003f023000b00a70003f82300cf
:100f500031fe0700d5fe07000000a7000a00a2002e
:100f6000f3fe07000b00e000030032000200200047
:100f700003f0230027fe070001f0a2000006be00d8
:100f8000020020009304240092ff07000801be0025
:100f900021fe0700809fbe000c00be0022a22a0096
:100fa000d3a723008bff07004f01be001afe0700e6
:100fb0000004be0001f0a1000200200003982300fd
:100fc000b6fe07000800be00190035000001be0093
:100fd00080ff07000006be00b2c52900e3622300bf
:100fe0007cff070022222b00f3942b000afe07004f
:100ff0000c01be0077ff0700e273280083c02300c6
:1010000005fe07000c01be0072ff070042aa2a007d
:10101000a3e22b0000fe07000c01be006dff0700dd
:101020000801be006bff07000801be00fafd0700c3
:101030000a00a70001f0a2004f06be004f05be0047
:101040004f04be00000006000001eb0095ff3700d2
:10105000889fbe008a9fbe00841f780045ff07005e
:101060004f00780011003300f0ff2f00838f6c00d9
:1010700006003b00040565000a00a70008003700d1
:1010800009f0a6001000200008003700820f54006d
:10109000838f5c00030039001000200001003e0037
:1010a0000000200009f0a7000000ea004f05be0084
:1010b0004f04be000000e00000000600881f78001a
:1010c000030478000300e00007003d00600010000a
:1010d000e080180060011900e081190002003b0067
:1010e00001f02d00030037000400070008f0a700fe
:1010f00001f0a0004f04780000000600889fbe00a9
:101100008a9fbe0000827000040271000482710098
:10111000260032000004be000200be006011b800cc
:101120006b092000950220000182cf000a003900df
:101130000541b1000082cf00070039000541b10030
:101140000982cf00040039000541b1000882cf00b8
:10115000010039000541b100054252001200320081
:101160000a003b0082817100610164008100d100ae
:101170000080d3008984d3000884d3008b05e80065
:101180000442e800f7ff3a00070037000804440073
:1011900089844c0000004800818048008b05e900ec
:1011a0000442e900f9ff3a00b7fe07004f05be0010
:1011b0004f04be00000006008192200007003700a7
:1011c000809220000000fa0068815700cfb8970095
:1011d000460007000080fa0000000600889fbe005d
:1011e000010478008084eb0038029000e202620083
:1011f0003b00320004037800980290000620b20001
:1012000002003a00e08f520035003a000490a0003e
:101210008004780034049800f90fb200e08f520087
:1012200002003a00a8029000050c7800ea8f5400f2
:1012300005003a000408b20003003a008800780074
:10124000d0002000e5ff070018029000d8029000af
:10125000850f52000b0032000402e80015c0b300f5
:101260001404980018027800094a7800040ce80079
:10127000449a2000054a7800ea8f540018003a008a
:10128000050037000940780088007800be0207009a
:101290008004780012003700380290000410b20079
:1012a0000f00320018019000a80090004800900044
:1012b000a2fc070018029000840f500004003200c6
:1012c000380290000403b300340498008084eb00db
:1012d0000002eb001404980028029000040c78002f
:1012e000090078004f04be0000000600ef03b000c4
:1012f000889fbe008a9fbe008c9fbe0000067800bb
:101300008e1f78008006eb00e1af9f0082b79f0040
:1013100091023700efa8970054c2b3008100e800a3
:10132000e1af9f00844f500006003a0001027800b0
:101330008042eb0002c3b30001c2b300b0c2b300ed
:101340000e0037003c0290000404b200040032009a
:101350001c027800004a7800040ee80005003700ff
:101360000000fb008c0078009cff0700e10f4000ac
:10137000790232008d06e800770237000403780016
:10138000d3c2b300b443780083cf530009003200c6
:1013900005003c0081cf53000800320080cf53008d
:1013a0000c003a000700370082cf530009003a00d2
:1013b000060037000534a000f0ff37000504a00048
:1013c000eeff37000514a000ecff37000524a00055
:1013d000eaff370062826200010032000504a100ca
:1013e00068826200010032000524a1000702fb00b0
:1013f0000403b100e90f52000c003e0086037800a0
:101400000002eb006a20b9003702fb000403b100c0
:1014100007037800000242001700fb000003b10040
:10142000e90f5000f7ff3600080037000002eb001c
:10143000a0c2b30080cf530004003a008fb39700de
:101440000603e8004702780087b79f000007eb001b
:10145000e7c2b30096cf130009003a00e4c353007b
:10146000d6cf130002003200860378000a0037004e
:101470000fb097000603e8004007780080b79f0090
:101480008603780031c6b300c0c6b3000800370039
:101490006a71b90002074000070378003700fb00bb
:1014a0000003b100e90f5000f9ff3600f4ff3700e8
:1014b0000701780033c7b300324378008203780015
:1014c000834f53001a00320008003c00814f530044
:1014d0007b003200804f53000c003200e2af9f00cf
:1014e000e04f53002102320097003700e2af9f0027
:1014f00057c7b300874f530098003200e3c343003f
:10150000874f530090003a00060037007081620058
:1015100006c1b300010032000043eb0086c2720036
:10152000e3ff3700e6779f000574a0008e003700c8
:101530008fb3970036c7b300e2af9f00e6779f00f6
:101540004703780087b79f0006047800e00f530038
:1015500001003a0068972000880378000003eb0040
:10156000010037000603e80067407b00e04f5000b1
:10157000fcff3a0086047800e00f570003003200b9
:10158000890f5700010031008e0478000007eb003e
:10159000890f52000100360009075200e8826200fc
:1015a00004c2b30095b79f00110032002800370035
:1015b000bc0290000504b200040032009c027800d6
:1015c000844a7800050ee8000700370084bf9f00ba
:1015d0008c0078000002200000ff07000fba97007f
:1015e000e10f4000010032008d06e8000e07e9001f
:1015f000e00f5700eeff3a000087eb0014003700c1
:101600003c0290000404b200090032000802780095
:101610001c037800b4427800054b7800040478007d
:10162000060ee800e0cf520008003a00080037003c
:10163000080278008c0078003400fb000404780075
:10164000e6fe0700e10f4000010032008d06e800d1
:10165000090278008404e900e00f5200e8ff3a0034
:101660001fb0970004c2b300e00f500011003a0011
:10167000b9013700bc0290000504b200040032003a
:101680009c027800844a7800050ee80007003700c5
:1016900084bf9f008c00780000022000cffe07006e
:1016a0000fba9700e10f4000010032008d06e800fc
:1016b0000e07e900e00f5700eeff3a00a6013700e1
:1016c0008fb09700e2af9f00f08362004103780083
:1016d00081b79f0006007800cf80de00010178000e
:1016e0008201780090b79f00a1b79f00b2b79f001a
:1016f000c3b79f004800de00480bdd000000730008
:10170000e0779f00e08f530009003200e04f500067
:1017100007003200e14f400005003200afe39700c0
:10172000f0779f00877f9f0029002000030037008b
:101730002fe0970019002000f0779f0078fb2f0022
:101740000f0444008cff3700e6779f0068fb2f00f2
:101750000f0444001900200087ff3700e6779f0040
:1017600006ccb30086c272008582fb00f080620066
:1017700095b79f00f19f9f000e0032008fb2970037
:101780000003eb004501be008003eb00d2a79f00e1
:10179000e3a79f00f6a79f0087af9f0085b79f0034
:1017a0005fa49700efa497007fa597008fad9700e7
:1017b000060037000fb097004004780080b79f0004
:1017c000090020000a0020000b002000e00f570055
:1017d00007003a001e002000e00f5400e08f5c007c
:1017e000e00f5d00e08f5d00010032000007eb00bc
:1017f0009fb0970005082000010cb20091af9f0038
:10180000858f500010003200050c2000858f50009d
:1018100021003a00a680200015c0b3003600be00ab
:101820003601be000040e10001c8e10002d0e10045
:1018300003d8e100170039008542e800f4cf5200d8
:10184000f6ff3a001300370015c0b3000001200076
:10185000010020006011b8000040e10001c8e10073
:1018600002d0e10003d8e1000a0039004600200060
:101870000000d0008180d2000281d2008381d2009a
:101880000603e900faff3a008542e800f0cf520073
:10189000f1ff3a00e5779f00ef7397008702fb00a6
:1018a0008e8f520002003d00ee779f00030037004c
:1018b000850f570001003d0005077800e00f52003a
:1018c000040032009fb09700e38260000100320004
:1018d0000402e9006f7197008001eb008202fb00b7
:1018e000f3af9f00850f52000200340085025200c2
:1018f000f5af9f009fb297006482620046003200fd
:1019000005037800e202630061026300e08f520089
:1019100011003200bc0290000504b2000800320041
:101920009c027800b6c2b300e00f52000100320002
:1019300006c3e800864a7800050ee8001500370067
:10194000b0022000e00f5200010032000080e800e9
:101950008c0078000c003700e00f52000e003200bf
:101960003c0290000404b200050032001c02780022
:1019700005c2b300054a7800040ee80005003700f0
:101980008c0078000002200014fe0700e10f4000e8
:10199000010032008d06e800ffab9700e08f530096
:1019a00065003200a8af9f00b9af9f00caaf9f008b
:1019b000dbaf9f0004c3b30087047800bc02900033
:1019c0000504b200040032009c027800844a7800ca
:1019d000050ee8000700370084bf9f008c007800e8
:1019e00000032000fdfd07000fba9700e10f400043
:1019f000010032008d06e8008904e900efff3a009b
:101a0000f9af9f002fac9700bfac97004fad970088
:101a1000dfad970048003700ffa89700e08f500027
:101a20001f0032001fb19700680261001c003a00dd
:101a3000a8af9f00b9af9f00caaf9f00dbaf9f0068
:101a4000ffac970004c2b300bc0290000504b200d2
:101a5000040032009c027800844a7800050ee800f9
:101a60000700370084bf9f008c0078000002200030
:101a7000dafd07000fba9700e10f400001003200c5
:101a80008d06e8008904e900efff3a00f9af9f00f6
:101a90002fac9700bfac97004fad9700dfad97001c
:101aa0009fb09700e282600061826000e08f520088
:101ab00011003200bc0290000504b20008003200a0
:101ac0009c027800b6c2b300e00f52000100320061
:101ad00006c3e800864a7800050ee80015003700c6
:101ae000b0022000e00f5200010032000080e80048
:101af0008c0078000c003700e00f52000e0032001e
:101b00003c0290000404b200050032001c02780080
:101b100005c2b300054a7800040ee800050037004e
:101b20008c00780000022000acfd0700e10f4000af
:101b3000010032008d06e8008e02e90024802000ba
:101b40004229dd00c32add0082a79f0004824200f3
:101b50005d0037000e07e9009fa9970004082000e8
:101b6000848f510034003200040c2000848f510017
:101b70003f003a00ff9a9700e08f520022003200a7
:101b80002fa89700d89f9f00e99f9f003002be00ba
:101b90002003be000800be000401be0084bf9f00f9
:101ba000d5b79f00e6b79f00f7b79f00ba000700c0
:101bb0000fba9700e0779f00dfb297000000fb00ac
:101bc000cf80de000401be00c30007005f999700cc
:101bd000ef9997000002eb0000015100818159004c
:101be000c4a79f0092a79f00a3a79f008001eb00be
:101bf000b3a79f001fa49700afa497003fa597002d
:101c0000cfa5970008003700afaa9700150278000b
:101c1000110009000484d800a4002000110009006c
:101c20000480d800e1779f006f7397000643b000ef
:101c3000e6779f000e0037000802be000a03be00d0
:101c40000fa09700d19720000000e90005003300a5
:101c50008703d1000683d3008582d3000482d3009a
:101c6000f9ff37006f02620061427a00e4779f005b
:101c70003c0290000404b200070032009c0278008d
:101c80006f729700844a7800050ee800e04f52001a
:101c900007003a00070037006f7197008c0078004a
:101ca0000200fb004dfd0700e10f40000100320083
:101cb0008d06e8008fa19700e481510083a79f0063
:101cc0002faa970068025200a4af9f00e00f5700b0
:101cd000a0ff3a009fb29700688262001e003200a7
:101ce0007fab9700e00f53001b0034000802be00da
:101cf0000a03be00ffac97000ec2b3003c00900088
:101d00000004b200040032001c0078000e48780085
:101d1000000ee8000d00370084bf9f00d5b79f007c
:101d2000e6b79f00f7b79f008c0078000002200004
:101d30002afd07000fba9700dfb297006fb3970034
:101d4000ffb39700e10f4000010032008d06e8006c
:101d50008904e900e9ff3a00efab970017407800eb
:101d6000e0779f00e04f50006afd3a004f0778008f
:101d70000d0078004f06be004f05be004f04be00a8
:101d8000ef03b100000006000200fa00889fbe00c9
:101d900001047800a0ff9f003802900084027800c0
:101da0000504b200020032000000fb0035003700dd
:101db000e202620005003a000403b3001504980033
:101dc000340498000080eb002e003700d804900007
:101dd000e08f540006003a0012002000e680570011
:101de00048009000d5f90700190498002300370037
:101df000a8029000e08f520008003a00859a200067
:101e00000430a00025049800050c780034049800e4
:101e10002500200055049800150498001801900032
:101e2000a800900048009000c4f907002802900024
:101e30008082eb0015049800affa9700054a7800fd
:101e4000040ce8002ffa9700ea4f52000b003a000a
:101e5000380290000410b20008003200180190000f
:101e6000a800900048009000b4f907000002eb00c1
:101e7000a802900014049800050c78002ffa97002f
:101e80000400fb004f04be000080fa0000000600c2
:101e900000c0da00000006006022b8000602200040
:101ea0000000d0008180d2000482d2008582d2005e
:101eb0000000a0000202520083825a000300310099
:101ec0000202420083824a000000a1000603e900ea
:101ed000f3ff3a0000000600020ab900001bb90037
:101ee0000200b800810042008100430000000600ab
:020000040000fa
:101ef00061730000736500007276000020740000ba
:101f0000657200006d6900006ec30000a9650000e5
:081f1000202100000000000088
:020000040000fa
:101f18000000fa00668e20006022b800048bbe0024
:101f2800668e20006022b8002403980035039800cc
:101f3800e68e20006022b800048bbe00e68e2000ea
:101f48006022b80024039800350398000002eb00d3
:101f5800744888006022b800a4488800b548880002
:101f68006022b800c4488800d54888000080fa007c
:101f7800000006001400fa00889fbe004007980081
:101f8800510798006207980073079800040f98009b
:101f9800150f9800648e20001403be004e029000b6
:101fa800de0290000401be000600be000a04020022
:101fb800000000000002be00048fbe00648e2000f6
:101fc80024039000b40390006e029000fe0290007b
:101fd8000401be000600be000a0402000000000062
:101fe8000002be00240798003507980018c0b30007
:101ff800d2cc2c00c3d423001e00be004e05020024
:102008000000000000027800e00f520001003500d7
:102018000044eb00e04f54001700320018c0b30032
:10202800d2cc2c00c3d423002e009000be00900018
:102038004e0502000000000000027800e00f520088
:10204800010035000044eb00e04f54000a00320064
:10205800140020007448880084f72800841f780042
:10206800e0080200000000008f87e900a0002000bf
:10207800dc08020000000000b4478000c54780006b
:102088000401be001e00be000a0402000000000099
:102098000002be00f447880005488800b447800065
:1020a800c54780001e01be000400be000c040200eb
:1020b800000000000002be00d4478800e547880001
:1020c8001e02be00b4478800c54788001448800037
:1020d800254880000401be002e009000be0090003c
:1020e8000a040200000000000002be0054488800f4
:1020f8006548880014488000254880002e0190001b
:10210800be0190000400be000c04020000000000a4
:102118000002be0034488800454888002e0290001e
:10212800be0290001448880025488800b647800001
:10213800c7478000f44a8000054b80000401be00b8
:102148000600be00ea060200000000000002be0011
:102158000404be00d6478000e7478000144b800087
:10216800254b80000401be000600be00ea060200fe
:10217800000000000002be000401be000800be000e
:102188000c040200000000000002be000404be00af
:10219800f647800007488000344b8000454b80009c
:1021a8000401be000600be00ea06020000000000ae
:1021b8000002be000401be000800be000a040200be
:1021c800000000000002be000403be00a448800016
:1021d800b54880000401be000600be000c040200e1
:1021e800000000000002be00a4488800b54888002e
:1021f8001648800027488000544b8000654b8000bb
:102208000401be000600be00ea060200000000004d
:102218000002be000404be00364880004748800023
:10222800744b8000854b80000401be000600be0090
:10223800ea060200000000000002be000401be0021
:102248000800be000c040200000000000002be00ee
:102258000404be005648800067488000944b800004
:10226800a54b80000401be000600be00ea0602007d
:10227800000000000002be000401be000800be000d
:102288000a040200000000000002be000403be00b1
:10229800c4488000d54880000401be000600be0086
:1022a8000c040200000000000002be00c4488800c0
:1022b800d5488800a6488000b7488000c4488000f8
:1022c800d54880000401be000600be000a040200d2
:1022d800000000000002be000e0b9000048bbe0040
:1022e800a6488000b7488000c4488000d5488000d0
:1022f8000401be000600be000c040200000000003d
:102308000002be001e0b9000048bbe004f04be00ee
:102318000080fa00000006000800fa00881f780014
:10232800009fbe000297be00648e20001403be000a
:10233800e48e20001402be0018c0b3000401be00e1
:102348000600be004e0502000000000000027800f2
:10235800e00f5200010034000044eb00e04f54004d
:102368000e00320084488000e00f52000b003a0053
:10237800648e20001402be00a2702d0033b2230028
:102388000400be000c040200000000000002be00b1
:10239800668e2000048bbe001c003700648e20006f
:1023a8001403be00e48e20001402be0018c0b3005f
:1023b8000401be000600be00520502000000000035
:1023c80000027800e00f520001003c000044eb00de
:1023d800e04f54000d00320084488000e10f5200a5
:1023e8000a003a00648e20001402be00a2702d007c
:1023f80033b223000400be000a04020000000000fb
:102408000002be00668e2000048bbe00648e200091
:1024180024039000b4039000e48e2000b4029000de
:102428002402900018c0b3000401be000600be00dc
:102438004e0502000000000000027800e00f520084
:10244800010034000044eb00e04f5400100032005b
:1024580094488000e00f52000d003a00648e20007e
:10246800b402900024029000f226210033a8230031
:102478000400be000c040200000000000002be00c0
:10248800668e20002403980035039800200037004a
:10249800648e200024039000b4039000e48e200092
:1024a800b40290002402900018c0b3000401be00da
:1024b8000600be005205020000000000000278007d
:1024c800e00f520001003c000044eb00e04f5400d4
:1024d8000f00320094488000e10f52000c003a00cf
:1024e800648e2000b402900024029000f22621009d
:1024f80033a823000400be000a0402000000000004
:102508000002be00668e2000240398003503980060
:102518004f0478000080fa00000006001000fa005e
:10252800881f7800009fbe000297be0044079800ed
:102538005507980066079800770798004e029000a4
:10254800de029000e68e2000048bbe006e02900032
:10255800fe029000e68e20002403980035039800c0
:10256800e48e20001403be001e02be0018c0b30093
:102578000401be000600be00520502000000000073
:1025880000027800e00f520001003c000044eb001c
:10259800e04f5400030032000002eb00844888003a
:1025a800020037001400200084488800e48e2000d0
:1025b80024039000b40390002e029000be02900005
:1025c80018c0b3000401be000600be005205020098
:1025d8000000000000027800e00f520001003c00fb
:1025e8000044eb00e04f5400030032000002eb000f
:1025f800944888000200370014002000944888009e
:102608004f0478000080fa00000006000000fa007d
:10261800153a8000f40b2000048362006404200053
:102628007505200027742000844b7800854b7800be
:10263800864b780034358000f401b30034358800c7
:102648005536800004fe2f00048262005400b30057
:1026580054368800153a80000404200005037200ef
:10266800640420007505200027742000844b78003e
:10267800854b7800864b78000080fa000000060041
:102688000000fa00153a8000f40b20000483620071
:10269800640420007505200027742000844b78000e
:1026a800854b7800864b780035368000f40f2e0075
:1026b80004826200343688003535800004fe2f001d
:1026c800048262007400b30034358800153a800033
:1026d800040420000503720064042000750520002e
:1026e80027742000844b7800854b7800864b78004f
:1026f8000080fa00000006000200fa00004f78008f
:10270800000000009511800004202000048262006f
:10271800e00f5200fbff3a009e4278000582fb0062
:1027280004007800fc03020000000000e498200088
:10273800144278009e424200e4982000054a78003e
:102748000080fa00000006000400fa00004f78003c
:102758001147980022479800acff070000c0eb0023
:10276800e5ff070000c0eb00e3ff0700e498200046
:102778008042eb00054a78001e407800deff070023
:102788001e42900004c2e80004407800daff070007
:102798002e409000d8ff07000080fa0000000600d5
:1027a8000600fa0020479800210798000042eb0035
:1027b800044f7800080037009e4278000582fb002d
:1027c800ae0290000482420014427800044078006f
:1027d800c9ff07001e4fe8002e4290009e42780075
:1027e80084cf5200f4ff39000080fa000000060090
:1027f8000000fa00e49820001442780004c2ea00bd
:1028080004407800bcff0700000000002c03020011
:102818000000000000427800e04f5200fbff3a0041
:1028280097ff07000080fa00000006000200fa0087
:102838006e003700dc030200000000000002780090
:1028480004427800044f7800f44c8000e50f420001
:1028580006003a001e427800e14f420003003a00a9
:10286800c4ff2f00f44c880060003700f44c80004f
:10287800e40f42000c003a001e427800e14f42008b
:1028880009003a00d4ff2f00f44c8800e498200097
:102898008042eb00054a78002499200015c0b30057
:1028a8001542980051003700f44c8000e30f4200b5
:1028b80006003a00e4ff2f00f44c88009e4278009e
:1028c80024992000054a780048003700f44c80001d
:1028d800e20f420010003a001e427800e54f520015
:1028e8000d003e000082eb00f44c88002499200083
:1028f800944278001e42780084c24200e498200086
:10290800054a78001e42780084c2e9002499200014
:102918001542980035003700f44c8000e10f420062
:1029280007003a000002eb00f44c88008e027800a1
:102938002499200015037800160298002b00370010
:10294800f44c8000e00f5200150035002499200057
:10295800144290008482fb00f44c8000848f520063
:102968000f003400f44c80000403780065992000bf
:10297800850243001e437800864a78000402e80076
:10298800f44c8800e4982000944278001e427800b5
:1029980084c24200e4982000054a780013003700fa
:1029a80024992000144290008482fb00f44c80009b
:1029b800848f52000b003a009e427800e498200071
:1029c8001442780004c26200e04f520005003a0049
:1029d80014002000844c8800b4ff2f00f44c8800b9
:1029e80002003700b4ff2f00f44c8800c603020031
:1029f8000000000000427800e04f52008dff3a00ce
:102a08000080fa00000006000200fa00004f78007b
:102a180012c0b30021c0b3001e4078004aff07006f
:102a280073ff07000080fa00000006000400fa00a7
:102a3800004f7800114798002247980022c0b30041
:102a480021c0b3001e4078003fff07001e409000e1
:102a580029ff07002e40900027ff070064ff0700aa
:102a68000080fa00000006000600fa00004f780017
:102a78001147980022479800230798002e4290009b
:102a88000442e80032c0b300844078001e40780059
:102a98002dff07001e40900017ff0700ae009000b2
:102aa8002e4090003eff070051ff07000080fa000b
:102ab800000006000600fa00004f78001147980051
:102ac80022479800230798002e4290000442e8000d
:102ad80042c0b300844078001e4078001aff070007
:102ae8001e40900004ff0700ae0090002e409000aa
:102af8002bff07003eff07000080fa0000000600d9
:102b08000200fa00004f780052c0b3008040eb008a
:102b18001e4078000cff070035ff07000080fa0010
:102b2800000006000200fa00004f780062c0b300ff
:102b38008040eb001e40780003ff07002cff0700d1
:102b48000080fa00000006000200fa00004f78003a
:102b58009e4278000582fb00cfa2de00060320001b
:102b680007002000860f5200878f5a0036003e006b
:102b78000460010032003700330037002e003700b0
:102b88002d0037002c0037002b0037002c003700b1
:102b98002d0037002a0037002b0037002a003700a5
:102ba80025003700240037002300370024003700b1
:102bb80025003700200037001f0037001e003700af
:102bc8001d0037001e0037001f0037001c003700ab
:102bd8001d003700180037001700370016003700af
:102be80015003700140037001300370014003700b1
:102bf80015003700120037001300370010003700a7
:102c0800110037000e0037000f0037000c003700a6
:102c18000d0037000a0037000b00370006003700a8
:102c280005003700040037000700370002003700ae
:102c3800010037000200370014c0b300030037005a
:102c480024c0b300010037000042eb0004407800c4
:102c58000080fa00000006000400fa00881f7800cf
:102c6800004f780011479800120798000002eb0007
:102c7800844c88000e84e8001e409000b2ff0700d4
:102c88000042780088017800044178009e40900056
:102c98001e40780074ff07004f0478000080fa0097
:102ca800000006000200fa00004f78001147980063
:102cb8000002eb00844c88001e409000a2ff070031
:102cc80000427800044178009e4090001e40780041
:102cd80056ff07000080fa00000006000000fa0016
:102ce800c1e1a800040e80000420a1000430a10066
:102cf800040e8800040e80000400a1000410a10046
:102d0800040e8800c45d2000240e8800c921a80094
:102d1800c941a800c881a800c8a1a800c8c1a900c5
:102d2800c801a900c821a900c841a900c45d2000a4
:102d3800240e88000002eb00b40e88000002eb00ad
:102d4800c40e8800c0e2a900c962a900c9e2a900ae
:102d5800c9a2a900c4e2a900cd62a900cde2a900d8
:102d6800cda2a9000080fa00000006000a00fa00bf
:102d7800881f7800100798002107980032079800ec
:102d88004307980018c0b3006011b8003e009000d7
:102d9800ce009000520502000000000000027800fa
:102da800e00f520001003d000044eb00e04f5400ea
:102db80002003200cda2a80001003700cda2a90070
:102dc80018c0b3006011b8001e009000ae0090005b
:102dd800520502000000000000027800e00f5200d7
:102de80001003d000044eb00e04f540002003200b7
:102df800cde2a80001003700cde2a90018002000ac
:102e08006011b8001e009000ae0090004e05020050
:102e18000000000000027800e00f520001003500b9
:102e28000004eb00080f7800c45d2000240e880021
:102e380004002000852c240002002000832c2c0094
:102e48001e009000ae009000841f020000000000e9
:102e58000002be001407980025079800040020000f
:102e6800852c240002002000832c2c003e009000ba
:102e7800ce009000841f0200000000000002be0087
:102e880034079800450798001e029000ae02900093
:102e980005f0a10002002000031f24000400be006a
:102ea800ea060200000000000002be000400be00a6
:102eb80056050200000000000002be00040278006f
:102ec800b40e88003e029000ce02900005f0a100ea
:102ed80002002000031f24000400be00ea060200ce
:102ee800000000000002be000400be0056050200fb
:102ef800000000000002be0004027800c40e880032
:102f08004f0478000080fa00000006000e00fa0066
:102f1800881f78001007980021079800320798004a
:102f28004307980054079800650798001800200088
:102f38006011b8005e009000ee009000520502009b
:102f48000000000000027800e00f520001003d0080
:102f58000004eb00080f7800180020006011b8008a
:102f68003e009000ce0090004e05020000000000d8
:102f780000027800e00f5200010035000004eb0069
:102f8800080f78001e019000ae019000006829002b
:102f980081c12400ca040200000000000002be0033
:102fa8000400be0056050200000000000003be0039
:102fb80004d0270005002000c25d20000300200087
:102fc8000600be00d81f0200000000000002be007c
:102fd80004027800240e880004002000852c2400b8
:102fe80002002000832c2c003e009000ce009000b0
:102ff800841f0200000000000002be003407980091
:103008004507980004002000852c240002002000b9
:10301800832c2c005e009000ee009000841f0200bc
:10302800000000000002be005407980065079800e1
:10303800240e800004024200050020000400be00a7
:103048009e050200000000000003be003e02900042
:10305800ce02900005f0a1000401be000600be00eb
:10306800ea060200000000000002be000200200084
:10307800832c24000400be00ca04020000000000e3
:103088000002be003407980045079800240e80000f
:1030980004024200050020000400be009e05020054
:1030a800000000000003be005e029000ee029000e7
:1030b80005f0a1000401be000600be00ea060200f9
:1030c800000000000002be0002002000832c240043
:1030d8000400be00ca040200000000000002be0096
:1030e80054079800650798003e009000ce009000b5
:1030f80056050200000000000003be0004a02f00d7
:10310800050020006011b8000600be00d81f0200ac
:10311800000000000002be0004027800b40e88001f
:103128005e009000ee0090005605020000000000ce
:103138000003be0004a02f00050020006011b800a5
:103148000600be00d81f0200000000000002be00fa
:1031580004027800c40e88004f0478000080fa004a
:10316800000006000600fa00881f78001007980083
:1031780021079800180020006011b8001e00900078
:10318800ae0090004e05020000000000000278002a
:10319800e00f5200010035000004eb00080f780032
:1031a8001e02780004f0a7000402ea000402e90005
:1031b8004f22de00044278000482fb004f22dd002b
:1031c80066168000f5ff270085026300050272007d
:1031d8006416880004002000852c240002002000ca
:1031e800832c2c001e009000ae009000841f02006b
:1031f800000000000002be00140798002507980090
:103208001e029000ae02900005f0a100020020000e
:10321800031f24000400be00ea06020000000000ac
:103228000002be000400be005605020000000000b7
:103238000002be0004027800b40e88004f04780033
:103248000080fa00000006000600fa00881f7800d7
:103258001007980021079800180020006011b80096
:103268001e009000ae009000520502000000000011
:1032780000027800e00f520001003d000004eb005e
:10328800080f78001e02780004f0a7000402ea0084
:103298000402e9004f22de00044278000482fb00a9
:1032a800610262004d22dd0066168000f5ff2d00e8
:1032b800850263000502720064168800040020007d
:1032c800852c240002002000832c2c001e00900076
:1032d800ae009000841f0200000000000002be0043
:1032e80014079800250798001e029000ae0290006f
:1032f80005f0a10002002000031f24000400be0006
:10330800ea060200000000000002be000400be0041
:1033180056050200000000000002be00040278000a
:10332800c40e88004f0478000080fa0000000600f0
:103338000000fa006022b80014458800254588007e
:103348006022b80034458800454588006022b800ee
:103358005445880065458800e68a20006022b80048
:103368002403980035039800e68a20006022b800fc
:10337800048bbe006022b800b4458800c5458800ab
:103388006022b800d4458800e54588006022b8006e
:10339800f4458800054688006022b8001446880075
:1033a800254688006022b8003446880045468800d3
:1033b8006022b8005446880065468800e68c2000e4
:1033c8006022b8002403980035039800e68c20009a
:1033d8006022b800048bbe006022b800b4468800a2
:1033e800c54688006022b800d4468800e5468800b3
:1033f8006022b800f4468800054788000002eb0008
:10340800144788000002eb00244788000080fa0077
:10341800000006001400fa00889fbe008a9fbe00c4
:10342800000f9800110f9800c9000700144780008a
:103438008e0a900004825200cfa2de000400be0073
:1034480098050200000000000002be00f273280088
:10345800937923000400be00ea0602000000000081
:103468000002be00048fbe00244780009e0a900020
:1034780004825200cfa2de000400be0098050200bc
:10348800000000000002be00f273280093792300b8
:103498000400be00ea060200000000000002be00b0
:1034a80024079800350798000e0a900014478800f2
:1034b8001e0a9000244788002e019000be0190004b
:1034c8001e00be000c040200000000000002be0046
:1034d80002002000030024000400be00ca04020009
:1034e800000000000002be0044079800550798003d
:1034f8001e01be002e009000be0090000a040200cb
:10350800000000000002be00f20d2e00b3e8230008
:103518000400be00ca040200000000000002be0051
:1035280064079800750798001845800029458000b1
:103538005a4580006b4580000200200003f02300fc
:103548006e009000fe009000ea06020000000000f5
:103558000002be000401be000a00be000c04020006
:10356800000000000002be000400be00c604020005
:10357800000000000002be004e019000de01900035
:103588000400be00ea060200000000000002be00bf
:103598000401be000800be000c0402000000000088
:1035a8000002be0014468800254688003845800081
:1035b800494580005a4580006b4580000200200084
:1035c80003f023006e009000fe009000ea0602005f
:1035d800000000000002be000401be000a00be0098
:1035e8000c040200000000000002be000400be003f
:1035f80024080200000000000002be004e019000f6
:10360800de0190000400be00ea060200000000008f
:103618000002be000401be000800be000c04020047
:10362800000000000002be003446880045468800bd
:1036380054458000654580006e019000fe019000b1
:103648000400be000c040200000000000002be00de
:103658000400be00630007000002be005446880054
:1036680065468800a2702d0033ba23004e009000f2
:10367800de009000ca040200000000000002be0044
:10368800e68c2000048bbe00a2702d0033ba230004
:103698006e009000fe009000ca04020000000000c6
:1036a8000002be00e68c2000240398003503980031
:1036b800e48c20001403be00e48a20001402be003b
:1036c8000401be000600be000a040200000000005b
:1036d8000002be00b4468800c5468800e48c20007d
:1036e80024039000b4039000e48a2000b402900000
:1036f800240290000401be000600be000a04020075
:10370800000000000002be00d4468800e54688009c
:10371800e48c200024039000b4039000e48c200083
:103728001402be000401be000600be00ea06020044
:10373800000000000002be00f4468800054788002b
:103748004f05be004f04be000080fa0000000600ce
:103758000000fa00144680002546800014458800c1
:103768002545880034468000454680003445880059
:1037780045458800544680006546800054458800c9
:1037880065458800e48c20001402be00e68a20000b
:10379800048bbe00e48c2000b40290002402900048
:1037a800e68a20002403980035039800b446800078
:1037b800c5468000b4458800c5458800d4468000c9
:1037c800e5468000d4458800e5458800f446800039
:1037d80005478000f4458800054688000080fa0007
:1037e800000006000800fa00881f780020079800eb
:1037f800310798002e029000be02900005f0a1004b
:1038080018c0b30062e52000930424000400be0041
:103818004e0502000000000000027800e00f520090
:10382800010035000044eb00e04f54000300320073
:103838002e029000be0290002f00370062e52000a3
:10384800930c24002e009000be009000a2050200f8
:10385800000000000002be00048fbe0018c0b300c4
:1038680062e5200093042c001e00be004e050200f5
:103878000000000000027800e00f5200010035004f
:103888000044eb00e04f54000700320062e52000de
:10389800930c24001e00be000c040200000000006f
:1038a8000002be00048fbe0018c0b30062e520000d
:1038b800930424001e00be00520502000000000010
:1038c80000027800e00f520001003c000044eb00c9
:1038d800e04f54000700320062e52000930c2400fa
:1038e8001e00be000a040200000000000002be0024
:1038f800048fbe001e02be000400be004f04780004
:103908000080fa00000006000200fa00000f7800ac
:103918000080fa00000006000000fa0002192000ea
:1039280021c2b30070c0b3003016020000000000ce
:1039380000a02600810120000623020000000000ec
:10394800421f200021c2b30090c0b300301602000d
:103958000000000000a026008101200006230200cc
:10396800000000004238200021c2b300b0c0b300fc
:10397800301602000000000000a02600810120008f
:1039880006230200000000008225200021c2b300a7
:1039980010c0b300301602000000000000a026008e
:1039a800810120000623020000000000421f2000c1
:1039b80001c2b30070c0b30030160200000000005e
:1039c80000a026008101200006230200000000005c
:1039d800421f200001c2b30090c0b300301602009d
:1039e8000000000000a0260081012000062302003c
:1039f800000000000232200001c2b300b0c0b300d2
:103a0800301602000000000000a0260081012000fe
:103a18000623020000000000221c200001c2b3009f
:103a280010c0b300301602000000000000a02600fd
:103a380081012000062302000000000082252000ea
:103a4800e1c1b30070c0b3003016020000000000ee
:103a580000a0250021262000062302000000000007
:103a680042102000e1c1b30090c0b300301602003c
:103a78000000000000a025002126200006230200e7
:103a88000000000002142000e1c1b300b0c0b30080
:103a9800301602000000000000a0250021262000aa
:103aa800062302000000000002192000e1c1b30053
:103ab80010c0b300301602000000000000202c00e7
:103ac800b1be200006230200000000000080fa00ba
:103ad800000006000000fa00a2142000e1c1b300b3
:103ae80070c0b300301602000000000000402b0038
:103af800414c20000623020000000000822520001f
:103b0800e1c1b30070c0b30030160200000000002d
:103b180000a0250021262000062302000000000046
:103b2800e2152000e1c1b30010c0b3003016020056
:103b38000000000000a02500212620000623020026
:103b480000000000f20f2000e1c1b30090c0b300f4
:103b5800301602000000000000a0250021262000e9
:103b68000623020000000000123b2000e1c1b30060
:103b7800b0c0b300301602000000000000a025000d
:103b8800212620000623020000000000a20a2000cf
:103b9800e1c1b30090c0b30030160200000000007d
:103ba80000402b00414c20000623020000000000ca
:103bb80002192000e1c1b30010c0b30030160200a2
:103bc8000000000000a02500212620000623020096
:103bd8000000000002142000e1c1b300b0c0b3002f
:103be800301602000000000000402b00414c20006d
:103bf8000623020000000000e2102000e1c1b3002b
:103c080010c0b300301602000000000000402b0076
:103c1800414c20000623020000000000f20f2000a3
:103c2800e1c1b30090c0b3003016020000000000ec
:103c380000a0250021262000062302000000000025
:103c48000080fa00000006000000fa00c8e2a800a0
:103c5800cee2a80081e0a9000082eb006419880088
:103c6800a2022000d155290000402c00d4030200f4
:103c780000000000d0f52f007e03020000000000c5
:103c8800a2022000d155290000402c00cc030200dc
:103c980000000000e0f62f003603020000000000dc
:103ca80051c32000d0fa2d002203020000000000ba
:103cb800c0ff2f00fe020200000000002535800032
:103cc80004fe2f00048262002401b300243588001a
:103cd8002536800004fe2f00048262003400b30001
:103ce800243688000080fa00000006000000fa0070
:103cf800c122a800d062a800d122a800d102a80041
:103d08006380a8006280a8006260a8006405800043
:103d180004c0a00004d0a00004e0a100640588004d
:103d28009660a8008660a9000080fa0000000600de
:103d38003600f800809fbe00829fbe00849fbe00b0
:103d4800869fbe003400f80000002000a001880013
:103d58000000fa0084e0a900954a8000844a8000a7
:103d6800a395200062952000850078000400780063
:103d7800c021020000000000d44a8000e54a80000b
:103d8800b64a8000c74a80000401be000600be0093
:103d9800ba160200000000000080fa003400f900a2
:103da8004f03be004f02be004f01be004f00be00d1
:103db8003600f900004006000000fa0087c0a9009c
:103dc8000080fa00004006000000fa0087e0a90021
:103dd8000080fa00004006000000fa008560a90093
:103de8000080fa00004006000000fa008580a90063
:103df8000080fa00004006000000fa00c442a80053
:103e08008820a9000080fa00004006003600f8006b
:103e1800809fbe00829fbe00849fbe00869fbe001a
:103e28000000fa009416800068026200e00f520059
:103e38000400320000d022001113200006230200e3
:103e480000000000941680004822de0061426200f3
:103e58008482fb0044952000144278000402fb0091
:103e6800848f520009003200941680004822de0038
:103e7800614262008442780044952000054a780037
:103e8800844a80000402e800844a8800951680006d
:103e9800042020000482620004f0a7000402ea0063
:103ea8000402e9004f22de00559520009542780073
:103eb8008502fb00850f520009003200941680002d
:103ec8004922de0061426200844278005495200055
:103ed800054a7800944a80000402e800944a880061
:103ee8008660a9000080fa004f03be004f02be00a2
:103ef8004f01be004f00be003600f900004006002a
:103f08000c00fa00881f7800008fbe002207980076
:103f180033079800440798005507980018c0b30065
:103f28002e019000be0190001e00be004e0502004a
:103f38000000000000027800e00f52000100350088
:103f48000044eb00e04f5400030032002e029000c2
:103f5800be0290001000370018c0b3004e01900058
:103f6800de0190001e00be005205020000000000a5
:103f780000027800e00f520001003c000044eb0012
:103f8800e04f5400030032004e029000de02900021
:103f9800010037001e02be000400be004f04780076
:103fa8000080fa00000006000c00fa00008fbe0036
:103fb800220798003307980044079800550798008f
:103fc8002e029000be0290001e03be00840f530014
:103fd800858f5b0003003d002e029000be0290001a
:103fe8000a0037004e029000de0290001e03be0059
:103ff800840f5300858f5b00030034004e0290004d
:10400800de029000010037001e02be000400be0060
:104018000080fa00000006000800fa00881f7800f7
:1040280020079800310798002e029000be029000e9
:1040380005f0a10018c0b300b2fd200093042400cd
:104048000400be004e0502000000000000027800d7
:10405800e00f5200010035000044eb00e04f54002f
:10406800030032002e029000be0290002f0037009d
:10407800b2fd2000930c24002e009000be0090009a
:10408800a2050200000000000002be00048fbe006e
:1040980018c0b300b2fd200093042c001e00be001f
:1040a8004e0502000000000000027800e00f5200f8
:1040b800010035000044eb00e04f540007003200d7
:1040c800b2fd2000930c24001e00be000c04020068
:1040d800000000000002be00048fbe0018c0b3003c
:1040e800b2fd2000930424001e00be005205020009
:1040f8000000000000027800e00f520001003c00c0
:104108000044eb00e04f540007003200b2fd2000ed
:10411800930c24001e00be000a04020000000000e8
:104128000002be00048fbe001e02be000400be00d6
:0c4138004f0478000080fa000000060030
:020000040000fa
:10414400400900001e000000000000009e0900005d
:104154000200000002000000fbff00008e090000c6
:1041640010000000000000005e09000018000000bc
:104174000200000000002000410000002041000077
:104184000020410000002000410000002041000008
:1041940000204100e6080000360000000000000096
:1041a400a00900000200000000000000a2080000b6
:1041b40044000000000000000008000002000000ad
:1041c400000000001c0900002400000002000000a0
:1041d400a609000000a60900090000000002000072
:1041e400a809000000a809000e0201000000000058
:1041f40000000000000000000602020000000000b1
:10420400a209000002000000020000001c090000d6
:10421400a40900000200000000000000a60900003c
:104224000200000000000000a809000002000000d5
:1042340000000000760900001800000002000000e1
:10424400286e75006c6c2900003031003233340064
:1042540035363700383961006263640065660000f2
:1042640002080000a000000002000000010000009d
:104274000000000000000a00000000000000000030
:10428400006400000000000000000000e8030000db
:1042940000000000000010002700000000000000e3
:1042a40000a08600010000000000000040420f0052
:1042b400000000000000800096980000000000004c
:1042c4000000e100f50500000000000000ca9a00ab
:1042d4003b00000000000000e40b5400020000005a
:1042e4000000e80076481700000000000010a50058
:1042f400d4e8000000000000a0724e00180900007d
:10430400000040007a10f3005a0000000080c6004c
:10431400a47e8d000300000000c16f00f28623001c
:10432400000000008a5d780045630100000064001d
:10433400a7b3b600e00d000000e889000423c7001d
:104344008a000000aa090000020000000200000028
:08435400010000000000000060
:020000040000fa
:10435c000000fa000002eb00044d88009c190200da
:10436c00000000008c0f0200000000000080fa002a
:10437c00000006000800fa00000f780011079800f2
:10438c0022079800330798009e0090001e007800ca
:10439c000e1a020000000000044d8000e10f5200d4
:1043ac000b003200e20f520021003200e00f5200ed
:1043bc0020003a002e0390006022b800048bbe004f
:1043cc003e0390006022b800048bbe001900370039
:1043dc00e48c20003400be002401be0090110200c9
:1043ec0000000000e08c2000648d20001403be004f
:1043fc00869fbe00640242001403be00869fbe006e
:10440c00640242001403be00869fbe006402420098
:10441c00be0290002e0290005001be004000be0073
:10442c00be0f020000000000ec87570001003700af
:10443c00000000000080fa00000006000000fa00f6
:10444c000002eb00044d88000080fa00000006001a
:10445c000800fa00009fbe000297be001400200066
:10446c00044d8800e08c2000648d20001403be00f5
:10447c00869fbe00640242001403be00869fbe00ed
:10448c00640242001403be00869fbe006402420018
:10449c003e02be002e03be005001be004000be0016
:1044ac009212020000000000ec8757000080fa0016
:1044bc00000006000000fa00353a800004e02f00ee
:1044cc00848262006409200005027200343a88007c
:1044dc00253a800004fe2f00048262005400b300d1
:1044ec00243a8800243a80000460a1000470a100e2
:1044fc00243a880000000000153a800004022000d5
:10450c0004826200e00f5200fbff32000080fa00d0
:10451c00000006000000fa00e6ff0700281e02005b
:10452c000000000000d0220011132000062302001e
:10453c00000000007216020000000000ae21020014
:10454c00000000007a1e0200000000000080fa004b
:10455c00000006000200fa00000f78000700370088
:10456c001e027800144278000402fb001e0fe800c3
:10457c0004007800ee030200000000001e02780028
:10458c0014427800e04f5200f5ff3a000080fa0028
:10459c00000006001800fa00200f9800310f980058
:1045ac0090220200000000006022b800048fbe00c0
:1045bc006022b80024079800350798006022b800e4
:1045cc004407980055079800f426210035a82300cd
:1045dc0064079800750798006022b800040f9800d3
:1045ec00150f98006e009000fe0090000e099000d0
:1045fc009e0990002e22020000000000ffff3700f1
:020000040000fa
:10460c00f03fb1000180b10006003500ee03090057
:10461c0000000000403fb1000180b100fbff3d00f5
:10462c001000b000203fb0000200350000800900ef
:08463c00000000000000060070
:020000040000fa
:0200000401f009
:04000c0079ff000078
:020000040000fa
:0200000401f009
:04001000bbff000032
:020000040000fa
:0200000401f009
:040014007fff00006a
:020000040000fa
:0200000401f009
:04001800ffff0000e6
:020000040000fa
:0200000401f009
:04001c00ddff000004
:00000001FF
