:020000040000fa
:080000000002040000000000f2
:020000040000fa
:100008009a0200009a0200009a0200009a02000078
:100018009a0200009a0200009a0200009a02000068
:100028009a0200009a0200009a0200009a02000058
:100038009a0200009a0200009a020000700b000069
:100048009a0200009a0200009a020000da0d0000ed
:10005800e20d00009a0200009a0200009a020000d5
:100068009a0200009a0200009a020000f40d0000b3
:100078009a0200009a0200009a0200009a02000008
:100088009a0200009a0200009a0200009a020000f8
:100098009a0200009a020000ca0d0000d20d00006a
:1000a8009a020000ea0d00009a0200009a0200007d
:1000b8009a0200009a0200009a0200009a020000c8
:1000c8009a0200009a0200009a0200009a020000b8
:1000d8009a0200009a0200009a0200009a020000a8
:1000e8009a0200009a0200009a0200009a02000098
:1000f8009a0200009a0200009a0200009a02000088
:100108009a0200009a0200009a0200009a02000077
:100118009a0200009a0200009a0200009a02000067
:100128009a0200009a0200009a0200009a02000057
:100138009a0200009a0200009a0200009a02000047
:100148009a0200009a0200009a0200009a02000037
:100158009a0200009a0200009a0200009a02000027
:100168009a0200009a0200009a0200009a02000017
:100178009a0200009a0200009a0200009a02000007
:100188009a0200009a0200009a0200009a020000f7
:100198009a0200009a0200009a0200009a020000e7
:1001a8009a0200009a0200009a0200009a020000d7
:1001b8009a0200009a0200009a0200009a020000c7
:1001c8009a0200009a0200009a0200009a020000b7
:1001d8009a0200009a0200009a0200009a020000a7
:1001e8009a0200009a0200009a0200009a02000097
:0801f8009a0200009a020000c7
:020000040000fa
:100208009a0200009a0200009a0200009a02000076
:100218009a0200009a0200009a0200009a02000066
:100228009a0200009a0200009a0200009a02000056
:100238009a0200009a0200009a020000700b000067
:100248009a0200009a0200009a020000da0d0000eb
:10025800e20d00009a0200009a0200009a020000d3
:100268009a0200009a0200009a020000f40d0000b1
:100278009a0200009a0200009a0200009a02000006
:100288009a0200009a0200009a0200009a020000f6
:100298009a0200009a020000ca0d0000d20d000068
:1002a8009a020000ea0d00009a0200009a0200007b
:1002b8009a0200009a0200009a0200009a020000c6
:1002c8009a0200009a0200009a0200009a020000b6
:1002d8009a0200009a0200009a0200009a020000a6
:1002e8009a0200009a0200009a0200009a02000096
:1002f8009a0200009a0200009a0200009a02000086
:100308009a0200009a0200009a0200009a02000075
:100318009a0200009a0200009a0200009a02000065
:100328009a0200009a0200009a0200009a02000055
:100338009a0200009a0200009a0200009a02000045
:100348009a0200009a0200009a0200009a02000035
:100358009a0200009a0200009a0200009a02000025
:100368009a0200009a0200009a0200009a02000015
:100378009a0200009a0200009a0200009a02000005
:100388009a0200009a0200009a0200009a020000f5
:100398009a0200009a0200009a0200009a020000e5
:1003a8009a0200009a0200009a0200009a020000d5
:1003b8009a0200009a0200009a0200009a020000c5
:1003c8009a0200009a0200009a0200009a020000b5
:1003d8009a0200009a0200009a0200009a020000a5
:1003e8009a0200009a0200009a0200009a02000095
:0803f8009a0200009a020000c5
:020000040000fa
:10040000af8620000e7f24000e018800000000004f
:10041000000020000000e000020032000001200087
:10042000200288000c000700408821000100200005
:1004300011000700000020000000e0000200320070
:100440000000020000000000480e02000000000052
:100450000040da000000fe004440a9000000200037
:100460000000e0000300320000002000a00188002e
:100470004440a80000000600910188008000780038
:100480000000eb0015003700e280400032a0b4000d
:100490009101ba00e280400032a0b4009102ba009b
:1004a000e280400032a0b4000002eb00472bde00e7
:1004b000f507b200602ce10004003a000059eb009f
:1004c0008301e900fdff3e00040037006128e100e0
:1004d000010032000082eb00040007001101ba00a5
:1004e0000200e000e8ff3a00000006003159ba00bf
:1004f0008301e9000c0032002159ba008301e900b0
:10050000080032000400e00003003a00e2804000ee
:1005100032a0b400f5ff370011d9ba008301e90019
:10052000faff3a008100e800e180400032a0b40008
:10053000000006000040da000000fe0084e0a90090
:1005400067026000f5ff28004c22dd0036058000c0
:100550008682620068006000850272004300de004f
:100560003505880061006000f4f72f004700dd00ca
:10057000a50480000502620004027000a404880043
:10058000000006000621ef0061088800800888004e
:100590001061a90000000600001020003202b60021
:1005a0000000e9004f00de00000006008560a900a1
:1005b000670260008580a9004c22dd00f5ff28005d
:1005c0004605800086826200850272000002780083
:1005d000450588000407b20085ff2f004422de0095
:1005e0005605800086826200850272006802600003
:1005f000550588004322de00f57f2f00610262006e
:10060000a6048000868262004b22dd000008b20052
:10061000850272004700de00a504880061006000ca
:10062000f4ff2e004c00dd00a504800005026200ee
:1006300004027000a40488000000060087c0a9001e
:100640006702600087e0a9004822dd00f58f2f00d7
:1006500096058000868262008502720000027800a2
:10066000950588000407b200f5ff28004822dd0048
:100670009605800086826200850272006802600032
:10068000950588004322de00f5ff2b006102620021
:10069000b6048000868262004e22dd000008b200af
:1006a000850272004700de00b5048800610060002a
:1006b000f4ff27004f00dd00b50480000502620052
:1006c00004027000b404880000000600901180004d
:1006d000614060000000060042118800001188009f
:1006e0001111880000000600c211880080118800e6
:1006f00091118800000006008411800066026200eb
:10070000e60f520002003a00b0118000000006001f
:10071000b0118000f00fb2000000060084118000cc
:1007200066026200e60f520001003200f00fb200d4
:10073000a01188000000060003f0a200889fbe0000
:100740008a9fbe008c1f78005101070058013300ba
:100750006450e1004f0032006420e100520032009a
:1007600003826c0007003b000905d0000306d0009f
:10077000820f54000c065d000200390002003200b6
:1007800089017800030678008582550004003d0049
:100790000003fd008103fd008502ea008b85420015
:1007a000840f720002003b0060001000e08018001f
:1007b0006011b8000005eb007a28e1000a0039005a
:1007c00006007800c75ddd00f707b200878075007e
:1007d0002d003700828171000a01780061056000f8
:1007e0008180d1000080d3008502e900f9ff3b0041
:1007f000060440008784480002003b0060041400a7
:10080000e0841c000988a300070032008a8171007f
:1008100082817100610164008904d1000884d300e1
:100820008b05e800170037000978a30013003a0091
:100830000b00e000130034008b05e90008044400bd
:1008400089844c000a4474000978a3000d003a0022
:100850000b00e000070034008b05e90008044400a9
:1008600089844c0001003a000b0020000978a300a5
:10087000f7ff32000001eb000200370082817100b7
:100880000a017800c70007000cf0a70001f0a000e3
:10089000100137006420e10002003a00838f6c00f1
:1008a000100133000801be000200be00090137003c
:1008b000889fbe008a9fbe008c1f7800f40007004e
:1008c000fb00330003866c006450e1002e00320010
:1008d0006420e100330032006150e1002f0032005b
:1008e0006120e1003100320085855500eb07b00042
:1008f0000900200008042000050037000804440017
:1009000089844c000a0031000603430087834b00b2
:100910000001530081815b00f8ff33000203be0039
:100920000800a0000804440089844c00f6ff390048
:10093000c639dd008301730001003200130020007e
:100940008904d1000884d3000998a300050032006f
:100950000800a7000300a0008904d1000884d30088
:100960008b05e8008904d1000884d3000001eb0066
:100970000281d2008b00070001f0a1000cf0a7005b
:1009800001f0a000d30037006420e100d500320060
:100990000801be000200be00f7ff37006120e10041
:1009a000d00032006000b800f3ff370000002000e4
:1009b00001f82700f0ff3700140020000001370085
:1009c000f4ff2f00fe0037000001be009b0007006f
:1009d0000470a70003f0a1006509b1001600320001
:1009e0000d0035006828e10006003500f0ff2f00fb
:1009f000f1ff27000300e00013003b000100280086
:100a00000000050000004000818048008502e900e8
:100a1000fcff3a0008003700f88f420002003c005b
:100a20008000eb00000005008100d1000080d300b1
:100a30008502e800fcff3a000300e00002003b00f2
:100a400060001000e0801800000006004f89de0002
:100a500082017800f50037006011b800030137000b
:100a60000400200000003700889fbe008a9fbe005f
:100a70008c1f78004f26dd00850007008c003300b6
:100a80006120e100430032006250e10041003e007d
:100a90003e0039006420e1003c0032000582550030
:100aa0000f003b000402e80038003a00800f5300ba
:100ab000818f5b00350034000800be0003f0a10008
:100ac00001f0a60003f0a0000cf0a7001bff070038
:100ad000800037000603430087834b000c46460026
:100ae0000005530081855b00020033000a03be004d
:100af0000c00a0000402e900f6ff3b008505780029
:100b00000602430087824b0004003a006000b800f0
:100b100009f0a70001f0a0006e00370000025200ab
:100b200081825a000704e0000400330006034300fa
:100b300087834b008b05e900faff37000905780031
:100b40000604be000203be006011b80015000700d5
:100b5000e00f5200e08f5a000700350002003c0011
:100b60000c08a300040032000601be0003f0a00040
:100b70000cf0a700f1fe07000a85680001f0a10053
:100b80000af0a70001f0a000520037000800be00e4
:100b900050003700100220000cf0a6000040880032
:100ba0005000370081002000618055000b003d009f
:100bb0000b00200061fe2f000100e1001d00340049
:100bc00082817100610164008904d1000884d3002e
:100bd0000000e800faff3a007100200061006400a4
:100be000030070000200600009003200610444004c
:100bf000e0844c000988a500050032008b05e80060
:100c00006808e10002003a008904d1000884d3009a
:100c1000f20f20000258e10005003d00c75ddd0035
:100c2000f907b2008980750008007800000006000e
:100c30000bf827008b00780000000500c70ade00d3
:100c4000f107b200f50fb20008003200e1cf420018
:100c5000020032000170a00024000500810f700026
:100c6000010032000408050044000500810f7000f7
:100c700002003a00140005008502e900000040006f
:100c800081c04800fcff3b000170a000240005006b
:100c90000004be00e9ff07000003be000405be001b
:100ca0000200be00e5ff0700844f7500000006004b
:100cb0000200be006450e100050036006420e1003f
:100cc000020036000968a30001003a000800be00d7
:100cd0000160a0004f0678004f05be004f04be0023
:100ce00000000600f0ff2f00f1ff2700f9ff37009a
:100cf000889fbe008a9fbe008c1f7800e4ff07001b
:100d0000ebff330003866c006450e10024003200e6
:100d10006420e100270032006150e100220032002f
:100d20006120e100210032008b854200eb07b10019
:100d30000134b800003ab8000804420089844a002f
:100d4000013ab8000030b8008880400009014a002c
:100d50000400330000004000818048000201490087
:100d60008b05e900c909dd00830170000100320034
:100d700013002000c814de004814dd004709de001f
:100d80001200b200c808de000884700085ff07006a
:100d900001f0a1000cf0a70001f0a000cdff37008a
:100da0006120e100cfff32000801be000200be005a
:100db000f7ff37006150e100fcff3a00c9ff370040
:100dc000889fbe008a9fbe00841f7800b0ff070086
:100dd0004f00780011003300f0ff2f00838f6c006c
:100de00006003b00040565000a00a7000800370064
:100df00009f0a6001000200008003700820f540000
:100e0000838f5c00030039001000200001003e00c9
:100e10000000200009f0a7000000ea004f05be0016
:100e20004f04be000000e00000000600881f7800ac
:100e3000030478000300e00007003d00600010009c
:100e4000e080180060011900e081190002003b00f9
:100e500001f02d00030037000400070008f0a70090
:100e600001f0a0004f04780000000600889fbe003b
:100e70008a9fbe000082700004027100048271002b
:100e8000260032000004be000200be006011b8005f
:100e90006b092000950220000182cf000a00390072
:100ea0000541b1000082cf00070039000541b100c3
:100eb0000982cf00040039000541b1000882cf004b
:100ec000010039000541b100054252001200320014
:100ed0000a003b0082817100610164008100d10041
:100ee0000080d3008984d3000884d3008b05e800f8
:100ef0000442e800f7ff3a00070037000804440006
:100f000089844c0000004800818048008b05e9007e
:100f10000442e900f9ff3a0022ff07004f05be0036
:080f20004f04be0000000600b2
:020000040000fa
:100f28000000fa00153a8000f40b200004836200e8
:100f3800640420007505200027742000844b780085
:100f4800854b7800864b780034358000f401b30077
:100f5800343588005536800004fe2f000482620074
:100f68005400b30054368800153a80000404200069
:100f78000503720064042000750520002774200012
:100f8800844b7800854b7800864b78000080fa0007
:100f9800000006000000fa00153a8000f40b20005b
:100fa8000483620064042000750520002774200073
:100fb800844b7800854b7800864b78005536800046
:100fc80004fe2f0004826200543688003535800004
:100fd80004fe2f0004826200a400b30034358800a8
:100fe800153a800004042000050372006404200000
:100ff8007505200027742000844b7800854b780005
:10100800864b78000080fa00000006000200fa0013
:10101800004f780000000000951180000420200097
:1010280004826200e00f5200fbff3a009e42780003
:101038000582fb00040078008e0302000000000017
:1010480084842000144278009e4242008484200058
:10105800054a78000080fa00000006000400fa0043
:10106800004f78001147980022479800acff07000e
:1010780000c0eb00e5ff070000c0eb00e3ff07003e
:10108800848420008042eb00054a78001e407800e6
:10109800deff07001e42900004c2e800044078000a
:1010a800daff07002e409000d8ff07000080fa0002
:1010b800000006000600fa00204798002107980063
:1010c8000042eb00044f7800080037009e42780089
:1010d8000582fb00ae0290000482420014427800b0
:1010e80004407800c9ff07001e4fe8002e42900018
:1010f8009e42780084cf5200f4ff39000080fa0045
:10110800000006000000fa008484200014427800e1
:1011180004c2ea0004407800bcff07000000000099
:10112800cc0202000000000000427800e04f5200ac
:10113800fbff3a0097ff07000080fa000000060056
:101148000200fa006e0037007c0302000000000075
:101158000002780004427800044f7800444380007d
:10116800e50f420006003a001e427800e14f4200b7
:1011780003003a00c4ff2f00444388006000370092
:1011880044438000e40f42000c003a001e427800fd
:10119800e14f420009003a00d4ff2f004443880081
:1011a800848420008042eb00054a7800c484200033
:1011b80015c0b30015429800510037004443800021
:1011c800e30f420006003a00e4ff2f004443880082
:1011d8009e427800c4842000054a78004800370001
:1011e80044438000e20f420010003a001e4278009b
:1011f800e54f52000d003e000082eb00444388009a
:10120800c4842000944278001e42780084c24200c0
:1012180084842000054a78001e42780084c2e900d0
:10122800c4842000154298003500370044438000ec
:10123800e10f420007003a000002eb004443880037
:101248008e027800c48420001503780016029800e6
:101258002b00370044438000e00f52001500350092
:10126800c4842000144290008482fb004443800020
:10127800848f52000f003400444380000403780038
:1012880005852000850243001e437800864a7800c1
:101298000402e800444388008484200094427800d3
:1012a8001e42780084c2420084842000054a7800e7
:1012b80013003700c4842000144290008482fb008d
:1012c80044438000848f52000b003a009e4278000d
:1012d800848420001442780004c26200e04f520067
:1012e80005003a001400200054428800b4ff2f0083
:1012f8004443880002003700b4ff2f0044438800ad
:10130800660302000000000000427800e04f52002f
:101318008dff3a000080fa00000006000200fa0083
:10132800004f780012c0b30021c0b3001e407800ff
:101338004aff070073ff07000080fa00000006005c
:101348000400fa00004f78001147980022479800df
:1013580022c0b30021c0b3001e4078003fff070041
:101368001e40900029ff07002e40900027ff07002d
:1013780064ff07000080fa00000006000600fa007b
:10138800004f7800114798002247980023079800db
:101398002e4290000442e80032c0b3008440780036
:1013a8001e4078002dff07001e40900017ff070021
:1013b800ae0090002e4090003eff070051ff07004e
:1013c8000080fa00000006000600fa00004f7800ce
:1013d8001147980022479800230798002e42900052
:1013e8000442e80042c0b300844078001e40780000
:1013f8001aff07001e40900004ff0700ae0090008f
:101408002e4090002bff07003eff07000080fa00e7
:10141800000006000200fa00004f780052c0b30036
:101428008040eb001e4078000cff070035ff0700e6
:101438000080fa00000006000200fa00004f780061
:1014480062c0b3008040eb001e40780003ff070035
:101458002cff07000080fa00000006000200fa00d6
:10146800004f78009e4278000582fb00cfa2de0084
:101478000603200007002000860f5200878f5a00bd
:1014880036003e00046001003200370033003700a8
:101498002e0037002d0037002c0037002b003700b6
:1014a8002c0037002d0037002a0037002b003700aa
:1014b8002a003700250037002400370023003700b2
:1014c8002400370025003700200037001f003700b0
:1014d8001e0037001d0037001e0037001f003700b0
:1014e8001c0037001d0037001800370017003700b0
:1014f80016003700150037001400370013003700b6
:1015080014003700150037001200370013003700a9
:1015180010003700110037000e0037000f003700a9
:101528000c0037000d0037000a0037000b003700a9
:1015380006003700050037000400370007003700b1
:1015480002003700010037000200370014c0b30062
:101558000300370024c0b300010037000042eb004d
:10156800044078000080fa00000006000400fa0039
:10157800881f7800004f78001147980012079800dc
:101588000002eb00544288000e84e8001e409000e0
:10159800b2ff070000427800880178000441780013
:1015a8009e4090001e40780074ff07004f047800aa
:1015b8000080fa00000006000200fa00004f7800e0
:1015c800114798000002eb00544288001e4090002a
:1015d800a2ff070000427800044178009e40900076
:1015e8001e40780056ff07000080fa000000060041
:1015f8000000fa00c8e2a800cee2a80081e0a90035
:101608000082eb0064198800a2022000d15529004d
:1016180000402c007403020000000000d0f52f00e9
:101628001e03020000000000a2022000d15529007c
:1016380000402c006c03020000000000e0f62f00c0
:10164800d60202000000000091d02300d0fa2d003d
:10165800c202020000000000c0ff2f009e0202002c
:10166800000000002535800004fe2f00048262007f
:101678002401b300243588002536800004fe2f009d
:10168800048262003400b300243688000080fa0027
:10169800000006000000fa00c122a800d062a800dd
:1016a800d122a800d102a8006380a8006280a80007
:1016b8006260a8006405800004c0a10004d0a000f6
:1016c80004e0a000640588009660a8008660a90070
:1016d8000080fa00000006003600f800809fbe0077
:1016e800829fbe00849fbe00869fbe00889fbe006a
:1016f8003400f80000002000a00188000000fa0073
:1017080024438000e10f52002a003a000002eb0057
:10171800944088000002eb00a44088000002eb001f
:10172800b44088000002eb00c44088006022b80082
:10173800d4408800e54088006022b800f440880062
:10174800054188000002eb00144188000002eb000c
:10175800244188006022b80034418800454188004f
:101768006022b80054418800654188000002eb00ff
:10177800744188000002eb00844188000002eb00fd
:10178800944188000002eb00a44188000002eb00ad
:10179800b44188000002eb00c44188006022b80010
:1017a800d4418800e54188006022b800f4418800ef
:1017b80005428800344180004541800018c0b300cc
:1017c8006011b8000400be00e00402000000000040
:1017d80000027800e00f520001003d000044eb00d9
:1017e800e04f54000b00320095408000b440800068
:1017f80004825200cfa2de000400be0026050200cb
:10180800000000000002be00d4408800e5408800c7
:101818000a003700b54080009440800004825200de
:10182800cfa2de000400be00260502000000000072
:101838000002be00d4408800e54088005441800082
:101848006541800018c0b3006011b8000400be00f4
:10185800e00402000000000000027800e00f5200df
:1018680001003d000044eb00e04f54000b00320043
:10187800a5408000c440800004825200cfa2de0050
:101888000400be0026050200000000000002be00a1
:10189800f4408800054188000a003700c5408000f0
:1018a800a440800004825200cfa2de000400be00e3
:1018b80026050200000000000002be00f440880077
:1018c8000541880094408000b4408800a44080000e
:1018d800c44088003641800047418000d4408000e1
:1018e800e54080000401be000600be009c03020023
:1018f800000000000002be000400be00e404020074
:10190800000000000002be000402780014418800b4
:101918005641800067418000f44080000541800006
:101928000401be000600be009c0302000000000087
:101938000002be000400be00e40402000000000033
:101948000002be000402780024418800754180002e
:10195800144180000482420074418800854180005f
:10196800244180000482420084418800154180009f
:101978009441800004825200b441880025418000cf
:10198800a441800004825200c441880014418000b0
:10199800cfa2de000400be00260502000000000001
:1019a8000003be00c4428000d54280000401be008e
:1019b8000600be0078060200000000000002be001b
:1019c8000404be0074418000cfa2de000400be0003
:1019d80026050200000000000003be00e44280006b
:1019e800f54280000401be000600be007806020031
:1019f800000000000002be000401be000800be0096
:101a08009e030200000000000002be000404be00a5
:101a1800b4418000cfa2de000400be00260502000b
:101a2800000000000003be00144280002542800030
:101a38000401be000600be00780602000000000097
:101a48000002be000401be000800be009e030200a2
:101a5800000000000002be00d4418800e541880073
:101a680024418000cfa2de000400be00260502004b
:101a7800000000000003be00c4428000d542800080
:101a88000401be000600be00780602000000000047
:101a98000002be000404be0084418000cfa2de0024
:101aa8000400be0026050200000000000003be007e
:101ab800e4428000f54280000401be000600be003a
:101ac80078060200000000000002be000401be000b
:101ad8000800be009e030200000000000002be00d5
:101ae8000404be00c4418000cfa2de000400be0092
:101af80026050200000000000003be00144280001a
:101b0800254280000401be000600be0078060200df
:101b1800000000000002be000401be000800be0074
:101b28009e030200000000000002be00f44188008d
:101b380005428800144180009441880024418000b7
:101b4800a4418800d4418000e5418000f64180002e
:101b5800074280000401be000600be009e1102007c
:101b68000000000084e0a9000080fa003400f900b9
:101b78004f04be004f03be004f02be004f01be001f
:101b88004f00be003600f900004006000000fa00d1
:101b980087c0a9000080fa00004006000000fa0093
:101ba80087e0a9000080fa00004006000000fa0063
:101bb8008560a9000080fa00004006000000fa00d5
:101bc8008580a9000080fa00004006000000fa00a5
:101bd800c442a8008820a9000080fa00004006003e
:101be800849fbe000000fa00941680004822de00a0
:101bf800614262008482fb00648420001442780001
:101c08000402fb00848f5200090032009416800001
:101c18004822de0061426200844278006484200029
:101c2800054a7800a44080000402e800a440880027
:101c3800941680004922de00614262008482fb0023
:101c480074842000144278000402fb00848f520040
:101c580009003200941680004922de0061426200c9
:101c68008442780074842000054a780094408000fb
:101c78000402e800944088008660a9000080fa0009
:101c88004f02be00004006000a00fa003007980024
:101c98004107980068180200000000000002eb00ed
:101ca800344388000700370000202100a1072000e6
:101cb800b218020000000000344380000402e8006b
:101cc8003443880034438000e30f5200f6ff3400a9
:101cd8000002eb00040f78000042eb002447980054
:101ce8000042eb003447980068140200000000002e
:101cf8001b0037000000000019003700000000003a
:101d08001700370000000000150037000000000031
:101d18001300370000000000110037000000000029
:101d28000f003700000000000d0037000000000021
:101d38000b00370000000000090037000000000019
:101d48000700370000000000050037000000000011
:101d58000300370000000000010037000000000009
:101d680014002000240798002e029000e10f520072
:101d7800db003a001e027800e00f520033003a0000
:101d880095408000743e2000848f520005003c007e
:101d980004002000050824003441880045418800db
:101da800050037006022b8003441880045418800aa
:101db80014c0b30024479800a5408000743e20005a
:101dc800848f520005003c00040020000508240010
:101dd8005441880065418800050037006022b8003a
:101de800544188006541880014c0b3003447980006
:101df8002e429000e14f5200beff3a003e42900052
:101e0800e14f5200bdff3a0014002000040f780093
:101e18000042eb00244798000042eb00344798004a
:101e28004486200015c0b300054a780000a02500ac
:101e380021262000b218020000000000448620007d
:101e48008042eb00054a7800c5ff37001e02780083
:101e5800e10f520036003a00954080002407200028
:101e6800848f520005003c00040020000504240073
:101e78003441880045418800050037006022b800d9
:101e8800344188004541880014c0b30024479800b5
:101e9800a540800024072000848f520005003c00e4
:101ea8000400200005042c00544188006541880086
:101eb80006003700f426210035a82b00544188007d
:101ec8006541880014c0b300344798002e42900042
:101ed800e14f52008bff3a003e429000e14f520022
:101ee8008aff3a0024002000040f78000042eb002b
:101ef800244798000042eb003447980044862000ad
:101f080015c0b300054a7800e8150200000000007b
:101f180000a0250021262000b218020000000000c1
:101f2800448620008042eb00054a78008cff370089
:101f38001e027800e20f520033003a0095408000fc
:101f4800f4182000848f520005003c000400200093
:101f58000504240034418800454188000500370005
:101f68006022b800344188004541880014c0b3009d
:101f780024479800a5408000f4182000848f520060
:101f880005003c000400200005042400544188009a
:101f980065418800050037006022b8005441880078
:101fa8006541880014c0b300344798002e42900061
:101fb800e14f520057ff3a003e429000e14f520075
:101fc80056ff3a0034002000040f78000042eb006e
:101fd800244798000042eb003447980044862000cc
:101fe80015c0b300054a780000402b00414c200082
:101ff800b218020000000000448620008042eb0076
:10200800054a780056ff37001e027800e30f520099
:1020180044ff3a0095408000341f2000848f52000e
:1020280005003c0004002000050424003441880019
:1020380045418800050037006022b8003441880017
:102048004541880014c0b30024479800a54080008b
:10205800341f2000848f520005003c00040020003b
:1020680005042400544188006541880005003700b4
:102078006022b800544188006541880014c0b3004c
:10208800344798002e429000e14f520027ff3a0053
:102098003e429000e14f520026ff3a0044002000e3
:1020a800040f78000042eb00244798000042eb0040
:1020b800344798004486200015c0b300054a7800cc
:1020c80000a0250021262000b21802000000000010
:1020d800448620008042eb00054a780020ff370044
:1020e8001e027800e00f520035003a00954080004b
:1020f8000443800084825200743e2000848f520082
:1021080005003c000400200005102400344188002c
:1021180045418800050037006022b8003441880036
:102128004541880014c0b30024479800a5408000aa
:102138001443800084825200743e2000848f520031
:1021480005003c00040020000510240054418800cc
:1021580065418800050037006022b80054418800b6
:102168006541880014c0b300344798002e4290009f
:10217800e14f5200f1fe3a003e429000e14f52001a
:10218800f0fe3a0014002000040f78000042eb0033
:10219800244798000042eb003447980094408000a0
:1021a80004438800a44080001443880000a0250050
:1021b80021262000b218020000000000e8fe3700c7
:1021c8001e027800e10f5200e0fe3a0095408000c0
:1021d800044380008482520014032000848f52003c
:1021e80005003c0004002000050c2c003441880048
:1021f8004541880006003700a4702d0035c22b0029
:10220800344188004541880014c0b3002447980031
:10221800a5408000144380008482520014032000eb
:10222800848f520005003c0004002000050c2400a7
:102238005441880065418800050037006022b800d5
:10224800544188006541880014c0b30034479800a1
:102258002e429000e14f5200befe3a003e429000ee
:10226800e14f5200bdfe3a0024002000040f780020
:102278000042eb00244798000042eb0034479800e6
:102288009440800004438800a440800014438800e0
:1022980000a0250021262000b2180200000000003e
:1022a800affe37000000fa00c1e1a800040e80006c
:1022b8000420a1000430a100040e8800040e800050
:1022c8000400a1000410a100040e8800c45d2000d1
:1022d800240e8800c921a800c941a800c881a80007
:1022e800c8a1a800c8c1a900c801a900c821a9009f
:1022f800c841a900c45d2000240e88000002eb003c
:10230800b40e88000002eb00c40e8800c0e2a900e9
:10231800c962a900c9e2a900c9a2a900c4e2a9002a
:10232800cd62a900cde2a900cda2a9000080fa00e3
:10233800000006000800fa00881f7800008fbe0021
:10234800220798003307980018c0b3006011b8003e
:102358002e009000be009000e00402000000000083
:1023680000027800e00f520001003d000044eb003d
:10237800e04f540002003200cda2a800010037004f
:10238800cda2a90018c0b3006011b8001e00be009d
:10239800e00402000000000000027800e00f520094
:1023a80001003d000044eb00e04f54000200320001
:1023b800cde2a80001003700cde2a900c45d2000ed
:1023c800240e880004002000852c24000200200030
:1023d800832c2c001e00be001a170200000000000b
:1023e8000002be00048fbe0004002000852c2400db
:1023f80002002000832c2c002e009000be009000cc
:102408001a170200000000000002be00240798000e
:10241800350798001e02be0005f0a100020020004a
:10242800031f24000400be0078060200000000001c
:102438000002be000400be00e40402000000000028
:102448000002be0004027800b40e88002e0290003c
:10245800be02900005f0a10002002000031f240026
:102468000400be0078060200000000000002be0062
:102478000400be00e4040200000000000002be00e8
:1024880004027800c40e88004f0478000080fa0027
:10249800000006000e00fa00881f78001007980058
:1024a80021079800320798004307980054079800be
:1024b80065079800180020006011b8005e009000c1
:1024c800ee009000e0040200000000000002780026
:1024d800e00f520001003d000004eb00080f7800f7
:1024e800180020006011b8003e009000ce00900057
:1024f800dc0402000000000000027800e00f520037
:10250800010035000004eb00080f78001e01900060
:10251800ae0190000068290081c12400580402001f
:10252800000000000002be000400be00e404020037
:10253800000000000003be0004d0270005002000b2
:10254800c25d2000030020000600be006e170200d6
:10255800000000000002be0004027800240e88007b
:1025680004002000852c240002002000832c2c006d
:102578003e009000ce0090001a17020000000000f4
:102588000002be00340798004507980004002000a8
:10259800852c240002002000832c2c005e00900073
:1025a800ee0090001a170200000000000002be00b2
:1025b8005407980065079800240e80000402420022
:1025c800050020000400be002c05020000000000e9
:1025d8000003be003e029000ce02900005f0a1006c
:1025e8000401be000600be007806020000000000dc
:1025f8000002be0002002000832c24000400be005c
:1026080058040200000000000002be0034079800d1
:1026180045079800240e80000402420005002000af
:102628000400be002c050200000000000003be00ec
:102638005e029000ee02900005f0a1000401be00c9
:102648000600be0078060200000000000002be007e
:1026580002002000832c24000400be00580402005d
:10266800000000000002be005407980065079800ab
:102678003e009000ce009000e4040200000000003c
:102688000003be0004a02f00050020006011b80060
:102698000600be006e170200000000000002be0027
:1026a80004027800b40e88005e009000ee009000ee
:1026b800e4040200000000000003be0004a02f0094
:1026c800050020006011b8000600be006e17020069
:1026d800000000000002be0004027800c40e88005a
:1026e8004f0478000080fa00000006000600fa0097
:1026f800881f78001007980021079800180020000c
:102708006011b8001e009000ae009000dc040200ca
:102718000000000000027800e00f520001003500c0
:102728000004eb00080f78001e02780004f0a700f0
:102738000402ea000402e9004f22de0004427800a5
:102748000482fb004f22dd0066168000f5ff27009b
:1027580085026300050272006416880004002000e8
:10276800852c240002002000832c2c001e009000e1
:10277800ae0090001a170200000000000002be0020
:1027880014079800250798001e029000ae029000da
:1027980005f0a10002002000031f24000400be0071
:1027a80078060200000000000002be000400be001f
:1027b800e4040200000000000002be0004027800e9
:1027c800b40e88004f0478000080fa00000006006c
:1027d8000600fa00881f7800100798002107980063
:1027e800180020006011b8001e009000ae00900094
:1027f800e00402000000000000027800e00f520030
:1028080001003d000004eb00080f78001e0278006c
:1028180004f0a7000402ea000402e9004f22de00e7
:10282800044278000482fb00610262004d22dd0050
:1028380066168000f5ff2d00850263000502720010
:102848006416880004002000852c24000200200063
:10285800832c2c001e009000ae0090001a17020076
:10286800000000000002be00140798002507980029
:102878001e029000ae02900005f0a10002002000a8
:10288800031f24000400be007806020000000000b8
:102898000002be000400be00e404020000000000c4
:1028a8000002be0004027800c40e88004f047800bd
:1028b8000080fa00000006000200fa00000f78000d
:1028c8000080fa00000006000000fa0042382000ec
:1028d80021c2b300a0c2b300ba0a0200000000007f
:1028e80000a0260081012000b218020000000000ac
:1028f8004238200021c2b300c0c0b300ba0a0200a7
:102908000000000000a0260081012000b21802008b
:10291800000000000219200021c2b30060c0b3000b
:10292800ba0a02000000000000a026008101200071
:10293800b218020000000000421f200021c2b300ac
:1029480020c0b300ba0a02000000000000a0260060
:1029580081012000b21802000000000002192000c6
:1029680021c2b300d0c0b300ba0a020000000000c0
:1029780000a0260081012000b2180200000000001b
:102988000219200021c2b30000c1b300ba0a020034
:102998000000000000a0260081012000b2180200fb
:1029a80000000000421f200021c2b300a0c0b300f5
:1029b800ba0a02000000000000a0260081012000e1
:1029c800b2180200000000004206200001c2b30055
:1029d800a0c2b300ba0a02000000000000a026004e
:1029e80081012000b2180200000000004206200009
:1029f80001c2b300c0c0b300ba0a02000000000060
:102a080000a0260081012000b2180200000000008a
:102a18004206200001c2b30060c0b300ba0a020037
:102a28000000000000a0260081012000b21802006a
:102a3800000000004206200001c2b30020c0b3001d
:102a4800ba0a02000000000000a026008101200050
:102a5800b2180200000000004206200001c2b300c4
:102a6800d0c0b300ba0a02000000000000a026008f
:102a780081012000b2180200000000004206200078
:102a880001c2b30000c1b300ba0a0200000000008e
:102a980000a0260081012000b218020000000000fa
:102aa8004206200001c2b300a0c0b300ba0a020067
:102ab8000000000000a0260081012000b2180200da
:102ac8000000000002322000e1c1b300a0c2b30040
:102ad800ba0a02000000000000a0260081012000c0
:102ae800b218020000000000c20c2000e1c1b300cf
:102af800c0c0b300ba0a02000000000000a026000f
:102b080081012000b218020000000000c20c200061
:102b1800e1c1b30060c0b300ba0a020000000000bf
:102b280000a0260081012000b21802000000000069
:102b380062162000e1c1b30020c0b300ba0a020047
:102b48000000000000a0250021262000b218020085
:102b58000000000082292000e1c1b30000c1b300d9
:102b6800ba0a02000000000000a02600810120002f
:102b7800b21802000000000082292000e1c1b30061
:102b8800a0c0b300ba0a0200000000000020210023
:102b9800a1072000b218020000000000a20f2000c8
:102ba800e1c1b300d0c0b300ba0a020000000000bf
:102bb80000a0250021262000b21802000000000015
:102bc8000080fa00000006000000fa00f21f200052
:102bd800e1c1b300d0c0b300ba0a0200000000008f
:102be80000a0250021262000b218020000000000e5
:102bf800c20c2000e1c1b30000c1b300ba0a020050
:102c08000000000000a0250021262000b2180200c4
:102c18000000000082292000e1c1b30000c1b30018
:102c2800ba0a02000000000000a02600810120006e
:102c3800b218020000000000c2212000e1c1b30068
:102c4800a0c2b300ba0a02000000000000a02600db
:102c580081012000b218020000000000f21f2000cd
:102c6800e1c1b300c0c0b300ba0a0200000000000e
:102c780000a0250021262000b21802000000000054
:102c880082292000e1c1b30060c0b300ba0a020083
:102c98000000000000a0250021262000b218020034
:102ca80000000000c20c2000e1c1b30060c0b30006
:102cb800ba0a02000000000000a02500212620001a
:102cc800b2180200000000000080fa0000000600b0
:102cd8000000fa00f21f2000e1c1b300a0c0b30059
:102ce800ba0a02000000000000a0260081012000ae
:102cf800b218020000000000f21f2000e1c1b3007a
:102d080020c0b300ba0a02000000000000a025009d
:102d180021262000b2180200000000000080fa00fe
:102d2800000006000000fa0082292000e1c1b3007b
:102d3800a0c0b300ba0a02000000000000a02600ec
:102d480081012000b2180200000000006216200075
:102d5800e1c1b30020c0b300ba0a020000000000bd
:102d680000a0250021262000b21802000000000063
:102d780002322000e1c1b300a0c2b300ba0a0200c7
:102d88000000000000a0260081012000b218020007
:102d980000000000c20c2000e1c1b300c0c0b300b5
:102da800ba0a02000000000000a0260081012000ed
:102db800b218020000000000c20c2000e1c1b300fc
:102dc80060c0b300ba0a02000000000000a026009c
:102dd80081012000b21802000000000082292000b2
:102de800e1c1b30000c1b300ba0a0200000000004c
:102df80000a0260081012000b21802000000000097
:102e0800a20f2000e1c1b300d0c0b300ba0a02008b
:102e18000000000000a0250021262000b2180200b2
:102e2800000000000080fa00000006000c00fa0014
:102e3800881f7800008fbe0022079800330798008b
:102e4800440798005507980018c0b3002e01900059
:102e5800be0190001e00be00dc040200000000005d
:102e680000027800e00f5200010035000044eb003a
:102e7800e04f5400030032002e029000be02900082
:102e88001000370018c0b3004e019000de0190001a
:102e98001e00be00e00402000000000000027800ee
:102ea800e00f520001003c000044eb00e04f5400ea
:102eb800030032004e029000de029000010037004d
:102ec8001e02be000400be004f0478000080fa0015
:102ed800000006000c00fa00008fbe0022079800d0
:102ee8003307980044079800550798002e02900071
:102ef800be0290001e03be00840f5300858f5b0046
:102f080003003d002e029000be0290000a00370028
:102f18004e029000de0290001e03be00840f530094
:102f2800858f5b00030034004e029000de029000a3
:102f3800010037001e02be000400be000080fa0037
:102f4800000006000800fa00881f78002007980093
:102f5800310798002e029000be02900005f0a100f3
:102f680018c0b300b2fd2000930424000400be0082
:102f7800dc0402000000000000027800e00f5200ac
:102f8800010035000044eb00e04f5400030032001c
:102f98002e029000be0290002f003700b2fd2000e4
:102fa800930c24002e009000be0090003005020013
:102fb800000000000002be00048fbe0018c0b3006d
:102fc800b2fd200093042c001e00be00dc040200a9
:102fd8000000000000027800e00f520001003500f8
:102fe8000044eb00e04f540007003200b2fd20001f
:102ff800930c24001e00be009e0302000000000087
:103008000002be00048fbe0018c0b300b2fd20004d
:10301800930424001e00be00e0040200000000002b
:1030280000027800e00f520001003c000044eb0071
:10303800e04f540007003200b2fd2000930c24003a
:103048001e00be009c030200000000000002be003b
:10305800048fbe001e02be000400be004f047800ac
:103068000080fa00000006000000fa00353a8000ef
:1030780004e02f00848262006409200005027200c7
:10308800343a8800253a800004fe2f00048262004a
:103098005400b300243a8800243a80000460a10058
:1030a8000470a100243a880000000000153a80004e
:1030b8000402200004826200e00f5200fbff32008d
:1030c8000080fa00000006000000fa00e6ff070092
:1030d800fc0a02000000000000d0220011132000aa
:1030e800b2180200000000005611020000000000a3
:1030f8004e0b0200000000000080fa0000000600ed
:020000040000fa
:10310800580800000800000002000000000030001d
:1031180041000000004000000208000046000000d6
:103128000000000060080000080000000000000027
:10313800680800000200000002000000fbff000019
:10314800480800001000000000000000000800000f
:0c31580002000000000000000000000069
:020000040000fa
:10316400f03fb1000180b10006003500ee03090014
:1031740000000000403fb1000180b100fbff3d00b2
:103184001000b000203fb0000200350000800900ac
:0831940000000000000006002d
:020000040000fa
:0200000401f009
:04000c0079ff000078
:020000040000fa
:0200000401f009
:04001000bbff000032
:020000040000fa
:0200000401f009
:040014007fff00006a
:020000040000fa
:0200000401f009
:04001800ffff0000e6
:020000040000fa
:0200000401f009
:04001c00ddff000004
:00000001FF
