:020000040000fa
:080000000002040000000000f2
:020000040000fa
:100008009a0200009a0200009a0200009a02000078
:100018009a0200009a0200009a0200009a02000068
:100028009a0200009a0200009a0200009a02000058
:100038009a0200009a0200009a020000fc2e0000ba
:100048009a0200009a0200009a020000502f000055
:10005800582f00009a0200009a0200009a0200003d
:100068009a0200009a0200009a0200006a2f00001b
:100078009a0200009a0200009a0200009a02000008
:100088009a0200009a0200009a0200009a020000f8
:100098009a0200009a020000402f0000482f00003a
:1000a8009a020000602f00009a0200009a020000e5
:1000b8009a0200009a0200009a0200009a020000c8
:1000c8009a0200009a0200009a0200009a020000b8
:1000d8009a0200009a0200009a0200009a020000a8
:1000e8009a0200009a0200009a0200009a02000098
:1000f8009a0200009a0200009a0200009a02000088
:100108009a0200009a0200009a0200009a02000077
:100118009a0200009a0200009a0200009a02000067
:100128009a0200009a0200009a0200009a02000057
:100138009a0200009a0200009a0200009a02000047
:100148009a0200009a0200009a0200009a02000037
:100158009a0200009a0200009a0200009a02000027
:100168009a0200009a0200009a0200009a02000017
:100178009a0200009a0200009a0200009a02000007
:100188009a0200009a0200009a0200009a020000f7
:100198009a0200009a0200009a0200009a020000e7
:1001a8009a0200009a0200009a0200009a020000d7
:1001b8009a0200009a0200009a0200009a020000c7
:1001c8009a0200009a0200009a0200009a020000b7
:1001d8009a0200009a0200009a0200009a020000a7
:1001e8009a0200009a0200009a0200009a02000097
:0801f8009a0200009a020000c7
:020000040000fa
:100208009a0200009a0200009a0200009a02000076
:100218009a0200009a0200009a0200009a02000066
:100228009a0200009a0200009a0200009a02000056
:100238009a0200009a0200009a020000fc2e0000b8
:100248009a0200009a0200009a020000502f000053
:10025800582f00009a0200009a0200009a0200003b
:100268009a0200009a0200009a0200006a2f000019
:100278009a0200009a0200009a0200009a02000006
:100288009a0200009a0200009a0200009a020000f6
:100298009a0200009a020000402f0000482f000038
:1002a8009a020000602f00009a0200009a020000e3
:1002b8009a0200009a0200009a0200009a020000c6
:1002c8009a0200009a0200009a0200009a020000b6
:1002d8009a0200009a0200009a0200009a020000a6
:1002e8009a0200009a0200009a0200009a02000096
:1002f8009a0200009a0200009a0200009a02000086
:100308009a0200009a0200009a0200009a02000075
:100318009a0200009a0200009a0200009a02000065
:100328009a0200009a0200009a0200009a02000055
:100338009a0200009a0200009a0200009a02000045
:100348009a0200009a0200009a0200009a02000035
:100358009a0200009a0200009a0200009a02000025
:100368009a0200009a0200009a0200009a02000015
:100378009a0200009a0200009a0200009a02000005
:100388009a0200009a0200009a0200009a020000f5
:100398009a0200009a0200009a0200009a020000e5
:1003a8009a0200009a0200009a0200009a020000d5
:1003b8009a0200009a0200009a0200009a020000c5
:1003c8009a0200009a0200009a0200009a020000b5
:1003d8009a0200009a0200009a0200009a020000a5
:1003e8009a0200009a0200009a0200009a02000095
:0803f8009a0200009a020000c5
:020000040000fa
:10040000cfb020000e7f24000e0188000000000005
:10041000000020000000e000020032000001200087
:10042000200288000c00070040ae220001002000de
:1004300011000700000020000000e0000200320070
:100440000000020000000000de3102000000000099
:100450000040da000000fe004440a9000001200036
:100460000000e0000300320000002000a00188002e
:100470004440a80000000600910188008000780038
:100480000000eb0015003700e280400032a0b4000d
:100490009101ba00e280400032a0b4009102ba009b
:1004a000e280400032a0b4000002eb00472bde00e7
:1004b000f507b200602ce10004003a000059eb009f
:1004c0008301e900fdff3e00040037006128e100e0
:1004d000010032000082eb00040007001101ba00a5
:1004e0000200e000e8ff3a00000006003159ba00bf
:1004f0008301e9000c0032002159ba008301e900b0
:10050000080032000400e00003003a00e2804000ee
:1005100032a0b400f5ff370011d9ba008301e90019
:10052000faff3a008100e800e180400032a0b40008
:10053000000006000040da000000fe000a00fa0099
:10054000e20f500022003e0054588000e10f52009c
:1005500006003200872320004623200024232000a9
:1005600005232000e08f530004003a00872220007a
:10057000462220002422200005222000000028001e
:100580001500600003003a00800b78000700280087
:10059000958a7300054020009482620001003a00b1
:1005a00014a0a000820278000600370094037800af
:1005b0000710b200fdff3200b103fb00070b78000b
:1005c0008502e900e08f5200f8ff3a00080037008a
:1005d00034002000c0bf9f00e2bf9f00b4bf9f0057
:1005e000d1bf9f006a805700570907006fb9970075
:1005f000020078000080fa000000060084e0a900f4
:1006000067026000f5ff28004c22dd0036058000ff
:100610008682620068006000850272004300de008e
:100620003505880061006000f4f72f004700dd0009
:10063000a50480000502620004027000a404880082
:10064000000006000621ef0061088800800888008d
:100650001061a90000000600001020003202b60060
:100660000000e9004f00de00000006008560a900e0
:10067000670260008580a9004c22dd00f5ff28009c
:1006800046058000868262008502720000027800c2
:10069000450588000407b20085ff2f004422de00d4
:1006a0005605800086826200850272006802600042
:1006b000550588004322de00f57f2f0061026200ad
:1006c000a6048000868262004b22dd000008b20092
:1006d000850272004700de00a5048800610060000a
:1006e000f4ff2e004c00dd00a5048000050262002e
:1006f00004027000a40488000000060087c0a9005e
:100700006702600087e0a9004822dd00f58f2f0016
:1007100096058000868262008502720000027800e1
:10072000950588000407b200f5ff28004822dd0087
:100730009605800086826200850272006802600071
:10074000950588004322de00f5ff2b006102620060
:10075000b6048000868262004e22dd000008b200ee
:10076000850272004700de00b50488006100600069
:10077000f4ff27004f00dd00b50480000502620091
:1007800004027000b404880000000600901180008c
:1007900061406000000006004211880000118800de
:1007a0001111880000000600c21188008011880025
:1007b000911188000000060084118000660262002a
:1007c000e60f520002003a00b0118000000006005f
:1007d000b0118000f00fb20000000600841180000c
:1007e00066026200e60f520001003200f00fb20014
:1007f000a01188000000060003f0a200889fbe0040
:100800008a9fbe008c1f7800530107005a013300f5
:100810006450e1004f0032006420e10052003200d9
:1008200003826c0007003b000905d0000306d000de
:10083000820f54000c065d000200390002003200f5
:1008400089017800030678008582550004003d0088
:100850000003fd008103fd008502ea008b85420054
:10086000840f720002003b0060001000e08018005e
:100870006011b8000005eb007a28e1000a00390099
:1008800006007800c75ddd00f707b20087807500bd
:100890002d003700828171000a0178006105600037
:1008a0008180d1000080d3008502e900f9ff3b0080
:1008b000060440008784480002003b0060041400e6
:1008c000e0841c000988a300070032008a817100bf
:1008d00082817100610164008904d1000884d30021
:1008e0008b05e800170037000978a30013003a00d1
:1008f0000b00e000130034008b05e90008044400fd
:1009000089844c000a4474000978a3000d003a0061
:100910000b00e000070034008b05e90008044400e8
:1009200089844c0001003a000b0020000978a300e4
:10093000f7ff32000001eb000200370082817100f6
:100940000a017800c90007000cf0a70001f0a00020
:10095000120137006420e10002003a00838f6c002e
:10096000120133000801be000200be000b01370077
:100970000081eb0044013700889fbe008a9fbe00c3
:100980008c1f7800f4000700fb00330003866c0026
:100990006450e1002e0032006420e1003300320098
:1009a0006150e1002f0032006120e100310032008f
:1009b00085855500eb07b0000900200008042000e1
:1009c000050037000804440089844c000a00310007
:1009d0000603430087834b000001530081815b00c5
:1009e000f8ff33000203be000800a0000804440022
:1009f00089844c00f6ff3900c639dd00830173009d
:100a000001003200130020008904d1000884d300c3
:100a10000998a300050032000800a7000300a00009
:100a20008904d1000884d3008b05e8008904d10033
:100a30000884d3000001eb000281d2008b00070084
:100a400001f0a1000cf0a70001f0a000d3003700d6
:100a50006420e100d50032000801be000200be00a3
:100a6000f7ff37006120e100d00032006000b800dd
:100a7000f3ff37000000200001f82700f0ff3700e7
:100a8000140020006b013700f4ff2f0069013700cc
:100a90000001be009b0007000470a70003f0a10046
:100aa0006509b100160032000d0035006828e1002c
:100ab00006003500f0ff2f00f1ff27000300e000e3
:100ac00013003b000100280000000500000040006a
:100ad000818048008502e900fcff3a0008003700e9
:100ae000f88f420002003c008000eb00000005008f
:100af0008100d1000080d3008502e800fcff3a00ad
:100b00000300e00002003b0060001000e0801800dd
:100b1000000006004f89de00820178006001370086
:100b20006011b8006e01370004002000000037009b
:100b3000889fbe008a9fbe008c1f78004f26dd0074
:100b4000850007008c0033006120e1004300320083
:100b50006250e10041003e003e0039006420e100a7
:100b60003c003200058255000f003b000402e80003
:100b700038003a00800f5300818f5b00350034004d
:100b80000800be0003f0a10001f0a60003f0a000e1
:100b90000cf0a70019ff0700800037000603430090
:100ba00087834b000c4646000005530081855b009f
:100bb000020033000a03be000c00a0000402e9009a
:100bc000f6ff3b00850578000602430087824b0054
:100bd00004003a006000b80009f0a70001f0a0008e
:100be0006e0037000002520081825a000704e000c4
:100bf000040033000603430087834b008b05e900a4
:100c0000faff3700090578000604be000203be00a3
:100c10006011b80015000700e00f5200e08f5a0085
:100c20000700350002003c000c08a300040032005d
:100c30000601be0003f0a0000cf0a700effe0700c5
:100c40000a85680001f0a1000af0a70001f0a000e9
:100c5000520037000800be0050003700100220008c
:100c60000cf0a600004088005000370081002000f2
:100c7000618055000b003d000b00200061fe2f003d
:100c80000100e1001d0034008281710061016400f7
:100c90008904d1000884d3000000e800faff3a007c
:100ca0007100200061006400030070000200600019
:100cb0000900320061044400e0844c000988a5006a
:100cc000050032008b05e8006808e10002003a00e8
:100cd0008904d1000884d300f20f20000258e100fb
:100ce00005003d00c75ddd00f907b2008980750091
:100cf00008007800000006000bf827008b00780041
:100d000000000500c70ade00f107b200f50fb200cf
:100d100008003200e1cf4200020032000170a00062
:100d200024000500810f7000010032000408050056
:100d300044000500810f700002003a001400050015
:100d40008502e9000000400081c04800fcff3b0034
:100d50000170a000240005000004be00e9ff0700a8
:100d60000003be000405be000200be00e5ff070050
:100d7000844f7500000006000200be006450e100d0
:100d8000050036006420e100020036000968a30077
:100d900001003a000800be000160a0004f06780084
:100da0004f05be004f04be0000000600f0ff2f00fc
:100db000f1ff2700f9ff3700889fbe008a9fbe0021
:100dc0008c1f7800e4ff0700ebff330003866c0004
:100dd0006450e100240032006420e100270032006a
:100de0006150e100220032006120e1002100320068
:100df0008b854200eb07b1000134b800003ab8001f
:100e00000804420089844a00013ab8000030b80062
:100e10008880400009014a000400330000004000bf
:100e200081804800020149008b05e900c909dd0005
:100e3000830170000100320013002000c814de009e
:100e40004814dd004709de001200b200c808de00c9
:100e50000884700085ff070001f0a1000cf0a700d6
:100e600001f0a000cdff37006120e100cfff32008c
:100e70000801be000200be00f7ff37006150e1002c
:100e8000fcff3a00c9ff3700889fbe008a9fbe0062
:100e90008c9fbe00820578000004be0099ff070009
:100ea0000800be006420e1000700390002003a009b
:100eb000f1ff2700f0ff2f000160a00012022000c8
:100ec00002408800550037006120e10003003a002d
:100ed0000b00a70001f823005000370001f0a1002b
:100ee0000200210093642400e5fe07000800be0014
:100ef00004003500b2fd2000930c24000aff070017
:100f00000004be000005eb000b00a6004f0dde0044
:100f100001f0a1000004be0032982f0023ea230054
:100f2000a5ff07000001eb0003f023000b00a70062
:100f300003f8230031fe0700d5fe07000000a700dc
:100f40000a00a200f3fe07000b00e00003003200dd
:100f50000200200003f0230027fe070001f0a2009a
:100f60000006be00020020009304240092ff070048
:100f70000801be0021fe0700809fbe000c00be00dd
:100f800022a22a00d3a723008bff07004f01be0037
:100f90001afe07000004be0001f0a10002002000bc
:100fa00003982300b6fe07000800be0019003500b4
:100fb0000001be0080ff07000006be00b2c5290088
:100fc000e36223007cff070022222b00f3942b0016
:100fd0000afe07000c01be0077ff0700e27328003d
:100fe00083c0230005fe07000c01be0072ff07004e
:100ff00042aa2a00a3e22b0000fe07000c01be005b
:101000006dff07000801be006bff07000801be006e
:10101000fafd07000a00a70001f0a2004f06be007b
:101020004f05be004f04be00000006000001eb00ab
:1010300095ff3700889fbe008a9fbe00841f7800fe
:1010400045ff07004f00780011003300f0ff2f002c
:10105000838f6c0006003b00040565000a00a700b2
:101060000800370009f0a600100020000800370033
:10107000820f5400838f5c000300390010002000b1
:1010800001003e000000200009f0a7000000ea0077
:101090004f05be004f04be000000e0000000060047
:1010a000881f7800030478000300e00007003d007b
:1010b00060001000e080180060011900e081190054
:1010c00002003b0001f02d00030037000400070080
:1010d00008f0a70001f0a0004f047800000006000f
:1010e000889fbe008a9fbe000082700004027100cb
:1010f00004827100260032000004be000200be001f
:101100006011b8006b092000950220000182cf0019
:101110000a0039000541b1000082cf000700390004
:101120000541b1000982cf00040039000541b1003a
:101130000882cf00010039000541b100054252008c
:10114000120032000a003b008281710061016400dc
:101150008100d1000080d3008984d3000884d300ab
:101160008b05e8000442e800f7ff3a00070037006b
:101170000804440089844c00000048008180480035
:101180008b05e9000442e900f9ff3a00b7fe0700c9
:101190004f05be004f04be000000060080a82000de
:1011a0000000fa0068815700cfb89700bf00070021
:1011b0000080fa0000000600d4c6b3000800fa0060
:1011c000889fbe000084fb008a9fbe00844f5000b1
:1011d00034003600298b20004b0620001100090046
:1011e0000b84d800720040004300dd000080440002
:1011f000810578006022b8000600200007fe230069
:10120000aa0020005001be004000be0013080700e5
:101210000002be00110009008a85d8008005780010
:10122000e9854500c35ddd008b8544000203be00f7
:1012300084bf9f0095bf9f00a6bf9f00b7bf9f00c0
:101240003b02be002b03be000fb897009fb897006b
:101250002fb99700bfb99700000807000002be0031
:10126000110009000a84d800010478004344dd001d
:10127000888444000203be0084bf9f0095bf9f0086
:10128000a6bf9f00b7bf9f003902be002903be0062
:101290000fb897009fb897002fb99700bfb9970074
:1012a0001d003700ea4f500013003600aa0020004e
:1012b000298b2000110009000a84d800010578005c
:1012c000690440004355dd004344dd0008844400c8
:1012d0008a8444006022b8000600200007fe230034
:1012e0003800be002801be00dc0707003902be003e
:1012f0002903be0008003700248b20004344dd0092
:10130000080442006022b8000600200007fe230007
:101310003800be002801be00d00707004f05be0000
:101320004f04be000080fa0000000600d4c6b300df
:101330000800fa00889fbe008a9fbe00e04f500060
:1013400022003d000040ea000004fb00844f5000f2
:101350000a00340044062000a90020001100090002
:101360000404d8002a8b2000110009008900d8004d
:10137000e9004000c308dd0020003700ea4f5000bc
:101380000f003400a4002000110009000404d8005c
:10139000248b2000690040004300dd000000420073
:1013a000430cdd00080242005001be004000be00b8
:1013b0005403be004402be00a807070037003700f0
:1013c0004344dd00248b2000310037000004fb0083
:1013d000844f50002300340044062000a900200060
:1013e000110009000404d8002a802000110009001f
:1013f0008900d800e9004000c308dd0081004500f5
:101400008b0920008a8545003102be002103be0001
:101410003b00be002b01be00900707000002be008b
:10142000110009000904d800010478004344dd00dc
:10143000080545000203be0084bf9f0095bf9f00c2
:10144000a6bf9f00b7bf9f003a02be002a03be009e
:101450000fb897009fb897002fb99700bfb99700b2
:10146000d5ff3700ea4f500007003400a4002000e9
:10147000110009000404d800248020006900400005
:101480004300dd00c5ff37004344dd002480200019
:10149000080442003800be002801be004f05be000f
:1014a0004f04be000080fa0000000600ef04b00008
:1014b000889fbe008a9fbe008c9fbe0000067800f9
:1014c0008e1f78008006eb0091a79f00e2a79f0087
:1014d0006000b8006011b800a0a79f00b1a79f00ee
:1014e000c2a79f00d3a79f00050537009fa09700c4
:1014f00054c2b3008100e80091a79f00844f5000c0
:1015000006003a00810378000002eb0000c3b3003c
:1015100001c2b300b2c2b3000e0037003c0290001b
:101520000404b200040032001c027800004a780073
:10153000040ee800050037000000fb008c00780076
:10154000fb040700e10f4000ed0432008d06e800c7
:10155000eb04370087027800d3c2b300374378002a
:10156000834f53000900320005003c00814f5300b7
:1015700008003200824f53000c003a000700370089
:10158000804f530009003a00060037000430a000e5
:10159000f0ff37000400a000eeff37000410a000a9
:1015a000ecff37000420a000eaff3700e2036200ee
:1015b000010032000400a100e803620001003200d3
:1015c0000420a1008603fb000703b100e98f53004c
:1015d0000d003e00050378000000eb00b602fb00a2
:1015e0006a00b9000503b1009603fb0000804200c9
:1015f0000703b10086027800e98f5300f7ff360039
:10160000b0af9f000a0037008003eb00b7af9f0028
:10161000a7c2b300874f530005003a006fa09700a0
:101620008502e800c0007800e0a79f00b1af9f00ee
:10163000e6c2b300954f130017003a0004e0a00083
:1016400064435300d54f13000300320005037800b4
:101650000000eb0009003700efa197008502e800c9
:1016600043037800e3a79f00f6af9f00c0c6b30016
:101670000d0037006a00b900008043008602780040
:10168000b603fb000703b100e98f5300f9ff3600f2
:10169000f0af9f00f5ff37008003eb0004c0a0000f
:1016a000f7af9f00f1ff37003543780095a79f0003
:1016b000804f530016003200c5c6b300854f53005b
:1016c00009003c00e9c25200854f530080003200ff
:1016d000e3c24200854f530013003200e04f530035
:1016e0008c0432009b00370055c7b300854f530070
:1016f0009d003200e3c24200854f53000d003200ce
:10170000e5c25200854f530092003a000c003700aa
:10171000f0036200060120000100320006002800ec
:1017200004027300e0ff3700e6679f0004a0a000fa
:101730008f003700e6679f000470a0008c00370020
:101740006fa19700e6679f00c2027800e2a79f00a2
:1017500005047800e08f520001003a0068ad2000d7
:10176000080378008002eb00010037008502e800e2
:10177000e6c37a00e0cf5300fcff3a00850478000e
:10178000ffa99700e08f510003003200898f5100bc
:1017900001003100830478000007eb003fab9700a5
:1017a000890f5300010036000907530068026200e8
:1017b000b4b79f002a003a0004c2b30010003700fb
:1017c000bc0290000504b200040032009c027800c4
:1017d000844a7800050ee8000700370084bf9f00a8
:1017e0008c00780000022000510407000fba970017
:1017f000e10f4000010032008d06e8000e07e9000d
:10180000e00f5700eeff3a000087eb0014003700ae
:101810003c0290000404b200090032000802780083
:101820001c037800b4427800054b7800040478006b
:10183000060ee800e0cf520008003a00080037002a
:10184000080278008c0078003400fb000404780063
:1018500037040700e10f4000010032008d06e80068
:10186000090278008404e900e00f5200e8ff3a0022
:10187000bfb3970004c2b300e08f530011003a00d9
:101880001f043700bc0290000504b20004003200bf
:101890009c027800844a7800050ee80007003700b3
:1018a00084bf9f008c007800000220002004070005
:1018b0000fba9700e10f4000010032008d06e800ea
:1018c0000e07e900e00f5700eeff3a000c04370066
:1018d0006fa0970070036200c0027800e0a79f002d
:1018e00005007800cf80de000101780082017800d9
:1018f000b0b79f00c1b79f00d2b79f00e3b79f006a
:101900004800de00c80add0000807200e0679f002a
:10191000e00f530009003200e04f50000700320092
:10192000e14f4000050032006fe39700f0679f0031
:10193000866f9f002900200003003700efe3970027
:1019400019002000f7679f0078fa2f000f04440069
:101950008bff3700e6679f0068fa2f000f044400f2
:101960001900200086ff3700e6679f00040cb300d3
:10197000b4b79f00047020003fb0970004026000dd
:101980004202320004002100040260000200320022
:1019900061002000f1af9f003fb19700700261002d
:1019a000050032006fa097004003be004002be0059
:1019b000e0a79f00060037006fa197004200be001d
:1019c000e2a79f008d0507000002be000203be00d3
:1019d000f4a79f0085af9f0096af9f00a7af9f0021
:1019e0006022b8006033b8007fa097008fa89700ee
:1019f0001fa99700afa99700d2040700e00f50007d
:101a00000c003d007fa097008fa897001fa99700aa
:101a1000afa9970003f0a200f0a79f0081af9f003d
:101a200092af9f00a3af9f00bfb097003100b300fb
:101a3000b1b79f000002eb007fa097008fa897002e
:101a40001fa99700afa99700d4979f006022b80004
:101a50006033b8001f050700e00f5000340032006b
:101a6000a4fa2f000f0242007fa097008fa89700d2
:101a70001fa99700afa99700db0507005f909700ab
:101a8000a40020000000e9006300b9001100090073
:101a90000400d800d0979f00e00f500002003d00e6
:101aa0000000e900d0979f005f9497000840ea008b
:101ab0001efe07007fa297008faa97001fab97001a
:101ac000afab9700e50507000002be000203be00b1
:101ad000a4a79f00b5a79f00c6a79f00d7a79f00f8
:101ae0006022b8000600200007ff230095040700cd
:101af000e00f500002003d000804e9000b00370031
:101b00006022b80006002000470224002fa09700a2
:101b1000bfa097004fa19700dfa197008e04070098
:101b2000e00f5000020035000804e800d8979f003d
:101b3000ffaa9700f88f52000f003c000540780084
:101b40009dfd07000002be000203be007fa09700bb
:101b50008fa897001fa99700afa99700fc03070063
:101b60000002be000203be00f4a79f0085af9f00e5
:101b700096af9f00a7af9f005f949700e90f5400b6
:101b800015003c006022b8006033b8007fa09700c9
:101b90008fa897001fa99700afa99700cd04070051
:101ba000e00f5000320032007fa097008fa897000e
:101bb0001fa99700afa997002f050700e00f50005d
:101bc000e08f5800e00f5900e08f590028003a00dc
:101bd000e10f5400260034000400200005002e0010
:101be000b6e02200170124002fa09700bfa09700a5
:101bf0004fa19700dfa1970052040700e00f5000ab
:101c000002003d00730454000100370072045400c8
:101c1000d8979f002f689700c4fd07000002be0000
:101c20000203be007fa097008fa897001fa997000e
:101c3000afa99700a4a79f00b5a79f00c6a79f00c4
:101c4000d7a79f00490407000b0507000205be0047
:101c50000004be006000b8006011b800f0a79f004b
:101c600081af9f0092af9f00a3af9f001700370086
:101c70007fa097008fa897001fa99700afa9970092
:101c8000fd0407000205be000004be002b0507008e
:101c90000002be000203be007fa097008fa897003d
:101ca0001fa99700afa99700e10507000002be0039
:101cb0000203be00f4a79f0085af9f0096af9f0070
:101cc000a7af9f000002eb00d4979f00a1962000d1
:101cd00010c0b300080037003102be003103be005f
:101ce0000440e10005c8e10006d0e10007d8e100aa
:101cf000030039000040e800f44f5000f6ff3a00be
:101d0000e0679f005f929700bfaa97007fab9700a4
:101d1000048252000000fb0006025200000752003d
:101d2000e00f5300010032000e07e900bfb3970037
:101d300063826300010032000e07e9003fb09700a4
:101d4000640260003b00320062026000e102600059
:101d5000e00f5200110032003c0290000404b20077
:101d6000080032001c037800b4c2b300e08f5200b8
:101d70000100320004c2e800044b7800060ee800bf
:101d800015003700b0022000e08f52000100320041
:101d90000080e8008c0078000c003700e08f5200d3
:101da000200032003c0290000404b2000500320022
:101db0009c02780004c2b300844a7800050ee80053
:101dc000050037008c00780000022000d8020700d0
:101dd000e10f4000130032008d06e80011003700cb
:101de0003c0290000404b200040032001c0278009f
:101df000054a7800040ee80007003700f5b79f0099
:101e00008c00780000032000c9020700ffb2970091
:101e1000e10f4000010032008d06e8000e07e900e6
:101e20000100370005c3b300e00f5700ecff3c0092
:101e300065003700bfb097006882600015003a0067
:101e4000110037003c0290000404b200040032008c
:101e50001c027800054a7800040ee80007003700ed
:101e6000f5b79f008c00780000022000b002070048
:101e7000ffb29700e10f4000010032008d06e8003c
:101e80000e07e9000100370005c2b300e00f57005c
:101e9000ecff3c003fb1970062026100e10261008b
:101ea000e00f5200110032003c0290000404b20026
:101eb000080032001c037800b4c2b300e08f520067
:101ec0000100320004c2e800044b7800060ee8006e
:101ed0003c003700b0022000e08f520001003200c9
:101ee0000080e8008c00780033003700e08f52005b
:101ef000350032003c0290000404b20004003200bd
:101f00009c02780004c2b300844a780018003700ad
:101f10008c00780000022000270037003c0290006f
:101f20008502fb000404b200130032002496200056
:101f3000c32add00850242009c0178005503be00e3
:101f40004502be00b3af9f000800be000a01be00fc
:101f5000fa050700a4002000050020006033b80047
:101f6000fd05070006c3b300bfaa9700864a4000dc
:101f7000050ee8001300370027962000c32add0075
:101f8000858243000800be000a01be005503be0062
:101f90004502be00e9050700a4002000050020005e
:101fa0006033b800ec0507008c00780004032000c3
:101fb00000024200040078005d020700e10f4000cb
:101fc000010032008d06e8006f6297008442e9004c
:101fd000e5679f00e04f5200d0ff3a001100370044
:101fe0003c0290000404b200040032001c0278009d
:101ff000084a7800040ee800050037008c007800dd
:10200000000320004a020700e10f400001003200f7
:102010008d06e8005f9297000402e900d4979f00c4
:102020000100370008c3b3005f929700e00f520031
:10203000ebff3c007fa89700f20f50000300340034
:1020400024c1b300e4679f0002003700efd8970077
:10205000e1679f006f6297007fa997008402fb00f1
:1020600085025100b5af9f00e04f52000e003200d4
:102070003c0290000404b200050032001c0278000b
:10208000e5c2b300054a7800040ee80005003700f9
:102090008c007800e002200025020700e10f4000dc
:1020a000010032008d06e8006f6097009ffc07007a
:1020b0000002be000203be007fa097008fa8970019
:1020c0001fa99700afa9970064040700ea0307005f
:1020d000350037003c0290008502fb000404b2008a
:1020e0001300320024962000c32add00850242003e
:1020f0009c0178005503be004502be00f3af9f006f
:102100000800be000a01be008c050700a4002000e4
:10211000050020006033b8008f050700ffaa970074
:1021200006c3b300864a4000050ee80013003700de
:1021300027962000c32add00858243000800be00e8
:102140000a01be005503be004502be007b05070024
:10215000a4002000050020006033b8007e050700c1
:102160008c00780004032000000242000400780084
:10217000ef010700e10f4000010032008d06e8008a
:102180006f609700219620000002fb004322dd00d3
:10219000048240000800be000a01be005403be00d5
:1021a0004402be006c0507006f6297000205be0086
:1021b0000004be008442e900e5679f00e04f520042
:1021c000c4ff3a0011003700bc0290000504b200c1
:1021d000040032009c027800844a7800050ee80072
:1021e0000700370084bf9f008c00780000032000a8
:1021f000cf0107000fba9700e10f40000100320045
:102200008d06e8008904e90006003700bfac97009e
:10221000f0af9f0081b79f0092b79f00a3b79f00c8
:1022200004c3b300e08f5400e7ff3a00bfb097004b
:1022300068826000b2013200e00f5700b001340044
:1022400004c2b300bc0290000504b20004003200d6
:102250009c027800844a7800050ee80007003700e9
:1022600084bf9f008c00780000022000b0010700ae
:102270000fba9700e10f4000010032008d06e80020
:102280000e07e900efff3a009d0137003fb19700cc
:10229000e00f510005003d00efa197004305be008f
:1022a0004304be00e3a79f00150037003fb397002b
:1022b000f00263000c0032006fa197004200be00e4
:1022c000a49f9f00809f9f00919f9f00b49f9f00ad
:1022d000e2a79f000f9c97009f9c97002f9d97005f
:1022e000bf9d9700060037006fa297004404780056
:1022f000e4a79f00090020000a0020000b00200036
:10230000ffaa9700e08f520009003a001600200053
:10231000f6af9f00e00f5400e08f5c00e00f5d001f
:10232000e08f5d00020032008003eb00f7af9f00fa
:102330003fb0970004082000000cb200f0a79f00f7
:10234000840f500010003200040c2000840f500055
:1023500021003a00a596200014c0b3003500be004d
:102360003501be000040e10001c8e10002d0e100fb
:1023700003d8e100170039000442e800f44f52008e
:10238000f6ff3a001300370014c0b300000120002c
:10239000010020006011b8000040e10001c8e10028
:1023a00002d0e10003d8e1000a0039004500200016
:1023b0000000d0008180d2000281d2008381d2004f
:1023c0008502e900faff3a000442e800f04f5200ab
:1023d000f1ff3a00e4679f006f639700ffab97003f
:1023e0000602fb00870f520002003d00e7679f00d6
:1023f000040037007fa89700840f500001003d00c3
:10240000f4af9f00bfa89700e08f50000500320096
:102410003fb1970063026100020032008100e900d1
:10242000b1af9f0004002400bfb197000482610097
:10243000090032003faa9700ffaa9700850f5200bb
:102440000300340005025200b4af9f0002003700c1
:102450000003eb00b6af9f00ef6397000007eb00af
:102460000702fb003fa89700840f500001003400d2
:1024700004075000bfb09700648260003a00320049
:10248000e282600061826000e08f52001100320041
:10249000bc0290000504b200080032009c027800e3
:1024a000b6c2b300e00f52000100320006c3e800dc
:1024b000864a7800050ee80015003700b0022000bb
:1024c000e00f5200010032000080e8008c0078002c
:1024d0000c003700e00f52000e0032003c0290006a
:1024e0000404b200050032001c02780005c2b300eb
:1024f000054a7800040ee800050037008c007800db
:10250000000220000a010700e10f40000100320034
:102510008d06e800e00f57005000320004c3b300fe
:10252000bc0290000504b200040032009c02780056
:10253000844a7800050ee8000700370084bf9f003a
:102540008c00780000032000f90007000fba970004
:10255000e10f4000010032008d06e8000e07e9009f
:10256000efff3a003d003700e00f57001500320042
:102570003fb197006802610012003a0004c2b30044
:10258000bc0290000504b200040032009c027800f6
:10259000844a7800050ee8000700370084bf9f00da
:1025a0008c00780000022000e10007000fba9700bd
:1025b000e10f4000010032008d06e8000e07e9003f
:1025c000efff3a00bfb19700e282610061826100d3
:1025d000e08f520011003200bc0290000504b200ee
:1025e000080032009c027800b6c2b300e00f52002f
:1025f0000100320006c3e800864a7800050ee800b4
:1026000015003700b0022000e00f52000100320038
:102610000080e8008c0078000c003700e00f5200ca
:102620000e0032003c0290000404b20005003200ab
:102630001c02780005c2b300054a7800040ee800c9
:10264000050037008c00780000022000b800070069
:10265000e10f4000010032008d06e8007faa9700dc
:102660000e0078008402e900bfb39700422bdd0022
:1026700024962000c32add00f08363000482420018
:10268000c69f9f00f7979f00e0979f000407780080
:10269000b8af9f00c9af9f00daaf9f00ebaf9f00bc
:1026a0007c003700ffaa9700040820008502e9009b
:1026b0007fa39700f5af9f00840f530050003200b6
:1026c000040c2000840f53005d003a00bfb3970054
:1026d000e08f53001a003d003e04be002e05be00f0
:1026e0003fa89700cfa897005fa99700efa9970090
:1026f0000802be000a03be00100407000802be0064
:102700000a03be00e0679f000000fb00cf80de00f0
:102710000101780082017800710407003faa970048
:10272000cfaa97005fab9700efab97000002520073
:1027300081825a0002035b0083835b001f00370025
:10274000ff929700e08f5200210032003faa9700cd
:10275000cfaa97003e04be002e05be000400be00b6
:1027600084bf9f00f5b79f000801be003203070039
:102770000801be00e0679f000000fb00cf80de0084
:102780003d0307000fba9700ffb297000003520005
:1027900081835a000000eb00d69f9f00e79f9f00b7
:1027a00080a79f008003eb00f79f9f005f9a970030
:1027b000ef9a97007f9b97008fa39700b4af9f007d
:1027c000c5af9f00d6af9f00e7af9f00080037005e
:1027d0001e027800bfaa9700110009008482d80069
:1027e000a4002000110009000480d800e1679f00c8
:1027f0006f6397000643b000e6679f001000370044
:102800003faa9700cfaa97005fab9700efab970066
:102810004f989700d1ad20000000e900050033007b
:102820008703d1000683d3008582d3000482d300be
:10283000f9ff37006f02620061427a00e4679f008f
:102840003c0290000404b200070032009c027800b1
:102850006f629700844a7800050ee800e04f52004e
:1028600007003a00070037006f6197008c0078007e
:102870000200fb002e000700e10f400001003200c3
:102880008d06e800cf999700e4815100c39f9f0017
:10289000680757007faa9700e00f520081ff3a00b7
:1028a000bfb297006f9797006882620014003200f1
:1028b000e00f57001200340004c2b300bc029000c5
:1028c0000504b200040032009c027800844a7800bb
:1028d000050ee8000700370084bf9f008c007800d9
:1028e00000022000120007000fba9700e10f40001d
:1028f000010032008d06e8000e07e900efff3a0004
:102900001fa3970016407800e0679f00e04f50003b
:10291000f6fa3a004f0778000d0078004f06be0027
:102920004f05be004f04be00ef04b10000000600da
:10293000889fbe00010478008084eb00380290007c
:10294000e20262003b00320004037800980290002b
:102950000620b20002003a00e08f520035003a0033
:102960000490a0008004780034049800f90fb200ad
:10297000e08f520002003a00a8029000050c780097
:10298000ea8f540005003a000408b20003003a0040
:1029900088007800d0002000e5ff070018029000b2
:1029a000d8029000850f52000b0032000402e800ac
:1029b00015c0b3001404980018027800094a780082
:1029c000040ce80044b02000054a7800ea8f540067
:1029d00018003a00050037000940780088007800a8
:1029e00017000700800478001200370038029000ba
:1029f0000410b2000f00320018019000a8009000ef
:102a000048009000cdf6070018029000840f500097
:102a100004003200380290000403b300340498002c
:102a20008084eb000002eb00140498002802900060
:102a3000040c7800090078004f04be000000060076
:102a40000200fa00889fbe0001047800a0ff9f00ea
:102a500038029000840278000504b20002003200bf
:102a60000000fb0035003700e202620005003a007a
:102a70000403b30015049800340498000080eb00b0
:102a80002e003700d8049000e08f540006003a0072
:102a900012002000e680570048009000a7f60700cb
:102aa0001904980023003700a8029000e08f52001c
:102ab00008003a0085b020000430a00025049800ea
:102ac000050c780034049800250020005504980077
:102ad0001504980018019000a8009000480090008c
:102ae00096f60700280290008082eb0015049800fb
:102af000affa9700054a7800040ce8002ffa970017
:102b0000ea4f52000b003a00380290000410b20065
:102b10000800320018019000a800900048009000c2
:102b200086f607000002eb00a8029000140498004b
:102b3000050c78002ffa97000400fb004f04be003c
:102b40000080fa000000060000c0da000000060065
:102b50002800fa00889fbe008a9fbe008c9fbe009e
:102b600007067800878669000c003b0003047800a4
:102b70008704780008f0a10009f0a100840f50003c
:102b8000858f5800860f5900890f5c0003003300c1
:102b90000cf0a20001003a000cf0a100fe000700ba
:102ba0006400e1005f003200780147006408e10042
:102bb000610032006c014700748557003200be008e
:102bc0001201be003a04be001a05be001e039000aa
:102bd000be0a90008503530006003d000004fd007e
:102be0008104fd000205fd008305fd008703ea0066
:102bf000050378000df8a3000400320060041400ff
:102c0000e0841c0060051d00e0851d006022b80006
:102c10007d0320000d38e1008006eb000b00390039
:102c20004433dd00f300b200830173003900370044
:102c3000848272000d027800e10664008b85d10069
:102c40000a85d3008984d3000884d3008703e90070
:102c5000f7ff3b0008004000898048000a01490056
:102c60008b81490004003b0060001000e0801800e8
:102c700060011900e08119000358a3000900320027
:102c80008d82720084827200610260008301d10033
:102c90000281d3008180d3000080d3000603e800c6
:102ca0001b0037000348a30017003a000600e000ad
:102cb000170034000603e9000d00a30000004800df
:102cc0008180480002014900838149000348a30034
:102cd0000f003a000600e000090034000603e90096
:102ce00000004000818048000201490083814900c2
:102cf00001003a000003eb000348a300f5ff320097
:102d00006022b8000200370084827200618266008f
:102d10007500070003f0a1000cf0a70003f0a0006d
:102d2000b1003700640147006408e10002003a0086
:102d30000df8a300a9003a003200be001201be0047
:102d4000a90037008f1fd1000e0307008f87e9000d
:102d50000000e00000000600809feb000903070070
:102d60008f87e9000000e000000006002800fa005c
:102d7000889fbe008a9fbe008c9fbe0003866b00aa
:102d8000850007006400e100440032006408e100af
:102d90004a0032006100e100460032006108e100b3
:102da00049003200ec0647006000b8003d02be005a
:102db0003d03be00f48657006011b8003d04be001c
:102dc0003d05be007d0320000b0037000000a00081
:102dd0008d06e900130032000402420085824a0099
:102de00006034b0087834b000000400081804800b1
:102df00002014900838149000802520089825a0079
:102e00000a035b008b835b00f0ff3b00080242007b
:102e100089824a000a034b008b834b008d06e90030
:102e2000edff3a008482720086827200f707b200da
:102e30008782720001003200150020001e049000fd
:102e40003e0b900006035400e63fb0000368a30069
:102e5000070032000000a7000500a0008301d10098
:102e60000281d3008180d3000080d3000603e800f4
:102e70008301d1000281d3008180d3000080d30080
:102e80000002eb000482d2001700070003f0a1004b
:102e90000cf0a70003f0a0005300370064024700c5
:102ea0006408e1004d0032003400be003401be0071
:102eb000f6ff37006108e100480032006011b800f9
:102ec0006000b800f1ff370003ff27000200200078
:102ed000fbff3700801feb00aa0207008f87e90085
:102ee0000000e0000000060018002000570020004d
:102ef000080453000d003d000600200097fc2f0041
:102f00000740e1001e00340084827200610260000c
:102f10008301d1000281d3008180d3000080d300df
:102f20000804e800f8ff3a00470020006104600050
:102f300005047400040464000d00320061004000c8
:102f4000e080480060014900e081490003b8a50025
:102f5000070032000603e8006538e10004003a008b
:102f60008301d1000281d3008180d3000080d3008f
:102f7000f87f20000830e1000300350008037800e6
:102f80006000b8006011b8004433dd00f300b20007
:102f90008301730000000600680447000294be002d
:102fa0000094be00fc0447008694be008494be00da
:102fb00009007800bc02070008007800ba02070088
:102fc00099007800814f70000b003b000800be00a4
:102fd000950207004f00b10003003700f3ff270000
:102fe000f2ff2f006110b9004f06be004f05be0072
:102ff0004f04be000080fa00000006008103780044
:1030000040f707000001be006000b8000478a3008c
:1030100013003a006220e10015003e000d00390067
:103020008301d1000281d3008180d3008301d100cc
:103030000281d3008180d3008301d1000281d300bb
:103040008180d3000538b000c42add00f300b2004f
:103050008381720007f0a70003f0a00000000600c3
:10306000f3ff2700f2ff2f006110b900fbff3700cc
:1030700003ff2700f7ff37001400fa00889fbe0007
:103080008a9fbe008c9fbe000004be000205be00e9
:10309000680047000a90be000890be008202070048
:1030a0000070a7000bf0a1000bf8a30020003a006d
:1030b0009e0990000e099000fe0090006e009000a6
:1030c0009e0290003443200084825200c6ff3200ea
:1030d0000a003c00b4fc2f000428e1001400340076
:1030e0008301d1000281d3008180d3000080d3000e
:1030f0008502e800faff3a00bbff3700b400200069
:103100000428e10007003c000000400081804800e6
:1031100002014900838149008502e900faff3a0073
:10312000b1ff370003002800020020000100370033
:103130006011b8006000b800abff3700889fbe0088
:1031400000827000040271000482710024003200c9
:1031500036432000c50020008383cf000a003900d9
:103160000541b1008283cf00070039000541b1005d
:103170008183cf00040039000541b1008083cf0076
:10318000010039000541b10085c353006022b80039
:10319000120032000a003b0084827200610260006b
:1031a0008301d1000281d3008180d3000080d3004d
:1031b0000603e8008743e800f7ff3a0007003700fe
:1031c00000004000818048000201490083814900dd
:1031d0000603e9008743e900f9ff3a0042ff0700d0
:1031e0004f04be00000006001400fa00889fbe00d5
:1031f0008a9fbe008c9fbe00040678000004be00bb
:103200000205be00680047000a90be000890be009c
:10321000250207006200e1000800be000a01be00ae
:10322000040020000b003a001e029000e43fb100b1
:103230006e009000fe0090000e0990009e09900024
:10324000f300b20005fe2300858171000bf0a7009a
:1032500003f0a000040e780063ff37002800fa0096
:10326000889fbe008a9fbe008c9fbe0003866b00b5
:1032700049ff07000028a30064003a000128a300ca
:1032800067003a000008a30062003a000108a300aa
:1032900065003a001e009000be08900081064000c4
:1032a000ed3fb100f4805700ee019000111ab80014
:1032b0008e099000311bb8009e099000311cb800a7
:1032c000511db800f485570046000700fe0190002c
:1032d0003a0007008b85e8003e0007008e09900049
:1032e00040000700ee019000340007008b85e800e5
:1032f000380007008e099000400007009e099000ea
:103300001b18b800890440000a854800fe0190009f
:10331000340007008b85e80038000700ee019000bc
:10332000300007008e0990001b18b8008904400087
:103330000a8548000a98a30008003a0004024200e7
:1033400085824a0006034b0087834b0008044c002b
:1033500089844c000a054d008d06e90084827200c4
:10336000850273004c3add008502720001003200d4
:1033700015002000443ade001400b2004538de009b
:10338000cb45dd000b007000c540de00cb4ddd00fd
:103390008b8070004549de00cb55dd000b017100cc
:1033a000c551de000d037800cffe070003f0a10039
:1033b0000cf0a70003f0a0000bff37001b18b800ab
:1033c0008502400006834800e0834b0060044c0007
:1033d000070037001b18b800060340008783480029
:1033e000faff37001b18b800870340000884480024
:1033f000e0844c0060054d00000006001b18b8007a
:103400000804400089844800faff37000108a3003f
:10341000f2fe3a005800be005801be00e3ff37003c
:103420000008a300edfe3a0009047800f9ff370018
:1034300007f0a200c6fd37006022b8000602200097
:103440000000d0008180d2000482d2008582d200a8
:103450000000a0000202520083825a0003003100e3
:103460000202420083824a000000a1000603e90034
:10347000f3ff3a0000000600020ab900001bb90081
:103480000200b800810042008100430000000600f5
:10349000889fbe008a9fbe003004be002005be008b
:1034a0000404440085844c0006054d0087854d00ca
:1034b0000898be000a90be000440e10005c8e10083
:1034c00006d0e10007d8e1000200310068004000aa
:1034d0001008e8004f05be004f04be0000000600c3
:1034e0001000fa00889fbe008a9fbe0011002000d5
:1034f0000605be000404be003002be002003be006c
:10350000c4b79f00d5b79f00e6b79f00f7b79f00ed
:103510000802520089825a000a035b008b835b0019
:1035200084bf9f0095bf9f00a6bf9f00b7bf9f00ad
:103530000498be000698be004fb29700dfb2970015
:103540006fb39700ffb397000820e10009a8e100de
:103550000ab0e1000bb8e100010039008000eb0087
:103560004f05be00108810004f04be000080fa0016
:10357000000006001400fa00889fbe008a9fbe006b
:103580008c9fbe000006eb003e000700ccb79f00fa
:10359000bcb79f00acb79f009cb79f008cb79f0043
:1035a0000605be000404be000d0420004fb39700c2
:1035b000bfb29700860343002fb29700e00f53007d
:1035c00004003d003d0007000f004000b0ff070071
:1035d00003003700390007000f004000c0ff07005c
:1035e000cfb2970095bf9f00e08f520009003500d1
:1035f0002b00070014002000050020006033b800f5
:1036000000007200818072000201730083817300e8
:103610001c0007000c06e8008d0f5600e3ff3a007f
:103620001fba9700e00f520005003d000802be00df
:103630000a03be0000fe2f000f00400094ff0700a9
:103640004faa9700e00f520008003a000fb497000d
:103650009fb497002fb59700bfb59700d8b79f00cc
:10366000e9b79f00fab79f008bbf9f000c000700cf
:103670004f06be004f05be004f04be000080fa009a
:1036800000000600010007000000060090b79f0040
:10369000a1b79f00b2b79f00c3b79f00000006000c
:1036a00001000700000006001fb09700afb09700b0
:1036b0003fb19700cfb19700000006004f2bde000e
:1036c000f9ff070086837300858242004f23de00e6
:1036d000a7b79f00868272000402420095b79f0040
:1036e000ffaa97004f2bde0085824200060272007f
:1036f00084b79f006faa97004f23de0004024200a8
:1037000086827200f5af9f004f18de000002720043
:10371000e5ff0700e4af9f00000040008180480003
:1037200002014900838149000802be000a03be006d
:10373000d6ff070000fe2f0000000600881f78005b
:1037400018002000881f78008aff07008f87e90093
:103750004f04780000000600801feb0085ff070083
:103760008f87e90000000600889fbe008a9fbe0088
:10377000e00f5000e08f5800e00f5900e08f590033
:103780000c003d006044b8006055b80000005400d3
:1037900081805c0002015d0083815d0018002000d3
:1037a0001500070008003d00180007000004eb00aa
:1037b000050037000004eb000f00070002003d0089
:1037c0001200070018002000dcff0700e00f540083
:1037d000060032006022b8006033b80000005200da
:1037e00081805a0002015b0083815b004f05be00af
:1037f0004f04be0000000600e00f5200e08f5a00a8
:10380000e00f5b00e08f5b00000006006044b80042
:103810006055b8000402540085825c0006035d0018
:1038200087835d0000000600889fbe008a9fbe005f
:103830008c1f7800e00f5000e08f5800e00f590017
:10384000e08f59000d003d006044b8006055b8009d
:103850001c0020000000540081805c0002015d001b
:1038600083815d000820e10009a8e1000ab0e100c1
:103870000bb8e1000d003d00080037000006eb002a
:10388000e00f5200e08f5a00e00f5b00e08f5b001a
:1038900006003d006044b8006055b80004025400c2
:1038a00085825c0006035d0087835d00aaff070038
:1038b000e00f5600060032006022b8006033b80006
:1038c0000000520081805a0002015b0083815b008e
:1038d0004f0678004f05be004f04be0000000600f2
:1038e000889fbe008a9fbe008c1f78000006eb00f8
:1038f000e00f5000e08f5800e00f5900e08f5900b2
:1039000007003d006044b8006055b8001c0020006e
:103910000000540081805c0002015d0083815d0035
:10392000e00f5200e08f5a00e00f5b00e08f5b0079
:1039300007003d006044b8006055b8000c00a200cc
:103940000402540085825c0006035d0087835d00ed
:103950007c000700e00f5600060032006022b8002d
:103960006033b8000000520081805a0002015b0001
:1039700083815b004f0678004f05be004f04be00f8
:1039800000000600889fbe008a9fbe008c9fbe007c
:103990000404be000605be00809fbe00829fbe00dc
:1039a0002f000700040678000800be000a01be00d0
:1039b0002b000700840678004f03be004f02be00b4
:1039c0008d4f76007fb0970013003300f0ff2f007b
:1039d0008b8f6b0006003b000d0666000c00a700f5
:1039e0000a00370007f0a600100020000a00370088
:1039f000880f5200898f5a008a0f5b008b8f5b0003
:103a0000030039001000200001003e0000002000eb
:103a100007f0a7000000ea004f06be004f05be00f9
:103a20004f04be0000000600e48240001078a300ae
:103a300007003200640240001178a3003400be0089
:103a40001401be00040032000330a700000006008d
:103a50003500be001501be000330a00000000600c6
:103a600005ff270005826100070032000428e100fd
:103a700001003200240005000600070001003a00a2
:103a8000440005000408050002000700f9ff3a00a1
:103a9000140005006f8261008102700085027100d0
:103aa0008502720000000600800078005002be000f
:103ab0005003be004439de00f700b200f37f20005f
:103ac00003016100090032000218e10016003a000b
:103ad0008501720083017300838173000008200058
:103ae00015003a00400020001300370085017200e5
:103af000830173008381730005003a0004a8be00af
:103b000006a8be00100020000b0037000201e900eb
:103b10000402420085824a0006034b0087834b0063
:103b20000748a300f9ff32000740a00004a8be0028
:103b300006a8be0020002000800098009200980097
:103b400000000600889fbe008a9fbe008c9fbe00ba
:103b50000404b8000506b8008904460060854e00dc
:103b60000606b8000a054600e0854e000706b800c4
:103b70008b054600040eb800890446000a854e00f5
:103b8000e0854d00050eb8000a0546008b854e0005
:103b9000060eb8008b0546000416b8000a0546005c
:103ba0008b854e000516b8008b054600041eb80034
:103bb0008b0546000800be000a01be004f06be008d
:0c3bc0004f05be004f04be0000000600d0
:020000040000fa
:103bcc00455f00007625000066200000455f000080
:103bdc007674000025660000200a00000d0000002d
:020000040000fa
:103bec000000fa00153a8000f40b200004836200f8
:103bfc00640420007505200027742000844b780095
:103c0c00854b7800864b780034358000f401b30086
:103c1c00343588005536800004fe2f000482620083
:103c2c005400b30054368800153a80000404200078
:103c3c000503720064042000750520002774200021
:103c4c00844b7800854b7800864b78000080fa0016
:103c5c00000006000000fa00153a8000f40b20006a
:103c6c000483620064042000750520002774200082
:103c7c00844b7800854b7800864b78003536800075
:103c8c00f40f2e0004826200343688003535800033
:103c9c0004fe2f00048262007400b30034358800e7
:103cac00153a80000404200005037200640420000f
:103cbc007505200027742000844b7800854b780014
:103ccc00864b78000080fa00000006000200fa0023
:103cdc00004f7800000000009511800004202000a7
:103cec0004826200e00f5200fbff3a009e42780013
:103cfc000582fb0004007800ee03020000000000c7
:103d0c00e4ae2000144278009e424200e4ae200053
:103d1c00054a78000080fa00000006000400fa0052
:103d2c00004f78001147980022479800acff07001d
:103d3c0000c0eb00e5ff070000c0eb00e3ff07004d
:103d4c00e4ae20008042eb00054a78001e4078006b
:103d5c00deff07001e42900004c2e8000440780019
:103d6c00daff07002e409000d8ff07000080fa0011
:103d7c00000006000600fa00204798002107980072
:103d8c000042eb00044f7800080037009e42780098
:103d9c000582fb00ae0290000482420014427800bf
:103dac0004407800c9ff07001e4fe8002e42900027
:103dbc009e42780084cf5200f4ff39000080fa0054
:103dcc00000006000000fa00e4ae20001442780067
:103ddc0004c2ea0004407800bcff070000000000a9
:103dec002c0302000000000000427800e04f52005b
:103dfc00fbff3a0097ff07000080fa000000060066
:103e0c000200fa006e003700dc0302000000000024
:103e1c000002780004427800044f7800f4578000c8
:103e2c00e50f420006003a001e427800e14f4200c6
:103e3c0003003a00c4ff2f00f457880060003700dd
:103e4c00f4578000e40f42000c003a001e42780048
:103e5c00e14f420009003a00d4ff2f00f4578800cc
:103e6c00e4ae20008042eb00054a780024af20002d
:103e7c0015c0b3001542980051003700f45780006c
:103e8c00e30f420006003a00e4ff2f00f4578800cd
:103e9c009e42780024af2000054a78004800370085
:103eac00f4578000e20f420010003a001e427800e6
:103ebc00e54f52000d003e000082eb00f4578800e5
:103ecc0024af2000944278001e42780084c2420045
:103edc00e4ae2000054a78001e42780084c2e90056
:103eec0024af20001542980035003700f4578000ad
:103efc00e10f420007003a000002eb00f457880083
:103f0c008e02780024af200015037800160298006a
:103f1c002b003700f4578000e00f520015003500dd
:103f2c0024af2000144290008482fb00f4578000e0
:103f3c00848f52000f003400f45780000403780083
:103f4c0065af2000850243001e437800864a780046
:103f5c000402e800f4578800e4ae20009442780094
:103f6c001e42780084c24200e4ae2000054a78006c
:103f7c001300370024af2000144290008482fb0011
:103f8c00f4578000848f52000b003a009e42780058
:103f9c00e4ae20001442780004c26200e04f5200ec
:103fac0005003a001400200084578800b4ff2f004d
:103fbc00f457880002003700b4ff2f00f457880034
:103fcc00c60302000000000000427800e04f5200df
:103fdc008dff3a000080fa00000006000200fa0093
:103fec00004f780012c0b30021c0b3001e4078000f
:103ffc004aff070073ff07000080fa00000006006c
:10400c000400fa00004f78001147980022479800ee
:10401c0022c0b30021c0b3001e4078003fff070050
:10402c001e40900029ff07002e40900027ff07003c
:10403c0064ff07000080fa00000006000600fa008a
:10404c00004f7800114798002247980023079800ea
:10405c002e4290000442e80032c0b3008440780045
:10406c001e4078002dff07001e40900017ff070030
:10407c00ae0090002e4090003eff070051ff07005d
:10408c000080fa00000006000600fa00004f7800dd
:10409c001147980022479800230798002e42900061
:1040ac000442e80042c0b300844078001e4078000f
:1040bc001aff07001e40900004ff0700ae0090009e
:1040cc002e4090002bff07003eff07000080fa00f7
:1040dc00000006000200fa00004f780052c0b30046
:1040ec008040eb001e4078000cff070035ff0700f6
:1040fc000080fa00000006000200fa00004f780071
:10410c0062c0b3008040eb001e40780003ff070044
:10411c002cff07000080fa00000006000200fa00e5
:10412c00004f78009e4278000582fb00cfa2de0093
:10413c000603200007002000860f5200878f5a00cc
:10414c0036003e00046001003200370033003700b7
:10415c002e0037002d0037002c0037002b003700c5
:10416c002c0037002d0037002a0037002b003700b9
:10417c002a003700250037002400370023003700c1
:10418c002400370025003700200037001f003700bf
:10419c001e0037001d0037001e0037001f003700bf
:1041ac001c0037001d0037001800370017003700bf
:1041bc0016003700150037001400370013003700c5
:1041cc0014003700150037001200370013003700b9
:1041dc0010003700110037000e0037000f003700b9
:1041ec000c0037000d0037000a0037000b003700b9
:1041fc0006003700050037000400370007003700c1
:10420c0002003700010037000200370014c0b30071
:10421c000300370024c0b300010037000042eb005c
:10422c00044078000080fa00000006000400fa0048
:10423c00881f7800004f78001147980012079800eb
:10424c000002eb00845788000e84e8001e409000aa
:10425c00b2ff070000427800880178000441780022
:10426c009e4090001e40780074ff07004f047800b9
:10427c000080fa00000006000200fa00004f7800ef
:10428c00114798000002eb00845788001e409000f4
:10429c00a2ff070000427800044178009e40900085
:1042ac001e40780056ff07000080fa000000060050
:1042bc000000fa0066a420006022b800048bbe0047
:1042cc0066a420006022b8002403980035039800ef
:1042dc00e6a420006022b800048bbe00e6a42000f7
:1042ec006022b80024039800350398000002eb000c
:1042fc00745388006022b800a4538800b55388001a
:10430c006022b800c4538800d55388000080fa009e
:10431c00000006001400fa00889fbe0040079800b9
:10432c00510798006207980073079800040f9800d3
:10433c00150f980064a420001403be004e029000d8
:10434c00de0290000401be000600be00fc03020069
:10435c00000000000002be00048fbe0064a4200018
:10436c0024039000b40390006e029000fe029000b3
:10437c000401be000600be00fc03020000000000a9
:10438c000002be0024079800350798002e0290000a
:10439c00be029000849fbe001e02be00849fbe0021
:1043ac0064de2900841f7800ce08020000000000a3
:1043bc00ea875700b4528000c55280000401be0049
:1043cc001e00be00fc030200000000000002be0044
:1043dc00f452880005538800b4528000c552800006
:1043ec001e01be000400be00fe030200000000001f
:1043fc000002be00d4528800e55288001e02be00a6
:10440c00b4528800c5528800145380002553800094
:10441c000401be002e009000be009000fc030200c0
:10442c00000000000002be00545388006553880051
:10443c0014538000255380002e019000be01900083
:10444c000400be00fe030200000000000002be00db
:10445c0034538800455388002e029000be02900011
:10446c001453880025538800b6528000c752800030
:10447c00f4558000055680000401be000600be0005
:10448c00dc060200000000000002be000404be00b6
:10449c00d6528000e75280001456800025568000ca
:1044ac000401be000600be00dc0602000000000095
:1044bc000002be000401be000800be00fe030200a4
:1044cc00000000000002be000404be00f652800092
:1044dc000753800034568000455680000401be000e
:1044ec000600be00dc060200000000000002be0058
:1044fc000401be000800be00fc0302000000000026
:10450c000002be000403be00a4538000b55380001b
:10451c000401be000600be00fe0302000000000005
:10452c000002be00a4538800b553880016538000c7
:10453c002753800054568000655680000401be004d
:10454c000600be00dc060200000000000002be00f7
:10455c000404be003653800047538000745680001c
:10456c00855680000401be000600be00dc06020079
:10457c00000000000002be000401be000800be00e6
:10458c00fe030200000000000002be000404be0096
:10459c00565380006753800094568000a5568000c7
:1045ac000401be000600be00dc0602000000000094
:1045bc000002be000401be000800be00fc030200a5
:1045cc00000000000002be000403be00c4538000c3
:1045dc00d55380000401be000600be00fe0302009d
:1045ec00000000000002be00c4538800d5538800b0
:1045fc00a6538000b7538000c4538000d55380006d
:10460c000401be000600be00fc0302000000000016
:10461c000002be000e0b9000048bbe00a65380005f
:10462c00b7538000c4538000d55380000401be00f2
:10463c000600be00fe030200000000000002be00e7
:10464c001e0b9000048bbe004f04be000080fa00cd
:10465c00000006000800fa00881f7800009fbe00ca
:10466c000297be0064a420001403be00e4a4200042
:10467c001402be0018c0b3000401be000600be0048
:10468c00400502000000000000027800e00f52001c
:10469c00010034000044eb00e04f54000e003200e7
:1046ac0084538000e00f52000b003a0064a42000f9
:1046bc001402be00a2702d0033b223000400be0011
:1046cc00fe030200000000000002be0066a42000f1
:1046dc00048bbe001c00370064a420001403be0031
:1046ec00e4a420001402be0018c0b3000401be00f4
:1046fc000600be0044050200000000000002780025
:10470c00e00f520001003c000044eb00e04f54006d
:10471c000d00320084538000e10f52000a003a0071
:10472c0064a420001402be00a2702d0033b223003a
:10473c000400be00fc030200000000000002be00ea
:10474c0066a42000048bbe0064a420002403900007
:10475c00b4039000e4a42000b40290002402900062
:10476c0018c0b3000401be000600be0040050200e4
:10477c000000000000027800e00f5200010034003d
:10478c000044eb00e04f54001000320094538000c2
:10479c00e00f52000d003a0064a42000b402900017
:1047ac0024029000f226210033a823000400be004e
:1047bc00fe030200000000000002be0066a4200000
:1047cc0024039800350398002000370064a42000cf
:1047dc0024039000b4039000e4a42000b4029000e1
:1047ec002402900018c0b3000401be000600be00f5
:1047fc00440502000000000000027800e00f5200a7
:10480c0001003c000044eb00e04f54000f0032006c
:10481c0094538000e10f52000c003a0064a4200075
:10482c00b402900024029000f226210033a8230049
:10483c000400be00fc030200000000000002be00e9
:10484c0066a4200024039800350398004f047800d8
:10485c000080fa00000006001000fa00881f7800a3
:10486c00009fbe000297be004407980055079800b1
:10487c0066079800770798004e029000de029000c1
:10488c00e6a42000048bbe006e029000fe02900095
:10489c00e6a420002403980035039800e4a420002b
:1048ac001403be001e02be0018c0b3000401be00fb
:1048bc000600be0044050200000000000002780063
:1048cc00e00f520001003c000044eb00e04f5400ac
:1048dc00030032000002eb00845388000200370012
:1048ec001400200084538800e4a4200024039000ca
:1048fc00b40390002e029000be02900018c0b300ca
:10490c000401be000600be004405020000000000c9
:10491c0000027800e00f520001003c000044eb0064
:10492c00e04f5400030032000002eb009453880067
:10493c000200370014002000945388004f047800c4
:10494c000080fa00000006000000fa00c1e1a80097
:10495c00040e80000420a1000430a100040e880085
:10496c00040e80000400a1000410a100040e8800b5
:10497c00c45d2000240e8800c921a800c941a800ec
:10498c00c881a800c8a1a800c8c1a900c801a90075
:10499c00c821a900c841a900c45d2000240e8800cc
:1049ac000002eb00b40e88000002eb00c40e88007d
:1049bc00c0e2a900c962a900c9e2a900c9a2a90064
:1049cc00c4e2a900cd62a900cde2a900cda2a90044
:1049dc000080fa00000006000a00fa00881f780028
:1049ec001007980021079800320798004307980099
:1049fc0018c0b3006011b8003e009000ce009000cb
:104a0c00440502000000000000027800e00f520094
:104a1c0001003d000044eb00e04f54000200320066
:104a2c00cda2a90001003700cda2a80018c0b30088
:104a3c006011b8001e009000ae009000440502000a
:104a4c000000000000027800e00f520001003d0061
:104a5c000044eb00e04f540002003200cde2a8000d
:104a6c0001003700cde2a900180020006011b80049
:104a7c001e009000ae0090004005020000000000f7
:104a8c0000027800e00f5200010035000004eb003a
:104a9c00080f7800c45d2000240e8800040020005c
:104aac00852c240002002000832c2c001e0090007a
:104abc00ae009000be2f0200000000000002be00fd
:104acc00140798002507980004002000852c24006a
:104adc0002002000832c2c003e009000ce009000a1
:104aec00be2f0200000000000002be003407980038
:104afc00450798001e029000ae02900005f0a10040
:104b0c0002002000031f24000400be00dc0602008b
:104b1c00000000000002be000400be0048050200b8
:104b2c00000000000002be0004027800b40e8800f1
:104b3c003e029000ce02900005f0a1000200200081
:104b4c00031f24000400be00dc060200000000006d
:104b5c000002be000400be00480502000000000078
:104b6c000002be0004027800c40e88004f047800d6
:104b7c000080fa00000006000e00fa00881f780082
:104b8c0010079800210798003207980043079800f7
:104b9c005407980065079800180020006011b800b1
:104bac005e009000ee009000440502000000000042
:104bbc0000027800e00f520001003d000004eb0001
:104bcc00080f7800180020006011b8003e0090001b
:104bdc00ce009000400502000000000000027800aa
:104bec00e00f5200010035000004eb00080f7800c4
:104bfc001e019000ae0190000068290081c12400c4
:104c0c00bc040200000000000002be000400be0054
:104c1c0048050200000000000003be0004d027007d
:104c2c0005002000c25d2000030020000600be002d
:104c3c0012300200000000000002be0004027800e6
:104c4c00240e880004002000852c24000200200083
:104c5c00832c2c003e009000ce009000be2f020052
:104c6c00000000000002be003407980045079800c1
:104c7c0004002000852c240002002000832c2c0032
:104c8c005e009000ee009000be2f020000000000bd
:104c9c000002be005407980065079800240e80009f
:104cac0004024200050020000400be009005020032
:104cbc00000000000003be003e029000ce029000f7
:104ccc0005f0a1000401be000600be00dc060200d7
:104cdc00000000000002be0002002000832c240013
:104cec000400be00bc040200000000000002be0074
:104cfc003407980045079800240e800004024200f7
:104d0c00050020000400be00900502000000000019
:104d1c000003be005e029000ee02900005f0a100c0
:104d2c000401be000600be00dc060200000000000c
:104d3c000002be0002002000832c24000400be00f0
:104d4c00bc040200000000000002be0054079800e2
:104d5c00650798003e009000ce00900048050200c8
:104d6c00000000000003be0004a02f00050020007e
:104d7c006011b8000600be001230020000000000f6
:104d8c000002be0004027800b40e88005e009000a1
:104d9c00ee00900048050200000000000003be0079
:104dac0004a02f00050020006011b8000600be0012
:104dbc0012300200000000000002be000402780065
:104dcc00c40e88004f0478000080fa000000060032
:104ddc000600fa00881f7800100798002107980039
:104dec00180020006011b8001e009000ae0090006a
:104dfc00400502000000000000027800e00f5200a5
:104e0c00010035000004eb00080f78001e0278004a
:104e1c0004f0a7000402ea000402e9004f22de00bd
:104e2c00044278000482fb004f22dd0066168000ed
:104e3c00f5ff2700850263000502720064168800e6
:104e4c0004002000852c240002002000832c2c0060
:104e5c001e009000ae009000be2f0200000000006b
:104e6c000002be0014079800250798001e0290004f
:104e7c00ae02900005f0a10002002000031f2400e8
:104e8c000400be00dc060200000000000002be00b0
:104e9c000400be0048050200000000000002be0035
:104eac0004027800b40e88004f0478000080fa00e9
:104ebc00000006000600fa00881f78001007980012
:104ecc0021079800180020006011b8001e00900007
:104edc00ae009000440502000000000000027800c3
:104eec00e00f520001003d000004eb00080f7800b9
:104efc001e02780004f0a7000402ea000402e90094
:104f0c004f22de00044278000482fb006102620042
:104f1c004d22dd0066168000f5ff2d008502630032
:104f2c00050272006416880004002000852c240001
:104f3c0002002000832c2c001e009000ae0090007c
:104f4c00be2f0200000000000002be0014079800f3
:104f5c00250798001e029000ae02900005f0a100fb
:104f6c0002002000031f24000400be00dc06020027
:104f7c00000000000002be000400be004805020054
:104f8c00000000000002be0004027800c40e88007d
:104f9c004f0478000080fa00000006000000fa00c0
:104fac006022b80014508800255088006022b80098
:104fbc0034508800455088006022b8005450880056
:104fcc0065508800e6a020006022b80024039800f9
:104fdc0035039800e6a020006022b800048bbe00c8
:104fec006022b800b4508800c55088006022b80018
:104ffc00d4508800e55088006022b800f450880036
:10500c00055188006022b800145188002551880091
:10501c006022b80034518800455188006022b800e5
:10502c005451880065518800e6a220006022b80027
:10503c002403980035039800e6a220006022b800f3
:10504c00048bbe006022b800b4518800c5518800a2
:10505c006022b800d4518800e55188006022b80065
:10506c00f4518800055288000002eb0014528800ad
:10507c000002eb00245288000080fa0000000600b9
:10508c001400fa00889fbe008a9fbe00000f980093
:10509c00110f9800db0007000e0a9000cfa2de0073
:1050ac000400be008a050200000000000004be00df
:1050bc0014528000cfa2de000400be008a0502005c
:1050cc00000000000002be000401be000800be008b
:1050dc00fc030200000000000002be00f2262100ca
:1050ec0033a823000400be00dc0602000000000010
:1050fc000002be00048fbe001e0a9000cfa2de008c
:10510c000400be008a050200000000000004be007e
:10511c0024528000cfa2de000400be008a050200eb
:10512c00000000000002be000401be000800be002a
:10513c00fc030200000000000002be00f226210069
:10514c0033a823000400be00dc06020000000000af
:10515c000002be0024079800350798000e0a900044
:10516c00145288001e0a9000245288002e019000d0
:10517c00be0190001e00be00fe03020000000000f5
:10518c000002be0002002000030024000400be0048
:10519c00bc040200000000000002be00440798009e
:1051ac00550798001e01be002e009000be00900016
:1051bc00fc030200000000000002be00f20d2e00f5
:1051cc00b3e823000400be00bc0402000000000091
:1051dc000002be0064079800750798001850800004
:1051ec00295080005a5080006b5080000200200033
:1051fc0003f023006e009000fe009000dc0602001d
:10520c00000000000002be000401be000a00be0047
:10521c00fe030200000000000002be000400be00fd
:10522c00b8040200000000000002be004e01900015
:10523c00de0190000400be00dc060200000000004d
:10524c000002be000401be000800be00fe03020006
:10525c00000000000002be00145188002551880097
:10526c0038508000495080005a5080006b508000ac
:10527c000200200003f023006e009000fe0090005e
:10528c00dc060200000000000002be000401be00ab
:10529c000a00be00fe030200000000000002be0077
:1052ac000400be0016080200000000000002be0050
:1052bc004e019000de0190000400be00dc060200ee
:1052cc00000000000002be000401be000800be0089
:1052dc00fe030200000000000002be0034518800f2
:1052ec004551880054508000655080006e0190003c
:1052fc00fe0190000400be00fe030200000000004e
:10530c000002be000400be00630007000002be00e5
:10531c005451880065518800a2702d0033ba2300c7
:10532c004e009000de009000bc0402000000000063
:10533c000002be00e6a22000048bbe00a2702d006d
:10534c0033ba23006e009000fe009000bc040200f3
:10535c00000000000002be00e6a22000240398001a
:10536c0035039800e4a220001403be00e4a0200042
:10537c001402be000401be000600be00fc030200c5
:10538c00000000000002be00b4518800c551880026
:10539c00e4a2200024039000b4039000e4a02000b9
:1053ac00b4029000240290000401be000600be006e
:1053bc00fc030200000000000002be00d451880073
:1053cc00e5518800e4a2200024039000b40390006f
:1053dc00e4a220001402be000401be000600be00c0
:1053ec00dc060200000000000002be00f451880040
:1053fc00055288004f05be004f04be000080fa0025
:10540c00000006000000fa001451800025518000b5
:10541c00145088002550880034518000455180007c
:10542c0034508800455088005451800065518000ec
:10543c005450880065508800e4a220001402be007d
:10544c00e6a02000048bbe00e4a22000b402900071
:10545c0024029000e6a02000240398003503980055
:10546c00b4518000c5518000b4508800c5508800ec
:10547c00d4518000e5518000d4508800e55088005c
:10548c00f451800005528000f450880005518800ca
:10549c000080fa00000006000800fa00881f78005f
:1054ac0020079800310798002e029000be02900051
:1054bc0005f0a10018c0b30062e52000930424009d
:1054cc000400be004005020000000000000278004d
:1054dc00e00f5200010035000044eb00e04f540097
:1054ec00030032002e029000be0290002f00370005
:1054fc0062e52000930c24002e009000be0090006a
:10550c0094050200000000000002be00048fbe00e3
:10551c0018c0b30062e5200093042c001e00be00ee
:10552c00400502000000000000027800e00f52006d
:10553c00010035000044eb00e04f5400070032003e
:10554c0062e52000930c24001e00be00fe03020046
:10555c00000000000002be00048fbe0018c0b300a3
:10556c0062e52000930424001e00be0044050200e6
:10557c000000000000027800e00f520001003c0027
:10558c000044eb00e04f54000700320062e52000bd
:10559c00930c24001e00be00fc030200000000005f
:1055ac000002be00048fbe001e02be000400be003e
:0c55bc004f0478000080fa000000060098
:020000040000fa
:1055c800a00a00001e00000000000000fe0a000003
:1055d8000200000002000000fbff0000ee0a0000cd
:1055e8001000000000000000be0a000018000000c3
:1055f80002000000000080003f00000000000000e2
:1056080000000000000080003f00000000000000d3
:1056180000000000460a00003600000000000000fc
:10562800000b00000200000000000000020a000059
:105638004400000000000000000800000200000014
:10564800000000007c0a00002400000002000000a6
:10565800060b000000060b00090000000002000015
:10566800080b000000080b000e02010000000000fb
:105678000000000000000000060202000000000018
:10568800020b000002000000020000007c0a00007b
:10569800040b00000200000000000000060b0000e0
:1056a8000200000000000000080b000002000000db
:1056b80000000000d60a00001800000002000000e8
:1056c800286e75006c6c29000030310032333400cc
:1056d800353637003839610062636400656600005a
:1056e80062090000a00000000200000001000000a4
:1056f8000000000000000a00000000000000000098
:10570800006400000000000000000000e803000042
:10571800000000000000100027000000000000004a
:1057280000a08600010000000000000040420f00b9
:1057380000000000000080009698000000000000b3
:105748000000e100f50500000000000000ca9a0012
:105758003b00000000000000e40b540002000000c1
:105768000000e80076481700000000000010a500bf
:10577800d4e8000000000000a0724e0018090000e4
:10578800000040007a10f3005a0000000080c600b4
:10579800a47e8d000300000000c16f00f286230084
:1057a800000000008a5d7800456301000000640085
:1057b800a7b3b600e00d000000e889000423c70085
:1057c8008a00000002080000b0000000020000008b
:1057d8000000000000000000f03f00000000000092
:1057e80000002400400000000000000000594000b4
:1057f80000000000000040008f4000000000000092
:105808000088c30040000000000000006af8400063
:1058180000000000008084002e410000000000000d
:10582800d01263004100000000008400d7974100b7
:10583800000000000065cd00cd4100000000200000
:105848005fa002004200000000801d00af15440068
:105858000000000040593e002946000000000000fa
:105868000000f0007f0000000000000000f07f0052
:105878000000000000000000f07f000000000000b1
:105888000000f0007f0000000000000000f07f0032
:105898000000000000000000f07f00000000000091
:1058a8000000f0007f0000000000000000f07f0012
:1058b8000000000000000000f07f0000b2080000b7
:1058c800b00000000200000000000000000000001e
:1058d800f03f00000000a0009999b9003f000000c7
:1058e8000040e1007a843f0000000000e04d6200c3
:1058f800503f00000000e000e2361a003f000000c0
:105908000080b500f8e43e0000000000a0f7c600e3
:10591800b03e00000000a000f2d77a003e00000070
:1059280000e08e0079453e0000000000e00b2e00ec
:10593800113e00000000e000df7cdb003d000000bd
:105948000000a1009cc73b0000000000004c48007c
:10595800b439000000000000206ca10037000000ee
:10596800000000000000000000000000000000002f
:10597800000000000000000000000000000000001f
:10598800000000000000000000000000000000000f
:1059980000000000000000000000000000000000ff
:1059a80000000000000000000000000000000000ef
:1059b800000000000a0b00000200000002000000c6
:0859c8000100000000000000d6
:020000040000fa
:1059d0000200fa00000f78000080fa0000000600c4
:1059e0000000fa000219200021c2b30070c0b30009
:1059f0001c2102000000000000a026008101200000
:105a00001432020000000000421f200021c2b30037
:105a100090c0b3001c2102000000000000a026007e
:105a200081012000143202000000000042382000f2
:105a300021c2b300b0c0b3001c210200000000006e
:105a400000a02600810120001432020000000000a6
:105a50008225200021c2b30010c0b3001c21020027
:105a60000000000000a02600810120001432020086
:105a700000000000421f200001c2b30070c0b3004c
:105a80001c2102000000000000a02600810120006f
:105a90001432020000000000421f200001c2b300c7
:105aa00090c0b3001c2102000000000000a02600ee
