:020000040000fa
:080000000002040000000000f2
:020000040000fa
:100008009a0200009a0200009a0200009a02000078
:100018009a0200009a0200009a0200009a02000068
:100028009a0200009a0200009a0200009a02000058
:100038009a0200009a0200009a020000ac22000016
:100048009a0200009a0200009a02000000230000b1
:10005800082300009a0200009a0200009a02000099
:100068009a0200009a0200009a0200001a23000077
:100078009a0200009a0200009a0200009a02000008
:100088009a0200009a0200009a0200009a020000f8
:100098009a0200009a020000f0220000f8220000f4
:1000a8009a020000102300009a0200009a02000041
:1000b8009a0200009a0200009a0200009a020000c8
:1000c8009a0200009a0200009a0200009a020000b8
:1000d8009a0200009a0200009a0200009a020000a8
:1000e8009a0200009a0200009a0200009a02000098
:1000f8009a0200009a0200009a0200009a02000088
:100108009a0200009a0200009a0200009a02000077
:100118009a0200009a0200009a0200009a02000067
:100128009a0200009a0200009a0200009a02000057
:100138009a0200009a0200009a0200009a02000047
:100148009a0200009a0200009a0200009a02000037
:100158009a0200009a0200009a0200009a02000027
:100168009a0200009a0200009a0200009a02000017
:100178009a0200009a0200009a0200009a02000007
:100188009a0200009a0200009a0200009a020000f7
:100198009a0200009a0200009a0200009a020000e7
:1001a8009a0200009a0200009a0200009a020000d7
:1001b8009a0200009a0200009a0200009a020000c7
:1001c8009a0200009a0200009a0200009a020000b7
:1001d8009a0200009a0200009a0200009a020000a7
:1001e8009a0200009a0200009a0200009a02000097
:0801f8009a0200009a020000c7
:020000040000fa
:100208009a0200009a0200009a0200009a02000076
:100218009a0200009a0200009a0200009a02000066
:100228009a0200009a0200009a0200009a02000056
:100238009a0200009a0200009a020000ac22000014
:100248009a0200009a0200009a02000000230000af
:10025800082300009a0200009a0200009a02000097
:100268009a0200009a0200009a0200001a23000075
:100278009a0200009a0200009a0200009a02000006
:100288009a0200009a0200009a0200009a020000f6
:100298009a0200009a020000f0220000f8220000f2
:1002a8009a020000102300009a0200009a0200003f
:1002b8009a0200009a0200009a0200009a020000c6
:1002c8009a0200009a0200009a0200009a020000b6
:1002d8009a0200009a0200009a0200009a020000a6
:1002e8009a0200009a0200009a0200009a02000096
:1002f8009a0200009a0200009a0200009a02000086
:100308009a0200009a0200009a0200009a02000075
:100318009a0200009a0200009a0200009a02000065
:100328009a0200009a0200009a0200009a02000055
:100338009a0200009a0200009a0200009a02000045
:100348009a0200009a0200009a0200009a02000035
:100358009a0200009a0200009a0200009a02000025
:100368009a0200009a0200009a0200009a02000015
:100378009a0200009a0200009a0200009a02000005
:100388009a0200009a0200009a0200009a020000f5
:100398009a0200009a0200009a0200009a020000e5
:1003a8009a0200009a0200009a0200009a020000d5
:1003b8009a0200009a0200009a0200009a020000c5
:1003c8009a0200009a0200009a0200009a020000b5
:1003d8009a0200009a0200009a0200009a020000a5
:1003e8009a0200009a0200009a0200009a02000095
:0803f8009a0200009a020000c5
:020000040000fa
:10040000ef9b20000e7f24000e01880000000000fa
:10041000000020000000e000020032000001200087
:10042000200288000c000700e04a220001002000a2
:1004300011000700000020000000e0000200320070
:100440000000020000000000c826020000000000ba
:100450000040da000000fe004440a90040012000f6
:100460000000e0000300320000002000a00188002e
:100470004440a80000000600910188008000780038
:100480000000eb0015003700e280400032a0b4000d
:100490009101ba00e280400032a0b4009102ba009b
:1004a000e280400032a0b4000002eb00472bde00e7
:1004b000f507b200602ce10004003a000059eb009f
:1004c0008301e900fdff3e00040037006128e100e0
:1004d000010032000082eb00040007001101ba00a5
:1004e0000200e000e8ff3a00000006003159ba00bf
:1004f0008301e9000c0032002159ba008301e900b0
:10050000080032000400e00003003a00e2804000ee
:1005100032a0b400f5ff370011d9ba008301e90019
:10052000faff3a008100e800e180400032a0b40008
:10053000000006000040da000000fe000a00fa0099
:10054000e20f500022003e00e44d8000e10f520017
:1005500006003200872320004623200024232000a9
:1005600005232000e08f530004003a00872220007a
:10057000462220002422200005222000000028001e
:100580001500600003003a00800b78000700280087
:10059000958a7300054020009482620001003a00b1
:1005a00014a0a000820278000600370094037800af
:1005b0000710b200fdff3200b103fb00070b78000b
:1005c0008502e900e08f5200f8ff3a00080037008a
:1005d00034002000c0bf9f00e2bf9f00b4bf9f0057
:1005e000d1bf9f006a805700f50607006fb99700da
:1005f000020078000080fa000000060084e0a900f4
:1006000067026000f5ff28004c22dd0036058000ff
:100610008682620068006000850272004300de008e
:100620003505880061006000f4f72f004700dd0009
:10063000a50480000502620004027000a404880082
:10064000000006000621ef0061088800800888008d
:100650001061a90000000600001020003202b60060
:100660000000e9004f00de00000006008560a900e0
:10067000670260008580a9004c22dd00f5ff28009c
:1006800046058000868262008502720000027800c2
:10069000450588000407b20085ff2f004422de00d4
:1006a0005605800086826200850272006802600042
:1006b000550588004322de00f57f2f0061026200ad
:1006c000a6048000868262004b22dd000008b20092
:1006d000850272004700de00a5048800610060000a
:1006e000f4ff2e004c00dd00a5048000050262002e
:1006f00004027000a40488000000060087c0a9005e
:100700006702600087e0a9004822dd00f58f2f0016
:1007100096058000868262008502720000027800e1
:10072000950588000407b200f5ff28004822dd0087
:100730009605800086826200850272006802600071
:10074000950588004322de00f5ff2b006102620060
:10075000b6048000868262004e22dd000008b200ee
:10076000850272004700de00b50488006100600069
:10077000f4ff27004f00dd00b50480000502620091
:1007800004027000b404880000000600901180008c
:1007900061406000000006004211880000118800de
:1007a0001111880000000600c21188008011880025
:1007b000911188000000060084118000660262002a
:1007c000e60f520002003a00b0118000000006005f
:1007d000b0118000f00fb20000000600841180000c
:1007e00066026200e60f520001003200f00fb20014
:1007f000a01188000000060003f0a200889fbe0040
:100800008a9fbe008c1f7800530107005a013300f5
:100810006450e1004f0032006420e10052003200d9
:1008200003826c0007003b000905d0000306d000de
:10083000820f54000c065d000200390002003200f5
:1008400089017800030678008582550004003d0088
:100850000003fd008103fd008502ea008b85420054
:10086000840f720002003b0060001000e08018005e
:100870006011b8000005eb007a28e1000a00390099
:1008800006007800c75ddd00f707b20087807500bd
:100890002d003700828171000a0178006105600037
:1008a0008180d1000080d3008502e900f9ff3b0080
:1008b000060440008784480002003b0060041400e6
:1008c000e0841c000988a300070032008a817100bf
:1008d00082817100610164008904d1000884d30021
:1008e0008b05e800170037000978a30013003a00d1
:1008f0000b00e000130034008b05e90008044400fd
:1009000089844c000a4474000978a3000d003a0061
:100910000b00e000070034008b05e90008044400e8
:1009200089844c0001003a000b0020000978a300e4
:10093000f7ff32000001eb000200370082817100f6
:100940000a017800c90007000cf0a70001f0a00020
:10095000120137006420e10002003a00838f6c002e
:10096000120133000801be000200be000b01370077
:100970000081eb0044013700889fbe008a9fbe00c3
:100980008c1f7800f4000700fb00330003866c0026
:100990006450e1002e0032006420e1003300320098
:1009a0006150e1002f0032006120e100310032008f
:1009b00085855500eb07b0000900200008042000e1
:1009c000050037000804440089844c000a00310007
:1009d0000603430087834b000001530081815b00c5
:1009e000f8ff33000203be000800a0000804440022
:1009f00089844c00f6ff3900c639dd00830173009d
:100a000001003200130020008904d1000884d300c3
:100a10000998a300050032000800a7000300a00009
:100a20008904d1000884d3008b05e8008904d10033
:100a30000884d3000001eb000281d2008b00070084
:100a400001f0a1000cf0a70001f0a000d3003700d6
:100a50006420e100d50032000801be000200be00a3
:100a6000f7ff37006120e100d00032006000b800dd
:100a7000f3ff37000000200001f82700f0ff3700e7
:100a8000140020006b013700f4ff2f0069013700cc
:100a90000001be009b0007000470a70003f0a10046
:100aa0006509b100160032000d0035006828e1002c
:100ab00006003500f0ff2f00f1ff27000300e000e3
:100ac00013003b000100280000000500000040006a
:100ad000818048008502e900fcff3a0008003700e9
:100ae000f88f420002003c008000eb00000005008f
:100af0008100d1000080d3008502e800fcff3a00ad
:100b00000300e00002003b0060001000e0801800dd
:100b1000000006004f89de00820178006001370086
:100b20006011b8006e01370004002000000037009b
:100b3000889fbe008a9fbe008c1f78004f26dd0074
:100b4000850007008c0033006120e1004300320083
:100b50006250e10041003e003e0039006420e100a7
:100b60003c003200058255000f003b000402e80003
:100b700038003a00800f5300818f5b00350034004d
:100b80000800be0003f0a10001f0a60003f0a000e1
:100b90000cf0a70019ff0700800037000603430090
:100ba00087834b000c4646000005530081855b009f
:100bb000020033000a03be000c00a0000402e9009a
:100bc000f6ff3b00850578000602430087824b0054
:100bd00004003a006000b80009f0a70001f0a0008e
:100be0006e0037000002520081825a000704e000c4
:100bf000040033000603430087834b008b05e900a4
:100c0000faff3700090578000604be000203be00a3
:100c10006011b80015000700e00f5200e08f5a0085
:100c20000700350002003c000c08a300040032005d
:100c30000601be0003f0a0000cf0a700effe0700c5
:100c40000a85680001f0a1000af0a70001f0a000e9
:100c5000520037000800be0050003700100220008c
:100c60000cf0a600004088005000370081002000f2
:100c7000618055000b003d000b00200061fe2f003d
:100c80000100e1001d0034008281710061016400f7
:100c90008904d1000884d3000000e800faff3a007c
:100ca0007100200061006400030070000200600019
:100cb0000900320061044400e0844c000988a5006a
:100cc000050032008b05e8006808e10002003a00e8
:100cd0008904d1000884d300f20f20000258e100fb
:100ce00005003d00c75ddd00f907b2008980750091
:100cf00008007800000006000bf827008b00780041
:100d000000000500c70ade00f107b200f50fb200cf
:100d100008003200e1cf4200020032000170a00062
:100d200024000500810f7000010032000408050056
:100d300044000500810f700002003a001400050015
:100d40008502e9000000400081c04800fcff3b0034
:100d50000170a000240005000004be00e9ff0700a8
:100d60000003be000405be000200be00e5ff070050
:100d7000844f7500000006000200be006450e100d0
:100d8000050036006420e100020036000968a30077
:100d900001003a000800be000160a0004f06780084
:100da0004f05be004f04be0000000600f0ff2f00fc
:100db000f1ff2700f9ff3700889fbe008a9fbe0021
:100dc0008c1f7800e4ff0700ebff330003866c0004
:100dd0006450e100240032006420e100270032006a
:100de0006150e100220032006120e1002100320068
:100df0008b854200eb07b1000134b800003ab8001f
:100e00000804420089844a00013ab8000030b80062
:100e10008880400009014a000400330000004000bf
:100e200081804800020149008b05e900c909dd0005
:100e3000830170000100320013002000c814de009e
:100e40004814dd004709de001200b200c808de00c9
:100e50000884700085ff070001f0a1000cf0a700d6
:100e600001f0a000cdff37006120e100cfff32008c
:100e70000801be000200be00f7ff37006150e1002c
:100e8000fcff3a00c9ff3700889fbe008a9fbe0062
:100e90008c9fbe00820578000004be0099ff070009
:100ea0000800be006420e1000700390002003a009b
:100eb000f1ff2700f0ff2f000160a00012022000c8
:100ec00002408800550037006120e10003003a002d
:100ed0000b00a70001f823005000370001f0a1002b
:100ee0000200210093642400e5fe07000800be0014
:100ef00004003500b2fd2000930c24000aff070017
:100f00000004be000005eb000b00a6004f0dde0044
:100f100001f0a1000004be0032982f0023ea230054
:100f2000a5ff07000001eb0003f023000b00a70062
:100f300003f8230031fe0700d5fe07000000a700dc
:100f40000a00a200f3fe07000b00e00003003200dd
:100f50000200200003f0230027fe070001f0a2009a
:100f60000006be00020020009304240092ff070048
:100f70000801be0021fe0700809fbe000c00be00dd
:100f800022a22a00d3a723008bff07004f01be0037
:100f90001afe07000004be0001f0a10002002000bc
:100fa00003982300b6fe07000800be0019003500b4
:100fb0000001be0080ff07000006be00b2c5290088
:100fc000e36223007cff070022222b00f3942b0016
:100fd0000afe07000c01be0077ff0700e27328003d
:100fe00083c0230005fe07000c01be0072ff07004e
:100ff00042aa2a00a3e22b0000fe07000c01be005b
:101000006dff07000801be006bff07000801be006e
:10101000fafd07000a00a70001f0a2004f06be007b
:101020004f05be004f04be00000006000001eb00ab
:1010300095ff3700889fbe008a9fbe00841f7800fe
:1010400045ff07004f00780011003300f0ff2f002c
:10105000838f6c0006003b00040565000a00a700b2
:101060000800370009f0a600100020000800370033
:10107000820f5400838f5c000300390010002000b1
:1010800001003e000000200009f0a7000000ea0077
:101090004f05be004f04be000000e0000000060047
:1010a000881f7800030478000300e00007003d007b
:1010b00060001000e080180060011900e081190054
:1010c00002003b0001f02d00030037000400070080
:1010d00008f0a70001f0a0004f047800000006000f
:1010e000889fbe008a9fbe000082700004027100cb
:1010f00004827100260032000004be000200be001f
:101100006011b8006b092000950220000182cf0019
:101110000a0039000541b1000082cf000700390004
:101120000541b1000982cf00040039000541b1003a
:101130000882cf00010039000541b100054252008c
:10114000120032000a003b008281710061016400dc
:101150008100d1000080d3008984d3000884d300ab
:101160008b05e8000442e800f7ff3a00070037006b
:101170000804440089844c00000048008180480035
:101180008b05e9000442e900f9ff3a00b7fe0700c9
:101190004f05be004f04be00000006002095200051
:1011a0000000fa0068815700cfb8970002000700de
:1011b0000080fa0000000600ef03b000889fbe0028
:1011c0008a9fbe008c9fbe00800678008e1f78002c
:1011d0000007eb00d1af9f00a2b79f006603370066
:1011e000dfa8970054c2b3008100e800d1af9f0090
:1011f000844f500006003a00010278000006eb0020
:1012000001c3b30000c2b300b7c2b3000e00370081
:101210003d0290000404b200040032001d02780078
:10122000004a7800840ee800050037000000fb004b
:101230008d0078005c030700e10f40004e03320090
:101240000e07e8004c03370084027800d2c2b300d6
:1012500034437800824f53000900320005003c00ff
:10126000804f530008003200874f53000c003a00b3
:1012700007003700814f530009003a00060037008d
:101280000c30a000f0ff37000c00a000eeff37008c
:101290000c10a000ecff37000c20a000eaff370084
:1012a00062026600010032000c00a10068026600c4
:1012b000010032000c20a1000602fb000403b10073
:1012c000e90f52000c003e00050378000002eb001d
:1012d000b603fb006a22b9000703b100860278005a
:1012e000048243009603fb000703b100e98f53001b
:1012f000f7ff3600080037000002eb00a7c2b3007a
:10130000874f530004003a00afb197008502e80010
:1013100043027800a3b79f000003eb0096b79f003d
:10132000e6c2b300954f13000c003a000ce0a00099
:1013300064435300d54f13000300320005037800c7
:101340000000eb0009003700afb397008502e8000a
:1013500047047800a7b79f0098b79f00050378005f
:10136000090037006a00b900008043008602780057
:10137000b603fb000703b100e98f5300f9ff360005
:1013800090b79f00f5ff3700b6427800cac6b30099
:10139000d6af9f008acf5200250032000f003c00dc
:1013a00036c6b30086cf52009e00320004003c00d7
:1013b000e0cf5200f50232006b4353000f003700bc
:1013c00046c6b30086cf5200170032006543430083
:1013d00086cf5200b2003a001300370036c7b30080
:1013e00086cf52001f00320007003c0064435300c8
:1013f00086cf5200140032000643e80086cf520028
:10140000a7003a001300370056c7b30086cf52003a
:10141000aa0032006343430086cf5200a0003a0086
:10142000e5779f000d003700e5779f00a5003700a6
:10143000f0036600050120000100320005002800cd
:101440000c867200d0ff3700e5779f000c60a0008b
:101450009c003700e5779f000c50a0000c70a000a6
:1014600098003700afb59700e5779f00cb02780072
:10147000abb79f00b5b79f00e08f520002003a0063
:10148000e1932000b1b79f003fb397008002eb00cb
:10149000010037008502e800e6c37a00e0cf530080
:1014a000fcff3a00c5b79f001fb19700e00f510045
:1014b00005003200cfb19700830f510002003100c8
:1014c00082027800c5b79f00cfb297000004eb00fe
:1014d000850f5200010036000504520068066600c0
:1014e00009c2b3000f003200290037003d0290000e
:1014f0000404b200040032001d027800094a78009a
:10150000840ee800050037008d00780000022000fe
:10151000a5020700e10f4000010032000e07e800bd
:101520000804e900e00f5400f0ff3a000084eb00eb
:1015300017003700bd0290000504b2000900320018
:10154000880278009d03780035437800864b780048
:1015500005047800870ee800e04f53000a003a00c7
:1015600011003700880278008d0078003500fb00fc
:1015700084bf9f00050478008b0207000fba970014
:10158000e10f4000080032000e07e80006003700b7
:101590000c027800080678003fb49700cfb497009b
:1015a0005fb59700efb59700890278008504e900e0
:1015b000e08f5200dfff3a00b8b79f00c9b79f0025
:1015c000dab79f00ebb79f000c04780009c2b300a4
:1015d00004067800e00f56000f003a00660237005c
:1015e0003d0290000404b200040032001d027800a5
:1015f000094a7800840ee800050037008d00780065
:101600000002200068020700e10f400001003200e4
:101610000e07e8000804e900e00f5400f0ff3a006c
:1016200055023700afb097007003660041047800a0
:10163000a1b79f00cfc4de00090578008a057800b5
:101640000800be000a01be004800de00c80add0036
:1016500000807200e0779f00e00f53000900320025
:10166000e04f500007003200e14f4000050032001b
:1016700026002000f0779f00887f9f00c6b79f005c
:101680000300370017002000c7b79f00f8779f00be
:1016900078fb2f0008844700b8b79f0082ff37000f
:1016a00069fb2f001a00200089844700e5779f001e
:1016b000b9b79f00cab79f007bff3700e5779f004f
:1016c0000c0cb3008c027800050cb2003b003a0011
:1016d000e00f560005003d00afb297004501be0087
:1016e0004500be00a5b79f000f003700f00266005e
:1016f000120032002fb497004803be00f69f9f00ef
:1017000087a79f00a8b79f0098029000cfaade008d
:1017100095a79f00a5a79f007f9897008fa097008f
:101720001fa19700afa19700b0b79f00c1b79f005e
:10173000d2b79f00e3b79f000b003700afb0970010
:10174000c102780005047800cfc4de0009057800e6
:101750008a057800a1b79f00b8b79f00c9b79f005e
:10176000dab79f00ebb79f003fb09700cfb097006c
:101770005fb19700efb19700e00f5000e08f580085
:10178000e00f5900e08f590032003d006000b800c2
:101790006011b8003fb49700cfb497005fb59700d1
:1017a000efb597003c00b30008045000898458004e
:1017b0000a0559008b85590022003700e00f5600ba
:1017c00005003d00afb297004501be004500be00d8
:1017d000a5b79f000f003700f0026600120032002c
:1017e0002fb497008004eb004803be000005eb0017
:1017f00096af9f00a7af9f00b9af9f00caaf9f00f1
:101800001fa89700afa897003fa99700cfa99700fe
:10181000a8b79f00b0b79f00c1b79f00d2b79f0085
:10182000e3b79f000b003700afb09700c10278000c
:10183000a1b79f0005047800090020000a002000dd
:101840000b002000b8b79f00c9b79f00dab79f0010
:10185000ebb79f009fb49700e08f54000d003a0053
:101860001a0020003fb09700cfb097005fb19700fb
:10187000efb197009ab79f00e00f5000e08f58003b
:10188000e00f5900e08f5900020032008000eb00a9
:1018900091b79f000c01780005042000020cb200f3
:1018a00082b79f00850f51003400320003003c00d6
:1018b000e00f510008003200480037000508200002
:1018c0008fb19700858f510014003200050c200065
:1018d000858f510041003a00a680200015c0b3005a
:1018e0003600be003601be003fb49700cfb497006b
:1018f0005fb59700efb597000040e10001c8e10037
:1019000002d0e10003d8e100330039008542e8004d
:10191000f4cf5200f2ff3a002f00370015c0b30099
:1019200000012000010020006011b8003fb49700c2
:10193000cfb497005fb59700efb597000040e10086
:1019400001c8e10002d0e10003d8e1002200390023
:10195000490020000000d0008180d2000281d20026
:101960008381d2008904e900faff3a008542e80049
:10197000f0cf5200edff3a001700370015c0b3005a
:1019800080002000010020006011b8003fb49700e3
:10199000cfb497005fb59700efb597000040e10026
:1019a00001c8e10002d0e10003d8e1000a003900db
:1019b000390020000000d0008180d2000281d200d6
:1019c0008381d2008904e900faff3a008542e800e9
:1019d000f5cf5200edff3a00e5779f006f75970055
:1019e0009fb597008a02fb008b8f520002003d00da
:1019f000eb779f00040037001fb09700850f500061
:101a000001003d0095b79f00e00f52000300320037
:101a1000e3026600010032000402e9000500240030
:101a200085026600060032009fb09700810f5200c9
:101a30000200340001025200010037000002eb00f6
:101a40006f7197008001eb008202fb00f3af9f00f3
:101a5000850f52000200340085025200f5af9f004e
:101a6000640266003b003200e2026600610266002a
:101a7000e08f520011003200bd0290000504b20058
:101a8000080032009d027800b6c2b300e00f520099
:101a90000100320006c3e800864a7800850ee8009f
:101aa00015003700b0022000e00f520001003200a4
:101ab0000080e8008d0078000c003700e00f520035
:101ac0000e0032003d0290000404b2000500320016
:101ad0001d02780005c2b300054a7800840ee800b4
:101ae000050037008d007800000220002e0107005d
:101af000e10f4000010032000e07e8007faa9700c6
:101b0000e00f52004f00320008c3b3008404780095
:101b10003d0290000404b200040032001d0278006f
:101b2000084a7800840ee800050037008d00780030
:101b3000000320001c010700e10f400001003200fb
:101b40000e07e8008904e900f1ff3a00f9af9f00b1
:101b50003c003700ffaa9700e08f520014003200cb
:101b60006802660012003a0008c2b30085047800db
:101b70003d0290000404b200040032001d0278000f
:101b8000084a7800840ee800050037008d007800d0
:101b90000002200004010700e10f400001003200b4
:101ba0000e07e8008904e900f1ff3a00f9af9f0051
:101bb000e202660061026600e08f5200110032000e
:101bc000bd0290000504b200080032009d027800ba
:101bd000b6c2b300e00f52000100320006c3e800b5
:101be000864a7800850ee80015003700b002200014
:101bf000e00f5200010032000080e8008d00780004
:101c00000c003700e00f52000e0032003d02900041
:101c10000404b200050032001d02780005c2b300c2
:101c2000054a7800840ee800050037008d00780032
:101c300000022000dc000700e10f4000010032003c
:101c40000e07e8001fb39700258020000602e90078
:101c5000f0046600c223dd000c057800c7a79f00d2
:101c60000a02b2006323b900e99f9f0006047800ce
:101c70004322dd00b8a79f0085024200da9f9f0043
:101c8000e5af9f00a30037009fb597000fb0970006
:101c90008b05e900010420009bb79f00810f5000d5
:101ca0007300320003003c00e00f500008003200d7
:101cb0007e003700040820000fb19700840f510008
:101cc00056003200040c2000840f510077003a00c7
:101cd000e00f56001f003d00efa997003304be003f
:101ce0002305be003fb09700cfb097005fb19700cb
:101cf000efb197000802be000a03be00f30107001f
:101d00000802be000a03be00e0779f000000fb004f
:101d1000cf80de00010178008201780054020700c4
:101d20003fb29700cfb297005fb39700efb3970031
:101d30000002520081825a0002035b0083835b0031
:101d4000b4b79f00c5b79f00d6b79f00e7b79f0005
:101d50002e003700ef9a9700e08f520022003200e9
:101d60006fab97003fb29700cfb297003604be002a
:101d70002605be000400be000801be0084bf9f000f
:101d8000f5b79f000005eb000f0107000801be003a
:101d9000e0779f000000fb00cf80de001a01070003
:101da0000fba9700ffb297008aaf9f00000452005d
:101db00081845a00d8a79f00e9a79f008004eb0008
:101dc000f9a79f005fa09700efa097007fa1970061
:101dd0008fa99700b0b79f00c1b79f00d2b79f00ef
:101de000e3b79f0009003700efa897003fb19700c5
:101df00011027800110009000481d800a40020001d
:101e0000110009000480d800e1779f00ef7197006e
:101e10000343b000e3779f0024003700d4922000f2
:101e2000df9a9700e08f520001003200c491200039
:101e30003fb09700cfb097005fb19700efb1970028
:101e40004fa397000603e900050033008301d1008a
:101e50000281d3008180d3000080d300f9ff3700d6
:101e60006f00600064407800e0779f000f0037004b
:101e70003fb29700cfb297005fb39700efb39700e0
:101e80003fa497000804e900050033008703d10050
:101e90000683d3008582d3000482d300f9ff370084
:101ea000674262000443b000e4779f003d02900067
:101eb0000404b200070032009d0278006f729700a0
:101ec000844a7800850ee800e04f520007003a008f
:101ed00007003700ef7497008d0078000900fb00c1
:101ee00031000700e10f4000010032000e07e8005a
:101ef0004fa59700bfa597006fa8970064055500f0
:101f0000e385550068005000caa79f00bba79f004b
:101f1000e0af9f009fb09700e08f50005aff3a005b
:101f200068066600140032007fa99700e00f510098
:101f30001100340008c2b300820478003d02900012
:101f40000404b200040032001d027800084a780040
:101f5000840ee800050037008d00780000022000a4
:101f600011000700e10f4000010032000e07e800f9
:101f70008904e900f1ff3a00dfa9970013407800d7
:101f8000e0779f00e04f500095fc3a000e0078008b
:101f90004f0778004f06be004f05be004f04be003d
:101fa000ef03b10000000600889fbe000104780026
:101fb0008084eb0038029000e20262003b003200b5
:101fc00004037800980290000620b20002003a0054
:101fd000e08f520035003a000490a00080047800a1
:101fe00034049800f90fb200e08f520002003a006a
:101ff000a8029000050c7800ea8f540005003a0012
:102000000408b20003003a0088007800d0002000e5
:10201000e5ff070018029000d8029000850f5200db
:102020000b0032000402e80015c0b300140498004d
:1020300018027800094a7800040ce800649b20002c
:10204000054a7800ea8f540018003a00050037006e
:1020500009407800880078001700070080047800a5
:1020600012003700380290000410b2000f00320056
:1020700018019000a8009000480090002ff9070078
:1020800018029000840f50000400320038029000c3
:102090000403b300340498008084eb000002eb00da
:1020a0001404980028029000040c780009007800bd
:1020b0004f04be00000006000200fa00889fbe0028
:1020c00001047800a0ff9f0038029000840278008d
:1020d0000504b200020032000000fb0035003700aa
:1020e000e202620005003a000403b3001504980000
:1020f000340498000080eb002e003700d8049000d4
:10210000e08f540006003a0012002000e6805700dd
:102110004800900009f907001904980023003700cf
:10212000a8029000e08f520008003a00a59b200012
:102130000430a00025049800050c780034049800b1
:1021400025002000550498001504980018019000ff
:10215000a800900048009000f8f8070028029000be
:102160008082eb0015049800affa9700054a7800ca
:10217000040ce8002ffa9700ea4f52000b003a00d7
:10218000380290000410b2000800320018019000dc
:10219000a800900048009000e8f807000002eb005b
:1021a000a802900014049800050c78002ffa9700fc
:1021b0000400fb004f04be000080fa00000006008f
:1021c00000c0da00000006006022b800060220000d
:1021d0000000d0008180d2000482d2008582d2002b
:1021e0000000a0000202520083825a000300310066
:1021f0000202420083824a000000a1000603e900b7
:10220000f3ff3a0000000600020ab900001bb90003
:102210000200b80081004200810043000000060077
:10222000889fbe008a9fbe003004be002005be000d
:102230000404440085844c0006054d0087854d004c
:102240000898be000a90be000440e10005c8e10005
:1022500006d0e10007d8e10002003100680040002c
:102260001008e8004f05be004f04be000000060045
:102270001000fa00889fbe008a9fbe001100200057
:102280000605be000404be003002be002003be00ee
:10229000c4b79f00d5b79f00e6b79f00f7b79f0070
:1022a0000802520089825a000a035b008b835b009c
:1022b00084bf9f0095bf9f00a6bf9f00b7bf9f0030
:1022c0000498be000698be004fb29700dfb2970098
:1022d0006fb39700ffb397000820e10009a8e10061
:1022e0000ab0e1000bb8e100010039008000eb000a
:1022f0004f05be00108810004f04be000080fa0099
:10230000000006001400fa00889fbe008a9fbe00ed
:102310008c9fbe000006eb003e000700ccb79f007c
:10232000bcb79f00acb79f009cb79f008cb79f00c5
:102330000605be000404be000d0420004fb3970044
:10234000bfb29700860343002fb29700e00f5300ff
:1023500004003d003d0007000f004000b0ff0700f3
:1023600003003700390007000f004000c0ff0700de
:10237000cfb2970095bf9f00e08f52000900350053
:102380002b00070014002000050020006033b80077
:10239000000072008180720002017300838173006b
:1023a0001c0007000c06e8008d0f5600e3ff3a0002
:1023b0001fba9700e00f520005003d000802be0062
:1023c0000a03be0000fe2f000f00400094ff07002c
:1023d0004faa9700e00f520008003a000fb4970090
:1023e0009fb497002fb59700bfb59700d8b79f004f
:1023f000e9b79f00fab79f008bbf9f000c00070052
:102400004f06be004f05be004f04be000080fa001c
:1024100000000600010007000000060090b79f00c2
:10242000a1b79f00b2b79f00c3b79f00000006008e
:1024300001000700000006001fb09700afb0970032
:102440003fb19700cfb19700000006004f2bde0090
:10245000f9ff070086837300858242004f23de0068
:10246000a7b79f00868272000402420095b79f00c2
:10247000ffaa97004f2bde00858242000602720001
:1024800084b79f006faa97004f23de00040242002a
:1024900086827200f5af9f004f18de0000027200c6
:1024a000e5ff0700e4af9f00000040008180480086
:1024b00002014900838149000802be000a03be00f0
:1024c000d6ff070000fe2f0000000600881f7800de
:1024d00018002000881f78008aff07008f87e90016
:1024e0004f04780000000600801feb0085ff070006
:1024f0008f87e90000000600889fbe008a9fbe000b
:10250000e00f5000e08f5800e00f5900e08f5900b5
:102510000c003d006044b8006055b8000000540055
:1025200081805c0002015d0083815d001800200055
:102530001500070008003d00180007000004eb002c
:10254000050037000004eb000f00070002003d000b
:102550001200070018002000dcff0700e00f540005
:10256000060032006022b8006033b800000052005c
:1025700081805a0002015b0083815b004f05be0031
:102580004f04be0000000600e00f5200e08f5a002a
:10259000e00f5b00e08f5b00000006006044b800c5
:1025a0006055b8000402540085825c0006035d009b
:1025b00087835d0000000600889fbe008a9fbe00e2
:1025c0008c1f7800e00f5000e08f5800e00f59009a
:1025d000e08f59000d003d006044b8006055b80020
:1025e0001c0020000000540081805c0002015d009e
:1025f00083815d000820e10009a8e1000ab0e10044
:102600000bb8e1000d003d00080037000006eb00ac
:10261000e00f5200e08f5a00e00f5b00e08f5b009c
:1026200006003d006044b8006055b8000402540044
:1026300085825c0006035d0087835d00aaff0700ba
:10264000e00f5600060032006022b8006033b80088
:102650000000520081805a0002015b0083815b0010
:102660004f0678004f05be004f04be000000060074
:10267000889fbe008a9fbe008c1f78000006eb007a
:10268000e00f5000e08f5800e00f5900e08f590034
:1026900007003d006044b8006055b8001c002000f1
:1026a0000000540081805c0002015d0083815d00b8
:1026b000e00f5200e08f5a00e00f5b00e08f5b00fc
:1026c00007003d006044b8006055b8000c00a2004f
:1026d0000402540085825c0006035d0087835d0070
:1026e0000c000700e00f5600060032006022b80020
:1026f0006033b8000000520081805a0002015b0084
:1027000083815b004f0678004f05be004f04be007a
:1027100000000600889fbe008a9fbe008c9fbe00fe
:102720000404b8000506b8008904460060854e0020
:102730000606b8000a054600e0854e000706b80008
:102740008b054600040eb800890446000a854e0039
:10275000e0854d00050eb8000a0546008b854e0049
:10276000060eb8008b0546000416b8000a054600a0
:102770008b854e000516b8008b054600041eb80078
:102780008b0546000800be000a01be004f06be00d1
:0c2790004f05be004f04be000000060014
:020000040000fa
:10279c0054690000637300004725000064200000aa
:1027ac00546900006373000044250000642000009d
:0827bc000a0d000000000000fe
:020000040000fa
:1027c4000000fa00153a8000f40b20000483620034
:1027d400640420007505200027742000844b7800d1
:1027e400854b7800864b780034358000f401b300c3
:1027f400343588005536800004fe2f0004826200c0
:102804005400b30054368800153a800004042000b4
:10281400050372006404200075052000277420005d
:10282400844b7800854b7800864b78000080fa0052
:10283400000006000000fa00153a8000f40b2000a6
:1028440004836200640420007505200027742000be
:10285400844b7800854b7800864b780035368000b1
:10286400f40f2e000482620034368800353580006f
:1028740004fe2f00048262007400b3003435880023
:10288400153a80000404200005037200640420004b
:102894007505200027742000844b7800854b780050
:1028a400864b78000080fa00000006000200fa005f
:1028b400004f7800000000009511800004202000e3
:1028c40004826200e00f5200fbff3a009e4278004f
:1028d4000582fb0004007800ee0302000000000003
:1028e400049a2000144278009e424200049a200078
:1028f400054a78000080fa00000006000400fa008f
:10290400004f78001147980022479800acff070059
:1029140000c0eb00e5ff070000c0eb00e3ff070089
:10292400049a20008042eb00054a78001e4078009b
:10293400deff07001e42900004c2e8000440780055
:10294400daff07002e409000d8ff07000080fa004d
:10295400000006000600fa002047980021079800ae
:102964000042eb00044f7800080037009e427800d4
:102974000582fb00ae0290000482420014427800fb
:1029840004407800c9ff07001e4fe8002e42900063
:102994009e42780084cf5200f4ff39000080fa0090
:1029a400000006000000fa00049a20001442780097
:1029b40004c2ea0004407800bcff070000000000e5
:1029c4002c0302000000000000427800e04f520097
:1029d400fbff3a0097ff07000080fa0000000600a2
:1029e4000200fa006e003700dc0302000000000061
:1029f4000002780004427800044f7800844d80007f
:102a0400e50f420006003a001e427800e14f420002
:102a140003003a00c4ff2f00844d88006000370093
:102a2400844d8000e40f42000c003a001e427800fe
:102a3400e14f420009003a00d4ff2f00844d880082
:102a4400049a20008042eb00054a7800449a200052
:102a540015c0b3001542980051003700844d800022
:102a6400e30f420006003a00e4ff2f00844d880083
:102a74009e427800449a2000054a780048003700b6
:102a8400844d8000e20f420010003a001e4278009c
:102a9400e54f52000d003e000082eb00844d88009b
:102aa400449a2000944278001e42780084c2420076
:102ab400049a2000054a78001e42780084c2e90086
:102ac400449a20001542980035003700844d800058
:102ad400e10f420007003a000002eb00844d880039
:102ae4008e027800449a200015037800160298009c
:102af4002b003700844d8000e00f52001500350094
:102b0400449a2000144290008482fb00844d80008b
:102b1400848f52000f003400844d80000403780039
:102b2400859a2000850243001e437800864a780077
:102b34000402e800844d8800049a2000944278003e
:102b44001e42780084c24200049a2000054a78009c
:102b540013003700449a2000144290008482fb0042
:102b6400844d8000848f52000b003a009e4278000e
:102b7400049a20001442780004c26200e04f52001c
:102b840005003a0014002000144d8800b4ff2f0003
:102b9400844d880002003700b4ff2f00844d880064
:102ba400c60302000000000000427800e04f52001b
:102bb4008dff3a000080fa00000006000200fa00cf
:102bc400004f780012c0b30021c0b3001e4078004b
:102bd4004aff070073ff07000080fa0000000600a8
:102be4000400fa00004f780011479800224798002b
:102bf40022c0b30021c0b3001e4078003fff07008d
:102c04001e40900029ff07002e40900027ff070078
:102c140064ff07000080fa00000006000600fa00c6
:102c2400004f780011479800224798002307980026
:102c34002e4290000442e80032c0b3008440780081
:102c44001e4078002dff07001e40900017ff07006c
:102c5400ae0090002e4090003eff070051ff070099
:102c64000080fa00000006000600fa00004f780019
:102c74001147980022479800230798002e4290009d
:102c84000442e80042c0b300844078001e4078004b
:102c94001aff07001e40900004ff0700ae009000da
:102ca4002e4090002bff07003eff07000080fa0033
:102cb400000006000200fa00004f780052c0b30082
:102cc4008040eb001e4078000cff070035ff070032
:102cd4000080fa00000006000200fa00004f7800ad
:102ce40062c0b3008040eb001e40780003ff070081
:102cf4002cff07000080fa00000006000200fa0022
:102d0400004f78009e4278000582fb00cfa2de00cf
:102d14000603200007002000860f5200878f5a0008
:102d240036003e00046001003200370033003700f3
:102d34002e0037002d0037002c0037002b00370001
:102d44002c0037002d0037002a0037002b003700f5
:102d54002a003700250037002400370023003700fd
:102d64002400370025003700200037001f003700fb
:102d74001e0037001d0037001e0037001f003700fb
:102d84001c0037001d0037001800370017003700fb
:102d94001600370015003700140037001300370001
:102da40014003700150037001200370013003700f5
:102db40010003700110037000e0037000f003700f5
:102dc4000c0037000d0037000a0037000b003700f5
:102dd40006003700050037000400370007003700fd
:102de40002003700010037000200370014c0b300ae
:102df4000300370024c0b300010037000042eb0099
:102e0400044078000080fa00000006000400fa0084
:102e1400881f7800004f7800114798001207980027
:102e24000002eb00144d88000e84e8001e40900060
:102e3400b2ff07000042780088017800044178005e
:102e44009e4090001e40780074ff07004f047800f5
:102e54000080fa00000006000200fa00004f78002b
:102e6400114798000002eb00144d88001e409000aa
:102e7400a2ff070000427800044178009e409000c1
:102e84001e40780056ff07000080fa00000006008c
:102e94000000fa00668e20006022b800048bbe0099
:102ea400668e20006022b800240398003503980041
:102eb400e68e20006022b800048bbe00e68e20005f
:102ec4006022b80024039800350398000002eb0048
:102ed400744888006022b800a4488800b548880077
:102ee4006022b800c4488800d54888000080fa00f1
:102ef400000006001400fa00889fbe0040079800f6
:102f0400510798006207980073079800040f98000f
:102f1400150f9800648e20001403be004e0290002a
:102f2400de0290000401be000600be00fc030200a5
:102f3400000000000002be00048fbe00648e20006a
:102f440024039000b40390006e029000fe029000ef
:102f54000401be000600be00fc03020000000000e5
:102f64000002be002407980035079800b44780008b
:102f7400c54780000401be001e00be00fc03020021
:102f8400000000000002be00f447880005488800e5
:102f9400b4478000c54780001e01be000400be0087
:102fa400fe030200000000000002be00d4478800b7
:102fb400e54788001e02be00b4478800c547880064
:102fc40014488000254880000401be002e009000b3
:102fd400be009000fc030200000000000002be00de
:102fe40054488800654888001448800025488000bb
:102ff4002e019000be0190000400be00fe030200fa
:10300400000000000002be003448880045488800e3
:103014002e029000be0290001448880025488800c3
:10302400b6478000c7478000444c8000554c800060
:103034000401be000600be00dc0602000000000021
:103044000002be000404be00d6478000e7478000ab
:10305400644c8000754c80000401be000600be0074
:10306400dc060200000000000002be000401be00f5
:103074000800be00fe030200000000000002be00c3
:103084000404be00f647800007488000844c80009a
:10309400954c80000401be000600be00dc06020060
:1030a400000000000002be000401be000800be00d3
:1030b400fc030200000000000002be000403be0086
:1030c400a4488000b54880000401be000600be008c
:1030d400fe030200000000000002be00a4488800b5
:1030e400b54888001648800027488000a44c80001a
:1030f400b54c80000401be000600be00dc060200e0
:10310400000000000002be000404be003648800037
:1031140047488000c44c8000d54c80000401be00a8
:103124000600be00dc060200000000000002be0033
:103134000401be000800be00fe03020000000000ff
:103144000002be000404be005648800067488000a8
:10315400e44c8000f54c80000401be000600be0073
:10316400dc060200000000000002be000401be00f4
:103174000800be00fc030200000000000002be00c4
:103184000403be00c4488000d54880000401be008a
:103194000600be00fe030200000000000002be00a4
:1031a400c4488800d5488800a6488000b7488000f5
:1031b400c4488000d54880000401be000600be005b
:1031c400fc030200000000000002be000e0b900091
:1031d400048bbe00a6488000b7488000c448800025
:1031e400d54880000401be000600be00fe030200b4
:1031f400000000000002be001e0b9000048bbe0005
:103204004f04be000080fa00000006000800fa0027
:10321400881f7800009fbe000297be00648e2000c5
:103224001403be00e48e20001402be0018c0b300d4
:103234000401be000600be004005020000000000bc
:1032440000027800e00f5200010034000044eb005b
:10325400e04f54000e00320084488000e00f52001a
:103264000b003a00648e20001402be00a2702d00f0
:1032740033b223000400be00fe030200000000007d
:103284000002be00668e2000048bbe001c003700c6
:10329400648e20001403be00e48e20001402be00dd
:1032a40018c0b3000401be000600be0044050200bd
:1032b4000000000000027800e00f520001003c0012
:1032c4000044eb00e04f54000d00320084488000bd
:1032d400e10f52000a003a00648e20001402be007e
:1032e400a2702d0033b223000400be00fc030200d0
:1032f400000000000002be00668e2000048bbe00a9
:10330400648e200024039000b4039000e48e200017
:10331400b40290002402900018c0b3000401be005f
:103324000600be0040050200000000000002780014
:10333400e00f5200010034000044eb00e04f540061
:103344001000320094488000e00f52000d003a0053
:10335400648e2000b402900024029000f226210022
:1033640033a823000400be00fe0302000000000096
:103374000002be00668e20002403980035039800e6
:1033840020003700648e200024039000b4039000d2
:10339400e48e2000b40290002402900018c0b30010
:1033a4000401be000600be00440502000000000047
:1033b40000027800e00f520001003c000044eb00e2
:1033c400e04f54000f00320094488000e10f520097
:1033d4000c003a00648e2000b40290002402900095
:1033e400f226210033a823000400be00fc030200df
:1033f400000000000002be00668e20002403980036
:10340400350398004f0478000080fa00000006009d
:103414001000fa00881f7800009fbe000297be00cb
:1034240044079800550798006607980077079800a6
:103434004e029000de029000e68e2000048bbe0057
:103444006e029000fe029000e68e20002403980095
:1034540035039800e48e20001403be001e02be0053
:1034640018c0b3000401be000600be0044050200fb
:103474000000000000027800e00f520001003c0050
:103484000044eb00e04f5400030032000002eb0064
:103494008448880002003700140020008448880013
:1034a400e48e200024039000b40390002e029000c8
:1034b400be02900018c0b3000401be000600be00a6
:1034c400440502000000000000027800e00f5200f2
:1034d40001003c000044eb00e04f540003003200c4
:1034e4000002eb009448880002003700140020001a
:1034f400944888004f0478000080fa000000060019
:103504000000fa00c1e1a800040e80000420a1001c
:103514000430a100040e8800040e80000400a10001
:103524000410a100040e8800c45d2000240e88004d
:10353400c921a800c941a800c881a800c8a1a80041
:10354400c8c1a900c801a900c821a900c841a9008f
:10355400c45d2000240e88000002eb00b40e880035
:103564000002eb00c40e8800c0e2a900c962a900f1
:10357400c9e2a900c9a2a900c4e2a900cd62a900b8
:10358400cde2a900cda2a9000080fa000000060047
:103594000a00fa00881f7800100798002107980095
:1035a400320798004307980018c0b3006011b800b0
:1035b4003e009000ce009000440502000000000090
:1035c40000027800e00f520001003d000044eb00cf
:1035d400e04f540002003200cda2a80001003700e1
:1035e400cda2a90018c0b3006011b8001e0090005d
:1035f400ae009000440502000000000000027800c4
:10360400e00f520001003d000044eb00e04f540085
:1036140002003200cde2a80001003700cde2a9008b
:10362400180020006011b8001e009000ae00900049
:10363400400502000000000000027800e00f520084
:10364400010035000004eb00080f7800c45d200081
:10365400240e880004002000852c24000200200091
:10366400832c2c001e009000ae00900090230200da
:10367400000000000002be0014079800250798000f
:1036840004002000852c240002002000832c2c0040
:103694003e009000ce009000902302000000000045
:1036a4000002be0034079800450798001e029000ef
:1036b400ae02900005f0a10002002000031f2400c8
:1036c4000400be00dc060200000000000002be0090
:1036d4000400be0048050200000000000002be0015
:1036e40004027800b40e88003e029000ce029000de
:1036f40005f0a10002002000031f24000400be0006
:10370400dc060200000000000002be000400be004f
:1037140048050200000000000002be000402780018
:10372400c40e88004f0478000080fa0000000600f0
:103734000e00fa00881f78001007980021079800ef
:1037440032079800430798005407980065079800cb
:10375400180020006011b8005e009000ee00900098
:10376400440502000000000000027800e00f52004f
:1037740001003d000004eb00080f78001800200051
:103784006011b8003e009000ce0090004005020099
:103794000000000000027800e00f52000100350034
:1037a4000004eb00080f78001e019000ae019000a9
:1037b4000068290081c12400bc040200000000004c
:1037c4000002be000400be00480502000000000024
:1037d4000003be0004d0270005002000c25d2000c5
:1037e400030020000600be00e423020000000000e5
:1037f4000002be0004027800240e880004002000a9
:10380400852c240002002000832c2c003e00900014
:10381400ce00900090230200000000000002be00d1
:10382400340798004507980004002000852c2400e4
:1038340002002000832c2c005e009000ee0090001b
:1038440090230200000000000002be00540798000c
:1038540065079800240e8000040242000500200041
:103864000400be0090050200000000000003be003a
:103874003e029000ce02900005f0a1000401be00bb
:103884000600be00dc060200000000000002be00cc
:1038940002002000832c24000400be00bc040200ab
:1038a400000000000002be0034079800450798009d
:1038b400240e800004024200050020000400be0023
:1038c40090050200000000000003be005e029000ac
:1038d400ee02900005f0a1000401be000600be0047
:1038e400dc060200000000000002be00020020000e
:1038f400832c24000400be00bc040200000000006d
:103904000002be0054079800650798003e0090002e
:10391400ce00900048050200000000000003be0035
:1039240004a02f00050020006011b8000600be00ae
:10393400e4230200000000000002be00040278003c
:10394400b40e88005e009000ee009000480502006e
:10395400000000000003be0004a02f0005002000aa
:103964006011b8000600be00e4230200000000005d
:103974000002be0004027800c40e88004f047800e0
:103984000080fa00000006000600fa00881f780094
:103994001007980021079800180020006011b80053
:1039a4001e009000ae0090004005020000000000e0
:1039b40000027800e00f5200010035000004eb0023
:1039c400080f78001e02780004f0a7000402ea0041
:1039d4000402e9004f22de00044278000482fb0066
:1039e4004f22dd0066168000f5ff27008502630084
:1039f400050272006416880004002000852c24004f
:103a040002002000832c2c001e009000ae009000c9
:103a140090230200000000000002be00140798007a
:103a2400250798001e029000ae02900005f0a10048
:103a340002002000031f24000400be00dc06020074
:103a4400000000000002be000400be0048050200a1
:103a5400000000000002be0004027800b40e8800da
:103a64004f0478000080fa00000006000600fa0007
:103a7400881f78001007980021079800180020007c
:103a84006011b8001e009000ae00900044050200d2
:103a94000000000000027800e00f520001003d0029
:103aa4000004eb00080f78001e02780004f0a70061
:103ab4000402ea000402e9004f22de000442780016
:103ac4000482fb00610262004d22dd006616800064
:103ad400f5ff2d008502630005027200641688005c
:103ae40004002000852c240002002000832c2c00dc
:103af4001e009000ae009000902302000000000021
:103b04000002be0014079800250798001e029000ca
:103b1400ae02900005f0a10002002000031f240063
:103b24000400be00dc060200000000000002be002b
:103b34000400be0048050200000000000002be00b0
:103b440004027800c40e88004f0478000080fa0054
:103b5400000006000000fa006022b8001445880046
:103b6400254588006022b800344588004545880012
:103b74006022b8005445880065458800e68a200024
:103b84006022b8002403980035039800e68a2000d8
:103b94006022b800048bbe006022b800b4458800df
:103ba400c54588006022b800d4458800e5458800f2
:103bb4006022b800f4458800054688006022b800f9
:103bc40014468800254688006022b80034468800e0
:103bd400454688006022b80054468800654688003f
:103be400e68c20006022b800240398003503980076
:103bf400e68c20006022b800048bbe006022b8006e
:103c0400b4468800c54688006022b800d4468800bf
:103c1400e54688006022b800f4468800054788001d
:103c24000002eb00144788000002eb0024478800e0
:103c34000080fa00000006001400fa00889fbe000d
:103c44008a9fbe00000f9800110f9800c90007005a
:103c5400144780008e0a900004825200cfa2de0036
:103c64000400be008a050200000000000002be003d
:103c7400f226210033a823000400be00dc06020063
:103c8400000000000002be00048fbe002447800034
:103c94009e0a900004825200cfa2de000400be00ff
:103ca4008a050200000000000002be00f226210086
:103cb40033a823000400be00dc060200000000005c
:103cc4000002be0024079800350798000e0a9000f1
:103cd400144788001e0a9000244788002e01900093
:103ce400be0190001e00be00fe03020000000000a2
:103cf4000002be0002002000030024000400be00f5
:103d0400bc040200000000000002be00440798004a
:103d1400550798001e01be002e009000be009000c2
:103d2400fc030200000000000002be00f20d2e00a1
:103d3400b3e823000400be00bc040200000000003d
:103d44000002be00640798007507980018458000bb
:103d5400294580005a4580006b4580000200200000
:103d640003f023006e009000fe009000dc060200c9
:103d7400000000000002be000401be000a00be00f4
:103d8400fe030200000000000002be000400be00aa
:103d9400b8040200000000000002be004e019000c2
:103da400de0190000400be00dc06020000000000fa
:103db4000002be000401be000800be00fe030200b3
:103dc400000000000002be0014468800254688005a
:103dd40038458000494580005a4580006b45800085
:103de4000200200003f023006e009000fe0090000b
:103df400dc060200000000000002be000401be0058
:103e04000a00be00fe030200000000000002be0023
:103e14000400be0016080200000000000002be00fc
:103e24004e019000de0190000400be00dc0602009a
:103e3400000000000002be000401be000800be0035
:103e4400fe030200000000000002be0034468800a9
:103e54004546880054458000654580006e01900009
:103e6400fe0190000400be00fe03020000000000fa
:103e74000002be000400be00630007000002be0092
:103e84005446880065468800a2702d0033ba23008a
:103e94004e009000de009000bc0402000000000010
:103ea4000002be00e68c2000048bbe00a2702d0030
:103eb40033ba23006e009000fe009000bc040200a0
:103ec400000000000002be00e68c200024039800dd
:103ed40035039800e48c20001403be00e48a20001b
:103ee4001402be000401be000600be00fc03020072
:103ef400000000000002be00b4468800c5468800e9
:103f0400e48c200024039000b4039000e48a200091
:103f1400b4029000240290000401be000600be001a
:103f2400fc030200000000000002be00d44688002a
:103f3400e5468800e48c200024039000b40390003c
:103f4400e48c20001402be000401be000600be0082
:103f5400dc060200000000000002be00f4468800f7
:103f6400054788004f05be004f04be000080fa00dc
:103f7400000006000000fa00144680002546800078
:103f84001445880025458800344680004546800055
:103f940034458800454588005446800065468000c5
:103fa4005445880065458800e48c20001402be0056
:103fb400e68a2000048bbe00e48c2000b40290004a
:103fc40024029000e68a2000240398003503980018
:103fd400b4468000c5468000b4458800c5458800c5
:103fe400d4468000e5468000d4458800e545880035
:103ff400f446800005478000f445880005468800a3
:104004000080fa00000006000800fa00881f78000b
:1040140020079800310798002e029000be029000fd
:1040240005f0a10018c0b30062e520009304240049
:104034000400be00400502000000000000027800f9
:10404400e00f5200010035000044eb00e04f540043
:10405400030032002e029000be0290002f003700b1
:1040640062e52000930c24002e009000be00900016
:1040740094050200000000000002be00048fbe0090
:1040840018c0b30062e5200093042c001e00be009b
:10409400400502000000000000027800e00f52001a
:1040a400010035000044eb00e04f540007003200eb
:1040b40062e52000930c24001e00be00fe030200f3
:1040c400000000000002be00048fbe0018c0b30050
:1040d40062e52000930424001e00be004405020093
:1040e4000000000000027800e00f520001003c00d4
:1040f4000044eb00e04f54000700320062e520006a
:10410400930c24001e00be00fc030200000000000b
:104114000002be00048fbe001e02be000400be00ea
:104124004f0478000080fa00000006000200fa0044
:10413400000f78000080fa00000006000000fa007a
:104144000219200021c2b30070c0b3000817020096
:104154000000000000a0260081012000fe260200cd
:1041640000000000421f200021c2b30090c0b30031
:10417400081702000000000000a0260081012000b2
:10418400fe260200000000004238200021c2b300d5
:10419400b0c0b300081702000000000000a0260011
:1041a40081012000fe26020000000000822520007c
:1041b40021c2b30010c0b3000817020000000000c1
:1041c40000a0260081012000fe260200000000005d
:1041d400421f200001c2b30070c0b30008170200e0
:1041e4000000000000a0260081012000fe2602003d
:1041f40000000000421f200001c2b30090c0b300c1
:10420400081702000000000000a026008101200021
:10421400fe260200000000000232200001c2b300aa
:10422400b0c0b300081702000000000000a0260080
:1042340081012000fe26020000000000221c200054
:1042440001c2b30010c0b300081702000000000050
:1042540000a0260081012000fe26020000000000cc
:1042640082252000e1c1b30070c0b300081702002a
:104274000000000000a0250021262000fe260200e8
:104284000000000042102000e1c1b30090c0b30060
:10429400081702000000000000a0250021262000cd
:1042a400fe2602000000000002142000e1c1b30059
:1042b400b0c0b300081702000000000000a02500f1
:1042c40021262000fe260200000000000219200022
:1042d400e1c1b30010c0b3000817020000000000e1
:1042e40000202c00b1be2000fe26020000000000c9
:1042f4000080fa00000006000000fa00a21420006a
:10430400e1c1b30070c0b300081702000000000050
:1043140000402b00414c2000fe260200000000005b
:1043240082252000e1c1b30070c0b3000817020069
:104334000000000000a0250021262000fe26020027
:1043440000000000e2152000e1c1b30010c0b3007a
:10435400081702000000000000a02500212620000c
:10436400fe26020000000000f20f2000e1c1b300ad
:1043740090c0b300081702000000000000a0250050
:1043840021262000fe26020000000000123b20002f
:10439400e1c1b300b0c0b300081702000000000080
:1043a40000a0250021262000fe26020000000000b7
:1043b400a20a2000e1c1b30090c0b30008170200b4
:1043c4000000000000402b00414c2000fe260200ab
:1043d4000000000002192000e1c1b30010c0b300c6
:1043e400081702000000000000a02500212620007c
:1043f400fe2602000000000002142000e1c1b30008
:10440400b0c0b300081702000000000000402b00f9
:10441400414c2000fe26020000000000e2102000b3
:10442400e1c1b30010c0b30008170200000000008f
:1044340000402b00414c2000fe260200000000003a
:10444400f20f2000e1c1b30090c0b30008170200ce
:104454000000000000a0250021262000fe26020006
:10446400000000000080fa00000006000000fa00ce
:10447400c8e2a800cee2a80081e0a9000082eb0017
:1044840064198800a2022000d155290000402c00a4
:10449400d403020000000000d0f52f007e030200c8
:1044a40000000000a2022000d155290000402c0089
:1044b400cc03020000000000e0f62f0036030200e7
:1044c4000000000051c32000d0fa2d002203020096
:1044d40000000000c0ff2f00fe02020000000000e8
:1044e4002535800004fe2f00048262002401b300fd
:1044f400243588002536800004fe2f0004826200e3
:104504003400b300243688000080fa00000006005e
:104514000000fa00c122a800d062a800d122a8009d
:10452400d102a8006380a8006280a8006260a8008d
:104534006405800004c0a00004d0a00004e0a10031
:10454400640588009660a8008660a9000080fa00cf
:10455400000006003600f800809fbe00829fbe0067
:10456400849fbe00869fbe003400f8000000200037
:10457400a00188000000fa0084e0a900e54b800057
:10458400d44b8000439820000298200085007800d6
:1045940004007800d825020000000000244c8000ac
:1045a400354c8000064c8000174c80000401be008e
:1045b4000600be00ca1a0200000000000080fa00d3
:1045c4003400f9004f03be004f02be004f01be008d
:1045d4004f00be003600f900004006000000fa005b
:1045e40087c0a9000080fa00004006000000fa001d
:1045f40087e0a9000080fa00004006000000fa00ed
:104604008560a9000080fa00004006000000fa005e
:104614008580a9000080fa00004006000000fa002e
:10462400c442a8008820a9000080fa0000400600c7
:104634003600f800809fbe00829fbe00849fbe00ab
:10464400869fbe000000fa00941680004822de0017
:10465400614262008482fb00e497200014427800e7
:104664000402fb00848f520009003200941680007b
:104674004822de006142620084427800e497200010
:10468400054a7800d44b80000402e800d44b88002b
:10469400941680004922de00614262008482fb009d
:1046a400f4972000144278000402fb00848f520027
:1046b40009003200941680004922de006142620043
:1046c40084427800f4972000054a7800e44b800087
:1046d4000402e800e44b8800e54b8000d44b8000e2
:1046e400851f7800841f7800e43c2900841f78002b
:1046f400ce08020000000000e68757008660a9008b
:104704000080fa004f03be004f02be004f01be00fe
:104714004f00be003600f900004006000c00fa000d
:10472400881f7800008fbe00220798003307980086
:10473400440798005507980018c0b3002e01900054
:10474400be0190001e00be004005020000000000f3
:1047540000027800e00f5200010035000044eb0035
:10476400e04f5400030032002e029000be0290007d
:104774001000370018c0b3004e019000de01900015
:104784001e00be0044050200000000000002780084
:10479400e00f520001003c000044eb00e04f5400e5
:1047a400030032004e029000de0290000100370048
:1047b4001e02be000400be004f0478000080fa0010
:1047c400000006000c00fa00008fbe0022079800cb
:1047d4003307980044079800550798002e0290006c
:1047e400be0290001e03be00840f5300858f5b0041
:1047f40003003d002e029000be0290000a00370024
:104804004e029000de0290001e03be00840f53008f
:10481400858f5b00030034004e029000de0290009e
:10482400010037001e02be000400be000080fa0032
:10483400000006000800fa00881f7800200798008e
:10484400310798002e029000be02900005f0a100ee
:1048540018c0b300b2fd2000930424000400be007d
:10486400400502000000000000027800e00f520042
:10487400010035000044eb00e04f54000300320017
:104884002e029000be0290002f003700b2fd2000df
:10489400930c24002e009000be00900094050200aa
:1048a400000000000002be00048fbe0018c0b30068
:1048b400b2fd200093042c001e00be00400502003f
:1048c4000000000000027800e00f520001003500f3
:1048d4000044eb00e04f540007003200b2fd20001a
:1048e400930c24001e00be00fe0302000000000022
:1048f4000002be00048fbe0018c0b300b2fd200049
:10490400930424001e00be004405020000000000c1
:1049140000027800e00f520001003c000044eb006c
:10492400e04f540007003200b2fd2000930c240035
:104934001e00be00fc030200000000000002be00d6
:10494400048fbe001e02be000400be004f047800a7
:084954000080fa0000000600db
:020000040000fa
:10495c006a0900001e00000000000000b009000001
:10496c000200000002000000fbff0000a009000094
:10497c001000000000000000880900001800000072
:10498c00020000000000c80042000000000000000f
:10499c00000000000000c800420000000000000001
:1049ac0000000000e60800003600000000000000d7
:1049bc00b20900000200000000000000a208000084
:1049cc00440000000000000000080000020000008d
:1049dc000000000046090000240000000200000056
:1049ec00b809000000b8090009000000000200002e
:1049fc00ba09000000ba09000e0201000000000014
:104a0c000000000000000000060202000000000090
:104a1c00b40900000200000002000000460900007a
:104a2c00b60900000200000000000000b8090000f8
:104a3c000200000000000000ba09000002000000a3
:104a4c00000000001c0900002a0000000200000009
:104a5c0030313200333435003637380039414200ba
:104a6c0043444500460030003132330034353600c3
:104a7c0037383900616263006465660000286e0097
:104a8c00756c6c002900000002080000a0000000fa
:104a9c0002000000010000000000000000000a00fd
:104aac000000000000000000006400000000000096
:104abc0000000000e80300000000000000001000ef
:104acc00270000000000000000a08600010000008c
:104adc000000000040420f000000000000008000b9
:104aec0096980000000000000000e100f5050000b1
:104afc000000000000ca9a003b000000000000000b
:104b0c00e40b5400020000000000e8007648170097
:104b1c00000000000010a500d4e800000000000018
:104b2c00a0724e0018090000000040007a10f3003b
:104b3c005a0000000080c600a47e8d000300000017
:104b4c0000c16f00f2862300000000008a5d78002f
:104b5c004563010000006400a7b3b600e00d00003f
:104b6c0000e889000423c7008a000000bc0900008b
:104b7c000200000002000000010000000000000024
:020000040000fa
:104b8c000000fa000002eb00944d8800ac1d0200fe
:104b9c00000000004a170200000000000080fa002c
:104bac00000006000800fa00000f780011079800ba
:104bbc0022079800330798009e0090001e00780092
:104bcc001e1e020000000000944d8000e10f5200f8
:104bdc000b003200e20f520021003200e00f5200b5
:104bec0020003a002e0390006022b800048bbe0017
:104bfc003e0390006022b800048bbe001900370001
:104c0c00e48c20003400be002401be000819020010
:104c1c0000000000e08c2000648d20001403be0016
:104c2c00869fbe00640242001403be00869fbe0035
:104c3c00640242001403be00869fbe006402420060
:104c4c00be0290002e0290005001be004000be003b
:104c5c007c17020000000000ec87570001003700b1
:104c6c00000000000080fa00000006000000fa00be
:104c7c000002eb00944d88000080fa000000060052
:104c8c000800fa00009fbe000297be00140020002e
:104c9c00944d8800e08c2000648d20001403be002d
:104cac00869fbe00640242001403be00869fbe00b5
:104cbc00640242001403be00869fbe0064024200e0
:104ccc003e02be002e03be005001be004000be00de
:104cdc000a1a020000000000ec8757000080fa005e
:104cec00000006000000fa00353a800004e02f00b6
:104cfc00848262006409200005027200343a880044
:104d0c00253a800004fe2f00048262005400b30098
:104d1c00243a8800243a80000460a1000470a100a9
:104d2c00243a880000000000153a8000040220009c
:104d3c0004826200e00f5200fbff32000080fa0098
:104d4c00000006000000fa00e6ff0700382202000f
:104d5c000000000000d0220011132000fe260200eb
:104d6c0000000000821a020000000000c6250200ac
:104d7c00000000008a220200000000000080fa00ff
:104d8c00000006001800fa00200f9800310f980060
:104d9c00a8260200000000006022b800048fbe00ac
:104dac006022b80024079800350798006022b800ec
:104dbc004407980055079800a4702d0035c22300b5
:104dcc0064079800750798006022b800040f9800db
:104ddc00150f98006e009000fe0090000e099000d8
:104dec009e0990004626020000000000ffff3700dd
:020000040000fa
:104dfc00f03fb1000180b10006003500ee03090060
:104e0c0000000000403fb1000180b100fbff3d00fd
:104e1c001000b000203fb0000200350000800900f7
:084e2c00000000000000060078
:020000040000fa
:0200000401f009
:04000c0079ff000078
:020000040000fa
:0200000401f009
:04001000bbff000032
:020000040000fa
:0200000401f009
:040014007fff00006a
:020000040000fa
:0200000401f009
:04001800ffff0000e6
:020000040000fa
:0200000401f009
:04001c00ddff000004
:00000001FF
