:020000040000fa
:080000000002040000000000f2
:020000040000fa
:100008009a0200009a0200009a0200009a02000078
:100018009a0200009a0200009a0200009a02000068
:100028009a0200009a0200009a0200009a02000058
:100038009a0200009a0200009a020000f4190000d7
:100048009a0200009a0200009a020000c61b0000f3
:10005800ce1b00009a0200009a0200009a020000db
:100068009a0200009a0200009a020000e01b0000b9
:100078009a0200009a0200009a0200009a02000008
:100088009a0200009a0200009a0200009a020000f8
:100098009a0200009a020000b61b0000be1b000076
:1000a8009a020000d61b00009a0200009a02000083
:1000b8009a0200009a0200009a0200009a020000c8
:1000c8009a0200009a0200009a0200009a020000b8
:1000d8009a0200009a0200009a0200009a020000a8
:1000e8009a0200009a0200009a0200009a02000098
:1000f8009a0200009a0200009a0200009a02000088
:100108009a0200009a0200009a0200009a02000077
:100118009a0200009a0200009a0200009a02000067
:100128009a0200009a0200009a0200009a02000057
:100138009a0200009a0200009a0200009a02000047
:100148009a0200009a0200009a0200009a02000037
:100158009a0200009a0200009a0200009a02000027
:100168009a0200009a0200009a0200009a02000017
:100178009a0200009a0200009a0200009a02000007
:100188009a0200009a0200009a0200009a020000f7
:100198009a0200009a0200009a0200009a020000e7
:1001a8009a0200009a0200009a0200009a020000d7
:1001b8009a0200009a0200009a0200009a020000c7
:1001c8009a0200009a0200009a0200009a020000b7
:1001d8009a0200009a0200009a0200009a020000a7
:1001e8009a0200009a0200009a0200009a02000097
:0801f8009a0200009a020000c7
:020000040000fa
:100208009a0200009a0200009a0200009a02000076
:100218009a0200009a0200009a0200009a02000066
:100228009a0200009a0200009a0200009a02000056
:100238009a0200009a0200009a020000f4190000d5
:100248009a0200009a0200009a020000c61b0000f1
:10025800ce1b00009a0200009a0200009a020000d9
:100268009a0200009a0200009a020000e01b0000b7
:100278009a0200009a0200009a0200009a02000006
:100288009a0200009a0200009a0200009a020000f6
:100298009a0200009a020000b61b0000be1b000074
:1002a8009a020000d61b00009a0200009a02000081
:1002b8009a0200009a0200009a0200009a020000c6
:1002c8009a0200009a0200009a0200009a020000b6
:1002d8009a0200009a0200009a0200009a020000a6
:1002e8009a0200009a0200009a0200009a02000096
:1002f8009a0200009a0200009a0200009a02000086
:100308009a0200009a0200009a0200009a02000075
:100318009a0200009a0200009a0200009a02000065
:100328009a0200009a0200009a0200009a02000055
:100338009a0200009a0200009a0200009a02000045
:100348009a0200009a0200009a0200009a02000035
:100358009a0200009a0200009a0200009a02000025
:100368009a0200009a0200009a0200009a02000015
:100378009a0200009a0200009a0200009a02000005
:100388009a0200009a0200009a0200009a020000f5
:100398009a0200009a0200009a0200009a020000e5
:1003a8009a0200009a0200009a0200009a020000d5
:1003b8009a0200009a0200009a0200009a020000c5
:1003c8009a0200009a0200009a0200009a020000b5
:1003d8009a0200009a0200009a0200009a020000a5
:1003e8009a0200009a0200009a0200009a02000095
:0803f8009a0200009a020000c5
:020000040000fa
:100400008f9520000e7f24000e0188000000000060
:10041000000020000000e000020032000001200087
:10042000200288000c00070020ef210001002000be
:1004300011000700000020000000e0000200320070
:100440000000020000000000402002000000000048
:100450000040da000000fe004440a900a001200096
:100460000000e0000300320000002000a00188002e
:100470004440a80000000600910188008000780038
:100480000000eb0015003700e280400032a0b4000d
:100490009101ba00e280400032a0b4009102ba009b
:1004a000e280400032a0b4000002eb00472bde00e7
:1004b000f507b200602ce10004003a000059eb009f
:1004c0008301e900fdff3e00040037006128e100e0
:1004d000010032000082eb00040007001101ba00a5
:1004e0000200e000e8ff3a00000006003159ba00bf
:1004f0008301e9000c0032002159ba008301e900b0
:10050000080032000400e00003003a00e2804000ee
:1005100032a0b400f5ff370011d9ba008301e90019
:10052000faff3a008100e800e180400032a0b40008
:10053000000006000040da000000fe000a00fa0099
:10054000e20f500022003e00b44a8000e10f52004a
:1005500006003200872320004623200024232000a9
:1005600005232000e08f530004003a00872220007a
:10057000462220002422200005222000000028001e
:100580001500600003003a00800b78000700280087
:10059000958a7300054020009482620001003a00b1
:1005a00014a0a000820278000600370094037800af
:1005b0000710b200fdff3200b103fb00070b78000b
:1005c0008502e900e08f5200f8ff3a00080037008a
:1005d00034002000c0bf9f00e2bf9f00b4bf9f0057
:1005e000d1bf9f006a805700880607006fb9970047
:1005f000020078000080fa000000060084e0a900f4
:1006000067026000f5ff28004c22dd0036058000ff
:100610008682620068006000850272004300de008e
:100620003505880061006000f4f72f004700dd0009
:10063000a50480000502620004027000a404880082
:10064000000006000621ef0061088800800888008d
:100650001061a90000000600001020003202b60060
:100660000000e9004f00de00000006008560a900e0
:10067000670260008580a9004c22dd00f5ff28009c
:1006800046058000868262008502720000027800c2
:10069000450588000407b20085ff2f004422de00d4
:1006a0005605800086826200850272006802600042
:1006b000550588004322de00f57f2f0061026200ad
:1006c000a6048000868262004b22dd000008b20092
:1006d000850272004700de00a5048800610060000a
:1006e000f4ff2e004c00dd00a5048000050262002e
:1006f00004027000a40488000000060087c0a9005e
:100700006702600087e0a9004822dd00f58f2f0016
:1007100096058000868262008502720000027800e1
:10072000950588000407b200f5ff28004822dd0087
:100730009605800086826200850272006802600071
:10074000950588004322de00f5ff2b006102620060
:10075000b6048000868262004e22dd000008b200ee
:10076000850272004700de00b50488006100600069
:10077000f4ff27004f00dd00b50480000502620091
:1007800004027000b404880000000600901180008c
:1007900061406000000006004211880000118800de
:1007a0001111880000000600c21188008011880025
:1007b000911188000000060084118000660262002a
:1007c000e60f520002003a00b0118000000006005f
:1007d000b0118000f00fb20000000600841180000c
:1007e00066026200e60f520001003200f00fb20014
:1007f000a01188000000060003f0a200889fbe0040
:100800008a9fbe008c1f78005101070058013300f9
:100810006450e1004f0032006420e10052003200d9
:1008200003826c0007003b000905d0000306d000de
:10083000820f54000c065d000200390002003200f5
:1008400089017800030678008582550004003d0088
:100850000003fd008103fd008502ea008b85420054
:10086000840f720002003b0060001000e08018005e
:100870006011b8000005eb007a28e1000a00390099
:1008800006007800c75ddd00f707b20087807500bd
:100890002d003700828171000a0178006105600037
:1008a0008180d1000080d3008502e900f9ff3b0080
:1008b000060440008784480002003b0060041400e6
:1008c000e0841c000988a300070032008a817100bf
:1008d00082817100610164008904d1000884d30021
:1008e0008b05e800170037000978a30013003a00d1
:1008f0000b00e000130034008b05e90008044400fd
:1009000089844c000a4474000978a3000d003a0061
:100910000b00e000070034008b05e90008044400e8
:1009200089844c0001003a000b0020000978a300e4
:10093000f7ff32000001eb000200370082817100f6
:100940000a017800c70007000cf0a70001f0a00022
:10095000100137006420e10002003a00838f6c0030
:10096000100133000801be000200be00090137007b
:10097000889fbe008a9fbe008c1f7800f40007008d
:10098000fb00330003866c006450e1002e0032004f
:100990006420e100330032006150e1002f0032009a
:1009a0006120e1003100320085855500eb07b00081
:1009b0000900200008042000050037000804440056
:1009c00089844c000a0031000603430087834b00f2
:1009d0000001530081815b00f8ff33000203be0079
:1009e0000800a0000804440089844c00f6ff390088
:1009f000c639dd00830173000100320013002000be
:100a00008904d1000884d3000998a30005003200ae
:100a10000800a7000300a0008904d1000884d300c7
:100a20008b05e8008904d1000884d3000001eb00a5
:100a30000281d2008b00070001f0a1000cf0a7009a
:100a400001f0a000d30037006420e100d50032009f
:100a50000801be000200be00f7ff37006120e10080
:100a6000d00032006000b800f3ff37000000200023
:100a700001f82700f0ff37001400200000013700c4
:100a8000f4ff2f00fe0037000001be009b000700ae
:100a90000470a70003f0a1006509b1001600320040
:100aa0000d0035006828e10006003500f0ff2f003a
:100ab000f1ff27000300e00013003b0001002800c5
:100ac0000000050000004000818048008502e90028
:100ad000fcff3a0008003700f88f420002003c009b
:100ae0008000eb00000005008100d1000080d300f1
:100af0008502e800fcff3a000300e00002003b0032
:100b000060001000e0801800000006004f89de0041
:100b100082017800f50037006011b800030137004a
:100b20000400200000003700889fbe008a9fbe009e
:100b30008c1f78004f26dd00850007008c003300f5
:100b40006120e100430032006250e10041003e00bc
:100b50003e0039006420e1003c003200058255006f
:100b60000f003b000402e80038003a00800f5300f9
:100b7000818f5b00350034000800be0003f0a10047
:100b800001f0a60003f0a0000cf0a7001bff070077
:100b9000800037000603430087834b000c46460065
:100ba0000005530081855b00020033000a03be008c
:100bb0000c00a0000402e900f6ff3b008505780068
:100bc0000602430087824b0004003a006000b80030
:100bd00009f0a70001f0a0006e00370000025200eb
:100be00081825a000704e00004003300060343003a
:100bf00087834b008b05e900faff37000905780071
:100c00000604be000203be006011b8001500070014
:100c1000e00f5200e08f5a000700350002003c0050
:100c20000c08a300040032000601be0003f0a0007f
:100c30000cf0a700f1fe07000a85680001f0a10092
:100c40000af0a70001f0a000520037000800be0023
:100c500050003700100220000cf0a6000040880071
:100c60005000370081002000618055000b003d00de
:100c70000b00200061fe2f000100e1001d00340088
:100c800082817100610164008904d1000884d3006d
:100c90000000e800faff3a007100200061006400e3
:100ca000030070000200600009003200610444008b
:100cb000e0844c000988a500050032008b05e8009f
:100cc0006808e10002003a008904d1000884d300da
:100cd000f20f20000258e10005003d00c75ddd0075
:100ce000f907b2008980750008007800000006004e
:100cf0000bf827008b00780000000500c70ade0013
:100d0000f107b200f50fb20008003200e1cf420057
:100d1000020032000170a00024000500810f700065
:100d2000010032000408050044000500810f700036
:100d300002003a00140005008502e90000004000ae
:100d400081c04800fcff3b000170a00024000500aa
:100d50000004be00e9ff07000003be000405be005a
:100d60000200be00e5ff0700844f7500000006008a
:100d70000200be006450e100050036006420e1007e
:100d8000020036000968a30001003a000800be0016
:100d90000160a0004f0678004f05be004f04be0062
:100da00000000600f0ff2f00f1ff2700f9ff3700d9
:100db000889fbe008a9fbe008c1f7800e4ff07005a
:100dc000ebff330003866c006450e1002400320026
:100dd0006420e100270032006150e100220032006f
:100de0006120e100210032008b854200eb07b10059
:100df0000134b800003ab8000804420089844a006f
:100e0000013ab8000030b8008880400009014a006b
:100e100004003300000040008180480002014900c6
:100e20008b05e900c909dd00830170000100320073
:100e300013002000c814de004814dd004709de005e
:100e40001200b200c808de000884700085ff0700a9
:100e500001f0a1000cf0a70001f0a000cdff3700c9
:100e60006120e100cfff32000801be000200be0099
:100e7000f7ff37006150e100fcff3a00c9ff37007f
:100e8000889fbe008a9fbe00841f7800b0ff0700c5
:100e90004f00780011003300f0ff2f00838f6c00ab
:100ea00006003b00040565000a00a70008003700a3
:100eb00009f0a6001000200008003700820f54003f
:100ec000838f5c00030039001000200001003e0009
:100ed0000000200009f0a7000000ea004f05be0056
:100ee0004f04be000000e00000000600881f7800ec
:100ef000030478000300e00007003d0060001000dc
:100f0000e080180060011900e081190002003b0038
:100f100001f02d00030037000400070008f0a700cf
:100f200001f0a0004f04780000000600889fbe007a
:100f30008a9fbe000082700004027100048271006a
:100f4000260032000004be000200be006011b8009e
:100f50006b092000950220000182cf000a003900b1
:100f60000541b1000082cf00070039000541b10002
:100f70000982cf00040039000541b1000882cf008a
:100f8000010039000541b100054252001200320053
:100f90000a003b0082817100610164008100d10080
:100fa0000080d3008984d3000884d3008b05e80037
:100fb0000442e800f7ff3a00070037000804440045
:100fc00089844c0000004800818048008b05e900be
:100fd0000442e900f9ff3a0022ff07004f05be0076
:100fe0004f04be0000000600a09120000000fa009f
:100ff00068815700cfb89700020007000080fa0010
:1010000000000600ef03b000889fbe008a9fbe006c
:101010008c9fbe00800678008e1f78000007eb00d2
:10102000d1af9f00a2b79f0066033700dfa89700eb
:1010300054c2b3008100e800d1af9f00844f50003c
:1010400006003a00010278000006eb0001c3b3007d
:1010500000c2b300b7c2b3000e0037003d029000db
:101060000404b200040032001d027800004a780037
:10107000840ee800050037000000fb008d007800ba
:101080005c030700e10f40004e0332000e07e8004a
:101090004c03370084027800d2c2b3003443780096
:1010a000824f53000900320005003c00804f53007e
:1010b00008003200874f53000c003a000700370049
:1010c000814f530009003a00060037000c30a000a1
:1010d000f0ff37000c00a000eeff37000c10a0005e
:1010e000ecff37000c20a000eaff37006202660028
:1010f000010032000c00a10068026600010032000d
:101100000c20a1000602fb000403b100e90f52000d
:101110000c003e00050378000002eb00b603fb0064
:101120006a22b9000703b1008602780004824300f6
:101130009603fb000703b100e98f5300f7ff360069
:10114000080037000002eb00a7c2b300874f53002e
:1011500004003a00afb197008502e800430278002e
:10116000a3b79f000003eb0096b79f00e6c2b30051
:10117000954f13000c003a000ce0a00064435300ac
:10118000d54f130003003200050378000000eb0088
:1011900009003700afb397008502e80047047800e4
:1011a000a7b79f0098b79f00050378000900370094
:1011b0006a00b9000080430086027800b603fb0095
:1011c0000703b100e98f5300f9ff360090b79f0085
:1011d000f5ff3700b6427800cac6b300d6af9f000d
:1011e0008acf5200250032000f003c0036c6b30003
:1011f00086cf52009e00320004003c00e0cf520037
:10120000f50232006b4353000f00370046c6b300af
:1012100086cf5200170032006543430086cf52004c
:10122000b2003a001300370036c7b30086cf520031
:101230001f00320007003c006443530086cf520079
:10124000140032000643e80086cf5200a7003a009f
:101250001300370056c7b30086cf5200aa003200f1
:101260006343430086cf5200a0003a00e5779f0019
:101270000d003700e5779f00a5003700f0036600fa
:101280000501200001003200050028000c867200d4
:10129000d0ff3700e5779f000c60a0009c0037006e
:1012a000e5779f000c50a0000c70a000980037005c
:1012b000afb59700e5779f00cb027800abb79f00f2
:1012c000b5b79f00e08f520002003a006190200005
:1012d000b1b79f003fb397008002eb0001003700d9
:1012e0008502e800e6c37a00e0cf5300fcff3a0035
:1012f000c5b79f001fb19700e00f510005003200f5
:10130000cfb19700830f51000200310082027800b4
:10131000c5b79f00cfb297000004eb00850f5200c5
:1013200001003600050452006806660009c2b300d9
:101330000f003200290037003d0290000404b20083
:10134000040032001d027800094a7800840ee8008b
:10135000050037008d00780000022000a50207007c
:10136000e10f4000010032000e07e8000804e90028
:10137000e00f5400f0ff3a000084eb001700370044
:10138000bd0290000504b200090032008802780016
:101390009d03780035437800864b7800050478007b
:1013a000870ee800e04f53000a003a0011003700b2
:1013b000880278008d0078003500fb0084bf9f0014
:1013c000050478008b0207000fba9700e10f400078
:1013d000080032000e07e800060037000c02780013
:1013e000080678003fb49700cfb497005fb5970028
:1013f000efb59700890278008504e900e08f52007c
:10140000dfff3a00b8b79f00c9b79f00dab79f0067
:10141000ebb79f000c04780009c2b3000406780003
:10142000e00f56000f003a00660237003d029000c0
:101430000404b200040032001d027800094a78005a
:10144000840ee800050037008d00780000022000bf
:1014500068020700e10f4000010032000e07e800bb
:101460000804e900e00f5400f0ff3a00550237008d
:10147000afb097007003660041047800a1b79f00e9
:10148000cfc4de00090578008a0578000800be0098
:101490000a01be004800de00c80add0000807200bc
:1014a000e0779f00e00f530009003200e04f50004a
:1014b00007003200e14f4000050032002600200006
:1014c000f0779f00887f9f00c6b79f00030037001a
:1014d00017002000c7b79f00f8779f0078fb2f0008
:1014e00008844700b8b79f0082ff370069fb2f00d0
:1014f0001a00200089844700e5779f00b9b79f0054
:10150000cab79f007bff3700e5779f000c0cb30044
:101510008c027800050cb2003b003a00e00f560048
:1015200005003d00afb297004501be004500be007a
:10153000a5b79f000f003700f002660012003200ce
:101540002fb497004803be00f69f9f0087a79f0017
:10155000a8b79f0098029000cfaade0095a79f0031
:10156000a5a79f007f9897008fa097001fa19700c5
:10157000afa19700b0b79f00c1b79f00d2b79f003f
:10158000e3b79f000b003700afb09700c1027800af
:1015900005047800cfc4de00090578008a057800cc
:1015a000a1b79f00b8b79f00c9b79f00dab79f00e7
:1015b000ebb79f003fb09700cfb097005fb19700a7
:1015c000efb19700e00f5000e08f5800e00f590096
:1015d000e08f590032003d006000b8006011b80093
:1015e0003fb49700cfb497005fb59700efb5970071
:1015f0003c00b30008045000898458000a055900d3
:101600008b85590022003700e00f560005003d0091
:10161000afb297004501be004500be00a5b79f00d0
:101620000f003700f0026600120032002fb497005e
:101630008004eb004803be000005eb0096af9f005e
:10164000a7af9f00b9af9f00caaf9f001fa8970028
:10165000afa897003fa99700cfa99700a8b79f0010
:10166000b0b79f00c1b79f00d2b79f00e3b79f00fc
:101670000b003700afb09700c1027800a1b79f0000
:1016800005047800090020000a0020000b0020005b
:10169000b8b79f00c9b79f00dab79f00ebb79f00ac
:1016a0009fb49700e08f54000d003a001a0020000c
:1016b0003fb09700cfb097005fb19700efb19700b0
:1016c0009ab79f00e00f5000e08f5800e00f5900dc
:1016d000e08f5900020032008000eb0091b79f00bc
:1016e0000c01780005042000020cb20082b79f00b4
:1016f000850f51003400320003003c00e00f510020
:101700000800320048003700050820008fb197001c
:10171000858f510014003200050c2000858f510088
:1017200041003a00a680200015c0b3003600be007c
:101730003601be003fb49700cfb497005fb5970065
:10174000efb597000040e10001c8e10002d0e100e0
:1017500003d8e100330039008542e800f4cf52009d
:10176000f2ff3a002f00370015c0b300000120003f
:10177000010020006011b8003fb49700cfb497007b
:101780005fb59700efb597000040e10001c8e100a8
:1017900002d0e10003d8e100220039004900200016
:1017a0000000d0008180d2000281d2008381d2006b
:1017b0008904e900faff3a008542e800f0cf5200c0
:1017c000edff3a001700370015c0b300800020007d
:1017d000010020006011b8003fb49700cfb497001b
:1017e0005fb59700efb597000040e10001c8e10048
:1017f00002d0e10003d8e1000a00390039002000de
:101800000000d0008180d2000281d2008381d2000a
:101810008904e900faff3a008542e800f5cf52005a
:10182000edff3a00e5779f006f7597009fb5970031
:101830008a02fb008b8f520002003d00eb779f0075
:10184000040037001fb09700850f500001003d00d5
:1018500095b79f00e00f520003003200e3026600dc
:10186000010032000402e900050024008502660040
:10187000060032009fb09700810f52000200340032
:1018800001025200010037000002eb006f71970067
:101890008001eb008202fb00f3af9f00850f520036
:1018a0000200340085025200f5af9f00640266001a
:1018b0003b003200e202660061026600e08f5200e7
:1018c00011003200bd0290000504b2000800320091
:1018d0009d027800b6c2b300e00f52000100320052
:1018e00006c3e800864a7800850ee8001500370038
:1018f000b0022000e00f5200010032000080e8003a
:101900008d0078000c003700e00f52000e0032000e
:101910003d0290000404b200050032001d02780070
:1019200005c2b300054a7800840ee80005003700c0
:101930008d007800000220002e010700e10f40001a
:10194000010032000e07e8007faa9700e00f520066
:101950004f00320008c3b300840478003d029000b9
:101960000404b200040032001d027800084a780026
:10197000840ee800050037008d0078000003200089
:101980001c010700e10f4000010032000e07e800d3
:101990008904e900f1ff3a00f9af9f003c003700ed
:1019a000ffaa9700e08f5200140032006802660020
:1019b00012003a0008c2b300850478003d0290008e
:1019c0000404b200040032001d027800084a7800c6
:1019d000840ee800050037008d007800000220002a
:1019e00004010700e10f4000010032000e07e8008b
:1019f0008904e900f1ff3a00f9af9f00e2026600b6
:101a000061026600e08f520011003200bd029000ba
:101a10000504b200080032009d027800b6c2b3008f
:101a2000e00f52000100320006c3e800864a780049
:101a3000850ee80015003700b0022000e00f5200cc
:101a4000010032000080e8008d0078000c003700b3
:101a5000e00f52000e0032003d0290000404b2007c
:101a6000050032001d02780005c2b300054a780067
:101a7000840ee800050037008d0078000002200089
:101a8000dc000700e10f4000010032000e07e80013
:101a90001fb39700258020000602e900f0046600cd
:101aa000c223dd000c057800c7a79f000a02b20020
:101ab0006323b900e99f9f00060478004322dd00fc
:101ac000b8a79f0085024200da9f9f00e5af9f0004
:101ad000a30037009fb597000fb097008b05e90072
:101ae000010420009bb79f00810f5000730032005b
:101af00003003c00e00f5000080032007e00370079
:101b0000040820000fb19700840f510056003200e6
:101b1000040c2000840f510077003a00e00f5600bb
:101b20001f003d00efa997003304be002305be004f
:101b30003fb09700cfb097005fb19700efb197002b
:101b40000802be000a03be00f30107000802be003f
:101b50000a03be00e0779f000000fb00cf80de009c
:101b60000101780082017800540207003fb297001b
:101b7000cfb297005fb39700efb397000002520017
:101b800081825a0002035b0083835b00b4b79f002d
:101b9000c5b79f00d6b79f00e7b79f002e0037005c
:101ba000ef9a9700e08f5200220032006fab97004f
:101bb0003fb29700cfb297003604be002605be00a4
:101bc0000400be000801be0084bf9f00f5b79f005f
:101bd0000005eb000f0107000801be00e0779f0041
:101be0000000fb00cf80de001a0107000fba97004b
:101bf000ffb297008aaf9f000004520081845a0010
:101c0000d8a79f00e9a79f008004eb00f9a79f00d9
:101c10005fa09700efa097007fa197008fa9970082
:101c2000b0b79f00c1b79f00d2b79f00e3b79f0036
:101c300009003700efa897003fb197001102780024
:101c4000110009000481d800a4002000110009003f
:101c50000480d800e1779f00ef7197000343b00044
:101c6000e3779f0024003700548f2000df9a97000d
:101c7000e08f520001003200448e20003fb09700f8
:101c8000cfb097005fb19700efb197004fa39700d7
:101c90000603e900050033008301d1000281d3006f
:101ca0008180d3000080d300f9ff37006f0060000f
:101cb00064407800e0779f000f0037003fb2970044
:101cc000cfb297005fb39700efb397003fa49700a0
:101cd0000804e900050033008703d1000683d30020
:101ce0008582d3000482d300f9ff37006742620087
:101cf0000443b000e4779f003d0290000404b2006a
:101d0000070032009d0278006f729700844a7800c5
:101d1000850ee800e04f520007003a000700370048
:101d2000ef7497008d0078000900fb003100070078
:101d3000e10f4000010032000e07e8004fa59700b8
:101d4000bfa597006fa8970064055500e38555006f
:101d500068005000caa79f00bba79f00e0af9f008c
:101d60009fb09700e08f50005aff3a006806660067
:101d7000140032007fa99700e00f510011003400d9
:101d800008c2b300820478003d0290000404b2004f
:101d9000040032001d027800084a7800840ee80032
:101da000050037008d0078000002200011000700b8
:101db000e10f4000010032000e07e8008904e9004d
:101dc000f1ff3a00dfa9970013407800e0779f0009
:101dd000e04f500095fc3a000e0078004f07780065
:101de0004f06be004f05be004f04be00ef03b1001a
:101df00000000600889fbe00010478008084eb008c
:101e000038029000e20262003b00320004037800d6
:101e1000980290000620b20002003a00e08f5200c3
:101e200035003a000490a000800478003404980043
:101e3000f90fb200e08f520002003a00a8029000b1
:101e4000050c7800ea8f540005003a000408b2003f
:101e500003003a0088007800d0002000e5ff07006a
:101e600018029000d8029000850f52000b0032003b
:101e70000402e80015c0b3001404980018027800aa
:101e8000094a7800040ce80004952000054a78000f
:101e9000ea8f540018003a00050037000940780026
:101ea00088007800170007008004780012003700cf
:101eb000380290000410b2000f00320018019000a8
:101ec000a8009000480090009cf9070018029000bc
:101ed000840f500004003200380290000403b30065
:101ee000340498008084eb000002eb001404980096
:101ef00028029000040c7800090078004f04be000e
:101f0000000006000200fa00889fbe00010478006d
:101f1000a0ff9f0038029000840278000504b20000
:101f2000020032000000fb0035003700e2026200d0
:101f300005003a000403b300150498003404980027
:101f40000080eb002e003700d8049000e08f540092
:101f500006003a0012002000e6805700480090007a
:101f600076f907001904980023003700a8029000b2
:101f7000e08f520008003a00459520000430a00090
:101f800025049800050c78003404980025002000f2
:101f9000550498001504980018019000a8009000be
:101fa0004800900065f90700280290008082eb004d
:101fb00015049800affa9700054a7800040ce80071
:101fc0002ffa9700ea4f52000b003a0038029000b7
:101fd0000410b2000800320018019000a800900020
:101fe0004800900055f907000002eb00a80290009d
:101ff00014049800050c78002ffa97000400fb00e9
:102000004f04be000080fa000000060000c0da00a5
:10201000000006006022b800060220000000d00088
:102020008180d2000482d2008582d2000000a0000c
:102030000202520083825a00030031000202420071
:1020400083824a000000a1000603e900f3ff3a0082
:1020500000000600020ab900001bb9000200b80027
:10206000810042008100430000000600889fbe00fe
:102070008a9fbe003004be002005be000404440058
:1020800085844c0006054d0087854d000898be00ec
:102090000a90be000440e10005c8e10006d0e1005e
:1020a00007d8e10002003100680040001008e80095
:1020b0004f05be004f04be00000006001000fa00ed
:1020c000889fbe008a9fbe00110020000605be004a
:1020d0000404be003002be002003be00c4b79f004f
:1020e000d5b79f00e6b79f00f7b79f0008025200e0
:1020f00089825a000a035b008b835b0084bf9f00c8
:1021000095bf9f00a6bf9f00b7bf9f000498be0069
:102110000698be004fb29700dfb297006fb39700ea
:10212000ffb397000820e10009a8e1000ab0e10030
:102130000bb8e100010039008000eb004f05be0044
:10214000108810004f04be000080fa000000060056
:102150001400fa00889fbe008a9fbe008c9fbe00bc
:102160000006eb003e000700ccb79f00bcb79f0005
:10217000acb79f009cb79f008cb79f000605be00c0
:102180000404be000d0420004fb39700bfb29700b7
:10219000860343002fb29700e00f530004003d0078
:1021a0003d0007000f004000b0ff070003003700ac
:1021b000390007000f004000c0ff0700cfb29700b2
:1021c00095bf9f00e08f5200090035002b000700eb
:1021d00014002000050020006033b80000007200e9
:1021e0008180720002017300838173001c0007006c
:1021f0000c06e8008d0f5600e3ff3a001fba970067
:10220000e00f520005003d000802be000a03be00b8
:1022100000fe2f000f00400094ff07004faa970018
:10222000e00f520008003a000fb497009fb49700e7
:102230002fb59700bfb59700d8b79f00e9b79f00ab
:10224000fab79f008bbf9f000c0007004f06be002f
:102250004f05be004f04be000080fa0000000600db
:10226000010007000000060090b79f00a1b79f0083
:10227000b2b79f00c3b79f0000000600010007002f
:10228000000006001fb09700afb097003fb1970065
:10229000cfb19700000006004f2bde00f9ff0700ca
:1022a00086837300858242004f23de00a7b79f001c
:1022b000868272000402420095b79f00ffaa970031
:1022c0004f2bde00858242000602720084b79f0019
:1022d0006faa97004f23de0004024200868272003c
:1022e000f5af9f004f18de0000027200e5ff070007
:1022f000e4af9f00000040008180480002014900d7
:10230000838149000802be000a03be00d6ff070011
:1023100000fe2f0000000600881f78001800200033
:10232000881f78008aff07008f87e9004f04780034
:1023300000000600801feb0085ff07008f87e90083
:1023400000000600889fbe008a9fbe00e00f50007c
:10235000e08f5800e00f5900e08f59000c003d005d
:102360006044b8006055b8000000540081805c00f3
:1023700002015d0083815d00180020001500070048
:1023800008003d00180007000004eb0005003700be
:102390000004eb000f00070002003d0012000700e0
:1023a00018002000dcff0700e00f54000600320098
:1023b0006022b8006033b8000000520081805a00eb
:1023c00002015b0083815b004f05be004f04be002d
:1023d00000000600e00f5200e08f5a00e00f5b00a3
:1023e000e08f5b00000006006044b8006055b80054
:1023f0000402540085825c0006035d0087835d0053
:1024000000000600889fbe008a9fbe008c1f7800d7
:10241000e00f5000e08f5800e00f5900e08f5900a6
:102420000d003d006044b8006055b8001c0020005d
:102430000000540081805c0002015d0083815d002a
:102440000820e10009a8e1000ab0e1000bb8e100b2
:102450000d003d00080037000006eb00e00f5200c1
:10246000e08f5a00e00f5b00e08f5b0006003d004c
:102470006044b8006055b8000402540085825c00d6
:1024800006035d0087835d00aaff0700e00f56008a
:10249000060032006022b8006033b800000052002d
:1024a00081805a0002015b0083815b004f06780047
:1024b0004f05be004f04be0000000600889fbe000e
:1024c0008a9fbe008c1f78000006eb00e00f5000d2
:1024d000e08f5800e00f5900e08f590007003d00e1
:1024e0006044b8006055b8001c0020000000540093
:1024f00081805c0002015d0083815d00e00f52007d
:10250000e08f5a00e00f5b00e08f5b0007003d00aa
:102510006044b8006055b8000c00a20004025400ea
:1025200085825c0006035d0087835d000c00070068
:10253000e00f5600060032006022b8006033b80099
:102540000000520081805a0002015b0083815b0021
:102550004f0678004f05be004f04be000000060085
:10256000889fbe008a9fbe008c9fbe000404b800f6
:102570000506b8008904460060854e000606b800ce
:102580000a054600e0854e000706b8008b054600a8
:10259000040eb800890446000a854e00e0854d000f
:1025a000050eb8000a0546008b854e00060eb800e1
:1025b0008b0546000416b8000a0546008b854e00c0
:1025c0000516b8008b054600041eb8008b054600b2
:1025d0000800be000a01be004f06be004f05be0047
:0825e0004f04be0000000600dc
:020000040000fa
:1025e8006572000072650000757200005f67000088
:1025f8002564000020650000727200006575000007
:10260800725f000064250000642000000a0d0000cd
:0426180000000000be
:020000040000fa
:10261c000000fa00153a8000f40b200004836200dd
:10262c00640420007505200027742000844b78007a
:10263c00854b7800864b780034358000f401b3006c
:10264c00343588005536800004fe2f000482620069
:10265c005400b30054368800153a8000040420005e
:10266c000503720064042000750520002774200007
:10267c00844b7800854b7800864b78000080fa00fc
:10268c00000006000000fa00153a8000f40b200050
:10269c000483620064042000750520002774200068
:1026ac00844b7800854b7800864b7800553680003b
:1026bc0004fe2f00048262005436880035358000f9
:1026cc0004fe2f00048262007400b30034358800cd
:1026dc00153a8000040420000503720064042000f5
:1026ec007505200027742000844b7800854b7800fa
:1026fc00864b78000080fa00000006000200fa0009
:10270c00004f78000000000095118000042020008c
:10271c0004826200e00f5200fbff3a009e427800f8
:10272c000582fb0004007800ee03020000000000ac
:10273c0024932000144278009e42420024932000ef
:10274c00054a78000080fa00000006000400fa0038
:10275c00004f78001147980022479800acff070003
:10276c0000c0eb00e5ff070000c0eb00e3ff070033
:10277c00249320008042eb00054a78001e4078002c
:10278c00deff07001e42900004c2e80004407800ff
:10279c00daff07002e409000d8ff07000080fa00f7
:1027ac00000006000600fa00204798002107980058
:1027bc000042eb00044f7800080037009e4278007e
:1027cc000582fb00ae0290000482420014427800a5
:1027dc0004407800c9ff07001e4fe8002e4290000d
:1027ec009e42780084cf5200f4ff39000080fa003a
:1027fc00000006000000fa00249320001442780028
:10280c0004c2ea0004407800bcff0700000000008e
:10281c002c0302000000000000427800e04f520040
:10282c00fbff3a0097ff07000080fa00000006004b
:10283c000200fa006e003700dc030200000000000a
:10284c000002780004427800044f7800644a80004b
:10285c00e50f420006003a001e427800e14f4200ac
:10286c0003003a00c4ff2f00644a88006000370060
:10287c00644a8000e40f42000c003a001e427800cb
:10288c00e14f420009003a00d4ff2f00644a88004f
:10289c00249320008042eb00054a780064932000ca
:1028ac0015c0b3001542980051003700644a8000ef
:1028bc00e30f420006003a00e4ff2f00644a880050
:1028cc009e42780064932000054a78004800370047
:1028dc00644a8000e20f420010003a001e42780069
:1028ec00e54f52000d003e000082eb00644a880068
:1028fc0064932000944278001e42780084c2420007
:10290c0024932000054a78001e42780084c2e90016
:10291c00649320001542980035003700644a80000b
:10292c00e10f420007003a000002eb00644a880005
:10293c008e0278006493200015037800160298002c
:10294c002b003700644a8000e00f52001500350060
:10295c0064932000144290008482fb00644a80003f
:10296c00848f52000f003400644a80000403780006
:10297c00a5932000850243001e437800864a780008
:10298c000402e800644a88002493200094427800f2
:10299c001e42780084c2420024932000054a78002d
:1029ac001300370064932000144290008482fb00d3
:1029bc00644a8000848f52000b003a009e427800db
:1029cc00249320001442780004c26200e04f5200ad
:1029dc0005003a0014002000a4498800b4ff2f0021
:1029ec00644a880002003700b4ff2f00644a880054
:1029fc00c60302000000000000427800e04f5200c5
:102a0c008dff3a000080fa00000006000200fa0078
:102a1c00004f780012c0b30021c0b3001e407800f4
:102a2c004aff070073ff07000080fa000000060051
:102a3c000400fa00004f78001147980022479800d4
:102a4c0022c0b30021c0b3001e4078003fff070036
:102a5c001e40900029ff07002e40900027ff070022
:102a6c0064ff07000080fa00000006000600fa0070
:102a7c00004f7800114798002247980023079800d0
:102a8c002e4290000442e80032c0b300844078002b
:102a9c001e4078002dff07001e40900017ff070016
:102aac00ae0090002e4090003eff070051ff070043
:102abc000080fa00000006000600fa00004f7800c3
:102acc001147980022479800230798002e42900047
:102adc000442e80042c0b300844078001e407800f5
:102aec001aff07001e40900004ff0700ae00900084
:102afc002e4090002bff07003eff07000080fa00dd
:102b0c00000006000200fa00004f780052c0b3002b
:102b1c008040eb001e4078000cff070035ff0700db
:102b2c000080fa00000006000200fa00004f780056
:102b3c0062c0b3008040eb001e40780003ff07002a
:102b4c002cff07000080fa00000006000200fa00cb
:102b5c00004f78009e4278000582fb00cfa2de0079
:102b6c000603200007002000860f5200878f5a00b2
:102b7c0036003e000460010032003700330037009d
:102b8c002e0037002d0037002c0037002b003700ab
:102b9c002c0037002d0037002a0037002b0037009f
:102bac002a003700250037002400370023003700a7
:102bbc002400370025003700200037001f003700a5
:102bcc001e0037001d0037001e0037001f003700a5
:102bdc001c0037001d0037001800370017003700a5
:102bec0016003700150037001400370013003700ab
:102bfc00140037001500370012003700130037009f
:102c0c0010003700110037000e0037000f0037009e
:102c1c000c0037000d0037000a0037000b0037009e
:102c2c0006003700050037000400370007003700a6
:102c3c0002003700010037000200370014c0b30057
:102c4c000300370024c0b300010037000042eb0042
:102c5c00044078000080fa00000006000400fa002e
:102c6c00881f7800004f78001147980012079800d1
:102c7c000002eb00a44988000e84e8001e4090007e
:102c8c00b2ff070000427800880178000441780008
:102c9c009e4090001e40780074ff07004f0478009f
:102cac000080fa00000006000200fa00004f7800d5
:102cbc00114798000002eb00a44988001e409000c8
:102ccc00a2ff070000427800044178009e4090006b
:102cdc001e40780056ff07000080fa000000060036
:102cec000000fa00c1e1a800040e80000420a1003d
:102cfc000430a100040e8800040e80000400a10022
:102d0c000410a100040e8800c45d2000240e88006d
:102d1c00c921a800c941a800c881a800c8a1a80061
:102d2c00c8c1a900c801a900c821a900c841a900af
:102d3c00c45d2000240e88000002eb00b40e880055
:102d4c000002eb00c40e8800c0e2a900c962a90011
:102d5c00c9e2a900c9a2a900c4e2a900cd62a900d8
:102d6c00cde2a900cda2a9000080fa000000060067
:102d7c000800fa00881f7800008fbe002207980018
:102d8c003307980018c0b3006011b8002e009000f3
:102d9c00be00900040050200000000000002780018
:102dac00e00f520001003d000044eb00e04f5400e6
:102dbc0002003200cda2a80001003700cda2a9006c
:102dcc0018c0b3006011b8001e00be004005020020
:102ddc000000000000027800e00f520001003d00ee
:102dec000044eb00e04f540002003200cde2a8009a
:102dfc0001003700cde2a900c45d2000240e88003c
:102e0c0004002000852c240002002000832c2c00c0
:102e1c001e00be00d41d0200000000000002be0017
:102e2c00048fbe0004002000852c2400020020002a
:102e3c00832c2c002e009000be009000d41d0200ac
:102e4c00000000000002be0024079800350798001f
:102e5c001e02be0005f0a10002002000031f24008a
:102e6c000400be00d8060200000000000002be00f4
:102e7c000400be0044050200000000000002be0079
:102e8c0004027800b40e88002e029000be0290005e
:102e9c0005f0a10002002000031f24000400be0066
:102eac00d8060200000000000002be000400be00b4
:102ebc0044050200000000000002be00040278007d
:102ecc00c40e88004f0478000080fa000000060051
:102edc000e00fa00881f7800100798002107980050
:102eec00320798004307980054079800650798002c
:102efc00180020006011b8005e009000ee009000f9
:102f0c00400502000000000000027800e00f5200b3
:102f1c0001003d000004eb00080f780018002000b1
:102f2c006011b8003e009000ce0090003c050200fd
:102f3c000000000000027800e00f52000100350094
:102f4c000004eb00080f78001e019000ae01900009
:102f5c000068290081c12400b804020000000000b0
:102f6c000002be000400be00440502000000000088
:102f7c000003be0004d0270005002000c25d200025
:102f8c00030020000600be00281e02000000000006
:102f9c000002be0004027800240e88000400200009
:102fac00852c240002002000832c2c003e00900075
:102fbc00ce009000d41d0200000000000002be00f4
:102fcc00340798004507980004002000852c240045
:102fdc0002002000832c2c005e009000ee0090007c
:102fec00d41d0200000000000002be00540798002f
:102ffc0065079800240e80000402420005002000a2
:10300c000400be008c050200000000000003be009e
:10301c003e029000ce02900005f0a1000401be001b
:10302c000600be00d8060200000000000002be0030
:10303c0002002000832c24000400be00b80402000f
:10304c00000000000002be003407980045079800fd
:10305c00240e800004024200050020000400be0083
:10306c008c050200000000000003be005e02900010
:10307c00ee02900005f0a1000401be000600be00a7
:10308c00d8060200000000000002be000200200072
:10309c00832c24000400be00b804020000000000d1
:1030ac000002be0054079800650798003e0090008f
:1030bc00ce00900044050200000000000003be009a
:1030cc0004a02f00050020006011b8000600be000f
:1030dc00281e0200000000000002be00040278005e
:1030ec00b40e88005e009000ee00900044050200d3
:1030fc00000000000003be0004a02f00050020000b
:10310c006011b8000600be00281e0200000000007e
:10311c000002be0004027800c40e88004f04780040
:10312c000080fa00000006000600fa00881f7800f4
:10313c001007980021079800180020006011b800b3
:10314c001e009000ae0090003c0502000000000044
:10315c0000027800e00f5200010035000004eb0083
:10316c00080f78001e02780004f0a7000402ea00a1
:10317c000402e9004f22de00044278000482fb00c6
:10318c004f22dd0066168000f5ff270085026300e4
:10319c00050272006416880004002000852c2400af
:1031ac0002002000832c2c001e009000ae0090002a
:1031bc00d41d0200000000000002be00140798009d
:1031cc00250798001e029000ae02900005f0a100a9
:1031dc0002002000031f24000400be00d8060200d9
:1031ec00000000000002be000400be004405020006
:1031fc00000000000002be0004027800b40e88003b
:10320c004f0478000080fa00000006000600fa0067
:10321c00881f7800100798002107980018002000dc
:10322c006011b8001e009000ae0090004005020036
:10323c000000000000027800e00f520001003d0089
:10324c000004eb00080f78001e02780004f0a700c1
:10325c000402ea000402e9004f22de000442780076
:10326c000482fb00610262004d22dd0066168000c4
:10327c00f5ff2d00850263000502720064168800bc
:10328c0004002000852c240002002000832c2c003c
:10329c001e009000ae009000d41d02000000000043
:1032ac000002be0014079800250798001e0290002b
:1032bc00ae02900005f0a10002002000031f2400c4
:1032cc000400be00d8060200000000000002be0090
:1032dc000400be0044050200000000000002be0015
:1032ec0004027800c40e88004f0478000080fa00b5
:1032fc00000006000000fa00c8e2a800cee2a80018
:10330c0081e0a9000082eb0064198800a202200071
:10331c00d155290000402c00d4030200000000000d
:10332c00d0f52f007e03020000000000a202200056
:10333c00d155290000402c00cc03020000000000f5
:10334c00e0f62f00360302000000000091d02300ad
:10335c00d0fa2d002203020000000000c0ff2f0055
:10336c00fe020200000000002535800004fe2f0044
:10337c00048262002401b3002435880025368000c5
:10338c0004fe2f00048262003400b300243688004f
:10339c000080fa00000006000000fa00c122a8001c
:1033ac00d062a800d122a800d102a8006380a80096
:1033bc006280a8006260a8006405800004c0a100bf
:1033cc0004d0a00004e0a000640588009660a8006a
:1033dc008660a9000080fa00000006003600f800a4
:1033ec00809fbe00829fbe00849fbe00869fbe0051
:1033fc00889fbe003400f80000002000a001880067
:10340c000000fa0095458000b4458000048252000b
:10341c00cfa2de000400be00860502000000000002
:10342c000002be00d4458800e5458800a545800013
:10343c00c445800004825200cfa2de000400be000e
:10344c0086050200000000000002be00f445880062
:10345c000546880094458000b4458800a44580004a
:10346c00c445880034468000cfa2de000400be00b4
:10347c0086050200000000000003be00d445800059
:10348c00e54580000401be000600be00fc030200fe
:10349c00000000000002be000400be004405020053
:1034ac00000000000002be000402780014468800f0
:1034bc0044468000cfa2de000400be008605020058
:1034cc00000000000003be00f445800005468000ab
:1034dc000401be000600be00fc0302000000000058
:1034ec000002be000400be00440502000000000003
:1034fc000002be0004027800244688005546800075
:10350c0014468000048242005446880065468000c0
:10351c0024468000048242006446880015468000e0
:10352c007446800004825200944688002546800030
:10353c008446800004825200a44688001446800011
:10354c00cfa2de000400be008605020000000000d1
:10355c000003be00144a8000254a80000401be000e
:10356c000600be00d8060200000000000002be00eb
:10357c000404be0054468000cfa2de000400be004e
:10358c0086050200000000000003be00344a8000e3
:10359c00454a80000401be000600be00d8060200a9
:1035ac00000000000002be000401be000800be00c6
:1035bc00fe030200000000000002be000404be0076
:1035cc0094468000cfa2de000400be0086050200f7
:1035dc00000000000003be00f44680000547800098
:1035ec000401be000600be00d80602000000000068
:1035fc000002be000401be000800be00fe03020073
:10360c00000000000002be00b4468800c5468800d9
:10361c0024468000cfa2de000400be008605020016
:10362c00000000000003be00144a8000254a800000
:10363c000401be000600be00d80602000000000017
:10364c000002be000404be0064468000cfa2de006f
:10365c000400be0086050200000000000003be004e
:10366c00344a8000454a80000401be000600be00ba
:10367c00d8060200000000000002be000401be00db
:10368c000800be00fe030200000000000002be00a5
:10369c000404be00a4468000cfa2de000400be00dd
:1036ac0086050200000000000003be00f446800006
:1036bc00054780000401be000600be00d8060200cb
:1036cc00000000000002be000401be000800be00a5
:1036dc00fe030200000000000002be00d446880079
:1036ec00e546880014468000744688002446800015
:1036fc0084468800b4468000c5468000d6468000cb
:10370c00e74680000401be000600be00be160200a3
:10371c00000000001546800024468000851f7800bc
:10372c00841f7800442f2900841f7800f4070200be
:10373c0000000000e687570084e0a9000080fa0032
:10374c003400f9004f04be004f03be004f02be0010
:10375c004f01be004f00be003600f90000400600cd
:10376c000000fa0087c0a9000080fa0000400600a3
:10377c000000fa0087e0a9000080fa000040060073
:10378c000000fa008560a9000080fa0000400600e5
:10379c000000fa008580a9000080fa0000400600b5
:1037ac000000fa00c442a8008820a9000080fa009a
:1037bc0000400600849fbe000000fa0094168000b2
:1037cc004822de00614262008482fb00248e2000cd
:1037dc00144278000402fb00848f5200090032006e
:1037ec00941680004822de00614262008442780018
:1037fc00248e2000054a7800a44580000402e800cd
:10380c00a4458800941680004922de0061426200c3
:10381c008482fb00348e2000144278000402fb00ea
:10382c00848f520009003200941680004922de0079
:10383c006142620084427800348e2000054a780090
:10384c00944580000402e800944588008660a90035
:10385c000080fa004f02be00004006000200fa0091
:10386c00000f78000080fa00000006000000fa004b
:10387c000219200021c2b30070c0b300341602003c
:10388c000000000000a02600810120006e20020034
:10389c0000000000421f200021c2b30090c0b30002
:1038ac00341602000000000000a026008101200058
:1038bc006e200200000000004238200021c2b3003c
:1038cc00b0c0b300341602000000000000a02600b7
:1038dc00810120006e2002000000000082252000e3
:1038ec0021c2b30010c0b300341602000000000067
:1038fc0000a02600810120006e20020000000000c4
:10390c00421f200001c2b30070c0b3003416020085
:10391c000000000000a02600810120006e200200a3
:10392c0000000000421f200001c2b30090c0b30091
:10393c00341602000000000000a0260081012000c7
:10394c006e200200000000000232200001c2b30011
:10395c00b0c0b300341602000000000000a0260026
:10396c00810120006e20020000000000221c2000bb
:10397c0001c2b30010c0b3003416020000000000f6
:10398c0000a02600810120006e2002000000000033
:10399c0082252000e1c1b30070c0b30034160200d0
:1039ac000000000000a02500212620006e2002004f
:1039bc000000000042102000e1c1b30090c0b30031
:1039cc00341602000000000000a025002126200073
:1039dc006e2002000000000002142000e1c1b300c0
:1039ec00b0c0b300341602000000000000a0250097
:1039fc00212620006e200200000000000219200089
:103a0c00e1c1b30010c0b300341602000000000086
:103a1c0000202c00b1be20006e200200000000002f
:103a2c000080fa00000006000000fa00a21420003a
:103a3c00e1c1b30070c0b3003416020000000000f6
:103a4c0000402b00414c20006e20020000000000c2
:103a5c0082252000e1c1b30070c0b300341602000f
:103a6c000000000000a02500212620006e2002008e
:103a7c0000000000e2152000e1c1b30010c0b3004b
:103a8c00341602000000000000a0250021262000b2
:103a9c006e20020000000000f20f2000e1c1b30014
:103aac0090c0b300341602000000000000a02500f6
:103abc00212620006e20020000000000123b200096
:103acc00e1c1b300b0c0b300341602000000000026
:103adc0000a02500212620006e200200000000001e
:103aec00a20a2000e1c1b30090c0b300341602005a
:103afc000000000000402b00414c20006e20020012
:103b0c000000000002192000e1c1b30010c0b30096
:103b1c00341602000000000000a025002126200021
:103b2c006e2002000000000002142000e1c1b3006e
:103b3c00b0c0b300341602000000000000402b009f
:103b4c00414c20006e20020000000000e21020001a
:103b5c00e1c1b30010c0b300341602000000000035
:103b6c0000402b00414c20006e20020000000000a1
:103b7c00f20f2000e1c1b30090c0b3003416020074
:103b8c000000000000a02500212620006e2002006d
:103b9c00000000000080fa00000006000c00fa0093
:103bac00881f7800008fbe0022079800330798000a
:103bbc00440798005507980018c0b3002e019000d8
:103bcc00be0190001e00be003c050200000000007b
:103bdc0000027800e00f5200010035000044eb00b9
:103bec00e04f5400030032002e029000be02900001
:103bfc001000370018c0b3004e019000de01900099
:103c0c001e00be004005020000000000000278000b
:103c1c00e00f520001003c000044eb00e04f540068
:103c2c00030032004e029000de02900001003700cb
:103c3c001e02be000400be004f0478000080fa0093
:103c4c00000006000c00fa00008fbe00220798004e
:103c5c003307980044079800550798002e029000ef
:103c6c00be0290001e03be00840f5300858f5b00c4
:103c7c0003003d002e029000be0290000a003700a7
:103c8c004e029000de0290001e03be00840f530013
:103c9c00858f5b00030034004e029000de02900022
:103cac00010037001e02be000400be000080fa00b6
:103cbc00000006000800fa00881f78002007980012
:103ccc00310798002e029000be02900005f0a10072
:103cdc0018c0b300b2fd2000930424000400be0001
:103cec003c0502000000000000027800e00f5200ca
:103cfc00010035000044eb00e04f5400030032009b
:103d0c002e029000be0290002f003700b2fd200062
:103d1c00930c24002e009000be0090009005020031
:103d2c00000000000002be00048fbe0018c0b300eb
:103d3c00b2fd200093042c001e00be003c050200c6
:103d4c000000000000027800e00f52000100350076
:103d5c000044eb00e04f540007003200b2fd20009d
:103d6c00930c24001e00be00fe03020000000000a5
:103d7c000002be00048fbe0018c0b300b2fd2000cc
:103d8c00930424001e00be00400502000000000049
:103d9c0000027800e00f520001003c000044eb00f0
:103dac00e04f540007003200b2fd2000930c2400b9
:103dbc001e00be00fc030200000000000002be005a
:103dcc00048fbe001e02be000400be004f0478002b
:083ddc000080fa00000006005f
:020000040000fa
:103de400420900000800000002000000000000007a
:103df40041000000803f0000a208000042000000d3
:103e0400000000004a090000020000000000000059
:103e14004c0900000200000002000000fbff00004b
:103e2400320900001000000000000000000800003b
:103e340002000000000000000e0900002400000041
:103e440002000000520900000052090009000000ad
:103e54000002000054090000005409000e02010091
:103e64000000000000000000000000000602020044
:103e7400000000004e0900000200000002000000e3
:103e84000e090000500900000200000000000000bc
:103e94005209000002000000000000005409000064
:103ea4000200000000000000e40800002a000000f6
:103eb4000200000030313200333435003637380028
:103ec400394142004344450046003000313233005a
:103ed4003435360037383900616263006465660042
:103ee40000286e00756c6c002900000002080000b8
:103ef400a00000000200000001000000000000001b
:103f040000000a000000000000000000006400003f
:103f14000000000000000000e803000000000000b2
:103f240000001000270000000000000000a0860030
:103f3400010000000000000040420f0000000000eb
:103f44000000800096980000000000000000e100de
:103f5400f50500000000000000ca9a003b000000c4
:103f640000000000e40b5400020000000000e80020
:103f740076481700000000000010a500d4e80000f7
:103f840000000000a0724e0018090000000040006c
:103f94007a10f3005a0000000080c600a47e8d0051
:103fa4000300000000c16f00f2862300000000003f
:103fb4008a5d78004563010000006400a7b3b60081
:103fc400e00d000000e889000423c7008a00000017
:103fd4005609000002000000020000000100000079
:043fe40000000000d9
:020000040000fa
:103fe8000000fa00353a800004e02f008482620065
:103ff8006409200005027200343a8800253a8000de
:1040080004fe2f00048262005400b300243a8800a2
:10401800243a80000460a1000470a100243a8800ba
:1040280000000000153a80000402200004826200ab
:10403800e00f5200fbff32000080fa00000006008b
:104048000000fa00e6ff07008019020000000000e7
:1040580000d02200111320006e2002000000000092
:104068007616020000000000d219020000000000cd
:104078000080fa00000006000400fa00000f780033
:104088001107980024200200000000000002eb0045
:10409800544a88000700370000202100a1072000ab
:1040a8006e20020000000000544a80000402e8006c
:1040b800544a8800544a8000e40f5200f6ff340046
:1040c800840020003446880084002000444688008c
:0440d800ffff3700af
:020000040000fa
:1040dc00f03fb1000180b10006003500ee0309008d
:1040ec0000000000403fb1000180b100fbff3d002b
:1040fc001000b000203fb000020035000080090025
:08410c000000000000000600a5
:020000040000fa
:0200000401f009
:04000c0079ff000078
:020000040000fa
:0200000401f009
:04001000bbff000032
:020000040000fa
:0200000401f009
:040014007fff00006a
:020000040000fa
:0200000401f009
:04001800ffff0000e6
:020000040000fa
:0200000401f009
:04001c00ddff000004
:00000001FF
