:020000040000fa
:080000000002040000000000f2
:020000040000fa
:100008009a0200009a0200009a0200009a02000078
:100018009a0200009a0200009a0200009a02000068
:100028009a0200009a0200009a0200009a02000058
:100038009a0200009a0200009a0200009e36000010
:100048009a0200009a0200009a020000fa360000a4
:100058001a3700009a0200009a0200009a02000073
:100068009a0200009a0200009a0200002c37000051
:100078009a0200009a0200009a0200009a02000008
:100088009a0200009a0200009a0200009a020000f8
:100098009a0200009a020000ea360000f2360000d8
:1000a8009a020000223700009a0200009a0200001b
:1000b8009a0200009a0200009a0200009a020000c8
:1000c8009a0200009a0200009a0200009a020000b8
:1000d8009a0200009a0200009a0200009a020000a8
:1000e8009a0200009a0200009a0200009a02000098
:1000f8009a0200009a0200009a0200009a02000088
:100108009a0200009a0200009a0200009a02000077
:100118009a0200009a0200009a0200009a02000067
:100128009a0200009a0200009a0200009a02000057
:100138009a0200009a0200009a0200009a02000047
:100148009a0200009a0200009a0200009a02000037
:100158009a0200009a0200009a0200009a02000027
:100168009a0200009a0200009a0200009a02000017
:100178009a0200009a0200009a0200009a02000007
:100188009a0200009a0200009a0200009a020000f7
:100198009a0200009a0200009a0200009a020000e7
:1001a8009a0200009a0200009a0200009a020000d7
:1001b8009a0200009a0200009a0200009a020000c7
:1001c8009a0200009a0200009a0200009a020000b7
:1001d8009a0200009a0200009a0200009a020000a7
:1001e8009a0200009a0200009a0200009a02000097
:0801f8009a0200009a020000c7
:020000040000fa
:100208009a0200009a0200009a0200009a02000076
:100218009a0200009a0200009a0200009a02000066
:100228009a0200009a0200009a0200009a02000056
:100238009a0200009a0200009a0200009e3600000e
:100248009a0200009a0200009a020000fa360000a2
:100258001a3700009a0200009a0200009a02000071
:100268009a0200009a0200009a0200002c3700004f
:100278009a0200009a0200009a0200009a02000006
:100288009a0200009a0200009a0200009a020000f6
:100298009a0200009a020000ea360000f2360000d6
:1002a8009a020000223700009a0200009a02000019
:1002b8009a0200009a0200009a0200009a020000c6
:1002c8009a0200009a0200009a0200009a020000b6
:1002d8009a0200009a0200009a0200009a020000a6
:1002e8009a0200009a0200009a0200009a02000096
:1002f8009a0200009a0200009a0200009a02000086
:100308009a0200009a0200009a0200009a02000075
:100318009a0200009a0200009a0200009a02000065
:100328009a0200009a0200009a0200009a02000055
:100338009a0200009a0200009a0200009a02000045
:100348009a0200009a0200009a0200009a02000035
:100358009a0200009a0200009a0200009a02000025
:100368009a0200009a0200009a0200009a02000015
:100378009a0200009a0200009a0200009a02000005
:100388009a0200009a0200009a0200009a020000f5
:100398009a0200009a0200009a0200009a020000e5
:1003a8009a0200009a0200009a0200009a020000d5
:1003b8009a0200009a0200009a0200009a020000c5
:1003c8009a0200009a0200009a0200009a020000b5
:1003d8009a0200009a0200009a0200009a020000a5
:1003e8009a0200009a0200009a0200009a02000095
:0803f8009a0200009a020000c5
:020000040000fa
:10040000cf0d21000e7f24000e01880000000000a7
:10041000000020000000e000020032000001200087
:10042000200288000c000700407323000100200018
:1004300011000700000020000000e0000200320070
:1004400000000200000000004c3902000000000023
:100450000040da000000fe004440a900e002200055
:100460000000e0000300320000002000a00188002e
:100470004440a80000000600910188008000780038
:100480000000eb0015003700e280400032a0b4000d
:100490009101ba00e280400032a0b4009102ba009b
:1004a000e280400032a0b4000002eb00472bde00e7
:1004b000f507b200602ce10004003a000059eb009f
:1004c0008301e900fdff3e00040037006128e100e0
:1004d000010032000082eb00040007001101ba00a5
:1004e0000200e000e8ff3a00000006003159ba00bf
:1004f0008301e9000c0032002159ba008301e900b0
:10050000080032000400e00003003a00e2804000ee
:1005100032a0b400f5ff370011d9ba008301e90019
:10052000faff3a008100e800e180400032a0b40008
:10053000000006000040da000000fe006900e10053
:10054000040035006d00e100030034000002b1003a
:100550000100320000000500100005000a00fa004a
:10056000e20f500022003e00d4868000e10f5200ce
:100570000600320087232000462320002423200089
:1005800005232000e08f530004003a00872220005a
:1005900046222000242220000522200000002800fe
:1005a0001500600003003a00800b78000700280067
:1005b000958a7300054020009482620001003a0091
:1005c00014a0a0008202780006003700940378008f
:1005d0000710b200fdff3200b103fb00070b7800eb
:1005e0008502e900e08f5200f8ff3a00080037006a
:1005f00034002000c0bf9f00e2bf9f00b4bf9f0037
:10060000d1bf9f006a805700dc0707006fb99700d1
:10061000020078000080fa000000060084e0a900d3
:1006200067026000f5ff28004c22dd0036058000df
:100630008682620068006000850272004300de006e
:100640003505880061006000f4f72f004700dd00e9
:10065000a50480000502620004027000a404880062
:10066000000006000621ef0061088800800888006d
:100670001061a90000000600001020003202b60040
:100680000000e9004f00de00000006008560a900c0
:10069000670260008580a9004c22dd00f5ff28007c
:1006a00046058000868262008502720000027800a2
:1006b000450588000407b20085ff2f004422de00b4
:1006c0005605800086826200850272006802600022
:1006d000550588004322de00f57f2f00610262008d
:1006e000a6048000868262004b22dd000008b20072
:1006f000850272004700de00a504880061006000ea
:10070000f4ff2e004c00dd00a5048000050262000d
:1007100004027000a40488000000060087c0a9003d
:100720006702600087e0a9004822dd00f58f2f00f6
:1007300096058000868262008502720000027800c1
:10074000950588000407b200f5ff28004822dd0067
:100750009605800086826200850272006802600051
:10076000950588004322de00f5ff2b006102620040
:10077000b6048000868262004e22dd000008b200ce
:10078000850272004700de00b50488006100600049
:10079000f4ff27004f00dd00b50480000502620071
:1007a00004027000b404880000000600901180006c
:1007b00061406000000006004211880000118800be
:1007c0001111880000000600c21188008011880005
:1007d000911188000000060004118000660262008a
:1007e000e60f520002003a003011800000000600bf
:1007f00030118000f00fb20000000600841180006c
:1008000066026200e60f520002003a00b01180005a
:1008100000000600b0118000f00fb20000000600da
:100820008411800066026200e60f5200010032006f
:10083000f00fb200a01188000000060003f0a20033
:10084000889fbe008a9fbe008c1f7800d7010700da
:10085000de0133006450e1004f0032006420e1000b
:100860005200320003826c0007003b000905d000f3
:100870000306d000820f54000c065d000200390010
:100880000200320089017800030678008582550055
:1008900004003d000003fd008103fd008502ea0025
:1008a0008b854200840f720002003b006000100044
:1008b000e08018006011b8000005eb007a28e10024
:1008c0000a00390006007800c75ddd00f707b200b6
:1008d000878075002d003700828171000a01780041
:1008e000610560008180d1000080d3008502e900ad
:1008f000f9ff3b00060440008784480002003b00eb
:1009000060041400e0841c000988a3000700320082
:100910008a81710082817100610164008904d100c3
:100920000884d3008b05e800170037000978a3007e
:1009300013003a000b00e000130034008b05e900bf
:100940000804440089844c000a4474000978a30018
:100950000d003a000b00e000070034008b05e900b1
:100960000804440089844c0001003a000b00200078
:100970000978a300f7ff32000001eb000200370006
:10098000828171000a0178004d0107000cf0a70078
:1009900001f0a000960137006420e10002003a0057
:1009a000838f6c00960133000801be000200be0078
:1009b0008f013700889fbe008a9fbe008c1f780081
:1009c0007a0107001002200002003b00004088006e
:1009d0007e0137008a0062006408e10002003a00ec
:1009e00000408800860137006108e100fcff32000a
:1009f0000800be00030478007200070001f0a100a7
:100a00000900070008f0a600040037000001be003e
:100a100091042400b0fd200088ff070009f0a70022
:100a200001f0a20072013700889fbe008a9fbe00bd
:100a30008c9fbe000004be00470107000800be00f6
:100a4000890678006420e1000800390004003200c3
:100a50000160a0001202200002408800530037000d
:100a600091fc2300b0fd20004e0037000006eb0093
:100a700009f0a10003f82300020020000800be00d6
:100a8000920007000600340001f823000000200057
:100a90000801be004b0007000004be002c0020002f
:100aa0000800be0093e82300320a230087000700f5
:100ab000120034000801be00d1fd2300703d2b0060
:100ac0005fff07000005be00b3f32300f27a2600a3
:100ad0000800be004d01070003f8230002002000bb
:100ae00056ff07000801be0055ff07000a01be00bf
:100af000340007000004be000c06e8000800be0039
:100b000001f0a10002002000039823006f000700fd
:100b10000800be00160035000801be003b010700ba
:100b20000005be0032cd2c0043fb230044ff07002c
:100b3000809fbe001269280003d52b000a00be006a
:100b400032010700620f210013ef2b003cff07006a
:100b50000a01be002d0107004f01be001900070069
:100b60000801be00290107000801be0034ff07008c
:100b70000c00e0000b0032000c10a70001f0a200f6
:100b8000b2fd200093fc23006260e100040032000b
:100b900022a9200063f023000c10a70063f82300b3
:100ba00027ff07000df0a70001f0a2004f06be00ce
:100bb0004f05be004f04be00000006000081eb00a0
:100bc00046013700889fbe008a9fbe008c1f7800b8
:100bd000f6000700fd00330003866c006450e1005e
:100be0002e0032006420e100330032006150e10049
:100bf0002f0032006120e100310032008585550070
:100c0000eb07b000090020000804200005003700b1
:100c10000804440089844c000a00310006034300a4
:100c200087834b000001530081815b00f8ff330094
:100c30000203be000800a0000804440089844c00a0
:100c4000f6ff3900c639dd00830173000100320070
:100c5000130020008904d1000884d3000998a30060
:100c6000050032000800a7000300a0008904d1009d
:100c70000884d3008b05e8008904d1000884d300e0
:100c80000001eb000281d2008d00070001f0a100fd
:100c90000cf0a70001f0a000d50037006420e100af
:100ca000d70032000801be000200be00f7ff370087
:100cb0006120e100d20032006000b800f3ff37008d
:100cc0000000200001f82700f0ff3700140020008a
:100cd000a2013700f4ff2f00a00137000001be0081
:100ce0009d0007000470a70003f0a1006509b10092
:100cf000160032000d0035006828e10006003500be
:100d0000f0ff2f00f1ff27000300e00013003b007d
:100d1000010028000000050000004000818048001c
:100d20008502e900fcff3a0008003700f88f420016
:100d300002003c008000eb00000005008100d100b3
:100d40000080d3008502e800fcff3a000300e000c9
:100d500002003b0060001000e08018000000060068
:100d60004f89de0082017800970137006011b800da
:100d7000a50137000400200000003700889fbe0056
:100d80008a9fbe008c1f78004f26dd008700070079
:100d90008e0033006120e100430032006250e10028
:100da00041003e003e0039006420e1003c0032007a
:100db000058255000f003b000402e80038003a00ad
:100dc000800f5300818f5b00350034000800be00a7
:100dd00003f0a10001f0a60003f0a0000cf0a700b2
:100de00097fe0700820037000603430087834b000d
:100df0000c4646000005530081855b00020033006d
:100e00000a03be000c00a0000402e900f6ff3b004c
:100e1000850578000602430087824b0004003a00f3
:100e20006000b80009f0a70001f0a00070003700d2
:100e30000002520081825a000704e00004003300df
:100e40000603430087834b008b05e900faff370058
:100e5000090578000604be000203be006011b80058
:100e600017000700e00f5200e08f5a00070035001e
:100e700002003c000c08a300040032000601be0082
:100e800003f0a0000cf0a7006dfe07000a856800c3
:100e900001f0a1000af0a70001f0a0005400370003
:100ea0000800be0052003700100220000cf0a6001f
:100eb000004088005200370004002000270137005e
:100ec00081002000618055000b003d000b002000d8
:100ed00061fe2f000100e1001d00340082817100dd
:100ee000610164008904d1000884d3000000e80097
:100ef000faff3a00710020006100640003007000f6
:100f0000020060000900320061044400e0844c00eb
:100f10000988a500050032008b05e8006808e1009b
:100f200002003a008904d1000884d300f20f2000a7
:100f30000258e10005003d00c75ddd00f907b20081
:100f40008980750008007800000006000bf8270073
:100f50008b00780000000500c70ade00f107b20030
:100f6000f50fb20008003200e1cf4200020032006b
:100f70000170a00024000500810f70000100320004
:100f80000408050044000500810f700002003a00cb
:100f9000140005008502e9000000400081c04800ff
:100fa000fcff3b000170a000240005000004be000f
:100fb000e9ff07000003be000405be000200be00fa
:100fc000e5ff0700844f7500000006000200be0028
:100fd0006450e100050036006420e10002003600a4
:100fe0000968a30001003a000800be000160a000eb
:100ff0004f0678004f05be004f04be0000000600fb
:10100000f0ff2f00f1ff2700f9ff3700889fbe0097
:101010008a9fbe008c1f7800e4ff0700ebff3300bf
:1010200003866c006450e100240032006420e1007b
:10103000270032006150e100220032006120e1000f
:10104000210032008b854200eb07b1000134b8006b
:10105000003ab8000804420089844a00013ab80006
:101060000030b8008880400009014a0004003300c5
:101070000000400081804800020149008b05e90022
:10108000c909dd0083017000010032001300200057
:10109000c814de004814dd004709de001200b2006b
:1010a000c808de000884700085ff070001f0a10079
:1010b0000cf0a70001f0a000cdff37006120e10097
:1010c000cfff32000801be000200be00f7ff37006c
:1010d0006150e100fcff3a00c9ff3700889fbe0065
:1010e0008a9fbe008c9fbe00820578000004be006f
:1010f00099ff07000800be006420e10007003900e6
:1011000002003a00f1ff2700f0ff2f000160a0006d
:101110001202200002408800550037006120e100e3
:1011200003003a000b00a70001f82300500037002d
:1011300001f0a1000200210093642400e3fe0700f7
:101140000800be0004003500b2fd2000930c24000e
:1011500008ff07000004be000005eb000b00a6001e
:101160004f0dde0001f0a1000004be0032982f00f8
:1011700023ea2300a5ff07000001eb0003f0230092
:101180000b00a70003f82300adfd0700d3fe070006
:101190000000a7000a00a200f1fe07000b00e0001b
:1011a000030032000200200003f02300a3fd07002b
:1011b00001f0a2000006be000200200093042400fb
:1011c00092ff07000801be009dfd0700809fbe0042
:1011d0000c00be0022a22a00d3a723008bff070029
:1011e0004f01be0096fd07000004be0001f0a10003
:1011f0000200200003982300b4fe07000800be0090
:10120000190035000001be0080ff07000006be0087
:10121000b2c52900e36223007cff070022222b00d5
:10122000f3942b0086fd07000c01be0077ff07003a
:10123000e273280083c0230081fd07000c01be007b
:1012400072ff070042aa2a00a3e22b007cfd0700e0
:101250000c01be006dff07000801be006bff070018
:101260000801be0076fd07000a00a70001f0a200f9
:101270004f06be004f05be004f04be000000060032
:101280000001eb0095ff3700889fbe008a9fbe00db
:101290008c1f78000004be002fff07000478a30015
:1012a00026003a006120e1002500320009f8a30081
:1012b00025003a006420e10021003200f507b1006a
:1012c0000508a300020032000000400081804800b1
:1012d0006044b8000310200002002000000040001d
:1012e000818048000805440089854c000a054100ba
:1012f0008b8549000a0550008b8558000300330098
:101300000a00be0002047400838474008301d100cb
:101310000281d300830f7100f0ff3a008904d100ed
:101320000884d3006001490082017800c1adde006d
:10133000fb07b000e2fe07002dff37000960a000a8
:101340000800be002aff3700120220000240880079
:10135000f0ff2f00f1ff270025ff3700889fbe0018
:101360008a9fbe00841f780010ff07004f0078009e
:1013700011003300f0ff2f00838f6c0006003b004c
:10138000040565000a00a7000800370009f0a60060
:101390001000200008003700820f5400838f5c008b
:1013a000030039001000200001003e000000200072
:1013b00009f0a7000000ea004f05be004f04be0080
:1013c0000000e00000000600881f78000304780099
:1013d0000300e00007003d0060001000e0801800fe
:1013e00060011900e081190002003b0001f02d00ae
:1013f000030037000400070008f0a70001f0a00078
:101400004f04780000000600889fbe008a9fbe003f
:101410000082700004027100048271002600320014
:101420000004be000200be006011b8006b0920007d
:10143000950220000182cf000a0039000541b10069
:101440000082cf00070039000541b1000982cf00ba
:10145000040039000541b1000882cf0001003900c5
:101460000541b10005425200120032000a003b0063
:1014700082817100610164008100d1000080d3008d
:101480008984d3000884d3008b05e8000442e80077
:10149000f7ff3a00070037000804440089844c0035
:1014a00000004800818048008b05e9000442e90003
:1014b000f9ff3a0082fe07004f05be004f04be0050
:1014c00000000600ea874700889fbe008a9fbe0092
:1014d000810578008c9fbe008e1f7800e08f55003c
:1014e00001003200800d7800000578008a04780041
:1014f000090578003a06fb000c0078000ffc070095
:10150000e00f5000f9ff3a00d4022000840f56008b
:1015100003003a008a04780018c0b30005003700c1
:1015200000447800b4022000840f560001003a0005
:101530008a0478008006eb006000b8000d05780092
:101540000ecdb300e4c2b300010037008904e80007
:10155000890278007003640004003a00994f120079
:1015600002003a000844a000f8ff3700194678004e
:101570000c03fb000603b100e90f530017003e0007
:101580000814a0008802fb00e98f56000f0032000b
:10159000f0826200010032000a05e900e4b79f0012
:1015a000a2002000030020008d06e80005040700cb
:1015b0000e4346006fb297000683fb000700200031
:1015c0000000430081804b00e0ff3700f0826200a2
:1015d000deff3a000a05e800dcff370054c6b3001e
:1015e000844f5600040032008006eb0054c4b30060
:1015f000844f56002e003a0059427800d5c2b300fd
:10160000854f520002003a000834a0000300370062
:10161000b5c2b300854f520001003a008904e800ca
:1016200007c3b300890278008504780004c3b300bf
:1016300039437800874f5300faff32008603fb00de
:101640008006eb000703b100e98f530015003e0050
:101650008902780084465300154378008d86fb008c
:101660008603fb000703b100e98f53000d003e0025
:101670006a69b90084465300554378008d86fb00a3
:101680008603fb00828646000703b100e98f530002
:1016900004003e006a69b900844653008d86fb0051
:1016a0008286460068026400010032008d06ea006e
:1016b000e08f550003003200620264000100320036
:1016c000850d7800a6fd07006011b8000002be007d
:1016d0000003be00e4b79f00d5b79f00f4b79f009a
:1016e00087bf9f0079fd07006fb297000001780067
:1016f000dfb297006000b8007fb397008fbb970000
:10170000e00f5100600032000a85460032f82f00d9
:10171000820f550003003d00240220000440880091
:101720005900370000082000800f550007003400e2
:101730002402200061046400044088004d0032004f
:101740000000200001f82f004f003700e00f550087
:101750001f003d000a05ea00060037000400be0035
:10176000922f2000530125006a05550015fd070042
:101770000002be00e90f5500f8ff3c0006003700ec
:101780000400be0002002000031224000a05e90044
:101790000cfd07000002be00e00f5500f8ff3a0004
:1017a0000403be00020020000308200087bf9f0042
:1017b0000400be00f4b79f0044fd07007fb397000c
:1017c0008fbb9700e00f500025003d001f00370041
:1017d000e00f550007003a00210037000400be006a
:1017e000922f2000530125006a05550007fe0700cf
:1017f0000002be00e94f5500f8ff3e00060037002a
:101800000400be0002002000031224000a05e900c3
:10181000fefd07000002be00e00f5500f8ff3a0091
:101820000403be00f2ff2f00f3f7270087bf9f00dd
:101830000400be00f4b79f0026fd07007fb39700a9
:101840008fbb9700e00f5000050034006104640076
:101850000b00320000002000010828000a003700b9
:10186000610464000100320007f0a2000600be001f
:10187000050037000000200001f8270002003700b3
:1018800000002000010820004f0778004f06be002e
:101890004f05be004f04be00af00b10000000600bf
:1018a00008ff37008000eb0006ff3700000721002b
:1018b0000000fa0068815700cfb8970002000700c7
:1018c0000080fa0000000600ef03b000889fbe0011
:1018d0008a9fbe008c9fbe00000678008e1f780095
:1018e0008006eb00e1af9f0082b79f0091023700b6
:1018f000efa8970054c2b3008100e800e1af9f0059
:10190000844f500006003a00010278008042eb004c
:1019100002c3b30001c2b300b0c2b3000e0037006f
:101920003c0290000404b200040032001c02780063
:10193000004a7800040ee800050037000000fb00b4
:101940008c00780087020700e10f40007902320026
:101950008d06e8007702370004037800d3c2b30095
:10196000b443780083cf53000900320005003c00e7
:1019700081cf53000800320080cf53000c003a00a2
:101980000700370082cf530009003a0006003700f5
:101990000534a000f0ff37000504a000eeff37007b
:1019a0000514a000ecff37000524a000eaff370073
:1019b00062826200010032000504a10068826200b8
:1019c000010032000524a1000702fb000403b1005e
:1019d000e90f52000c003e00860378000002eb0085
:1019e0006a20b9003702fb000403b1000703780046
:1019f000000242001700fb000003b100e90f500095
:101a0000f7ff3600080037000002eb00a0c2b30069
:101a100080cf530004003a008fb397000603e8001c
:101a20004702780087b79f000007eb00e7c2b300ca
:101a300096cf130009003a00e4c35300d6cf130039
:101a400002003200860378000a0037000fb09700ca
:101a50000603e8004007780080b79f0086037800ff
:101a600031c6b300c0c6b300080037006a71b900c0
:101a700002074000070378003700fb000003b100b5
:101a8000e90f5000f9ff3600f4ff37000701780036
:101a900033c7b3003243780082037800834f53008a
:101aa0001a00320008003c00814f53007b003200d6
:101ab000804f53000c003200e2af9f00e04f530014
:101ac0002102320097003700e2af9f0057c7b300f2
:101ad000874f530098003200e3c34300874f530001
:101ae00090003a00060037007081620006c1b30022
:101af000010032000043eb0086c27200e3ff3700b2
:101b0000e6779f000574a0008e0037008fb3970022
:101b100036c7b300e2af9f00e6779f004703780027
:101b200087b79f0006047800e00f530001003a00d9
:101b300088082100880378000003eb0001003700cb
:101b40000603e80067407b00e04f5000fcff3a00ce
:101b500086047800e00f570003003200890f570019
:101b6000010031008e0478000007eb00890f52005d
:101b70000100360009075200e882620004c2b30087
:101b800095b79f001100320028003700bc0290007a
:101b90000504b200040032009c027800844a7800f8
:101ba000050ee8000700370084bf9f008c00780016
:101bb00000022000eb0107000fba9700e10f400080
:101bc000010032008d06e8000e07e900e00f570023
:101bd000eeff3a000087eb00140037003c02900053
:101be0000404b20009003200080278001c037800e7
:101bf000b4427800054b780004047800060ee80033
:101c0000e0cf520008003a000800370008027800d0
:101c10008c0078003400fb0004047800d101070038
:101c2000e10f4000010032008d06e8000902780053
:101c30008404e900e00f5200e8ff3a001fb097006b
:101c400004c2b300e00f500011003a00b9013700a0
:101c5000bc0290000504b200040032009c0278002f
:101c6000844a7800050ee8000700370084bf9f0013
:101c70008c00780000022000ba0107000fba97001c
:101c8000e10f4000010032008d06e8000e07e90078
:101c9000e00f5700eeff3a00a60137008fb0970023
:101ca000e2af9f00f08362004103780081b79f009c
:101cb00006007800cf80de00010178008201780004
:101cc00090b79f00a1b79f00b2b79f00c3b79f0016
:101cd0004800de00480bdd0000007300e0779f0045
:101ce000e08f530009003200e04f5000070032003f
:101cf000e14f400005003200afe39700f0779f000e
:101d0000877f9f0029002000030037002fe0970005
:101d100019002000f0779f0078fb2f000f0444008b
:101d20008cff3700e6779f0068fb2f000f0444000c
:101d30001900200087ff3700e6779f0006ccb3002c
:101d400086c272008582fb00f080620095b79f001a
:101d5000f19f9f000e0032008fb297000003eb004e
:101d60004501be008003eb00d2a79f00e3a79f00c0
:101d7000f6a79f0087af9f0085b79f005fa49700dd
:101d8000efa497007fa597008fad9700060037005e
:101d90000fb097004004780080b79f000900200032
:101da0000a0020000b002000e00f570007003a0057
:101db0001e002000e00f5400e08f5c00e00f5d008b
:101dc000e08f5d00010032000007eb009fb097003c
:101dd00005082000010cb20091af9f00858f5000d4
:101de00010003200050c2000858f500021003a00c1
:101df000a6f3200015c0b3003600be003601be00b9
:101e00000040e10001c8e10002d0e10003d8e10098
:101e1000170039008542e800f4cf5200f6ff3a007f
:101e20001300370015c0b30000012000010020009e
:101e30006011b8000040e10001c8e10002d0e100fb
:101e400003d8e1000a003900460020000000d0005d
:101e50008180d2000281d2008381d2000603e90092
:101e6000faff3a008542e800f0cf5200f1ff3a0055
:101e7000e5779f00ef7397008702fb008e8f52007b
:101e800002003d00ee779f0003003700850f5700ea
:101e900001003d0005077800e00f52000400320009
:101ea0009fb09700e3826000010032000402e90065
:101eb0006f7197008001eb008202fb00f3af9f007f
:101ec000850f52000200340085025200f5af9f00da
:101ed0009fb29700648262004600320005037800da
:101ee000e202630061026300e08f520011003200e1
:101ef000bc0290000504b200080032009c02780089
:101f0000b6c2b300e00f52000100320006c3e80081
:101f1000864a7800050ee80015003700b002200060
:101f2000e00f5200010032000080e8008c007800d1
:101f30000c003700e00f52000e0032003c0290000f
:101f40000404b200050032001c02780005c2b30090
:101f5000054a7800040ee800050037008c00780080
:101f600000022000ff000700e10f400001003200e6
:101f70008d06e800ffab9700e08f5300650032004c
:101f8000a8af9f00b9af9f00caaf9f00dbaf9f0013
:101f900004c3b30087047800bc0290000504b200bb
:101fa000040032009c027800844a7800050ee800a4
:101fb0000700370084bf9f008c00780000032000da
:101fc000e80007000fba9700e10f4000010032005f
:101fd0008d06e8008904e900efff3a00f9af9f00a1
:101fe0002fac9700bfac97004fad9700dfad9700c7
:101ff00048003700ffa89700e08f50001f00320014
:102000001fb19700680261001c003a00a8af9f0052
:10201000b9af9f00caaf9f00dbaf9f00ffac970036
:1020200004c2b300bc0290000504b20004003200f8
:102030009c027800844a7800050ee800070037000b
:1020400084bf9f008c00780000022000c5000700bc
:102050000fba9700e10f4000010032008d06e80042
:102060008904e900efff3a00f9af9f002fac970019
:10207000bfac97004fad9700dfad97009fb09700c2
:10208000e282600061826000e08f52001100320045
:10209000bc0290000504b200080032009c027800e7
:1020a000b6c2b300e00f52000100320006c3e800e0
:1020b000864a7800050ee80015003700b0022000bf
:1020c000e00f5200010032000080e8008c00780030
:1020d0000c003700e00f52000e0032003c0290006e
:1020e0000404b200050032001c02780005c2b300ef
:1020f000054a7800040ee800050037008c007800df
:102100000002200097000700e10f400001003200ac
:102110008d06e8008e02e90024f320004229dd004c
:10212000c32add0082a79f00048242005d003700c1
:102130000e07e9009fa9970004082000848f510032
:1021400034003200040c2000848f51003f003a001c
:10215000ff9a9700e08f5200220032002fa89700cc
:10216000d89f9f00e99f9f003002be002003be0061
:102170000800be000401be0084bf9f00d5b79f00c9
:10218000e6b79f00f7b79f00fe0007000fba970061
:10219000e0779f00dfb297000000fb00cf80de00f9
:1021a0000401be00070107005f999700ef999700af
:1021b0000002eb000001510081815900c4a79f007b
:1021c00092a79f00a3a79f008001eb00b3a79f00e9
:1021d0001fa49700afa497003fa59700cfa5970035
:1021e00008003700afaa9700150278001100090017
:1021f0000484d800a4002000110009000480d80045
:10220000e1779f006f7397000643b000e6779f0069
:102210000e0037000802be000a03be000fa09700a0
:10222000f10821000000e900050033008703d10018
:102230000683d3008582d3000482d300f9ff3700e0
:102240006f02620061427a00e4779f003c029000d6
:102250000404b200070032009c0278006f729700fd
:10226000844a7800050ee800e04f520007003a006b
:10227000070037006f7197008c0078000200fb00a8
:1022800038000700e10f4000010032008d06e80031
:102290008fa19700e481510083a79f002faa970088
:1022a00068025200a4af9f00e00f5700a0ff3a0061
:1022b0009fb29700688262001e0032007fab9700d9
:1022c000e00f53001b0034000802be000a03be00ea
:1022d000ffac97000ec2b3003c0090000004b200b7
:1022e000040032001c0078000e487800000ee80060
:1022f0000d00370084bf9f00d5b79f00e6b79f0051
:10230000f7b79f008c00780000022000150007003e
:102310000fba9700dfb297006fb39700ffb3970033
:10232000e10f4000010032008d06e8008904e90059
:10233000e9ff3a00efab970017407800e0779f0085
:10234000e04f50006afd3a004f0778000d0078001a
:102350004f06be004f05be004f04be00ef03b100a4
:1023600000000600889fbe00010478008084eb0016
:1023700038029000e20262003b0032000403780061
:10238000980290000620b20002003a00e08f52004e
:1023900035003a000490a0008004780034049800ce
:1023a000f90fb200e08f520002003a00a80290003c
:1023b000050c7800ea8f540005003a000408b200ca
:1023c00003003a0088007800d0002000e5ff0700f5
:1023d00018029000d8029000850f52000b003200c6
:1023e0000402e80015c0b300140498001802780035
:1023f000094a7800040ce800440d2100054a7800e1
:10240000ea8f540018003a000500370009407800b0
:102410008800780017000700800478001200370059
:10242000380290000410b2000f0032001801900032
:10243000a80090004800900048f80700180290009b
:10244000840f500004003200380290000403b300ef
:10245000340498008084eb000002eb001404980020
:1024600028029000040c7800090078004f04be0098
:10247000000006000200fa00889fbe0001047800f8
:10248000a0ff9f0038029000840278000504b2008b
:10249000020032000000fb0035003700e20262005b
:1024a00005003a000403b3001504980034049800b2
:1024b0000080eb002e003700d8049000e08f54001d
:1024c00006003a0012002000e68057004800900005
:1024d00022f807001904980023003700a802900092
:1024e000e08f520008003a00850d21000430a00062
:1024f00025049800050c780034049800250020007d
:10250000550498001504980018019000a800900048
:102510004800900011f80700280290008082eb002c
:1025200015049800affa9700054a7800040ce800fb
:102530002ffa9700ea4f52000b003a003802900041
:102540000410b2000800320018019000a8009000aa
:102550004800900001f807000002eb00a80290007c
:1025600014049800050c78002ffa97000400fb0073
:102570004f04be000080fa000000060000c0da0030
:10258000000006006022b800060220000000d00013
:102590008180d2000482d2008582d2000000a00097
:1025a0000202520083825a000300310002024200fc
:1025b00083824a000000a1000603e900f3ff3a000d
:1025c00000000600020ab900001bb9000200b800b2
:0c25d00081004200810043000000060072
:020000040000fa
:1025dc00000000000243000000000000b4420000b4
:1025ec0000000000fa44000000000000003f000062
:1025fc0066660000663f00000000000020410000fd
:10260c0000000000b040000000000000f04100009d
:10261c0000000000003f000066660000663f0000fe
:0c262c00646f00006e65000000000000fc
:020000040000fa
:10263800d800fa000002eb003472880084032000fe
:1026480004024700e52e290009000900351a780020
:102658006022b80064279800752798006022b800a7
:10266800042f9800152f98006022b800242f980096
:10267800352f98006022b800442f9800552f9800f5
:102688006022b800642f9800752f9800040020007d
:1026980005f023000437980015379800a4702d0022
:1026a80035c223002437980035379800a4702d00d0
:1026b80035ca23004437980055379800f4874700f7
:1026c80074825700860320000603470009000900aa
:1026d800361a78004401b1000e0078003e2202004c
:1026e80000000000f4875700f887470078825700f9
:1026f800c5042000850247000b000900351a780040
:102708008401b1000e007800bc2202000000000025
:10271800f88757002e329000be3290004e3390005a
:10272800de3390000e00780026230200000000002f
:102738006011b8000e0078008a2302000000000033
:10274800460a200006034700243029000900090032
:10275800341b78006022b800449f9800559f980069
:102768006022b800649f9800759f98006022b800a6
:1027780004a7980015a798006022b80024a798001d
:1027880035a798006022b80044a7980055a798007c
:1027980004002000050a240064a7980075a7980083
:1027a800a4702d0035c2230004af980015af98001f
:1027b800a4702d0035ca230024af980035af9800c7
:1027c800c40620000e024200f4874700f482570036
:1027d800460a20000603470009000900b61a7800d7
:1027e8004501b100040078003e220200000000000c
:1027f800f4875700c40620000e024200f8874700fd
:10280800f8825700860b2000060347000b000900da
:10281800b61a78008501b10004007800bc220200d5
:1028280000000000f8875700c00620000e00400096
:102838000eaa90009eaa90002eab9000beab90000e
:102848002623020000000000c40620000e024200f9
:102858006011b800040078008a230200000000001c
:102868006022b80044728800557288006022b8005f
:1028780064728800757288006022b80084728800cb
:1028880095728800f426210035a82300a4728800d8
:10289800b5728800d4cc2c00c5fc2300c472880013
:1028a800d572880064fd2000e472880064ff20006f
:1028b800f47288000002eb00047388006022b800fc
:1028c80014738800257388006022b8003473880068
:1028d800457388006022b8005473880065738800c7
:1028e8006022b80074738800857388006022b8007d
:1028f80094738800a57388006022b800b4738800b8
:10290800c573880064fd20005477880064ff2000a8
:1029180064778800a4e720001b0009003e1a7800ad
:102928008e03b10025eb2000c606200006034700f1
:102938001b000900b61a78000002eb0074778800c3
:102948006022b800847788009577880064fd2000ad
:102958006479880064ff20007479880044ef2000bf
:10296800c5062000850247001b000900351a7800bb
:102978000002eb00847988000080fa00000006005d
:102988000000fa00a4e7200025fc2f00850247007c
:102998001b000900351a780024eb2000a5f82f0049
:1029a800850247001b000900351a78000080fa00ec
:1029b800000006000200fa00000f78001e027800ee
:1029c800647788000080fa00000006000000fa0022
:1029d8000002eb00347288000080fa000000060054
:1029e8000000fa0014002000347288000080fa0009
:1029f800000006000000fa0024002000347288005d
:102a08000080fa00000006000000fa0034002000f0
:102a1800347288000080fa00000006000000fa0006
:102a280044002000347288000080fa00000006008c
:102a38000000fa0094738000a57380000400be00b3
:102a48000080fa00000006000000fa00b47380005d
:102a5800c57380000400be000080fa000000060074
:102a68002800fa00889fbe008a9fbe00600f980069
:102a7800710f9800021798001317980024179800f0
:102a880035179800b47f8000c57f8000048fbe0092
:102a9800d67f8000e77f80002607980037079800d8
:102aa800f47f80000580800044079800550798004f
:102ab80016808000278080006607980077079800b6
:102ac8003480800045808000040f9800150f98001e
:102ad8002e1290001403be00260f9800370f98009e
:102ae800a4702d0035ba2300440f9800550f9800a4
:102af8002e1290001404be004e099000de099000ca
:102b08004e009000de009000060802000000000061
:102b18000002be000401be000800be00200402003e
:102b2800000000000002be000404be002e12900047
:102b38001405be004e099000de0990004e0090007a
:102b4800de00900006080200000000000002be003f
:102b58000401be000a00be001e04020000000000be
:102b68000002be000403be000802be000601be004b
:102b78006e089000fe089000143502000000000066
:102b88000002be002e139000048bbe001e02be0081
:102b98000403be0007f0a2002e1290001400be002d
:102ba8001e02be000601be0014350200000000002f
:102bb8000002be002e139000048bbe003e1290004f
:102bc8001404be004e099000de0990006e009000cb
:102bd800fe00900006080200000000000002be008f
:102be8000401be000800be0020040200000000002e
:102bf8000002be000404be003e1290001405be0090
:102c08004e099000de0990006e009000fe009000d2
:102c180006080200000000000002be000401be0019
:102c28000a00be001e040200000000000002be00f0
:102c38000403be000802be000601be000e1090008c
:102c48009e10900014350200000000000002be0033
:102c58003e139000048bbe002e029000be0290002e
:102c68000403be0007f0a2003e1290001400be004c
:102c78002e029000be0290000601be00143502002c
:102c8800000000000002be003e139000048bbe004e
:102c98002e1290001403be003e1290001402be00d3
:102ca8000401be000600be00060802000000000085
:102cb8000002be0005f0a10018c0b3000e09900084
:102cc8009e0990000400be006a0602000000000091
:102cd80000027800e00f520001003c000044eb00c5
:102ce800e04f54006d0032002e1290001402be0016
:102cf80018c0b3006011b8000400be006a060200e4
:102d08000000000000027800e00f520001003c00c3
:102d18000044eb00e04f54002f0032004e099000b1
:102d2800de0990004e009000de00900006080200c8
:102d3800000000000002be002e099000be099000ad
:102d48000400be0020040200000000000002be00d3
:102d58000405be004e099000de0990004e00900068
:102d6800de00900006080200000000000002be001d
:102d78000401be002e089000be0890001e04020048
:102d8800000000000002be000404be003e129000d5
:102d98001402be0005f0a1000401be000e08900058
:102da8009e089000e2050200000000000002be003c
:102db8000403be000a02be000801be000600be00f1
:102dc80014350200000000000002be002e1390001f
:102dd800048bbe00310037004e099000de099000d8
:102de8004e009000de00900006080200000000007f
:102df8000002be002e099000be0990000400be002b
:102e080020040200000000000002be000405be000d
:102e18004e099000de0990004e009000de00900000
:102e280006080200000000000002be000401be0007
:102e38002e089000be0890001e040200000000004a
:102e48000002be000404be000e0a90009e0a900014
:102e58000403be0007f0a2003e1290001402be0058
:102e680005f0a1000401be000600be00e205020054
:102e7800000000000002be000403be000a02be00fb
:102e88000801be000600be00143502000000000064
:102e98000002be002e139000048bbe004f05be003a
:102ea8004f04be000080fa00000006001000fa007f
:102eb8005473800065738000048fbe0074738000b3
:102ec8008573800024079800350798009473800064
:102ed800a57380004407980055079800b4738000d4
:102ee800c57380006407980075079800ec024700d6
:102ef800680247002e019000be0190001e00be002f
:102f0800d7fe07004e029000de02900094738800fe
:102f1800a57388006e029000fe029000b4738800ca
:102f2800c57388000080fa00000006000600fa0059
:102f3800889fbe008a9fbe00000f78001107980086
:102f48002207980034728000cfa2de0046002000dd
:102f580007002000860f5200878f5a0033003e007a
:102f68000460010004003700100037001900370022
:102f780022003700260037001e0390006022b800a8
:102f8800048bbe002e0390006022b800048bbe00a4
:102f980024e7200025fe20003504be002505be00dc
:102fa800089abe000a92be00200037002e01900049
:102fb8009e0090001e007800660007001440800004
:102fc800e00f520018003200d6380200000000005e
:102fd8001600370014408000e00f52000200320053
:102fe80084380200000000002e0190009e0090002e
:102ff8001e007800110007000c0037002e01900019
:103008009e0090001e007800ac0107000700370002
:103018002e0190009e0090001e007800e901070034
:103028000000000001003700000000004f05be004e
:103038004f04be000080fa00000006000e00fa00ef
:1030480040079800510798006207980024e720007d
:1030580020fe20005403be004402be005001be0002
:103068004000be004c210200000000008fff070056
:1030780094738000a57380000401be00a0e72000bf
:103088008a23020000000000b4738000c57380002a
:103098000401be0020eb20008a230200000000008b
:1030a8004e02900074029000f402900064029000b6
:1030b8000401be00a0e72000a023020000000000d9
:1030c8004e02900074029000940a9000040a900046
:1030d8000401be0020eb2000a02302000000000035
:1030e800a0e7200020250200000000000002be002a
:1030f800048fbe0020eb2000202502000000000005
:103108000002be0024079800350798002e019000a1
:10311800be0190001e00be001e0402000000000058
:103128000002be005e039000048bbe002e019000da
:10313800be0190001e00be00200402000000000036
:103148000002be006e039000048bbe000080fa00ef
:10315800000006002a00fa00889fbe008a9fbe0071
:103168002017980031179800421798004472800081
:1031780055728000040f9800150f98006672800041
:1031880077728000260f9800370f98002e12900053
:10319800740290001403be00460f9800570f980061
:1031a8002e1290007402900024039000b403900043
:1031b800660f9800770f98004e099000de0990007e
:1031c8000e0890009e0890001e04020000000000f7
:1031d8000002be000404be004e099000de09900003
:1031e8000e0890009e0890001e04020000000000d7
:1031f8000002be000401be000800be00060802006e
:10320800000000000002be000404be006e09900029
:10321800fe0990002e089000be0890001e040200cf
:10322800000000000002be000405be006e09900008
:10323800fe0990002e089000be0890001e040200af
:10324800000000000002be000401be000a00be002b
:1032580006080200000000000002be000401be00d3
:103268000800be0020040200000000000002be00aa
:103278000400be0044090200000000000002be0075
:10328800048fbe004e099000de0990000e089000e1
:103298009e0890001e040200000000000002be000c
:1032a8000404be006e099000fe0990002e089000ec
:1032b800be0890001e040200000000000002be00cc
:1032c8000801be000400be00da040200000000008d
:1032d8000003be002e12900074029000d4029000e9
:1032e800440290000401be000600be001e04020055
:1032f800000000000002be000400be00a03502006d
:10330800000000000002be0024079800350798005e
:10331800c4972d0005ea2300041798001517980094
:10332800a4728000b572800018c0b3001e01be00f0
:103338000400be006a0602000000000000027800d7
:10334800e00f520001003c000044eb00e04f540045
:103358000900320014002000047388003e13900016
:103368006022b800048bbe004e1390006022b800a3
:10337800048bbe00cd003700147f8000257f8000bd
:1033880018c0b3006011b8000400be006a0602004d
:103398000000000000027800e00f520001003c002d
:1033a8000044eb00e04f5400270032002e0290004a
:1033b800be0290000404be0009f0a100b2fd200086
:1033c80093fc23000e1090009e1090002004020031
:1033d800000000000002be001ac0b3000401be00d5
:1033e8000800be006a060200000000000002780023
:1033f800e00f520001003c000045eb00e04f550093
:10340800370032001e02be0005f0a200048fbe0085
:10341800b2fd2000930424002e009000be0090000e
:1034280020040200000000000002be000400be00ec
:10343800a0350200000000000002be00240798002a
:1034480035079800260037002e029000be02900033
:103458000404be0009f0a1000e1190009e11900016
:10346800b0fd200091fc23001e04020000000000b3
:103478000002be001ac0b3000401be000800be006e
:103488006a0602000000000000027800e00f520007
:1034980001003c000045eb00e04f550010003200f1
:1034a8001e02be0005f0a200048fbe00b2fd20007f
:1034b800930424002e009000be0090002004020017
:1034c800000000000002be000400be00a03502009b
:1034d800000000000002be0024079800350798008d
:1034e8001e02be0005f0a10018c0b300d2cc2c000b
:1034f800c3dc23000400be006606020000000000d2
:1035080000027800e00f5200010035000044eb0093
:10351800e04f540037003200c4728000d57280003a
:103528001e01be000400be000608020000000000e4
:103538000002be000404be002e029000be029000ed
:1035480005f0a10032982f0023f223000400be00ea
:1035580006080200000000000002be000401be00d0
:103568000000200001f823001e04020000000000f3
:103578000002be000401be000800be0006080200ea
:10358800000000000002be0044079800550798009c
:10359800c4728000d572800002002000031a240043
:1035a8000400be0006080200000000000002be0081
:1035b8002e019000be0190000400be000608020023
:1035c800000000000002be000403be001e02be0090
:1035d80005f0a1000401be000600be0006080200b6
:1035e800000000000002be006407980075079800fc
:1035f80018003700c4728000d57280001e01be001a
:103608000400be0006080200000000000002be0020
:103618004407980055079800c4728000d57280004e
:103628000401be000400be002004020000000000e7
:103638000002be002e019000be0190000400be00f2
:1036480006080200000000000002be00640798009f
:10365800750798004e029000de02900054738800af
:10366800657388006e039000fe03900076738800ef
:10367800877388004e119000be1090002e109000a5
:103688006efe070014408000e00f52000700320071
:103698001e02be0014738800257388002e03900054
:1036a800be03900036738800477388004f05be003c
:1036b8004f04be000080fa00000006000e00fa0069
:1036c800881f780040079800510798006207980003
:1036d80086778000977780004e02900074029000f1
:1036e800d4029000440290000401be000600be000f
:1036f8001e040200000000000002be000400be001c
:10370800a0350200000000000002be00048fbe00c9
:103718001e02be0005f0a10018c0b300a2702d0063
:1037280033ca23000400be00660602000000000041
:1037380000027800e00f5200010035000044eb0061
:10374800e04f5400090032001400200084798800fa
:103758005e0390006022b800048bbe006e039000e8
:103768006022b800048bbe00130037001e02be00a2
:103778000401be000400be00200402000000000096
:103788000002be0024079800350798006022b800a0
:1037980054738800657388002e029000be02900062
:1037a80074738800857388006e019000de009000b5
:1037b8004e00900021fe07004f0478000080fa00b8
:1037c800000006000600fa00000f780011079800b4
:1037d8002207980074818000e00f520007003a0029
:1037e8001e0390006022b800048bbe002e039000d8
:1037f8006022b800048bbe002c0037006481800072
:103808006c22b90084027800c400210004824200be
:1038180085e42000b41a7800a4127800e4824200fb
:1038280064024200b41a7800a4127800e4824200cc
:1038380064024200b41a7800a4127800e4824200bc
:10384800640242006481800066024200c222dd00f8
:10385800c4002100048242001402be00a472880041
:10386800b57288002e0190009e0090001e0078001e
:1038780038fe070004738000e00f52000b0032008e
:103888000002eb0004738800748180000402e900e0
:10389800748188006481800004f0a7000402ea00b3
:1038a8000402e9004f22de00648188000080fa00eb
:1038b800000006000000fa0034728000e00f520099
:1038c80002003a001400200019003700347280000a
:1038d800e10f520002003a00047380001400370020
:1038e80034728000e20f520002003a0074778000c0
:1038f8000f00370034728000e30f520002003a00d4
:10390800847980000a00370034728000e40f520086
:1039180006003a007481800004f0a7000402ea005f
:103928000402e9004f22de00010037000002eb002c
:10393800040078000080fa00000006002000fa0069
:10394800889fbe008a9fbe006022b800048fbe0018
:103958006022b80024079800350798006022b80054
:1039680044079800550798006466260065ee230012
:1039780064079800750798003433230035fb23004b
:10398800040f9800150f98000400200005f023008c
:10399800240f9800350f98000400200005f023003c
:1039a800440f9800550f9800d4cc2c00c5dc230098
:1039b800640f9800750f98000002eb00548088008f
:1039c80064ff20006e049000fe0490000e0d90002d
:1039d8009e0d9000089abe000a92be00740247002d
:1039e800e5ff2000b41a7800a4127800e4824200af
:1039f80064024200b41a7800a4127800e4824200fb
:103a080064024200b41a7800a4127800e4824200ea
:103a1800640242000002eb00648188000002eb00af
:103a2800748188000e027800c5002100b41a78005d
:103a3800a4127800e482420064024200b41a7800ba
:103a4800a4127800e482420064024200b41a7800aa
:103a5800a4127800e4824200640242000e02780058
:103a680085012100b41a7800a4127800e48242008b
:103a780064024200b41a7800a4127800e48242007a
:103a880064024200b41a7800a4127800e48242006a
:103a980064024200f426210035a82300248188000e
:103aa80035818800f426210035a823004481880048
:103ab800558188001c2d0200000000001c13020024
:103ac800000000006638020000000000040020002a
:103ad80005f82300947e8800a57e88004f05be0067
:103ae8004f04be000080fa00000006000c00fa0037
:103af800000f7800110798002207980033079800f4
:103b080044079800550798000e02780065fd2000cc
:103b1800b41a7800a4127800e482420064024200d9
:103b2800b41a7800a4127800e482420064024200c9
:103b3800b41a7800a4127800e482420064024200b9
:103b48000080fa00000006000600fa00000f780066
:103b580012079800230798001e0278001e039000a1
:103b6800ae039000068abe000080fa00000006003e
:103b78000600fa00000f7800120798002307980043
:103b88001e0278001e039000ae03900026029800e3
:103b9800370298000080fa00000006000600fa00cc
:103ba800000f780012079800230798001e0278007b
:103bb8001e039000ae03900046029800570298003a
:103bc8000080fa00000006000a00fa00889fbe0084
:103bd8008a9fbe00000f78001407980025079800f8
:103be80036079800470798001e0278001e049000c8
:103bf800ae0490003e059000ce0590006802980043
:103c0800790298000a0a98001b0a98004f05be001e
:103c18004f04be000080fa00000006000600fa000b
:103c2800000f780012079800230798001e027800fa
:103c38001e039000ae039000660298007702980079
:103c48000080fa00000006000600fa00000f780065
:103c580012079800230798001e0278001e039000a0
:103c6800ae039000060a9800170a98000080fa0030
:103c7800000006000e00fa00000f780011079800f7
:103c880022079800330798004407980055079800c2
:103c9800660798009e0278000e82e800f4824200cf
:103ca800b41a7800a4127800e48242006402420048
:103cb800b41a7800a4127800e48242006402420038
:103cc800b41a7800a4127800e48242006402420028
:103cd8000080fa00000006000600fa00000f7800d5
:103ce80012079800230798001e0278001e03900010
:103cf800ae039000260a9800370a98000080fa0060
:103d0800000006000600fa00000f7800120798006d
:103d1800230798001e0278001e039000ae0390004f
:103d2800460a9800570a98000080fa00000006002a
:103d38000600fa00000f7800120798002307980081
:103d48001e0278001e039000ae039000660a9800d9
:103d5800770a98000080fa00000006000000fa00c8
:103d68000003780064fd200086027800b41a780009
:103d7800a4127800e482420064024200b41a780077
:103d8800a4127800e482420064024200b41a780067
:103d9800a4127800e482420064024200060078001f
:103da8000080fa00000006000000fa00889fbe00ac
:103db8008a9fbe000002780025fe20003504be0060
:103dc8002505be00089abe000a92be0004007800cd
:103dd8004f05be004f04be000080fa000000060038
:103de8000000fa0000037800a4fe20008602780094
:103df800b41a7800a4127800e482420064024200f7
:103e0800b41a7800a4127800e482420064024200e6
:103e1800b41a7800a4127800e482420064024200d6
:103e2800060078000080fa00000006000400fa008e
:103e380034858000458580000200200003f02300bf
:103e48000400be0006080200000000000002be00d8
:103e58000403be00347f8000457f80000401be005b
:103e68000600be0006080200000000000002be00b6
:103e7800048fbe00147f8000257f80001e01be00d5
:103e88000400be001e040200000000000002be0084
:103e98000400be000080fa00000006000400fa00da
:103ea80034858000458580000200200003f023004f
:103eb8000400be0006080200000000000002be0068
:103ec8000403be00347f8000457f80000401be00eb
:103ed8000600be0006080200000000000002be0046
:103ee800048fbe00147f8000257f80001e01be0065
:103ef8000400be0020040200000000000002be0012
:103f08000400be000080fa00000006000000fa006d
:103f1800ea140200000000000080fa000000060019
:103f28000c00fa00000f780011079800220798008b
:103f3800330798004407980055079800f426210095
:103f480035a82300a4728800b57288000002eb002f
:103f5800047388000e02780085e42000b41a780003
:103f6800a4127800e482420064024200b41a780085
:103f7800a4127800e482420064024200b41a780075
:103f8800a4127800e482420064024200f4140200a1
:103f9800000000000080fa00000006000c00fa0093
:103fa800000f78001107980022079800330798003f
:103fb80044079800550798000002eb000473880036
:103fc8000002eb00648188002400200074818800ce
:103fd8000e027800c5002100b41a7800a4127800f7
:103fe800e482420064024200b41a7800a412780005
:103ff800e482420064024200b41a7800a4127800f5
:10400800e4824200640242007202570085012100e6
:10401800b41a7800a4127800e482420064024200d4
:10402800b41a7800a4127800e482420064024200c4
:10403800b41a7800a4127800e482420064024200b4
:1040480012150200000000000080fa0000000600bf
:104058001000fa00881f7800000f780011079800f8
:1040680022079800330798004407980055079800de
:10407800660798007707980018c0b300f226210059
:1040880033a823006e009000fe0090006606020030
:104098000000000000027800e00f52000100350027
:1040a8000044eb00e04f540004003200f4262100e5
:1040b80035a823006407980075079800748180006c
:1040c800e00f52001f003a000002eb000473880062
:1040d8006481800066024200c222dd00c400210023
:1040e800048242006e039000fe039000068abe0020
:1040f800648180006c22b90084027800c400210029
:10410800848242000e027800b41a7800a412780063
:10411800e482420064024200b41a7800a4127800d3
:10412800e482420064024200b41a7800a4127800c3
:10413800e482420064024200140020007481880076
:104148002a0037006481800004f0a7000402ea0016
:104158000402e9004f22de0066024200c222dd00ae
:10416800c4002100048242006e039000fe03900008
:10417800068abe006481800004f0a7000402ea00f9
:104188000402e9004f22de006c22b90084027800a4
:10419800c4002100848242000e027800b41a78001c
:1041a800a4127800e482420064024200b41a780043
:1041b800a4127800e482420064024200b41a780033
:1041c800a4127800e48242006402420074818000f4
:1041d8000402e8007481880074818000e20f5200b4
:1041e80002003400240020007481880012150200a7
:1041f800000000004f0478000080fa00000006006c
:104208000800fa00889fbe008a9fbe00009fbe007b
:104218000297be000002eb0074778800a4e6200035
:104228003e04be002e05be00089abe000a92be00db
:10423800fe140200000000004f05be004f04be003f
:104248000080fa00000006000400fa00008fbe009b
:104258000002eb00847988001e02be008477880083
:104268009577880008150200000000000080fa0019
:10427800000006000000fa005e1c020000000000ba
:1042880000027800040078000080fa0000000600b0
:104298001000fa00881f7800009fbe000297be0039
:1042a8004407980055079800660798007707980014
:1042b8001e03be004e029000de0290000401be0004
:1042c8000600be001e040200000000000002be003e
:1042d80005f0a10018c0b300d2cc2c00c3dc230029
:1042e8000400be006a060200000000000002780018
:1042f800e00f520001003c000044eb00e04f540086
:1043080016003a002e039000be0390006e02900043
:10431800fe0290000401be000600be001e0402005a
:10432800000000000002be0005f0a10018c0b300a4
:10433800d2cc2c00c3ec23000400be006a060200a5
:104348000000000000027800e00f520001003c006d
:104358000044eb00e04f54000d003200558080000f
:1043680024032000848f520001003a00e7fe070072
:104378005580800024032000848f520006003c00f2
:10438800548080000402e80054808800020037004e
:104398000002eb00548088004f0478000080fa0087
:1043a800000006000800fa00881f7800000f780057
:1043b800110798002207980033079800947e800020
:1043c800a57e800018c0b3006011b8000400be00cc
:1043d8005c0702000000000000027800e00f5200b5
:1043e80001003a000044eb00084278000404a200ef
:1043f800e04f5200070032002e0390006022b80000
:10440800048bbe003e0390006022b800048bbe00ff
:10441800150037001e0190009e007800000a210058
:10442800f82d0200000000003e019000ae00900050
:10443800000a21009a170200000000005e1c02001a
:104448000000000000027800e00f52000600320071
:1044580034728000e00f520002003200f234020091
:1044680000000000a9fe07004f0478000080fa0051
:10447800000006000200fa00000f78001e02780013
:10448800fa02570009000900351a78004401b10002
:104498000080fa00000006000600fa00000f78000d
:1044a80012079800230798001e0278001e03900048
:1044b800ae039000068abe000080fa0000000600e5
:1044c8000600fa00000f78001207980023079800ea
:1044d8001e0278001e039000ae039000260298008a
:1044e800370298000080fa00000006000600fa0073
:1044f800000f780012079800230798001e02780022
:104508001e039000ae0390004602980057029800e0
:104518000080fa00000006000600fa00000f78008c
:1045280012079800230798001e0278001e039000c7
:10453800ae03900066029800770298000080fa00a7
:10454800000006000600fa00000f78001207980025
:10455800230798001e0278001e039000ae03900007
:10456800060a9800170a98000080fa000000060062
:104578000200fa00000f78001e027800f4024200e0
:104588007e0357000b000900b61a78000080fa0075
:10459800000006000600fa00000f780012079800d5
:1045a800230798001e0278001e039000ae039000b7
:1045b800260a9800370a98000080fa0000000600d2
:1045c8000600fa00000f78001207980023079800e9
:1045d8001e0278001e039000ae039000660a980041
:1045e800770a98000080fa00000006000600fa002a
:1045f800000f780012079800230798001e02780021
:104608001e039000ae03900006129800171298003f
:104618000080fa00000006000600fa00000f78008b
:1046280012079800230798001e0278001e039000c6
:10463800ae03900046129800571298000080fa00c6
:10464800000006000a00fa00889fbe008a9fbe008c
:10465800000f78001407980025079800360798007f
:10466800470798001e0278001e049000ae049000d0
:104678003e059000ce0590006812980079129800c7
:104688000a1a98001b1a98004f05be004f04be0076
:104698000080fa00000006000600fa00000f78000b
:1046a80012079800230798001e0278001e03900046
:1046b800ae03900066129800771298000080fa0006
:1046c800000006000600fa00000f780012079800a4
:1046d800230798001e0278001e039000ae03900086
:1046e800061a9800171a98000080fa0000000600c1
:1046f8000200fa00000f78006011b8001e00780070
:10470800afff07000080fa00000006000600fa006c
:10471800000f780012079800230798001e027800ff
:104728001e039000ae039000261a9800371a9800ce
:104738000080fa00000006000a00fa00200798002e
:1047480032079800430798002e029000240b90002f
:10475800b40b9000068fbe003e019000ce01900081
:104768002e0090000b0007001e01be002e009000d6
:104778006f0007002e029000b40a9000240a9000ef
:104788000401be002e009000440007000080fa00db
:10479800000006000600fa00889fbe008a9fbe003f
:1047a800000f780012079800230798001e0278006f
:1047b80064039000f40390001e027800d40a90006d
:1047c800440a90000401be000600be00060802006c
:1047d800000000000002be000404be001e027800b3
:1047e800f4029000640290000401be000000200062
:1047f80001f823001e040200000000000002be00b1
:104808000405be001e027800b41a9000241a900015
:104818001e019000ae0190000400be001e040200bc
:10482800000000000002be000401be000a00be0035
:1048380006080200000000000002be000401be00dd
:104848000800be0020040200000000000002be00b4
:104858001e037800440b9800550b98001e02780040
:10486800b41a9000241a90001e019000ae01900026
:104878000400be001e040200000000000002be008a
:104888001e037800240b9800350b98004f05be00d6
:104898004f04be000080fa00000006000600fa007f
:1048a800889fbe008a9fbe00000f780012079800fc
:1048b800230798001e02780044159000d415900034
:1048c8001e027800d4129000441290000404be0026
:1048d80009f0a2001e027800f40a9000640a900011
:1048e8001e019000ae0190000400be0020040200ea
:1048f800000000000002be000403be000a02be0061
:104908000801be000600be001435020000000000c9
:104918000002be001e037800640b9800750b980017
:104928004f05be004f04be000080fa0000000600dc
:104938000600fa00889fbe008a9fbe00000f78001c
:1049480012079800230798001e027800040b9000b5
:10495800940b90001e027800b4129000241290006c
:104968000401be000600be000608020000000000a8
:104978000002be000404be001e027800940a9000e3
:10498800040a90000401be000000200001f8230082
:104998001e040200000000000002be000405be0064
:1049a8001e027800b40a9000240a90001e019000ac
:1049b800ae0190000400be001e04020000000000ca
:1049c8000002be000401be000a00be000608020084
:1049d800000000000002be000401be000800be0086
:1049e80020040200000000000002be001e03780040
:1049f80024139800351398001e027800b40a90001a
:104a0800240a90001e019000ae0190000400be0030
:104a18001e040200000000000002be001e03780011
:104a280004139800151398004f05be004f04be00ec
:104a38000080fa00000006000200fa00889fbe000d
:104a48008a9fbe008c9fbe00000f78001e0278006f
:104a58001404be001e027800b40a9000240a9000d4
:104a6800d2cc2c00c3e423000400be0006080200d8
:104a7800000000000002be000405be001e0278000f
:104a8800d40a9000440a9000d2cc2c00c3f423002e
:104a98000400be0006080200000000000002be007c
:104aa8000401be000a00be0020040200000000004d
:104ab8000002be000401be000800be000608020095
:104ac800000000000002be000404be001e027800c0
:104ad80024039000b40390001e027800f40a9000aa
:104ae800640a90000401be000600be000608020029
:104af800000000000002be000401be000800be0065
:104b080020040200000000000002be000404be00f1
:104b18001e02780044059000d40590001e0278001b
:104b28009412900004129000d2cc2c00c3e423000d
:104b38000400be0006080200000000000002be00db
:104b48000406be001e027800b412900024129000e1
:104b5800d2cc2c00c3f423000400be0006080200d7
:104b6800000000000002be000401be000c00be00f0
:104b780020040200000000000002be000401be0084
:104b88000a00be0006080200000000000002be0085
:104b98000401be000800be0020040200000000005e
:104ba8000002be000400be004f06be004f05be0056
:104bb8004f04be000080fa00000006000000fa0062
:104bc800881f78003eaa9700ceaa97000403be006b
:104bd80007f0a1007eb297008eba970018c0b30004
:104be8000401be000600be006606020000000000c8
:104bf80000027800e00f5200010034000044eb008e
:104c0800e04f5400130032001eb29700aeb2970076
:104c18000403be0007f0a1001eba9700aeba9700c1
:104c280018c0b3000401be000600be0066060200fc
:104c38000000000000027800e00f5200010034007c
:104c48000044eb00e04f5400020032001400200042
:104c5800010037000002eb00040078004f047800e0
:104c68000080fa00000006000000fa00c1e1a80078
:104c7800040e80000420a1000430a100040e880066
:104c8800040e80000400a1000410a100040e880096
:104c9800c45d2000240e8800c921a800c941a800cd
:104ca800c881a800c8a1a800c8c1a900c801a90056
:104cb800c821a900c841a900c45d2000240e8800ad
:104cc8000002eb00b40e88000002eb00c40e88005e
:104cd800c0e2a900c962a900c9e2a900c9a2a90045
:104ce800c4e2a900cd62a900cde2a900cda2a90025
:104cf8000080fa00000006000000fa00e1a1a80008
:104d0800040f80000480a1000490a00004a0a0006b
:104d1800040f8800e041a900e021a900e5348000e3
:104d280004fe2f00048262008401b300e43488008a
:104d3800e5348000f40f2e008482620004602100b4
:104d480005027200e4348800f1a1a800840f8000f5
:104d58000480a1000490a00004a0a000840f880093
:104d6800f041a900f021a9000535800004fe2f00bc
:104d7800048262007401b3000435880005358000a0
:104d8800f40f2e0084826200049021000502720054
:104d9800043588000080fa00000006000a00fa00c6
:104da800881f78001007980021079800320798009c
:104db8004307980018c0b3006011b8003e00900087
:104dc800ce0090006a060200000000000002780091
:104dd800e00f520001003d000044eb00e04f54009a
:104de80002003200cda2a90001003700cda2a80020
:104df80018c0b3006011b8001e009000ae0090000b
:104e08006a0602000000000000027800e00f52006d
:104e180001003d000044eb00e04f54000200320066
:104e2800cde2a80001003700cde2a900180020005b
:104e38006011b8001e009000ae00900066060200e7
:104e48000000000000027800e00f52000100350069
:104e58000004eb00080f7800c45d2000240e8800d1
:104e680004002000852c240002002000832c2c0044
:104e78001e009000ae0090001435020000000000f3
:104e88000002be00140798002507980004002000bf
:104e9800852c240002002000832c2c003e0090006a
:104ea800ce00900014350200000000000002be0091
:104eb80034079800450798001e029000ae02900043
:104ec80005f0a10002002000031f24000400be001a
:104ed80006080200000000000002be000400be0038
:104ee8006e060200000000000002be000402780006
:104ef800b40e88003e029000ce02900005f0a1009a
:104f080002002000031f24000400be00060802005f
:104f1800000000000002be000400be006e06020091
:104f2800000000000002be0004027800c40e8800e1
:104f38004f0478000080fa00000006000e00fa0016
:104f4800881f7800100798002107980032079800fa
:104f58004307980054079800650798001800200038
:104f68006011b8005e009000ee0090006a06020032
:104f78000000000000027800e00f520001003d0030
:104f88000004eb00080f7800180020006011b8003a
:104f98003e009000ce00900066060200000000006f
:104fa80000027800e00f5200010035000004eb0019
:104fb800080f78001e019000ae01900000682900db
:104fc80081c12400e2050200000000000002be00ca
:104fd8000400be006e060200000000000003be00d0
:104fe80004d0270005002000c25d20000300200037
:104ff8000600be0068350200000000000002be0086
:1050080004027800240e880004002000852c240067
:1050180002002000832c2c003e009000ce0090005f
:1050280014350200000000000002be00340798009a
:105038004507980004002000852c24000200200069
:10504800832c2c005e009000ee00900014350200c6
:10505800000000000002be00540798006507980091
:10506800240e800004024200050020000400be0057
:10507800b6060200000000000003be003e029000d9
:10508800ce02900005f0a1000401be000600be009b
:1050980006080200000000000002be000200200016
:1050a800832c24000400be00e2050200000000007a
:1050b8000002be003407980045079800240e8000bf
:1050c80004024200050020000400be00b6060200eb
:1050d800000000000003be005e029000ee02900097
:1050e80005f0a1000401be000600be00060802008b
:1050f800000000000002be0002002000832c2400f3
:105108000400be00e2050200000000000002be002c
:1051180054079800650798003e009000ce00900064
:105128006e060200000000000003be0004a02f006d
:10513800050020006011b8000600be0068350200b6
:10514800000000000002be0004027800b40e8800cf
:105158005e009000ee0090006e0602000000000065
:105168000003be0004a02f00050020006011b80055
:105178000600be0068350200000000000002be0004
:1051880004027800c40e88004f0478000080fa00fa
:10519800000006000600fa00881f78001007980033
:1051a80021079800180020006011b8001e00900028
:1051b800ae009000660602000000000000027800c1
:1051c800e00f5200010035000004eb00080f7800e2
:1051d8001e02780004f0a7000402ea000402e900b5
:1051e8004f22de00044278000482fb004f22dd00db
:1051f80066168000f5ff270085026300050272002d
:105208006416880004002000852c24000200200079
:10521800832c2c001e009000ae0090001435020074
:10522800000000000002be0014079800250798003f
:105238001e029000ae02900005f0a10002002000be
:10524800031f24000400be0006080200000000003e
:105258000002be000400be006e060200000000004e
:105268000002be0004027800b40e88004f047800e3
:105278000080fa00000006000600fa00881f780087
:105288001007980021079800180020006011b80046
:105298001e009000ae0090006a06020000000000a8
:1052a80000027800e00f520001003d000004eb000e
:1052b800080f78001e02780004f0a7000402ea0034
:1052c8000402e9004f22de00044278000482fb0059
:1052d800610262004d22dd0066168000f5ff2d0098
:1052e800850263000502720064168800040020002d
:1052f800852c240002002000832c2c001e00900026
:10530800ae00900014350200000000000002be004c
:1053180014079800250798001e029000ae0290001e
:1053280005f0a10002002000031f24000400be00b5
:1053380006080200000000000002be000400be00d3
:105348006e060200000000000002be0004027800a1
:10535800c40e88004f0478000080fa0000000600a0
:105368000000fa00153a8000f40b20000483620064
:10537800640420007505200027742000844b780001
:10538800854b7800864b780034358000f401b300f3
:10539800343588005536800004fe2f0004826200f0
:1053a8005400b30054368800153a800004042000e5
:1053b800050372006404200075052000277420008e
:1053c800844b7800854b7800864b78000080fa0083
:1053d800000006000000fa00153a8000f40b2000d7
:1053e80004836200640420007505200027742000ef
:1053f800844b7800854b7800864b780035358000e3
:1054080004fe2f0004826200a400b3003435880033
:105418003536800004f02100050272003436880019
:10542800153a80000404200005037200640420007b
:105438007505200027742000844b7800854b780080
:10544800864b78000080fa00000006000200fa008f
:10545800004f780000000000951180000420200013
:1054680004826200e00f5200fbff3a009e4278007f
:105478000582fb0004007800100402000000000010
:10548800440b2100144278009e424200440b210044
:10549800054a78000080fa00000006000400fa00bf
:1054a800004f78001147980022479800acff07008a
:1054b80000c0eb00e5ff070000c0eb00e3ff0700ba
:1054c800440b21008042eb00054a78001e4078001a
:1054d800deff07001e42900004c2e8000440780086
:1054e800daff07002e409000d8ff07000080fa007e
:1054f800000006000600fa002047980021079800df
:105508000042eb00044f7800080037009e42780004
:105518000582fb00ae02900004824200144278002b
:1055280004407800c9ff07001e4fe8002e42900093
:105538009e42780084cf5200f4ff39000080fa00c0
:10554800000006000000fa00440b21001442780015
:1055580004c2ea0004407800bcff07000000000015
:105568003c0302000000000000427800e04f5200b7
:10557800fbff3a0097ff07000080fa0000000600d2
:105588000200fa006e003700fe030200000000006f
:105598000002780004427800044f78008486800076
:1055a800e50f420006003a001e427800e14f420033
:1055b80003003a00c4ff2f0084868800600037008b
:1055c80084868000e40f42000c003a001e427800f6
:1055d800e14f420009003a00d4ff2f00848688007a
:1055e800440b21008042eb00054a7800840b21001f
:1055f80015c0b3001542980051003700848680001a
:10560800e30f420006003a00e4ff2f00848688007a
:105618009e427800840b2100054a78004800370034
:1056280084868000e20f420010003a001e42780093
:10563800e54f52000d003e000082eb008486880092
:10564800840b2100944278001e42780084c24200f4
:10565800440b2100054a78001e42780084c2e90004
:10566800840b21001542980035003700848680009d
:10567800e10f420007003a000002eb008486880030
:105688008e027800840b210015037800160298001a
:105698002b00370084868000e00f5200150035008b
:1056a800840b2100144290008482fb0084868000d1
:1056b800848f52000f003400848680000403780031
:1056c800c50b2100850243001e437800864a7800f6
:1056d8000402e80084868800440b21009442780084
:1056e8001e42780084c24200440b2100054a78001b
:1056f80013003700840b2100144290008482fb00c1
:1057080084868000848f52000b003a009e42780005
:10571800440b21001442780004c26200e04f52009a
:1057280005003a0014002000b4858800b4ff2f005b
:105738008486880002003700b4ff2f008486880022
:10574800d60302000000000000427800e04f52003b
:105758008dff3a000080fa00000006000200fa00ff
:10576800004f780012c0b30021c0b3001e4078007b
:105778004aff070073ff07000080fa0000000600d8
:105788000400fa00004f780011479800224798005b
:1057980022c0b30021c0b3001e4078003fff0700bd
:1057a8001e40900029ff07002e40900027ff0700a9
:1057b80064ff07000080fa00000006000600fa00f7
:1057c800004f780011479800224798002307980057
:1057d8002e4290000442e80032c0b30084407800b2
:1057e8001e4078002dff07001e40900017ff07009d
:1057f800ae0090002e4090003eff070051ff0700ca
:105808000080fa00000006000600fa00004f780049
:105818001147980022479800230798002e429000cd
:105828000442e80042c0b300844078001e4078007b
:105838001aff07001e40900004ff0700ae0090000a
:105848002e4090002bff07003eff07000080fa0063
:10585800000006000200fa00004f780052c0b300b2
:105868008040eb001e4078000cff070035ff070062
:105878000080fa00000006000200fa00004f7800dd
:1058880062c0b3008040eb001e40780003ff0700b1
:105898002cff07000080fa00000006000200fa0052
:1058a800004f78009e4278000582fb00cfa2de0000
:1058b8000603200007002000860f5200878f5a0039
:1058c80036003e0004600100320037003300370024
:1058d8002e0037002d0037002c0037002b00370032
:1058e8002c0037002d0037002a0037002b00370026
:1058f8002a0037002500370024003700230037002e
:105908002400370025003700200037001f0037002b
:105918001e0037001d0037001e0037001f0037002b
:105928001c0037001d00370018003700170037002b
:105938001600370015003700140037001300370031
:105948001400370015003700120037001300370025
:1059580010003700110037000e0037000f00370025
:105968000c0037000d0037000a0037000b00370025
:10597800060037000500370004003700070037002d
:1059880002003700010037000200370014c0b300de
:105998000300370024c0b300010037000042eb00c9
:1059a800044078000080fa00000006000400fa00b5
:1059b800881f7800004f7800114798001207980058
:1059c8000002eb00b48588000e84e8001e409000b9
:1059d800b2ff07000042780088017800044178008f
:1059e8009e4090001e40780074ff07004f04780026
:1059f8000080fa00000006000200fa00004f78005c
:105a0800114798000002eb00b48588001e40900002
:105a1800a2ff070000427800044178009e409000f1
:105a28001e40780056ff07000080fa0000000600bc
:105a38000e00fa0004572d00040f7800f4732800b4
:105a4800957923001407980025079800f40d2e0077
:105a5800b5e8230034079800450798000002eb00da
:105a6800540798000002eb00640798009e00780035
:105a78001e019000ae0190003e029000ce02900000
:105a8800000a21000d0007005e029000ee0290005f
:105a9800548588006585880061fd2000000a210082
:105aa8003e000700a2702d0033ba2300000a21002f
