:020000040000fa
:080000000002040000000000f2
:020000040000fa
:100008009a0200009a0200009a0200009a02000078
:100018009a0200009a0200009a0200009a02000068
:100028009a0200009a0200009a0200009a02000058
:100038009a0200009a0200009a020000d42b0000e5
:100048009a0200009a0200009a020000302c000078
:10005800382c00005e2900009a0200009a02000075
:100068009a0200009a0200009a0200004a2c00003e
:100078009a0200009a0200009a0200009a02000008
:100088009a0200009a0200009a0200009a020000f8
:100098009a0200009a020000202c0000282c000080
:1000a8009a020000402c00009a0200009a02000008
:1000b8009a0200009a0200009a0200009a020000c8
:1000c8009a0200009a0200009a0200009a020000b8
:1000d8009a0200009a0200009a0200009a020000a8
:1000e8009a0200009a0200009a0200009a02000098
:1000f8009a0200009a0200009a0200009a02000088
:100108009a0200009a0200009a0200009a02000077
:100118009a0200009a0200009a0200009a02000067
:100128009a0200009a0200009a0200009a02000057
:100138009a0200009a0200009a0200009a02000047
:100148009a0200009a0200009a0200009a02000037
:100158009a0200009a0200009a0200009a02000027
:100168009a0200009a0200009a0200009a02000017
:100178009a0200009a0200009a0200009a02000007
:100188009a0200009a0200009a0200009a020000f7
:100198009a0200009a0200009a0200009a020000e7
:1001a8009a0200009a0200009a0200009a020000d7
:1001b8009a0200009a0200009a0200009a020000c7
:1001c8009a0200009a0200009a0200009a020000b7
:1001d8009a0200009a0200009a0200009a020000a7
:1001e8009a0200009a0200009a0200009a02000097
:0801f8009a0200009a020000c7
:020000040000fa
:100208009a0200009a0200009a0200009a02000076
:100218009a0200009a0200009a0200009a02000066
:100228009a0200009a0200009a0200009a02000056
:100238009a0200009a0200009a020000d42b0000e3
:100248009a0200009a0200009a020000302c000076
:10025800382c00005e2900009a0200009a02000073
:100268009a0200009a0200009a0200004a2c00003c
:100278009a0200009a0200009a0200009a02000006
:100288009a0200009a0200009a0200009a020000f6
:100298009a0200009a020000202c0000282c00007e
:1002a8009a020000402c00009a0200009a02000006
:1002b8009a0200009a0200009a0200009a020000c6
:1002c8009a0200009a0200009a0200009a020000b6
:1002d8009a0200009a0200009a0200009a020000a6
:1002e8009a0200009a0200009a0200009a02000096
:1002f8009a0200009a0200009a0200009a02000086
:100308009a0200009a0200009a0200009a02000075
:100318009a0200009a0200009a0200009a02000065
:100328009a0200009a0200009a0200009a02000055
:100338009a0200009a0200009a0200009a02000045
:100348009a0200009a0200009a0200009a02000035
:100358009a0200009a0200009a0200009a02000025
:100368009a0200009a0200009a0200009a02000015
:100378009a0200009a0200009a0200009a02000005
:100388009a0200009a0200009a0200009a020000f5
:100398009a0200009a0200009a0200009a020000e5
:1003a8009a0200009a0200009a0200009a020000d5
:1003b8009a0200009a0200009a0200009a020000c5
:1003c8009a0200009a0200009a0200009a020000b5
:1003d8009a0200009a0200009a0200009a020000a5
:1003e8009a0200009a0200009a0200009a02000095
:0803f8009a0200009a020000c5
:020000040000fa
:10040000efb923000e7f24000e01880000000000d9
:10041000000020000000e000020032000001200087
:10042000200288000c000700c0d622000100200036
:1004300011000700000020000000e0000200320070
:100440000000020000000000ce2d020000000000ad
:100450000040da000000fe004440a90080022000b5
:100460000000e0000300320000002000a00188002e
:100470004440a80000000600910188008000780038
:100480000000eb0015003700e280400032a0b4000d
:100490009101ba00e280400032a0b4009102ba009b
:1004a000e280400032a0b4000002eb00472bde00e7
:1004b000f507b200602ce10004003a000059eb009f
:1004c0008301e900fdff3e00040037006128e100e0
:1004d000010032000082eb00040007001101ba00a5
:1004e0000200e000e8ff3a00000006003159ba00bf
:1004f0008301e9000c0032002159ba008301e900b0
:10050000080032000400e00003003a00e2804000ee
:1005100032a0b400f5ff370011d9ba008301e90019
:10052000faff3a008100e800e180400032a0b40008
:10053000000006000040da000000fe0084e0a90090
:1005400067026000f5ff28004c22dd0036058000c0
:100550008682620068006000850272004300de004f
:100560003505880061006000f4f72f004700dd00ca
:10057000a50480000502620004027000a404880043
:10058000000006000621ef0061088800800888004e
:100590001061a900000006001821ef00e1088800a2
:1005a0000009880000000600001020003202b6009a
:1005b0000000e9004f00de00000006008560a90091
:1005c000670260008580a9004c22dd00f5ff28004d
:1005d0004605800086826200850272000002780073
:1005e000450588000407b20085ff2f004422de0085
:1005f00056058000868262008502720068026000f3
:10060000550588004322de00f57f2f00610262005d
:10061000a6048000868262004b22dd000008b20042
:10062000850272004700de00a504880061006000ba
:10063000f4ff2e004c00dd00a504800005026200de
:1006400004027000a40488000000060087c0a9000e
:100650006702600087e0a9004822dd00f58f2f00c7
:100660009605800086826200850272000002780092
:10067000950588000407b200f5ff28004822dd0038
:100680009605800086826200850272006802600022
:10069000950588004322de00f5ff2b006102620011
:1006a000b6048000868262004e22dd000008b2009f
:1006b000850272004700de00b5048800610060001a
:1006c000f4ff27004f00dd00b50480000502620042
:1006d00004027000b404880000000600901180003d
:1006e000614060000000060042118800001188008f
:1006f0001111880000000600c211880080118800d6
:1007000091118800000006008411800066026200da
:10071000e60f520002003a00b0118000000006000f
:10072000b0118000f00fb20000000600041180003c
:1007300066026200e60f520001003200f00fb200c4
:10074000201188000000060084118000660262000b
:10075000e60f520001003200f00fb200a011880035
:100760000000060003f0a200889fbe008a9fbe0022
:100770008c1f7800d7010700de0133006450e100d0
:100780004f0032006420e1005200320003826c000e
:1007900007003b000905d0000306d000820f54007b
:1007a0000c065d0002003900020032008901780069
:1007b000030678008582550004003d000003fd001b
:1007c0008103fd008502ea008b854200840f7200e0
:1007d00002003b0060001000e08018006011b800cb
:1007e0000005eb007a28e1000a00390006007800d5
:1007f000c75ddd00f707b200878075002d00370068
:10080000828171000a017800610560008180d10059
:100810000080d3008502e900f9ff3b000604400098
:100820008784480002003b0060041400e0841c0040
:100830000988a300070032008a817100828171005b
:10084000610164008904d1000884d3008b05e800ad
:10085000170037000978a30013003a000b00e000ee
:10086000130034008b05e9000804440089844c001f
:100870000a4474000978a3000d003a000b00e00060
:10088000070034008b05e9000804440089844c000b
:1008900001003a000b0020000978a300f7ff3200a6
:1008a0000001eb0002003700828171000a0178002c
:1008b0004d0107000cf0a70001f0a00096013700e1
:1008c0006420e10002003a00838f6c00960133003f
:1008d0000801be000200be008f013700889fbe00e5
:1008e0008a9fbe008c1f78007a010700100220004a
:1008f00002003b00004088007e0137008a00620051
:100900006408e10002003a000040880086013700d8
:100910006108e100fcff32000800be00030478001b
:100920007200070001f0a1000900070008f0a6000e
:10093000040037000001be0091042400b0fd200037
:1009400088ff070009f0a70001f0a200720137003c
:10095000889fbe008a9fbe008c9fbe000004be0020
:10096000470107000800be00890678006420e10006
:1009700008003900040032000160a00012022000cb
:10098000024088005300370091fc2300b0fd200096
:100990004e0037000006eb0009f0a10003f8230029
:1009a000020020000800be0092000700060034008c
:1009b00001f82300000020000801be004b000700e2
:1009c0000004be002c0020000800be0093e82300b5
:1009d000320a230087000700120034000801be001d
:1009e000d1fd2300703d2b005fff07000005be0016
:1009f000b3f32300f27a26000800be004d01070081
:100a000003f823000200200056ff07000801be0083
:100a100055ff07000a01be00340007000004be00b5
:100a20000c06e8000800be0001f0a1000200200052
:100a3000039823006f0007000800be001600350071
:100a40000801be003b0107000005be0032cd2c00ae
:100a500043fb230044ff0700809fbe00126928006b
:100a600003d52b000a00be0032010700620f2100ef
:100a700013ef2b003cff07000a01be002d01070009
:100a80004f01be00190007000801be002901070040
:100a90000801be0034ff07000c00e0000b0032002c
:100aa0000c10a70001f0a200b2fd200093fc23006f
:100ab0006260e1000400320022a9200063f02300fc
:100ac0000c10a70063f8230027ff07000df0a70014
:100ad00001f0a2004f06be004f05be004f04be004d
:100ae000000006000081eb0046013700889fbe0031
:100af0008a9fbe008c1f7800f6000700fd003300bf
:100b000003866c006450e1002e0032006420e10096
:100b1000330032006150e1002f0032006120e1001b
:100b20003100320085855500eb07b0000900200038
:100b300008042000050037000804440089844c00a4
:100b40000a0031000603430087834b000001530075
:100b500081815b00f8ff33000203be000800a000a3
:100b60000804440089844c00f6ff3900c639dd00d2
:100b70008301730001003200130020008904d100ba
:100b80000884d3000998a300050032000800a700dc
:100b90000300a0008904d1000884d3008b05e8007d
:100ba0008904d1000884d3000001eb000281d20047
:100bb0008d00070001f0a1000cf0a70001f0a000db
:100bc000d50037006420e100d70032000801be00e4
:100bd0000200be00f7ff37006120e100d2003200c2
:100be0006000b800f3ff37000000200001f8270084
:100bf000f0ff370014002000a2013700f4ff2f009f
:100c0000a00137000001be009d0007000470a7008e
:100c100003f0a1006509b100160032000d00350097
:100c20006828e10006003500f0ff2f00f1ff2700e3
:100c30000300e00013003b00010028000000050055
:100c400000004000818048008502e900fcff3a0076
:100c500008003700f88f420002003c008000eb00e3
:100c6000000005008100d1000080d3008502e8006b
:100c7000fcff3a000300e00002003b0060001000af
:100c8000e0801800000006004f89de008201780035
:100c9000970137006011b800a5013700040020005b
:100ca00000003700889fbe008a9fbe008c1f78001e
:100cb0004f26dd00870007008e0033006120e10031
:100cc000430032006250e10041003e003e00390026
:100cd0006420e1003c003200058255000f003b001b
:100ce0000402e80038003a00800f5300818f5b0057
:100cf000350034000800be0003f0a10001f0a6009a
:100d000003f0a0000cf0a70097fe07008200370058
:100d10000603430087834b000c4646000005530042
:100d200081855b00020033000a03be000c00a000b6
:100d30000402e900f6ff3b00850578000602430047
:100d400087824b0004003a006000b80009f0a70059
:100d500001f0a000700037000002520081825a00aa
:100d60000704e000040033000603430087834b00c0
:100d70008b05e900faff3700090578000604be007c
:100d80000203be006011b80017000700e00f520018
:100d9000e08f5a000700350002003c000c08a30059
:100da000040032000601be0003f0a0000cf0a70012
:100db0006dfe07000a85680001f0a1000af0a70097
:100dc00001f0a000540037000800be0052003700b8
:100dd000100220000cf0a6000040880052003700ee
:100de00004002000270137008100200061805500a9
:100df0000b003d000b00200061fe2f000100e10010
:100e00001d00340082817100610164008904d100f9
:100e10000884d3000000e800faff3a0071002000c7
:100e200061006400030070000200600009003200ed
:100e300061044400e0844c000988a50005003200ec
:100e40008b05e8006808e10002003a008904d1003f
:100e50000884d300f20f20000258e10005003d0095
:100e6000c75ddd00f907b2008980750008007800d1
:100e7000000006000bf827008b007800000005003a
:100e8000c70ade00f107b200f50fb2000800320019
:100e9000e1cf4200020032000170a00024000500f2
:100ea000810f7000010032000408050044000500b5
:100eb000810f700002003a00140005008502e9006d
:100ec0000000400081c04800fcff3b000170a00012
:100ed000240005000004be00e9ff07000003be0077
:100ee0000405be000200be00e5ff0700844f750048
:100ef000000006000200be006450e100050036005c
:100f00006420e100020036000968a30001003a00f5
:100f10000800be000160a0004f0678004f05be002b
:100f20004f04be0000000600f0ff2f00f1ff270075
:100f3000f9ff3700889fbe008a9fbe008c1f780093
:100f4000e4ff0700ebff330003866c006450e10010
:100f5000240032006420e100270032006150e100eb
:100f6000220032006120e100210032008b85420026
:100f7000eb07b1000134b800003ab80008044200a1
:100f800089844a00013ab8000030b80088804000e7
:100f900009014a000400330000004000818048003d
:100fa000020149008b05e900c909dd0083017000d9
:100fb0000100320013002000c814de004814dd00d8
:100fc0004709de001200b200c808de000884700085
:100fd00085ff070001f0a1000cf0a70001f0a000c0
:100fe000cdff37006120e100cfff32000801be00d5
:100ff0000200be00f7ff37006150e100fcff3a003d
:10100000c9ff3700889fbe008a9fbe008c9fbe002c
:10101000820578000004be0099ff07000800be00aa
:101020006420e1000700390002003a00f1ff2700c8
:10103000f0ff2f000160a000120220000240880093
:10104000550037006120e10003003a000b00a700c3
:1010500001f823005000370001f0a1000200210038
:1010600093642400e3fe07000800be00040035007e
:10107000b2fd2000930c240008ff07000004be000e
:101080000005eb000b00a6004f0dde0001f0a100f3
:101090000004be0032982f0023ea2300a5ff0700ba
:1010a0000001eb0003f023000b00a70003f823006e
:1010b000adfd0700d3fe07000000a7000a00a20054
:1010c000f1fe07000b00e0000300320002002000e8
:1010d00003f02300a3fd070001f0a2000006be00fc
:1010e000020020009304240092ff07000801be00c4
:1010f0009dfd0700809fbe000c00be0022a22a00ba
:10110000d3a723008bff07004f01be0096fd070009
:101110000004be0001f0a10002002000039823009b
:10112000b4fe07000800be00190035000001be0033
:1011300080ff07000006be00b2c52900e36223005d
:101140007cff070022222b00f3942b0086fd070072
:101150000c01be0077ff0700e273280083c0230064
:1011600081fd07000c01be0072ff070042aa2a00a1
:10117000a3e22b007cfd07000c01be006dff070001
:101180000801be006bff07000801be0076fd0700e6
:101190000a00a70001f0a2004f06be004f05be00e6
:1011a0004f04be00000006000001eb0095ff370071
:1011b000889fbe008a9fbe008c1f78000004be007e
:1011c0002fff07000478a30026003a006120e10009
:1011d0002500320009f8a30025003a006420e10050
:1011e00021003200f507b1000508a300020032001b
:1011f00000004000818048006044b80003102000d7
:1012000002002000000040008180480008054400e2
:1012100089854c000a0541008b8549000a0550006c
:101220008b855800030033000a00be0002047400de
:10123000838474008301d1000281d300830f710085
:10124000f0ff3a008904d1000884d300600149000e
:1012500082017800c1adde00fb07b000e2fe0700ae
:101260002dff37000960a0000800be002aff3700ec
:101270001202200002408800f0ff2f00f1ff27003b
:1012800025ff3700889fbe008a9fbe00841f78001c
:1012900010ff07004f00780011003300f0ff2f000f
:1012a000838f6c0006003b00040565000a00a70060
:1012b0000800370009f0a6001000200008003700e1
:1012c000820f5400838f5c0003003900100020005f
:1012d00001003e000000200009f0a7000000ea0025
:1012e0004f05be004f04be000000e00000000600f5
:1012f000881f7800030478000300e00007003d0029
:1013000060001000e080180060011900e081190001
:1013100002003b0001f02d0003003700040007002d
:1013200008f0a70001f0a0004f04780000000600bc
:10133000889fbe008a9fbe00008270000402710078
:1013400004827100260032000004be000200be00cc
:101350006011b8006b092000950220000182cf00c7
:101360000a0039000541b1000082cf0007003900b2
:101370000541b1000982cf00040039000541b100e8
:101380000882cf00010039000541b100054252003a
:10139000120032000a003b0082817100610164008a
:1013a0008100d1000080d3008984d3000884d30059
:1013b0008b05e8000442e800f7ff3a000700370019
:1013c0000804440089844c000000480081804800e3
:1013d0008b05e9000442e900f9ff3a0082fe0700ac
:0c13e0004f05be004f04be0000000600d8
:020000040000fa
:1013ec00000000000243000000000000b4420000b6
:1013fc00000000004843000000000000003f000017
:10140c0066660000663f00000000000020410000fe
:10141c0000000000b040000000000000f04100009f
:10142c0000000000003f000066660000663f000000
:020000040000fa
:10143c00d800fa000002eb0034d0890084032000ad
:10144c0004024700659f280009000900351a78003e
:10145c006022b80064279800752798006022b800b5
:10146c00042f9800152f98006022b800242f9800a4
:10147c00352f98006022b800442f9800552f980003
:10148c006022b800642f9800752f9800040020008b
:10149c0005f023000437980015379800a4702d0030
:1014ac0035c223002437980035379800a4702d00de
:1014bc0035ca23004437980055379800f487470005
:1014cc0074825700860320000603470009000900b8
:1014dc00361a78004401b1000e0078004019020061
:1014ec0000000000f4875700f88747007882570007
:1014fc00c5042000850247000b000900351a78004e
:10150c008401b1000e007800be190200000000003a
:10151c00f88757002e329000be3290004e33900068
:10152c00de3390000e007800281a02000000000044
:10153c006011b8000e0078008c1a02000000000048
:10154c00460a200006034700a4a028000900090051
:10155c00341b78006022b800449f9800559f980077
:10156c006022b800649f9800759f98006022b800b4
:10157c0004a7980015a798006022b80024a798002b
:10158c0035a798006022b80044a7980055a798008a
:10159c0004002000050a240064a7980075a7980091
:1015ac00a4702d0035c2230004af980015af98002d
:1015bc00a4702d0035ca230024af980035af9800d5
:1015cc00c40620000e024200f4874700f482570044
:1015dc00460a20000603470009000900b61a7800e5
:1015ec004501b10004007800401902000000000021
:1015fc00f4875700c40620000e024200f88747000b
:10160c00f8825700860b2000060347000b000900e8
:10161c00b61a78008501b10004007800be190200ea
:10162c0000000000f8875700c00620000e004000a4
:10163c000eaa90009eaa90002eab9000beab90001c
:10164c00281a020000000000c40620000e0242000e
:10165c006011b800040078008c1a02000000000031
:10166c006022b80044d0890055d089006022b800af
:10167c0064d0890075d089006022b80084d08900bc
:10168c0095d08900a4702d0035c22300a4d0890008
:10169c00b5d08900d4cc2c00c5fc2300c4d0890063
:1016ac00d5d0890064af2300e4d0890064b1230055
:1016bc00f4d089000002eb0004d189006022b8004c
:1016cc0014d1890025d189006022b80034d1890059
:1016dc0045d189006022b80054d1890065d18900b8
:1016ec006022b80074d1890085d189006022b800cd
:1016fc0094d18900a5d189006022b800b4d18900a9
:10170c00c5d1890064af230054d5890064b123008e
:10171c0064d58900a4a323001b0009003e1a78009d
:10172c008e03b10025a72300c60620000603470040
:10173c001b000900b61a78000002eb0074d5890072
:10174c006022b80084d5890095d5890064af230048
:10175c0064d7890064b1230074d7890044ab23009b
:10176c00c5062000850247001b000900351a7800c9
:10177c000002eb0084d789000080fa00000006000c
:10178c000000fa00a4a3230025fc2f0085024700cb
:10179c001b000900351a780024a72300a5f82f0098
:1017ac00850247001b000900351a78000080fa00fa
:1017bc00000006000200fa00000f78001e027800fc
:1017cc0064d589000080fa00000006000000fa00d1
:1017dc000002eb0034d089000080fa000000060003
:1017ec000000fa001400200034d089000080fa00b8
:1017fc00000006000000fa002400200034d089000c
:10180c000080fa00000006000000fa0034002000fe
:10181c0034d089000080fa00000006000000fa00b5
:10182c004400200034d089000080fa00000006003b
:10183c000000fa0094d18100a5d181000400be0003
:10184c000080fa00000006000000fa00b4d181000c
:10185c00c5d181000400be000080fa000000060023
:10186c002800fa00889fbe008a9fbe00600f980077
:10187c00710f9800021798001317980024179800fe
:10188c0035179800b4d88100c5d88100048fbe00ec
:10189c00d6d88100e7d88100260798003707980032
:1018ac00f4d8810005d981004407980055079800a9
:1018bc0016d9810027d98100660798007707980010
:1018cc0034d9810045d98100040f9800150f980078
:1018dc002e1290001403be00260f9800370f9800ac
:1018ec00a4702d0035ba2300440f9800550f9800b2
:1018fc002e1290001404be004e099000de099000d8
:10190c004e009000de0090009a07020000000000dc
:10191c000002be000401be000800be00b4030200b9
:10192c00000000000002be000404be002e12900055
:10193c001405be004e099000de0990004e00900088
:10194c00de0090009a070200000000000002be00ba
:10195c000401be000a00be00b20302000000000039
:10196c000002be000403be000802be000601be0059
:10197c006e089000fe0890004a2a02000000000049
:10198c000002be002e139000048bbe001e02be008f
:10199c000403be0007f0a2002e1290001400be003b
:1019ac001e02be000601be004a2a02000000000012
:1019bc000002be002e139000048bbe003e1290005d
:1019cc001404be004e099000de0990006e009000d9
:1019dc00fe0090009a070200000000000002be000a
:1019ec000401be000800be00b403020000000000a9
:1019fc000002be000404be003e1290001405be009e
:101a0c004e099000de0990006e009000fe009000e0
:101a1c009a070200000000000002be000401be0094
:101a2c000a00be00b2030200000000000002be006b
:101a3c000403be000802be000601be000e1090009a
:101a4c009e1090004a2a0200000000000002be0016
:101a5c003e139000048bbe002e029000be0290003c
:101a6c000403be0007f0a2003e1290001400be005a
:101a7c002e029000be0290000601be004a2a02000f
:101a8c00000000000002be003e139000048bbe005c
:101a9c002e1290001403be003e1290001402be00e1
:101aac000401be000600be009a0702000000000000
:101abc000002be0005f0a10018c0b3000e09900092
:101acc009e0990000400be00fe050200000000000c
:101adc0000027800e00f520001003c000044eb00d3
:101aec00e04f54006d0032002e1290001402be0024
:101afc0018c0b3006011b8000400be00fe0502005f
:101b0c000000000000027800e00f520001003c00d1
:101b1c000044eb00e04f54002f0032004e099000bf
:101b2c00de0990004e009000de0090009a07020043
:101b3c00000000000002be002e099000be099000bb
:101b4c000400be00b4030200000000000002be004e
:101b5c000405be004e099000de0990004e00900076
:101b6c00de0090009a070200000000000002be0098
:101b7c000401be002e089000be089000b2030200c3
:101b8c00000000000002be000404be003e129000e3
:101b9c001402be0005f0a1000401be000e08900066
:101bac009e08900076050200000000000002be00b6
:101bbc000403be000a02be000801be000600be00ff
:101bcc004a2a0200000000000002be002e13900002
:101bdc00048bbe00310037004e099000de099000e6
:101bec004e009000de0090009a07020000000000fa
:101bfc000002be002e099000be0990000400be0039
:101c0c00b4030200000000000002be000405be0088
:101c1c004e099000de0990004e009000de0090000e
:101c2c009a070200000000000002be000401be0082
:101c3c002e089000be089000b203020000000000c5
:101c4c000002be000404be000e0a90009e0a900022
:101c5c000403be0007f0a2003e1290001402be0066
:101c6c0005f0a1000401be000600be0076050200ce
:101c7c00000000000002be000403be000a02be0009
:101c8c000801be000600be004a2a02000000000047
:101c9c000002be002e139000048bbe004f05be0048
:101cac004f04be000080fa00000006001000fa008d
:101cbc0054d1810065d18100048fbe0074d18100a4
:101ccc0085d18100240798003507980094d18100b4
:101cdc00a5d181004407980055079800b4d1810024
:101cec00c5d181006407980075079800ec02470085
:101cfc00680247002e019000be0190001e00be003d
:101d0c00d7fe07004e029000de02900094d18900ad
:101d1c00a5d189006e029000fe029000b4d189001a
:101d2c00c5d189000080fa00000006000600fa0008
:101d3c00889fbe008a9fbe00000f78001107980094
:101d4c002207980034d08100cfa2de00460020008c
:101d5c0007002000860f5200878f5a0033003e0088
:101d6c000460010004003700100037001900370030
:101d7c0022003700260037001e0390006022b800b6
:101d8c00048bbe002e0390006022b800048bbe00b2
:101d9c0024a3230025b023003504be002505be0076
:101dac00089abe000a92be00200037002e01900057
:101dbc009e0090001e007800660007001440800012
:101dcc00e00f520018003200f62c02000000000058
:101ddc001600370014408000e00f52000200320061
:101dec00a02c0200000000002e0190009e0090002c
:101dfc001e007800110007000c0037002e01900027
:101e0c009e0090001e007800ac0107000700370010
:101e1c002e0190009e0090001e007800e901070042
:101e2c000000000001003700000000004f05be005c
:101e3c004f04be000080fa00000006000e00fa00fd
:101e4c0040079800510798006207980024a32300cc
:101e5c0020b023005403be004402be005001be005b
:101e6c004000be004e180200000000008fff07006b
:101e7c0094d18100a5d181000401be00a0a3230050
:101e8c008c1a020000000000b4d18100c5d1810081
:101e9c000401be0020a723008c1a020000000000e1
:101eac004e02900074029000f402900064029000c4
:101ebc000401be00a0a32300a21a0200000000002f
:101ecc004e02900074029000940a9000040a900054
:101edc000401be0020a72300a21a0200000000008b
:101eec00a0a32300221c0200000000000002be0080
:101efc00048fbe0020a72300221c0200000000005b
:101f0c000002be0024079800350798002e019000af
:101f1c00be0190001e00be00b203020000000000d3
:101f2c000002be005e039000048bbe002e019000e8
:101f3c00be0190001e00be00b403020000000000b1
:101f4c000002be006e039000048bbe000080fa00fd
:101f5c00000006002a00fa00889fbe008a9fbe007f
:101f6c0020179800311798004217980044d0810030
:101f7c0055d08100040f9800150f980066d0810091
:101f8c0077d08100260f9800370f98002e12900002
:101f9c00740290001403be00460f9800570f98006f
:101fac002e1290007402900024039000b403900051
:101fbc00660f9800770f98004e099000de0990008c
:101fcc000e0890009e089000b20302000000000072
:101fdc000002be000404be004e099000de09900011
:101fec000e0890009e089000b20302000000000052
:101ffc000002be000401be000800be009a070200e9
:10200c00000000000002be000404be006e09900037
:10201c00fe0990002e089000be089000b20302004a
:10202c00000000000002be000405be006e09900016
:10203c00fe0990002e089000be089000b20302002a
:10204c00000000000002be000401be000a00be0039
:10205c009a070200000000000002be000401be004e
:10206c000800be00b4030200000000000002be0025
:10207c000400be00d8080200000000000002be00f0
:10208c00048fbe004e099000de0990000e089000ef
:10209c009e089000b2030200000000000002be0087
:1020ac000404be006e099000fe0990002e089000fa
:1020bc00be089000b2030200000000000002be0047
:1020cc000801be000400be006e0402000000000007
:1020dc000003be002e12900074029000d4029000f7
:1020ec00440290000401be000600be00b2030200d0
:1020fc00000000000002be000400be00d62a020050
:10210c00000000000002be0024079800350798006c
:10211c00c4972d0005ea23000417980015179800a2
:10212c00a4d08100b5d0810018c0b3001e01be0040
:10213c000400be00fe050200000000000002780052
:10214c00e00f520001003c000044eb00e04f540053
:10215c00090032001400200004d189003e139000c5
:10216c006022b800048bbe004e1390006022b800b1
:10217c00048bbe00cd00370014d8810025d8810017
:10218c0018c0b3006011b8000400be00fe050200c8
:10219c000000000000027800e00f520001003c003b
:1021ac000044eb00e04f5400270032002e02900058
:1021bc00be0290000404be0009f0a100b2fd200094
:1021cc0093fc23000e1090009e109000b4030200ac
:1021dc00000000000002be001ac0b3000401be00e3
:1021ec000800be00fe05020000000000000278009e
:1021fc00e00f520001003c000045eb00e04f5500a1
:10220c00370032001e02be0005f0a200048fbe0093
:10221c00b2fd2000930424002e009000be0090001c
:10222c00b4030200000000000002be000400be0067
:10223c00d62a0200000000000002be00240798000d
:10224c0035079800260037002e029000be02900041
:10225c000404be0009f0a1000e1190009e11900024
:10226c00b0fd200091fc2300b2030200000000002e
:10227c000002be001ac0b3000401be000800be007c
:10228c00fe0502000000000000027800e00f520082
:10229c0001003c000045eb00e04f550010003200ff
:1022ac001e02be0005f0a200048fbe00b2fd20008d
:1022bc00930424002e009000be009000b403020092
:1022cc00000000000002be000400be00d62a02007e
:1022dc00000000000002be0024079800350798009b
:1022ec001e02be0005f0a10018c0b300d2cc2c0019
:1022fc00c3dc23000400be00fa050200000000004d
:10230c0000027800e00f5200010035000044eb00a1
:10231c00e04f540037003200c4d08100d5d081008a
:10232c001e01be000400be009a070200000000005f
:10233c000002be000404be002e029000be029000fb
:10234c0005f0a10032982f0023f223000400be00f8
:10235c009a070200000000000002be000401be004b
:10236c000000200001f82300b2030200000000006e
:10237c000002be000401be000800be009a07020065
:10238c00000000000002be004407980055079800aa
:10239c00c4d08100d5d0810002002000031a240093
:1023ac000400be009a070200000000000002be00fc
:1023bc002e019000be0190000400be009a0702009e
:1023cc00000000000002be000403be001e02be009e
:1023dc0005f0a1000401be000600be009a07020031
:1023ec00000000000002be0064079800750798000a
:1023fc0018003700c4d08100d5d081001e01be006a
:10240c000400be009a070200000000000002be009b
:10241c004407980055079800c4d08100d5d081009e
:10242c000401be000400be00b40302000000000062
:10243c000002be002e019000be0190000400be0000
:10244c009a070200000000000002be00640798001a
:10245c00750798004e029000de02900054d189005e
:10246c0065d189006e039000fe03900076d189003f
:10247c0087d189004e119000be1090002e10900054
:10248c006efe070014408000e00f5200070032007f
:10249c001e02be0014d1890025d189002e039000a4
:1024ac00be03900036d1890047d189004f05be008c
:1024bc004f04be000080fa00000006000e00fa0077
:1024cc00881f780040079800510798006207980011
:1024dc0086d5810097d581004e0290007402900041
:1024ec00d4029000440290000401be000600be001d
:1024fc00b2030200000000000002be000400be0097
:10250c00d62a0200000000000002be00048fbe00ac
:10251c001e02be0005f0a10018c0b300a2702d0071
:10252c0033ca23000400be00fa05020000000000bc
:10253c0000027800e00f5200010035000044eb006f
:10254c00e04f5400090032001400200084d78900a9
:10255c005e0390006022b800048bbe006e039000f6
:10256c006022b800048bbe00130037001e02be00b0
:10257c000401be000400be00b40302000000000011
:10258c000002be0024079800350798006022b800ae
:10259c0054d1890065d189002e029000be029000b2
:1025ac0074d1890085d189006e019000de00900005
:1025bc004e00900021fe07004f0478000080fa00c6
:1025cc00000006000600fa00000f780011079800c2
:1025dc002207980084da8100e00f520007003a00cd
:1025ec001e0390006022b800048bbe002e039000e6
:1025fc006022b800048bbe002c00370074da810016
:10260c006c22b90084027800e4b2230004824200f8
:10261c0085a02300b41a7800a4127800e48242004a
:10262c0064024200b41a7800a4127800e4824200da
:10263c0064024200b41a7800a4127800e4824200ca
:10264c006402420074da810066024200c222dd009c
:10265c00e4b22300048242001402be00a4d089001c
:10266c00b5d089002e0190009e0090001e007800cd
:10267c0038fe070004d18100e00f52000b0032003d
:10268c000002eb0004d1890084da81000402e90025
:10269c0084da890074da810004f0a7000402ea00ed
:1026ac000402e9004f22de0074da89000080fa008f
:1026bc00000006000000fa0034d08100e00f520048
:1026cc0002003a00140020001900370034d08100b9
:1026dc00e10f520002003a0004d1810014003700cf
:1026ec0034d08100e20f520002003a0074d5810010
:1026fc000f00370034d08100e30f520002003a0083
:10270c0084d781000a00370034d08100e40f5200d6
:10271c0006003a0084da810004f0a7000402ea0003
:10272c000402e9004f22de00010037000002eb003a
:10273c00040078000080fa00000006002000fa0077
:10274c00889fbe008a9fbe006022b800048fbe0026
:10275c006022b80024079800350798006022b80062
:10276c0044079800550798000400200005f023004a
:10277c0064079800750798003433230035f3230061
:10278c00040f9800150f98000400200005f023009a
:10279c00240f9800350f9800040020000500240039
:1027ac00440f9800550f9800d4cc2c00c5dc2300a6
:1027bc00640f9800750f98000002eb0054d9890043
:1027cc0064b123006e049000fe0490000e0d900086
:1027dc009e0d9000089abe000a92be00740247003b
:1027ec00e5b12300b41a7800a4127800e482420008
:1027fc0064024200b41a7800a4127800e482420009
:10280c0064024200b41a7800a4127800e4824200f8
:10281c00640242000002eb0074da89000002eb0053
:10282c0084da89000e027800e5b22300b41a78002d
:10283c00a4127800e482420064024200b41a7800c8
:10284c00a4127800e482420064024200b41a7800b8
:10285c00a4127800e4824200640242000e02780066
:10286c00a5b32300b41a7800a4127800e4824200c5
:10287c0064024200b41a7800a4127800e482420088
:10288c0064024200b41a7800a4127800e482420078
:10289c0064024200a4702d0035c2230034da890092
:1028ac0045da8900a4702d0035c2230054da890062
:1028bc0065da89001e240200000000001e0a0200d6
:1028cc0000000000822c0200000000000400200028
:1028dc0005f8230094d78900a5d789004f05be00c1
:1028ec004f04be000080fa00000006000c00fa0045
:1028fc00000f780011079800220798003307980002
:10290c0044079800550798000e02780065af230025
:10291c00b41a7800a4127800e482420064024200e7
:10292c00b41a7800a4127800e482420064024200d7
:10293c00b41a7800a4127800e482420064024200c7
:10294c000080fa00000006000600fa00000f780074
:10295c0012079800230798001e0278001e039000af
:10296c00ae039000068abe000080fa00000006004c
:10297c000600fa00000f7800120798002307980051
:10298c001e0278001e039000ae03900026029800f1
:10299c00370298000080fa00000006000600fa00da
:1029ac00000f780012079800230798001e02780089
:1029bc001e039000ae039000460298005702980048
:1029cc000080fa00000006000a00fa00889fbe0092
:1029dc008a9fbe00000f7800140798002507980006
:1029ec0036079800470798001e0278001e049000d6
:1029fc00ae0490003e059000ce0590006802980051
:102a0c00790298000a0a98001b0a98004f05be002c
:102a1c004f04be000080fa00000006000600fa0019
:102a2c00000f780012079800230798001e02780008
:102a3c001e039000ae039000660298007702980087
:102a4c000080fa00000006000600fa00000f780073
:102a5c0012079800230798001e0278001e039000ae
:102a6c00ae039000060a9800170a98000080fa003e
:102a7c00000006000e00fa00000f78001107980005
:102a8c0022079800330798004407980055079800d0
:102a9c00660798009e0278000e82e800f4824200dd
:102aac00b41a7800a4127800e48242006402420056
:102abc00b41a7800a4127800e48242006402420046
:102acc00b41a7800a4127800e48242006402420036
:102adc000080fa00000006000600fa00000f7800e3
:102aec0012079800230798001e0278001e0390001e
:102afc00ae039000260a9800370a98000080fa006e
:102b0c00000006000600fa00000f7800120798007b
:102b1c00230798001e0278001e039000ae0390005d
:102b2c00460a9800570a98000080fa000000060038
:102b3c000600fa00000f780012079800230798008f
:102b4c001e0278001e039000ae039000660a9800e7
:102b5c00770a98000080fa00000006000000fa00d6
:102b6c000003780064af230086027800b41a780062
:102b7c00a4127800e482420064024200b41a780085
:102b8c00a4127800e482420064024200b41a780075
:102b9c00a4127800e482420064024200060078002d
:102bac000080fa00000006000000fa00889fbe00ba
:102bbc008a9fbe000002780025b023003504be00b9
:102bcc002505be00089abe000a92be0004007800db
:102bdc004f05be004f04be000080fa000000060046
:102bec000000fa0000037800a4b0230086027800ed
:102bfc00b41a7800a4127800e48242006402420005
:102c0c00b41a7800a4127800e482420064024200f4
:102c1c00b41a7800a4127800e482420064024200e4
:102c2c00060078000080fa00000006000400fa009c
:102c3c00c4da8100d5da81000200200003f0230001
:102c4c000400be009a070200000000000002be0053
:102c5c000403be0034d8810045d881000401be00b5
:102c6c000600be009a070200000000000002be0031
:102c7c00048fbe0014d8810025d881001e01be002f
:102c8c000400be00b2030200000000000002be00ff
:102c9c000400be000080fa00000006000400fa00e8
:102cac00c4da8100d5da81000200200003f0230091
:102cbc000400be009a070200000000000002be00e3
:102ccc000403be0034d8810045d881000401be0045
:102cdc000600be009a070200000000000002be00c1
:102cec00048fbe0014d8810025d881001e01be00bf
:102cfc000400be00b4030200000000000002be008d
:102d0c000400be000080fa00000006000000fa007b
:102d1c00ec0b0200000000000080fa00000006002e
:102d2c000c00fa00000f7800110798002207980099
:102d3c00330798004407980055079800a4702d009d
:102d4c0035c22300a4d08900b5d089000002eb0065
:102d5c0004d189000e02780085a02300b41a7800f3
:102d6c00a4127800e482420064024200b41a780093
:102d7c00a4127800e482420064024200b41a780083
:102d8c00a4127800e482420064024200f60b0200b6
:102d9c00000000000080fa00000006000c00fa00a1
:102dac00000f78001107980022079800330798004d
:102dbc0044079800550798000002eb0004d18900e5
:102dcc000002eb0074da89002400200084da890008
:102ddc000e027800e5b22300b41a7800a412780031
:102dec00e482420064024200b41a7800a412780013
:102dfc00e482420064024200b41a7800a412780003
:102e0c00e48242006402420072025700a5b3230020
:102e1c00b41a7800a4127800e482420064024200e2
:102e2c00b41a7800a4127800e482420064024200d2
:102e3c00b41a7800a4127800e482420064024200c2
:102e4c00140c0200000000000080fa0000000600d4
:102e5c001000fa00881f7800000f78001107980006
:102e6c0022079800330798004407980055079800ec
:102e7c00660798007707980018c0b300a2702d0061
:102e8c0033c223006e009000fe009000fa05020091
:102e9c000000000000027800e00f52000100350035
:102eac000044eb00e04f540004003200a4702d00ed
:102ebc0035c22300640798007507980084da8100f6
:102ecc00e00f52001f003a000002eb0004d1890011
:102edc0074da810066024200c222dd00e4b22300f3
:102eec00048242006e039000fe039000068abe002e
:102efc0074da81006c22b90084027800e4b22300f9
:102f0c00848242000e027800b41a7800a412780071
:102f1c00e482420064024200b41a7800a4127800e1
:102f2c00e482420064024200b41a7800a4127800d1
:102f3c00e4824200640242001400200084da89001a
:102f4c002a00370074da810004f0a7000402ea00ba
:102f5c000402e9004f22de0066024200c222dd00bc
:102f6c00e4b22300048242006e039000fe03900042
:102f7c00068abe0074da810004f0a7000402ea009d
:102f8c000402e9004f22de006c22b90084027800b2
:102f9c00e4b22300848242000e027800b41a780056
:102fac00a4127800e482420064024200b41a780051
:102fbc00a4127800e482420064024200b41a780041
:102fcc00a4127800e48242006402420084da810098
:102fdc000402e80084da890084da8100e20f5200ee
:102fec00020034002400200084da8900140c020052
:102ffc00000000004f0478000080fa00000006007a
:10300c000800fa00889fbe008a9fbe00009fbe0089
:10301c000297be000002eb0074d58900a4a2230025
:10302c003e04be002e05be00089abe000a92be00e9
:10303c00000c0200000000004f05be004f04be0053
:10304c000080fa00000006000400fa00008fbe00a9
:10305c000002eb0084d789001e02be0084d58900d3
:10306c0095d589000a0c0200000000000080fa00cf
:10307c00000006000000fa006013020000000000cf
:10308c0000027800040078000080fa0000000600be
:10309c001000fa00881f7800009fbe000297be0047
:1030ac004407980055079800660798007707980022
:1030bc001e03be004e029000de0290000401be0012
:1030cc000600be00b2030200000000000002be00b9
:1030dc0005f0a10018c0b300d2cc2c00c3dc230037
:1030ec000400be00fe050200000000000002780093
:1030fc00e00f520001003c000044eb00e04f540094
:10310c0016003a002e039000be0390006e02900051
:10311c00fe0290000401be000600be00b2030200d5
:10312c00000000000002be0005f0a10018c0b300b2
:10313c00d2cc2c00c3ec23000400be00fe05020020
:10314c000000000000027800e00f520001003c007b
:10315c000044eb00e04f54000d00320055d98100c3
:10316c0024032000848f520001003a00e7fe070080
:10317c0055d9810024032000848f520006003c00a6
:10318c0054d981000402e80054d9890002003700a8
:10319c000002eb0054d989004f0478000080fa003b
:1031ac00000006000800fa00881f7800000f780065
:1031bc0011079800220798003307980094d78100d4
:1031cc00a5d7810018c0b3006011b8000400be0080
:1031dc00f00602000000000000027800e00f520030
:1031ec0001003a000044eb00084278000404a200fd
:1031fc00e04f5200070032002e0390006022b8000e
:10320c00048bbe003e0390006022b800048bbe000d
:10321c00150037001e0190009e00780020b5230099
:10322c00fa240200000000003e019000ae00900065
:10323c0020b523009c0e0200000000006013020069
:10324c000000000000027800e00f5200060032007f
:10325c0034d08100e00f52000200320064d98100aa
:10326c0004000100a9fe07004f0478000080fa005a
:10327c00000006000200fa00000f78001e02780021
:10328c00fa02570009000900351a78004401b10010
:10329c000080fa00000006000600fa00000f78001b
:1032ac0012079800230798001e0278001e03900056
:1032bc00ae039000068abe000080fa0000000600f3
:1032cc000600fa00000f78001207980023079800f8
:1032dc001e0278001e039000ae0390002602980098
:1032ec00370298000080fa00000006000600fa0081
:1032fc00000f780012079800230798001e02780030
:10330c001e039000ae0390004602980057029800ee
:10331c000080fa00000006000600fa00000f78009a
:10332c0012079800230798001e0278001e039000d5
:10333c00ae03900066029800770298000080fa00b5
:10334c00000006000600fa00000f78001207980033
:10335c00230798001e0278001e039000ae03900015
:10336c00060a9800170a98000080fa000000060070
:10337c000200fa00000f78001e027800f4024200ee
:10338c007e0357000b000900b61a78000080fa0083
:10339c00000006000600fa00000f780012079800e3
:1033ac00230798001e0278001e039000ae039000c5
:1033bc00260a9800370a98000080fa0000000600e0
:1033cc000600fa00000f78001207980023079800f7
:1033dc001e0278001e039000ae039000660a98004f
:1033ec00770a98000080fa00000006000600fa0038
:1033fc00000f780012079800230798001e0278002f
:10340c001e039000ae03900006129800171298004d
:10341c000080fa00000006000600fa00000f780099
:10342c0012079800230798001e0278001e039000d4
:10343c00ae03900046129800571298000080fa00d4
:10344c00000006000a00fa00889fbe008a9fbe009a
:10345c00000f78001407980025079800360798008d
:10346c00470798001e0278001e049000ae049000de
:10347c003e059000ce0590006812980079129800d5
:10348c000a1a98001b1a98004f05be004f04be0084
:10349c000080fa00000006000600fa00000f780019
:1034ac0012079800230798001e0278001e03900054
:1034bc00ae03900066129800771298000080fa0014
:1034cc00000006000600fa00000f780012079800b2
:1034dc00230798001e0278001e039000ae03900094
:1034ec00061a9800171a98000080fa0000000600cf
:1034fc000200fa00000f78006011b8001e0078007e
:10350c00afff07000080fa00000006000600fa007a
:10351c00000f780012079800230798001e0278000d
:10352c001e039000ae039000261a9800371a9800dc
:10353c000080fa00000006000a00fa00200798003c
:10354c0032079800430798002e029000240b90003d
:10355c00b40b9000068fbe003e019000ce0190008f
:10356c002e0090000b0007001e01be002e009000e4
:10357c006f0007002e029000b40a9000240a9000fd
:10358c000401be002e009000440007000080fa00e9
:10359c00000006000600fa00889fbe008a9fbe004d
:1035ac00000f780012079800230798001e0278007d
:1035bc0064039000f40390001e027800d40a90007b
:1035cc00440a90000401be000600be009a070200e7
:1035dc00000000000002be000404be001e027800c1
:1035ec00f4029000640290000401be000000200070
:1035fc0001f82300b2030200000000000002be002c
:10360c000405be001e027800b41a9000241a900023
:10361c001e019000ae0190000400be00b203020037
:10362c00000000000002be000401be000a00be0043
:10363c009a070200000000000002be000401be0058
:10364c000800be00b4030200000000000002be002f
:10365c001e037800440b9800550b98001e0278004e
:10366c00b41a9000241a90001e019000ae01900034
:10367c000400be00b2030200000000000002be0005
:10368c001e037800240b9800350b98004f05be00e4
:10369c004f04be000080fa00000006000600fa008d
:1036ac00889fbe008a9fbe00000f7800120798000a
:1036bc00230798001e02780044159000d415900042
:1036cc001e027800d4129000441290000404be0034
:1036dc0009f0a2001e027800f40a9000640a90001f
:1036ec001e019000ae0190000400be00b403020065
:1036fc00000000000002be000403be000a02be006f
:10370c000801be000600be004a2a020000000000ac
:10371c000002be001e037800640b9800750b980025
:10372c004f05be004f04be000080fa0000000600ea
:10373c000600fa00889fbe008a9fbe00000f78002a
:10374c0012079800230798001e027800040b9000c3
:10375c00940b90001e027800b4129000241290007a
:10376c000401be000600be009a0702000000000023
:10377c000002be000404be001e027800940a9000f1
:10378c00040a90000401be000000200001f8230090
:10379c00b2030200000000000002be000405be00df
:1037ac001e027800b40a9000240a90001e019000ba
:1037bc00ae0190000400be00b20302000000000045
:1037cc000002be000401be000a00be009a070200ff
:1037dc00000000000002be000401be000800be0094
:1037ec00b4030200000000000002be001e037800bb
:1037fc0024139800351398001e027800b40a900028
:10380c00240a90001e019000ae0190000400be003e
:10381c00b2030200000000000002be001e0378008c
:10382c0004139800151398004f05be004f04be00fa
:10383c000080fa00000006000200fa00889fbe001b
:10384c008a9fbe008c9fbe00000f78001e0278007d
:10385c001404be001e027800b40a9000240a9000e2
:10386c00d2cc2c00c3e423000400be009a07020053
:10387c00000000000002be000405be001e0278001d
:10388c00d40a9000440a9000d2cc2c00c3f423003c
:10389c000400be009a070200000000000002be00f7
:1038ac000401be000a00be00b403020000000000c8
:1038bc000002be000401be000800be009a07020010
:1038cc00000000000002be000404be001e027800ce
:1038dc0024039000b40390001e027800f40a9000b8
:1038ec00640a90000401be000600be009a070200a4
:1038fc00000000000002be000401be000800be0073
:10390c00b4030200000000000002be000404be006c
:10391c001e02780044059000d40590001e02780029
:10392c009412900004129000d2cc2c00c3e423001b
:10393c000400be009a070200000000000002be0056
:10394c000406be001e027800b412900024129000ef
:10395c00d2cc2c00c3f423000400be009a07020052
:10396c00000000000002be000401be000c00be00fe
:10397c00b4030200000000000002be000401be00ff
:10398c000a00be009a070200000000000002be0000
:10399c000401be000800be00b403020000000000d9
:1039ac000002be000400be004f06be004f05be0064
:1039bc004f04be000080fa00000006000000fa0070
:1039cc00881f78003eaa9700ceaa97000403be0079
:1039dc0007f0a1007eb297008eba970018c0b30012
:1039ec000401be000600be00fa0502000000000043
:1039fc0000027800e00f5200010034000044eb009c
:103a0c00e04f5400130032001eb29700aeb2970084
:103a1c000403be0007f0a1001eba9700aeba9700cf
:103a2c0018c0b3000401be000600be00fa05020077
:103a3c000000000000027800e00f5200010034008a
:103a4c000044eb00e04f5400020032001400200050
:103a5c00010037000002eb00040078004f047800ee
:103a6c000080fa00000006000000fa00c1e1a80086
:103a7c00040e80000420a1000430a100040e880074
:103a8c00040e80000400a1000410a100040e8800a4
:103a9c00c45d2000240e8800c921a800c941a800db
:103aac00c881a800c8a1a800c8c1a900c801a90064
:103abc00c821a900c841a900c45d2000240e8800bb
:103acc000002eb00b40e88000002eb00c40e88006c
:103adc00c0e2a900c962a900c9e2a900c9a2a90053
:103aec00c4e2a900cd62a900cde2a900cda2a90033
:103afc000080fa00000006000000fa00e1a1a80016
:103b0c00040f80000480a1000490a00004a0a00079
:103b1c00040f8800e041a900e021a900e5348000f1
:103b2c0004fe2f00048262008401b300e434880098
:103b3c00e5348000f40f2e008482620004602100c2
:103b4c0005027200e4348800f1a1a800840f800003
:103b5c000480a1000490a00004a0a000840f8800a1
:103b6c00f041a900f021a9000535800004fe2f00ca
:103b7c00048262007401b3000435880005358000ae
:103b8c00f40f2e0084826200049021000502720062
:103b9c00043588000080fa00000006000a00fa00d4
:103bac00881f7800100798002107980032079800aa
:103bbc004307980018c0b3006011b8003e00900095
:103bcc00ce009000fe05020000000000000278000c
:103bdc00e00f520001003d000044eb00e04f5400a8
:103bec0002003200cda2a90001003700cda2a8002e
:103bfc0018c0b3006011b8001e009000ae00900019
:103c0c00fe0502000000000000027800e00f5200e8
:103c1c0001003d000044eb00e04f54000200320074
:103c2c00cde2a80001003700cde2a9001800200069
:103c3c006011b8001e009000ae009000fa05020062
:103c4c000000000000027800e00f52000100350077
:103c5c000004eb00080f7800c45d2000240e8800df
:103c6c0004002000852c240002002000832c2c0052
:103c7c001e009000ae0090004a2a020000000000d6
:103c8c000002be00140798002507980004002000cd
:103c9c00852c240002002000832c2c003e00900078
:103cac00ce0090004a2a0200000000000002be0074
:103cbc0034079800450798001e029000ae02900051
:103ccc0005f0a10002002000031f24000400be0028
:103cdc009a070200000000000002be000400be00b3
:103cec0002060200000000000002be000402780080
:103cfc00b40e88003e029000ce02900005f0a100a8
:103d0c0002002000031f24000400be009a070200da
:103d1c00000000000002be000400be00020602000b
:103d2c00000000000002be0004027800c40e8800ef
:103d3c004f0478000080fa00000006000e00fa0024
:103d4c00881f780010079800210798003207980008
:103d5c004307980054079800650798001800200046
:103d6c006011b8005e009000ee009000fe050200ad
:103d7c000000000000027800e00f520001003d003e
:103d8c000004eb00080f7800180020006011b80048
:103d9c003e009000ce009000fa05020000000000ea
:103dac0000027800e00f5200010035000004eb0027
:103dbc00080f78001e019000ae01900000682900e9
:103dcc0081c1240076050200000000000002be0044
:103ddc000400be0002060200000000000003be004a
:103dec0004d0270005002000c25d20000300200045
:103dfc000600be009e2a0200000000000002be0069
:103e0c0004027800240e880004002000852c240075
:103e1c0002002000832c2c003e009000ce0090006d
:103e2c004a2a0200000000000002be00340798007d
:103e3c004507980004002000852c24000200200077
:103e4c00832c2c005e009000ee0090004a2a0200a9
:103e5c00000000000002be0054079800650798009f
:103e6c00240e800004024200050020000400be0065
:103e7c004a060200000000000003be003e02900053
:103e8c00ce02900005f0a1000401be000600be00a9
:103e9c009a070200000000000002be000200200091
:103eac00832c24000400be007605020000000000f4
:103ebc000002be003407980045079800240e8000cd
:103ecc0004024200050020000400be004a06020065
:103edc00000000000003be005e029000ee029000a5
:103eec0005f0a1000401be000600be009a07020006
:103efc00000000000002be0002002000832c240001
:103f0c000400be0076050200000000000002be00a6
:103f1c0054079800650798003e009000ce00900072
:103f2c0002060200000000000003be0004a02f00e7
:103f3c00050020006011b8000600be009e2a020099
:103f4c00000000000002be0004027800b40e8800dd
:103f5c005e009000ee0090000206020000000000df
:103f6c000003be0004a02f00050020006011b80063
:103f7c000600be009e2a0200000000000002be00e7
:103f8c0004027800c40e88004f0478000080fa0008
:103f9c00000006000600fa00881f78001007980041
:103fac0021079800180020006011b8001e00900036
:103fbc00ae009000fa05020000000000000278003c
:103fcc00e00f5200010035000004eb00080f7800f0
:103fdc001e02780004f0a7000402ea000402e900c3
:103fec004f22de00044278000482fb004f22dd00e9
:103ffc0066168000f5ff270085026300050272003b
:10400c006416880004002000852c24000200200087
:10401c00832c2c001e009000ae0090004a2a020057
:10402c00000000000002be0014079800250798004d
:10403c001e029000ae02900005f0a10002002000cc
:10404c00031f24000400be009a07020000000000b9
:10405c000002be000400be000206020000000000c8
:10406c000002be0004027800b40e88004f047800f1
:10407c000080fa00000006000600fa00881f780095
:10408c001007980021079800180020006011b80054
:10409c001e009000ae009000fe0502000000000023
:1040ac0000027800e00f520001003d000004eb001c
:1040bc00080f78001e02780004f0a7000402ea0042
:1040cc000402e9004f22de00044278000482fb0067
:1040dc00610262004d22dd0066168000f5ff2d00a6
:1040ec00850263000502720064168800040020003b
:1040fc00852c240002002000832c2c001e00900034
:10410c00ae0090004a2a0200000000000002be002f
:10411c0014079800250798001e029000ae0290002c
:10412c0005f0a10002002000031f24000400be00c3
:10413c009a070200000000000002be000400be004e
:10414c0002060200000000000002be00040278001b
:10415c00c40e88004f0478000080fa0000000600ae
:10416c000000fa00153a8000f40b20000483620072
:10417c00640420007505200027742000844b78000f
:10418c00854b7800864b780034358000f401b30001
:10419c00343588005536800004fe2f0004826200fe
:1041ac005400b30054368800153a800004042000f3
:1041bc00050372006404200075052000277420009c
:1041cc00844b7800854b7800864b78000080fa0091
:1041dc00000006000000fa00153a8000f40b2000e5
:1041ec0004836200640420007505200027742000fd
:1041fc00844b7800854b7800864b780035368000f0
:10420c00f40f2e00048262003436880035358000ad
:10421c0004fe2f00048262007400b3003435880061
:10422c00153a800004042000050372006404200089
:10423c007505200027742000844b7800854b78008e
:10424c00864b78000080fa00000006000200fa009d
:10425c00004f780000000000951180000420200021
:10426c0004826200e00f5200fbff3a009e4278008d
:10427c000582fb0004007800a4030200000000008b
:10428c0084b72300144278009e42420084b7230076
:10429c00054a78000080fa00000006000400fa00cd
:1042ac00004f78001147980022479800acff070098
:1042bc0000c0eb00e5ff070000c0eb00e3ff0700c8
:1042cc0084b723008042eb00054a78001e4078003a
:1042dc00deff07001e42900004c2e8000440780094
:1042ec00daff07002e409000d8ff07000080fa008c
:1042fc00000006000600fa002047980021079800ed
:10430c000042eb00044f7800080037009e42780012
:10431c000582fb00ae029000048242001442780039
:10432c0004407800c9ff07001e4fe8002e429000a1
:10433c009e42780084cf5200f4ff39000080fa00ce
:10434c00000006000000fa0084b723001442780035
:10435c0004c2ea0004407800bcff07000000000023
:10436c00d40202000000000000427800e04f52002e
:10437c00fbff3a0097ff07000080fa0000000600e0
:10438c000200fa006e0037008403020000000000f7
:10439c000002780004427800044f7800e4dc8100cd
:1043ac00e50f420006003a001e427800e14f420041
:1043bc0003003a00c4ff2f00e4dc890060003700e2
:1043cc00e4dc8100e40f42000c003a001e4278004d
:1043dc00e14f420009003a00d4ff2f00e4dc8900d1
:1043ec0084b723008042eb00054a7800c4b7230051
:1043fc0015c0b3001542980051003700e4dc810071
:10440c00e30f420006003a00e4ff2f00e4dc8900d1
:10441c009e427800c4b72300054a78004800370054
:10442c00e4dc8100e20f420010003a001e427800ea
:10443c00e54f52000d003e000082eb00e4dc8900e9
:10444c00c4b72300944278001e42780084c2420014
:10445c0084b72300054a78001e42780084c2e90024
:10446c00c4b723001542980035003700e4dc810006
:10447c00e10f420007003a000002eb00e4dc890087
:10448c008e027800c4b7230015037800160298003a
:10449c002b003700e4dc8100e00f520015003500e2
:1044ac00c4b72300144290008482fb00e4dc81003a
:1044bc00848f52000f003400e4dc81000403780088
:1044cc0005b82300850243001e437800864a780015
:1044dc000402e800e4dc890084b7230094427800ed
:1044ec001e42780084c2420084b72300054a78003b
:1044fc0013003700c4b72300144290008482fb00e1
:10450c00e4dc8100848f52000b003a009e4278005c
:10451c0084b723001442780004c26200e04f5200ba
:10452c0005003a0014002000d4db8900b4ff2f00f2
:10453c00e4dc890002003700b4ff2f00e4dc8900c2
:10454c006e0302000000000000427800e04f5200b1
:10455c008dff3a000080fa00000006000200fa000d
:10456c00004f780012c0b30021c0b3001e40780089
:10457c004aff070073ff07000080fa0000000600e6
:10458c000400fa00004f7800114798002247980069
:10459c0022c0b30021c0b3001e4078003fff0700cb
:1045ac001e40900029ff07002e40900027ff0700b7
:1045bc0064ff07000080fa00000006000600fa0005
:1045cc00004f780011479800224798002307980065
:1045dc002e4290000442e80032c0b30084407800c0
:1045ec001e4078002dff07001e40900017ff0700ab
:1045fc00ae0090002e4090003eff070051ff0700d8
:10460c000080fa00000006000600fa00004f780057
:10461c001147980022479800230798002e429000db
:10462c000442e80042c0b300844078001e40780089
:10463c001aff07001e40900004ff0700ae00900018
:10464c002e4090002bff07003eff07000080fa0071
:10465c00000006000200fa00004f780052c0b300c0
:10466c008040eb001e4078000cff070035ff070070
:10467c000080fa00000006000200fa00004f7800eb
:10468c0062c0b3008040eb001e40780003ff0700bf
:10469c002cff07000080fa00000006000200fa0060
:1046ac00004f78009e4278000582fb00cfa2de000e
:1046bc000603200007002000860f5200878f5a0047
:1046cc0036003e0004600100320037003300370032
:1046dc002e0037002d0037002c0037002b00370040
:1046ec002c0037002d0037002a0037002b00370034
:1046fc002a0037002500370024003700230037003c
:10470c002400370025003700200037001f00370039
:10471c001e0037001d0037001e0037001f00370039
:10472c001c0037001d003700180037001700370039
:10473c00160037001500370014003700130037003f
:10474c001400370015003700120037001300370033
:10475c0010003700110037000e0037000f00370033
:10476c000c0037000d0037000a0037000b00370033
:10477c00060037000500370004003700070037003b
:10478c0002003700010037000200370014c0b300ec
:10479c000300370024c0b300010037000042eb00d7
:1047ac00044078000080fa00000006000400fa00c3
:1047bc00881f7800004f7800114798001207980066
:1047cc000002eb00d4db89000e84e8001e40900050
:1047dc00b2ff07000042780088017800044178009d
:1047ec009e4090001e40780074ff07004f04780034
:1047fc000080fa00000006000200fa00004f78006a
:10480c00114798000002eb00d4db89001e40900099
:10481c00a2ff070000427800044178009e409000ff
:10482c001e40780056ff07000080fa0000000600ca
:10483c000e00fa0004572d00040f7800f4732800c2
:10484c00957923001407980025079800f40d2e0085
:10485c00b5e8230034079800450798000002eb00e8
:10486c00540798000002eb00640798009e00780043
:10487c001e019000ae0190003e029000ce0290000e
:10488c0020b523000d0007005e029000ee029000a0
:10489c00e4da8900f5da890061af230020b5230042
:1048ac003e000700a2702d0033ba230020b5230070
:1048bc00420007000080fa00000006000c00fa001d
:1048cc00000f780011079800220798003307980012
:1048dc0044079800550798009e0278000e82e80065
:1048ec00b41a7800a4127800e482420064024200f8
:1048fc00b41a7800a4127800e482420064024200e8
:10490c00940a78008582e8000482e8000080fa00ae
:10491c00000006000400fa00000f78001107980050
:10492c001e0278009e029000050a78001e0290007c
:10493c00cfa2de000400be0044060200000000000e
:10494c000002be000401be000000200001f823009c
:10495c0076050200000000000002be001e03780075
:10496c0014039800250398000080fa00000006004c
:10497c000600fa00000f7800120798002307980031
:10498c001e0278001e039000ae03900036029800c1
:10499c00470298000080fa00000006000400fa00ac
:1049ac00000f7800110798001e0278009e029000fc
:1049bc00750298000080fa00000006000600fa005c
:1049cc00000f780012079800230798001e02780049
:1049dc001e039000ae039000060a9800170a980078
:1049ec000080fa00000006001e00fa00889fbe003e
:1049fc008a9fbe008c1f7800400f9800510f9800c2
:104a0c00620f98004e0a900054029000de0a90004b
:104a1c0004825200cfa2de000400be004406020055
:104a2c00000000000003be004e0a9000a40290009b
:104a3c00140290000401be000600be009a0702009a
:104a4c00000000000002be00048fbe004e0a900061
:104a5c0064029000ee0a900004825200cfa2de00a5
:104a6c000400be0044060200000000000003be006b
:104a7c004e0a9000a4029000140290000401be00a3
:104a8c000600be009a070200000000000002be00f3
:104a9c0024079800350798001e01be002e009000d8
:104aac00be009000b4030200000000000002be0033
:104abc0002002000030024000400be007605020062
:104acc00000000000002be00440798005507980043
:104adc001e01be002e009000be009000b20302002a
:104aec00000000000002be000403be004e0a90004d
:104afc00c4029000340290000401be000600be0007
:104b0c0076050200000000000002be006407980059
:104b1c00750798004e0a9000740290006403900090
:104b2c00f4039000060f9800170f98004e0a90009f
:104b3c0074029000040b9000940b9000260f9800c8
:104b4c00370f98004e0a9000de0b90005702980029
:104b5c004e0a9000ee0a9000650298004e0a9000f2
:104b6c00740690004e0a9000740290001404be006b
:104b7c004e0a90007402900044059000d4059000f9
:104b8c000200200003f023006e009000fe00900055
:104b9c009a070200000000000002be000401be00e3
:104bac000a00be00b4030200000000000002be00b8
:104bbc000400be0072050200000000000002be00ee
:104bcc004e019000de0190000400be009a07020026
:104bdc00000000000002be000401be000800be0080
:104bec00b4030200000000000002be00048ebe00f0
:104bfc004e0a9000740690004e0a900074029000c9
:104c0c0024049000b40490004e0a900074029000aa
:104c1c0044059000d40590000200200003f023000e
:104c2c006e009000fe0090009a0702000000000049
:104c3c000002be000401be000a00be00b403020064
:104c4c00000000000002be000400be00d4080200f8
:104c5c00000000000002be004e019000de0190003a
:104c6c000400be009a070200000000000002be0013
:104c7c000401be000800be00b403020000000000e6
:104c8c000002be0024069800350698004e0a9000db
:104c9c00740490004e0a900074029000d4029000ac
:104cac00440290006e019000fe0190000400be00d2
:104cbc00b4030200000000000002be00440498008f
:104ccc00550498004e0a9000740490004e0a90000f
:104cdc0074029000d4029000440290000400be00c4
:104cec00d62a0200000000000002be004404980016
:104cfc00550498004e0a9000740490004e0a9000df
:104d0c00940a9000040a90000401be004e0090002a
:104d1c00de00900076050200000000000002be00dc
:104d2c0064049800750498004e0a90007404900076
:104d3c004e0a9000940a9000040a90000401be00f0
:104d4c006e009000fe00900076050200000000004e
:104d5c000002be00040c9800150c98004e0a90003e
:104d6c00740490004e0a900074029000f4029000bb
:104d7c00640290000e0990009e0990000400be0091
:104d8c00b2030200000000000002be00240c9800d8
:104d9c00350c98004e0a9000740490004e0a900056
:104dac0074029000940a9000040a90002e0990005e
:104dbc00be0990000400be00b20302000000000017
:104dcc000002be00440c9800550c98004e0a90004e
:104ddc00740490004e0a90007402900064039000da
:104dec00f40390004e0a900074029000940a900014
:104dfc00040a90000401be000600be009a070200df
:104e0c00000000000002be00640c9800750c9800b5
:104e1c004f0678004f05be004f04be000080fa001c
:104e2c00000006000200fa00000f78000080fa0073
:104e3c00000006000000fa000219200021c2b30095
:104e4c0070c0b300dc2302000000000000a02600ac
:104e5c0081012000b22d020000000000421f200042
:104e6c0021c2b30090c0b300dc230200000000009c
:104e7c0000a0260081012000b22d020000000000dd
:104e8c004238200021c2b300b0c0b300dc230200c2
:104e9c000000000000a0260081012000b22d0200bd
:104eac00000000008225200021c2b30010c0b30016
:104ebc00dc2302000000000000a02600810120007d
:104ecc00b22d020000000000421f200001c2b300fe
:104edc0070c0b300dc2302000000000000a026001c
:104eec0081012000b22d020000000000421f2000b2
:104efc0001c2b30090c0b300dc230200000000002c
:104f0c0000a0260081012000b22d0200000000004c
:104f1c000232200001c2b300b0c0b300dc23020097
:104f2c000000000000a0260081012000b22d02002c
:104f3c0000000000221c200001c2b30010c0b3000e
:104f4c00dc2302000000000000a0260081012000ec
:104f5c00b22d02000000000082252000e1c1b30048
:104f6c0070c0b300dc2302000000000000a025008c
:104f7c0021262000b22d020000000000421020006b
:104f8c00e1c1b30090c0b300dc23020000000000bc
:104f9c0000a0250021262000b22d020000000000f8
:104fac0002142000e1c1b300b0c0b300dc23020046
:104fbc000000000000a0250021262000b22d0200d8
:104fcc000000000002192000e1c1b30010c0b300c2
:104fdc00dc2302000000000000202c00b1be2000e9
:104fec00b22d0200000000000080fa000000060054
:104ffc000000fa00a2142000e1c1b30070c0b3009d
:10500c00dc2302000000000000402b00414c20007b
:10501c00b22d02000000000082252000e1c1b30087
:10502c0070c0b300dc2302000000000000a02500cb
:10503c0021262000b22d020000000000e215200005
:10504c00e1c1b30010c0b300dc230200000000007b
:10505c0000a0250021262000b22d02000000000037
:10506c00f20f2000e1c1b30090c0b300dc230200ba
:10507c000000000000a0250021262000b22d020017
:10508c0000000000123b2000e1c1b300b0c0b3002f
:10509c00dc2302000000000000a0250021262000d7
:1050ac00b22d020000000000a20a2000e1c1b300f2
:1050bc0090c0b300dc2302000000000000402b0075
:1050cc00414c2000b22d020000000000021920000b
:1050dc00e1c1b30010c0b300dc23020000000000eb
:1050ec0000a0250021262000b22d020000000000a7
:1050fc0002142000e1c1b300b0c0b300dc230200f5
:10510c000000000000402b00414c2000b22d02009a
:10511c0000000000e2102000e1c1b30010c0b30099
:10512c00dc2302000000000000402b00414c20005a
:10513c00b22d020000000000f20f2000e1c1b3000c
:10514c0090c0b300dc2302000000000000a025008a
:10515c0021262000b22d0200000000000080fa0081
:10516c00000006000000fa0021e3a90004198000e9
:10517c000480a1000490a100041988000419800087
:10518c000450a1000460a1000470a0000419880060
:10519c002063a9002043a8002143a9002203a900f1
:1051ac00141980000480a1000490a1001419880037
:1051bc0025e3a8004519800004fe2f00048262003c
:1051cc000420a0004419880028e3a9002c23a9007e
:1051dc002cc3a9002ce3a9002d03a90091d0230016
:1051ec00d0fb2f00cc0202000000000085a0a9001b
:1051fc0095a0a800540580000440a1000450a00014
:10520c000460a100540588002023a90021e3a80014
:10521c000080fa00000006000600fa002047980003
:10522c00210798000002eb00040f78002e4290003a
:10523c00e14f42000e003a000002eb00040f780030
:10524c000700370045b923001e0278000402420013
:10525c0004824200ae029000050a78001e0fe8009e
:10526c001e027800e30f5200f6ff34000a003700ec
:10527c002e429000e34f520007003e002e42900059
:10528c000482fb0045b92300040242000482420060
:10529c00ae029000050a78000080fa0000000600bb
:1052ac000200fa00004f78000080fa0000000600af
:1052bc003600f800809fbe00849fbe00869fbe0013
:1052cc003400f80000002000a00188000000fa0063
:1052dc0034db81000518800086b6230004024200ee
:1052ec0004024300050a780034db810085b62300f4
:1052fc0004024200048242009402780034db8100f4
:10530c0046b9230004024200040243001402780050
:10531c007e024200848f52000e00360034db810086
:10532c0005b72300040242000482420014027800f4
:10533c00e00f520007003a0034db810005b7230070
:10534c00040242000482420015002000050a780085
:10535c001a00370034db810085b6230004024200ba
:10536c00048242009402780034db810046b92300a9
:10537c000402420004024300140278007e02520030
:10538c00848f52000d00310034db810005b72300ff
:10539c00040242000482420014027800e10f520021
:1053ac0006003a0034db810005b7230004024200fa
:1053bc00048242008002eb00050a780034db810095
:1053cc00cfa2de003600200007002000860f52001e
:1053dc00878f5a001d003e00046001000300370057
:1053ec00080037000d003700120037004519800007
:1053fc0004fe2f00048262006400b300441988008c
:10540c00120037004519800004fe2f000482620050
:10541c007400b300441988000c0037004519800053
:10542c0004fe2f00048262000430a000441988009e
:10543c00060037004519800004fe2f00048262002c
:10544c000400a000441988000000000034db810037
:10545c008402e80044002000110009008402d800f6
:10546c000102780034db890085a0a9000080fa00d5
:10547c003400f9004f03be004f02be004f00be00c7
:10548c003600f900004006000c00fa00881f780076
:10549c00008fbe002207980033079800440798003d
:1054ac005507980018c0b3002e019000be01900063
:1054bc001e00be00fa050200000000000002780089
:1054cc00e00f5200010035000044eb00e04f5400a7
:1054dc00030032002e029000be0290001000370034
:1054ec0018c0b3004e019000de0190001e00be00fb
:1054fc00fe0502000000000000027800e00f5200e0
:10550c0001003c000044eb00e04f5400030032006b
:10551c004e029000de029000010037001e02be0019
:10552c000400be004f0478000080fa000000060062
:10553c000c00fa00008fbe00220798003307980079
:10554c0044079800550798002e029000be02900068
:10555c001e03be00840f5300858f5b0003003d00cb
:10556c002e029000be0290000a0037004e029000fe
:10557c00de0290001e03be00840f5300858f5b007b
:10558c00030034004e029000de0290000100370050
:10559c001e02be000400be000080fa0000000600df
:1055ac000800fa00881f780020079800310798003f
:1055bc002e029000be02900005f0a10018c0b300ae
:1055cc00b2fd2000930424000400be00fa05020082
:1055dc000000000000027800e00f520001003500ce
:1055ec000044eb00e04f5400030032002e02900008
:1055fc00be0290002f003700b2fd2000930c240057
:10560c002e009000be0090004e060200000000002c
:10561c000002be00048fbe0018c0b300b2fd200013
:10562c0093042c001e00be00fa05020000000000ce
:10563c0000027800e00f5200010035000044eb003e
:10564c00e04f540007003200b2fd2000930c240000
:10565c001e00be00b4030200000000000002be00e9
:10566c00048fbe0018c0b300b2fd200093042400c8
:10567c001e00be00fe0502000000000000027800c3
:10568c00e00f520001003c000044eb00e04f5400de
:10569c0007003200b2fd2000930c24001e00be0057
:1056ac00b2030200000000000002be00048fbe0026
:1056bc001e02be000400be004f0478000080fa00f9
:1056cc00000006000000fa00c8e2a800cee2a80024
:1056dc0081e0a9000082eb0064198800a20220007e
:1056ec00d155290000402c007c0302000000000072
:1056fc00d0f52f002603020000000000a2022000bb
:10570c00d155290000402c00740302000000000059
:10571c00e0f62f00de0202000000000051c3200062
:10572c00d0fa2d00c202020000000000c0ff2f00c2
:10573c009e020200000000002535800004fe2f00b0
:10574c00048262002401b3002435880025368000d1
:10575c0004fe2f00048262003400b300243688005b
:10576c000080fa00000006000000fa00c122a80028
:10577c00d062a8006380a8006405800004c0a0006b
:10578c0004d0a00004e0a100640588009660a80085
:10579c008660a9000080fa00000006003600f800c0
:1057ac00809fbe00829fbe00849fbe00869fbe006d
:1057bc003400f80000002000a00188000000fa006e
:1057cc0084e0a900240f800044dc8900a40f800031
:1057dc0054dc890055dc810044dc810003b92300d2
:1057ec00c2b823008500780004007800d8180200a5
:1057fc000000000084dc810095dc810066dc810007
:10580c0077dc81000401be000600be00d41d02003e
:10581c00000000000080fa003400f9004f03be00c5
:10582c004f02be004f01be004f00be003600f90013
:10583c00004006000000fa0087c0a9000080fa00b2
:10584c00004006000000fa0087e0a9000080fa0082
:10585c00004006000000fa008560a9000080fa00f4
:10586c00004006000000fa008580a9000080fa00c4
:10587c00004006000000fa00c442a8008820a900dd
:10588c000080fa00004006000000fa008660a900c3
:10589c000080fa00004006000200fa00000f7800b9
:1058ac001e027800144088000080fa0000000600f8
:1058bc000400fa00100798000002eb00040f7800b7
:1058cc00070037001e0278004222dd009e02900085
:1058dc00048342006022b800048bbe001e0fe80057
:1058ec00f43120009e027800848f5200f5ff3400c2
:1058fc000080fa00000006000000fa000002eb0035
:10590c00144088000002eb002440880060802000d6
:10591c00e7ff070060482100e5ff07006010220048
:10592c00e3ff070060d82200e1ff07000080fa00c7
:10593c00000006000000fa0025408000f431200031
:10594c00848f520024003c002640800014d8810033
:10595c0025d88100c233dd00668020000683430019
:10596c00048bbe002640800034d8810045d88100cd
:10597c000632b000c233dd0066802000068343008f
:10598c00048bbe002740800094d18100a5d18100fa
:10599c000664200006834300c233dd0066802000cd
:1059ac0006834300048bbe0027408000b4d18100e5
:1059bc00c5d181000696200006834300c233dd006a
:1059cc006680200006834300048bbe0024408000c8
:1059dc000402e800244088000080fa000000060061
:1059ec000000fa000080fa00000006000000fa0037
:1059fc00353a800004e02f008482620064092000a4
:105a0c0005027200343a8800253a800004fe2f000b
:105a1c00048262005400b300243a8800243a8000c7
:105a2c000460a1000470a100243a8800000000006a
:105a3c00153a80000402200004826200e00f52003c
:105a4c00fbff32000080fa00000006000000fa00a4
:105a5c00e6ff0700682b02000000000000d02200c7
:105a6c0011132000b22d0200000000003a1d0200ac
:105a7c0000000000821d020000000000a4130200c0
:105a8c00000000000080fa00000006000200fa008e
:105a9c00000f7800070037001e02780014427800cf
:105aac000402fb001e0fe8000400780096030200bd
