:020000040000fa
:080000000002040000000000f2
:020000040000fa
:100008009a0200009a0200009a0200009a02000078
:100018009a0200009a0200009a0200009a02000068
:100028009a0200009a0200009a0200009a02000058
:100038009a0200009a0200009a020000d23e0000d4
:100048009a0200009a0200009a0200002e3f000067
:100058004e3f0000fe3a00009a0200009a0200009b
:100068009a0200009a0200009a020000603f000015
:100078009a0200009a0200009a0200009a02000008
:100088009a0200009a0200009a0200009a020000f8
:100098009a0200009a0200001e3f0000263f00005e
:1000a8009a020000563f00009a0200009a020000df
:1000b8009a0200009a0200009a0200009a020000c8
:1000c8009a0200009a0200009a0200009a020000b8
:1000d8009a0200009a0200009a0200009a020000a8
:1000e8009a0200009a0200009a0200009a02000098
:1000f8009a0200009a0200009a0200009a02000088
:100108009a0200009a0200009a0200009a02000077
:100118009a0200009a0200009a0200009a02000067
:100128009a0200009a0200009a0200009a02000057
:100138009a0200009a0200009a0200009a02000047
:100148009a0200009a0200009a0200009a02000037
:100158009a0200009a0200009a0200009a02000027
:100168009a0200009a0200009a0200009a02000017
:100178009a0200009a0200009a0200009a02000007
:100188009a0200009a0200009a0200009a020000f7
:100198009a0200009a0200009a0200009a020000e7
:1001a8009a0200009a0200009a0200009a020000d7
:1001b8009a0200009a0200009a0200009a020000c7
:1001c8009a0200009a0200009a0200009a020000b7
:1001d8009a0200009a0200009a0200009a020000a7
:1001e8009a0200009a0200009a0200009a02000097
:0801f8009a0200009a020000c7
:020000040000fa
:100208009a0200009a0200009a0200009a02000076
:100218009a0200009a0200009a0200009a02000066
:100228009a0200009a0200009a0200009a02000056
:100238009a0200009a0200009a020000d23e0000d2
:100248009a0200009a0200009a0200002e3f000065
:100258004e3f0000fe3a00009a0200009a02000099
:100268009a0200009a0200009a020000603f000013
:100278009a0200009a0200009a0200009a02000006
:100288009a0200009a0200009a0200009a020000f6
:100298009a0200009a0200001e3f0000263f00005c
:1002a8009a020000563f00009a0200009a020000dd
:1002b8009a0200009a0200009a0200009a020000c6
:1002c8009a0200009a0200009a0200009a020000b6
:1002d8009a0200009a0200009a0200009a020000a6
:1002e8009a0200009a0200009a0200009a02000096
:1002f8009a0200009a0200009a0200009a02000086
:100308009a0200009a0200009a0200009a02000075
:100318009a0200009a0200009a0200009a02000065
:100328009a0200009a0200009a0200009a02000055
:100338009a0200009a0200009a0200009a02000045
:100348009a0200009a0200009a0200009a02000035
:100358009a0200009a0200009a0200009a02000025
:100368009a0200009a0200009a0200009a02000015
:100378009a0200009a0200009a0200009a02000005
:100388009a0200009a0200009a0200009a020000f5
:100398009a0200009a0200009a0200009a020000e5
:1003a8009a0200009a0200009a0200009a020000d5
:1003b8009a0200009a0200009a0200009a020000c5
:1003c8009a0200009a0200009a0200009a020000b5
:1003d8009a0200009a0200009a0200009a020000a5
:1003e8009a0200009a0200009a0200009a02000095
:0803f8009a0200009a020000c5
:020000040000fa
:10040000af1021000e7f24000e01880000000000c4
:10041000000020000000e000020032000001200087
:10042000200288000c00070080c223000100200089
:1004300011000700000020000000e0000200320070
:1004400000000200000000009040020000000000d8
:100450000040da000000fe004440a90080062000b1
:100460000000e0000300320000002000a00188002e
:100470004440a80000000600910188008000780038
:100480000000eb0015003700e280400032a0b4000d
:100490009101ba00e280400032a0b4009102ba009b
:1004a000e280400032a0b4000002eb00472bde00e7
:1004b000f507b200602ce10004003a000059eb009f
:1004c0008301e900fdff3e00040037006128e100e0
:1004d000010032000082eb00040007001101ba00a5
:1004e0000200e000e8ff3a00000006003159ba00bf
:1004f0008301e9000c0032002159ba008301e900b0
:10050000080032000400e00003003a00e2804000ee
:1005100032a0b400f5ff370011d9ba008301e90019
:10052000faff3a008100e800e180400032a0b40008
:10053000000006000040da000000fe006900e10053
:10054000040035006d00e100030034000002b1003a
:100550000100320000000500100005000a00fa004a
:10056000e20f500022003e0044888000e10f52005c
:100570000600320087232000462320002423200089
:1005800005232000e08f530004003a00872220005a
:1005900046222000242220000522200000002800fe
:1005a0001500600003003a00800b78000700280067
:1005b000958a7300054020009482620001003a0091
:1005c00014a0a0008202780006003700940378008f
:1005d0000710b200fdff3200b103fb00070b7800eb
:1005e0008502e900e08f5200f8ff3a00080037006a
:1005f00034002000c0bf9f00e2bf9f00b4bf9f0037
:10060000d1bf9f006a805700400507006fb997006f
:10061000020078000080fa000000060084e0a900d3
:1006200067026000f5ff28004c22dd0036058000df
:100630008682620068006000850272004300de006e
:100640003505880061006000f4f72f004700dd00e9
:10065000a50480000502620004027000a404880062
:10066000000006000621ef0061088800800888006d
:100670001061a900000006001821ef00e1088800c1
:100680000009880000000600001020003202b600b9
:100690000000e9004f00de00000006008560a900b0
:1006a000670260008580a9004c22dd00f5ff28006c
:1006b0004605800086826200850272000002780092
:1006c000450588000407b20085ff2f004422de00a4
:1006d0005605800086826200850272006802600012
:1006e000550588004322de00f57f2f00610262007d
:1006f000a6048000868262004b22dd000008b20062
:10070000850272004700de00a504880061006000d9
:10071000f4ff2e004c00dd00a504800005026200fd
:1007200004027000a40488000000060087c0a9002d
:100730006702600087e0a9004822dd00f58f2f00e6
:1007400096058000868262008502720000027800b1
:10075000950588000407b200f5ff28004822dd0057
:100760009605800086826200850272006802600041
:10077000950588004322de00f5ff2b006102620030
:10078000b6048000868262004e22dd000008b200be
:10079000850272004700de00b50488006100600039
:1007a000f4ff27004f00dd00b50480000502620061
:1007b00004027000b404880000000600901180005c
:1007c00061406000000006004211880000118800ae
:1007d0001111880000000600c211880080118800f5
:1007e000911188000000060004118000660262007a
:1007f000e60f520002003a003011800000000600af
:1008000030118000f00fb20000000600841180005b
:1008100066026200e60f520002003a00b01180004a
:1008200000000600b0118000f00fb20000000600ca
:100830008411800066026200e60f5200010032005f
:10084000f00fb200a01188000000060003f0a20023
:10085000889fbe008a9fbe008c1f7800d7010700ca
:10086000de0133006450e1004f0032006420e100fb
:100870005200320003826c0007003b000905d000e3
:100880000306d000820f54000c065d000200390000
:100890000200320089017800030678008582550045
:1008a00004003d000003fd008103fd008502ea0015
:1008b0008b854200840f720002003b006000100034
:1008c000e08018006011b8000005eb007a28e10014
:1008d0000a00390006007800c75ddd00f707b200a6
:1008e000878075002d003700828171000a01780031
:1008f000610560008180d1000080d3008502e9009d
:10090000f9ff3b00060440008784480002003b00da
:1009100060041400e0841c000988a3000700320072
:100920008a81710082817100610164008904d100b3
:100930000884d3008b05e800170037000978a3006e
:1009400013003a000b00e000130034008b05e900af
:100950000804440089844c000a4474000978a30008
:100960000d003a000b00e000070034008b05e900a1
:100970000804440089844c0001003a000b00200068
:100980000978a300f7ff32000001eb0002003700f6
:10099000828171000a0178004d0107000cf0a70068
:1009a00001f0a000960137006420e10002003a0047
:1009b000838f6c00960133000801be000200be0068
:1009c0008f013700889fbe008a9fbe008c1f780071
:1009d0007a0107001002200002003b00004088005e
:1009e0007e0137008a0062006408e10002003a00dc
:1009f00000408800860137006108e100fcff3200fa
:100a00000800be00030478007200070001f0a10096
:100a10000900070008f0a600040037000001be002e
:100a200091042400b0fd200088ff070009f0a70012
:100a300001f0a20072013700889fbe008a9fbe00ad
:100a40008c9fbe000004be00470107000800be00e6
:100a5000890678006420e1000800390004003200b3
:100a60000160a000120220000240880053003700fd
:100a700091fc2300b0fd20004e0037000006eb0083
:100a800009f0a10003f82300020020000800be00c6
:100a9000920007000600340001f823000000200047
:100aa0000801be004b0007000004be002c0020001f
:100ab0000800be0093e82300320a230087000700e5
:100ac000120034000801be00d1fd2300703d2b0050
:100ad0005fff07000005be00b3f32300f27a260093
:100ae0000800be004d01070003f8230002002000ab
:100af00056ff07000801be0055ff07000a01be00af
:100b0000340007000004be000c06e8000800be0028
:100b100001f0a10002002000039823006f000700ed
:100b20000800be00160035000801be003b010700aa
:100b30000005be0032cd2c0043fb230044ff07001c
:100b4000809fbe001269280003d52b000a00be005a
:100b500032010700620f210013ef2b003cff07005a
:100b60000a01be002d0107004f01be001900070059
:100b70000801be00290107000801be0034ff07007c
:100b80000c00e0000b0032000c10a70001f0a200e6
:100b9000b2fd200093fc23006260e10004003200fb
:100ba00022a9200063f023000c10a70063f82300a3
:100bb00027ff07000df0a70001f0a2004f06be00be
:100bc0004f05be004f04be00000006000081eb0090
:100bd00046013700889fbe008a9fbe008c1f7800a8
:100be000f6000700fd00330003866c006450e1004e
:100bf0002e0032006420e100330032006150e10039
:100c00002f0032006120e10031003200858555005f
:100c1000eb07b000090020000804200005003700a1
:100c20000804440089844c000a0031000603430094
:100c300087834b000001530081815b00f8ff330084
:100c40000203be000800a0000804440089844c0090
:100c5000f6ff3900c639dd00830173000100320060
:100c6000130020008904d1000884d3000998a30050
:100c7000050032000800a7000300a0008904d1008d
:100c80000884d3008b05e8008904d1000884d300d0
:100c90000001eb000281d2008d00070001f0a100ed
:100ca0000cf0a70001f0a000d50037006420e1009f
:100cb000d70032000801be000200be00f7ff370077
:100cc0006120e100d20032006000b800f3ff37007d
:100cd0000000200001f82700f0ff3700140020007a
:100ce000a2013700f4ff2f00a00137000001be0071
:100cf0009d0007000470a70003f0a1006509b10082
:100d0000160032000d0035006828e10006003500ad
:100d1000f0ff2f00f1ff27000300e00013003b006d
:100d2000010028000000050000004000818048000c
:100d30008502e900fcff3a0008003700f88f420006
:100d400002003c008000eb00000005008100d100a3
:100d50000080d3008502e800fcff3a000300e000b9
:100d600002003b0060001000e08018000000060058
:100d70004f89de0082017800970137006011b800ca
:100d8000a50137000400200000003700889fbe0046
:100d90008a9fbe008c1f78004f26dd008700070069
:100da0008e0033006120e100430032006250e10018
:100db00041003e003e0039006420e1003c0032006a
:100dc000058255000f003b000402e80038003a009d
:100dd000800f5300818f5b00350034000800be0097
:100de00003f0a10001f0a60003f0a0000cf0a700a2
:100df00097fe0700820037000603430087834b00fd
:100e00000c4646000005530081855b00020033005c
:100e10000a03be000c00a0000402e900f6ff3b003c
:100e2000850578000602430087824b0004003a00e3
:100e30006000b80009f0a70001f0a00070003700c2
:100e40000002520081825a000704e00004003300cf
:100e50000603430087834b008b05e900faff370048
:100e6000090578000604be000203be006011b80048
:100e700017000700e00f5200e08f5a00070035000e
:100e800002003c000c08a300040032000601be0072
:100e900003f0a0000cf0a7006dfe07000a856800b3
:100ea00001f0a1000af0a70001f0a00054003700f3
:100eb0000800be0052003700100220000cf0a6000f
:100ec000004088005200370004002000270137004e
:100ed00081002000618055000b003d000b002000c8
:100ee00061fe2f000100e1001d00340082817100cd
:100ef000610164008904d1000884d3000000e80087
:100f0000faff3a00710020006100640003007000e5
:100f1000020060000900320061044400e0844c00db
:100f20000988a500050032008b05e8006808e1008b
:100f300002003a008904d1000884d300f20f200097
:100f40000258e10005003d00c75ddd00f907b20071
:100f50008980750008007800000006000bf8270063
:100f60008b00780000000500c70ade00f107b20020
:100f7000f50fb20008003200e1cf4200020032005b
:100f80000170a00024000500810f700001003200f4
:100f90000408050044000500810f700002003a00bb
:100fa000140005008502e9000000400081c04800ef
:100fb000fcff3b000170a000240005000004be00ff
:100fc000e9ff07000003be000405be000200be00ea
:100fd000e5ff0700844f7500000006000200be0018
:100fe0006450e100050036006420e1000200360094
:100ff0000968a30001003a000800be000160a000db
:101000004f0678004f05be004f04be0000000600ea
:10101000f0ff2f00f1ff2700f9ff3700889fbe0087
:101020008a9fbe008c1f7800e4ff0700ebff3300af
:1010300003866c006450e100240032006420e1006b
:10104000270032006150e100220032006120e100ff
:10105000210032008b854200eb07b1000134b8005b
:10106000003ab8000804420089844a00013ab800f6
:101070000030b8008880400009014a0004003300b5
:101080000000400081804800020149008b05e90012
:10109000c909dd0083017000010032001300200047
:1010a000c814de004814dd004709de001200b2005b
:1010b000c808de000884700085ff070001f0a10069
:1010c0000cf0a70001f0a000cdff37006120e10087
:1010d000cfff32000801be000200be00f7ff37005c
:1010e0006150e100fcff3a00c9ff3700889fbe0055
:1010f0008a9fbe008c9fbe00820578000004be005f
:1011000099ff07000800be006420e10007003900d5
:1011100002003a00f1ff2700f0ff2f000160a0005d
:101120001202200002408800550037006120e100d3
:1011300003003a000b00a70001f82300500037001d
:1011400001f0a1000200210093642400e3fe0700e7
:101150000800be0004003500b2fd2000930c2400fe
:1011600008ff07000004be000005eb000b00a6000e
:101170004f0dde0001f0a1000004be0032982f00e8
:1011800023ea2300a5ff07000001eb0003f0230082
:101190000b00a70003f82300adfd0700d3fe0700f6
:1011a0000000a7000a00a200f1fe07000b00e0000b
:1011b000030032000200200003f02300a3fd07001b
:1011c00001f0a2000006be000200200093042400eb
:1011d00092ff07000801be009dfd0700809fbe0032
:1011e0000c00be0022a22a00d3a723008bff070019
:1011f0004f01be0096fd07000004be0001f0a100f3
:101200000200200003982300b4fe07000800be007f
:10121000190035000001be0080ff07000006be0077
:10122000b2c52900e36223007cff070022222b00c5
:10123000f3942b0086fd07000c01be0077ff07002a
:10124000e273280083c0230081fd07000c01be006b
:1012500072ff070042aa2a00a3e22b007cfd0700d0
:101260000c01be006dff07000801be006bff070008
:101270000801be0076fd07000a00a70001f0a200e9
:101280004f06be004f05be004f04be000000060022
:101290000001eb0095ff3700889fbe008a9fbe00cb
:1012a0008c1f78000004be002fff07000478a30005
:1012b00026003a006120e1002500320009f8a30071
:1012c00025003a006420e10021003200f507b1005a
:1012d0000508a300020032000000400081804800a1
:1012e0006044b8000310200002002000000040000d
:1012f000818048000805440089854c000a054100aa
:101300008b8549000a0550008b8558000300330087
:101310000a00be0002047400838474008301d100bb
:101320000281d300830f7100f0ff3a008904d100dd
:101330000884d3006001490082017800c1adde005d
:10134000fb07b000e2fe07002dff37000960a00098
:101350000800be002aff3700120220000240880069
:10136000f0ff2f00f1ff270025ff3700889fbe0008
:101370008a9fbe00841f780010ff07004f0078008e
:1013800011003300f0ff2f00838f6c0006003b003c
:10139000040565000a00a7000800370009f0a60050
:1013a0001000200008003700820f5400838f5c007b
:1013b000030039001000200001003e000000200062
:1013c00009f0a7000000ea004f05be004f04be0070
:1013d0000000e00000000600881f78000304780089
:1013e0000300e00007003d0060001000e0801800ee
:1013f00060011900e081190002003b0001f02d009e
:10140000030037000400070008f0a70001f0a00067
:101410004f04780000000600889fbe008a9fbe002f
:101420000082700004027100048271002600320004
:101430000004be000200be006011b8006b0920006d
:10144000950220000182cf000a0039000541b10059
:101450000082cf00070039000541b1000982cf00aa
:10146000040039000541b1000882cf0001003900b5
:101470000541b10005425200120032000a003b0053
:1014800082817100610164008100d1000080d3007d
:101490008984d3000884d3008b05e8000442e80067
:1014a000f7ff3a00070037000804440089844c0025
:1014b00000004800818048008b05e9000442e900f3
:1014c000f9ff3a0082fe07004f05be004f04be0040
:1014d00000000600ea874700889fbe008a9fbe0082
:1014e000810578008c9fbe008e1f7800e08f55002c
:1014f00001003200800d7800000578008a04780031
:10150000090578003a06fb000c0078000bfc070088
:10151000e00f5000f9ff3a00d4022000840f56007b
:1015200003003a008a04780018c0b30005003700b1
:1015300000447800b4022000840f560001003a00f5
:101540008a0478008006eb006000b8000d05780082
:101550000ecdb300e4c2b300010037008904e800f7
:10156000890278007003640004003a00994f120069
:1015700002003a000844a000f8ff3700194678003e
:101580000c03fb000603b100e90f530017003e00f7
:101590000814a0008802fb00e98f56000f003200fb
:1015a000f0826200010032000a05e900e4b79f0002
:1015b000a2002000030020008d06e800650107005e
:1015c0000e4346006fb297000683fb000700200021
:1015d0000000430081804b00e0ff3700f082620092
:1015e000deff3a000a05e800dcff370054c6b3000e
:1015f000844f5600040032008006eb0054c4b30050
:10160000844f56002e003a0059427800d5c2b300ec
:10161000854f520002003a000834a0000300370052
:10162000b5c2b300854f520001003a008904e800ba
:1016300007c3b300890278008504780004c3b300af
:1016400039437800874f5300faff32008603fb00ce
:101650008006eb000703b100e98f530015003e0040
:101660008902780084465300154378008d86fb007c
:101670008603fb000703b100e98f53000d003e0015
:101680006a69b90084465300554378008d86fb0093
:101690008603fb00828646000703b100e98f5300f2
:1016a00004003e006a69b900844653008d86fb0041
:1016b0008286460068026400010032008d06ea005e
:1016c000e08f550003003200620264000100320026
:1016d000850d7800a6fd07006011b8000002be006d
:1016e0000003be00e4b79f00d5b79f00f4b79f008a
:1016f00087bf9f0079fd07006fb297000001780057
:10170000dfb297006000b8007fb397008fbb9700ef
:10171000e00f5100600032000a85460032f82f00c9
:10172000820f550003003d00240220000440880081
:101730005900370000082000800f550007003400d2
:101740002402200061046400044088004d0032003f
:101750000000200001f82f004f003700e00f550077
:101760001f003d000a05ea00060037000400be0025
:10177000922f2000530125006a05550015fd070032
:101780000002be00e90f5500f8ff3c0006003700dc
:101790000400be0002002000031224000a05e90034
:1017a0000cfd07000002be00e00f5500f8ff3a00f4
:1017b0000403be00020020000308200087bf9f0032
:1017c0000400be00f4b79f0044fd07007fb39700fc
:1017d0008fbb9700e00f500025003d001f00370031
:1017e000e00f550007003a00210037000400be005a
:1017f000922f2000530125006a05550007fe0700bf
:101800000002be00e94f5500f8ff3e000600370019
:101810000400be0002002000031224000a05e900b3
:10182000fefd07000002be00e00f5500f8ff3a0081
:101830000403be00f2ff2f00f3f7270087bf9f00cd
:101840000400be00f4b79f0026fd07007fb3970099
:101850008fbb9700e00f5000050034006104640066
:101860000b00320000002000010828000a003700a9
:10187000610464000100320007f0a2000600be000f
:10188000050037000000200001f8270002003700a3
:1018900000002000010820004f0778004f06be001e
:1018a0004f05be004f04be00af00b10000000600af
:1018b00008ff37008000eb0006ff3700a009210079
:1018c0000000fa0068815700cfb8970006020700b1
:1018d0000080fa0000000600a00921000000fa00c4
:1018e00068815700cfb89700ff0107000080fa0019
:1018f00000000600889fbe00010478008084eb0091
:1019000038029000e20262003b00320004037800db
:10191000980290000620b20002003a00e08f5200c8
:1019200035003a000490a000800478003404980048
:10193000f90fb200e08f520002003a00a8029000b6
:10194000050c7800ea8f540005003a000408b20044
:1019500003003a0088007800d0002000e5ff07006f
:1019600018029000d8029000850f52000b00320040
:101970000402e80015c0b3001404980018027800af
:10198000094a7800040ce80024102100054a780078
:10199000ea8f540018003a0005003700094078002b
:1019a00088007800170007008004780012003700d4
:1019b000380290000410b2000f00320018019000ad
:1019c000a800900048009000e4fa07001802900078
:1019d000840f500004003200380290000403b3006a
:1019e000340498008084eb000002eb00140498009b
:1019f00028029000040c7800090078004f04be0013
:101a0000000006000200fa00889fbe000104780072
:101a1000a0ff9f0038029000840278000504b20005
:101a2000020032000000fb0035003700e2026200d5
:101a300005003a000403b30015049800340498002c
:101a40000080eb002e003700d8049000e08f540097
:101a500006003a0012002000e6805700480090007f
:101a6000befa07001904980023003700a80290006e
:101a7000e08f520008003a00651021000430a000f9
:101a800025049800050c78003404980025002000f7
:101a9000550498001504980018019000a8009000c3
:101aa00048009000adfa0700280290008082eb0009
:101ab00015049800affa9700054a7800040ce80076
:101ac0002ffa9700ea4f52000b003a0038029000bc
:101ad0000410b2000800320018019000a800900025
:101ae000480090009dfa07000002eb00a802900059
:101af00014049800050c78002ffa97000400fb00ee
:101b00004f04be000080fa000000060000c0da00aa
:101b1000000006006022b800060220000000d0008d
:101b20008180d2000482d2008582d2000000a00011
:101b30000202520083825a00030031000202420076
:101b400083824a000000a1000603e900f3ff3a0087
:101b500000000600020ab900001bb9000200b8002c
:101b6000810042008100430000000600889fbe0003
:101b70008a9fbe003004be002005be00040444005d
:101b800085844c0006054d0087854d000898be00f1
:101b90000a90be000440e10005c8e10006d0e10063
:101ba00007d8e10002003100680040001008e8009a
:101bb0004f05be004f04be00000006001000fa00f2
:101bc000889fbe008a9fbe00110020000605be004f
:101bd0000404be003002be002003be00c4b79f0054
:101be000d5b79f00e6b79f00f7b79f0008025200e5
:101bf00089825a000a035b008b835b0084bf9f00cd
:101c000095bf9f00a6bf9f00b7bf9f000498be006e
:101c10000698be004fb29700dfb297006fb39700ef
:101c2000ffb397000820e10009a8e1000ab0e10035
:101c30000bb8e100010039008000eb004f05be0049
:101c4000108810004f04be000080fa00000006005b
:101c50001400fa00889fbe008a9fbe008c9fbe00c1
:101c60000006eb003e000700ccb79f00bcb79f000a
:101c7000acb79f009cb79f008cb79f000605be00c5
:101c80000404be000d0420004fb39700bfb29700bc
:101c9000860343002fb29700e00f530004003d007d
:101ca0003d0007000f004000b0ff070003003700b1
:101cb000390007000f004000c0ff0700cfb29700b7
:101cc00095bf9f00e08f5200090035002b000700f0
:101cd00014002000050020006033b80000007200ee
:101ce0008180720002017300838173001c00070071
:101cf0000c06e8008d0f5600e3ff3a001fba97006c
:101d0000e00f520005003d000802be000a03be00bd
:101d100000fe2f000f00400094ff07004faa97001d
:101d2000e00f520008003a000fb497009fb49700ec
:101d30002fb59700bfb59700d8b79f00e9b79f00b0
:101d4000fab79f008bbf9f000c0007004f06be0034
:101d50004f05be004f04be000080fa0000000600e0
:101d6000010007000000060090b79f00a1b79f0088
:101d7000b2b79f00c3b79f00000006000100070034
:101d8000000006001fb09700afb097003fb197006a
:101d9000cfb19700000006004f2bde00f9ff0700cf
:101da00086837300858242004f23de00a7b79f0021
:101db000868272000402420095b79f00ffaa970036
:101dc0004f2bde00858242000602720084b79f001e
:101dd0006faa97004f23de00040242008682720041
:101de000f5af9f004f18de0000027200e5ff07000c
:101df000e4af9f00000040008180480002014900dc
:101e0000838149000802be000a03be00d6ff070016
:101e100000fe2f0000000600881f78001800200038
:101e2000881f78008aff07008f87e9004f04780039
:101e300000000600801feb0085ff07008f87e90088
:101e400000000600889fbe008a9fbe00e00f500081
:101e5000e08f5800e00f5900e08f59000c003d0062
:101e60006044b8006055b8000000540081805c00f8
:101e700002015d0083815d0018002000150007004d
:101e800008003d00180007000004eb0005003700c3
:101e90000004eb000f00070002003d0012000700e5
:101ea00018002000dcff0700e00f5400060032009d
:101eb0006022b8006033b8000000520081805a00f0
:101ec00002015b0083815b004f05be004f04be0032
:101ed00000000600e00f5200e08f5a00e00f5b00a8
:101ee000e08f5b00000006006044b8006055b80059
:101ef0000402540085825c0006035d0087835d0058
:101f000000000600889fbe008a9fbe008c1f7800dc
:101f1000e00f5000e08f5800e00f5900e08f5900ab
:101f20000d003d006044b8006055b8001c00200062
:101f30000000540081805c0002015d0083815d002f
:101f40000820e10009a8e1000ab0e1000bb8e100b7
:101f50000d003d00080037000006eb00e00f5200c6
:101f6000e08f5a00e00f5b00e08f5b0006003d0051
:101f70006044b8006055b8000402540085825c00db
:101f800006035d0087835d00aaff0700e00f56008f
:101f9000060032006022b8006033b8000000520032
:101fa00081805a0002015b0083815b004f0678004c
:101fb0004f05be004f04be0000000600889fbe0013
:101fc0008a9fbe008c1f78000006eb00e00f5000d7
:101fd000e08f5800e00f5900e08f590007003d00e6
:101fe0006044b8006055b8001c0020000000540098
:101ff00081805c0002015d0083815d00e00f520082
:10200000e08f5a00e00f5b00e08f5b0007003d00af
:102010006044b8006055b8000c00a20004025400ef
:1020200085825c0006035d0087835d000c0007006d
:10203000e00f5600060032006022b8006033b8009e
:102040000000520081805a0002015b0083815b0026
:102050004f0678004f05be004f04be00000006008a
:10206000889fbe008a9fbe008c9fbe000404b800fb
:102070000506b8008904460060854e000606b800d3
:102080000a054600e0854e000706b8008b054600ad
:10209000040eb800890446000a854e00e0854d0014
:1020a000050eb8000a0546008b854e00060eb800e6
:1020b0008b0546000416b8000a0546008b854e00c5
:1020c0000516b8008b054600041eb8008b054600b7
:1020d0000800be000a01be004f06be004f05be004c
:1020e0004f04be0000000600ef03b000889fbe0052
:1020f0008a9fbe008c9fbe00800678008e1f7800ed
:102100000007eb00d1af9f00a2b79f006603370026
:10211000dfa8970054c2b3008100e800d1af9f0050
:10212000844f500006003a00010278000006eb00e0
:1021300001c3b30000c2b300b7c2b3000e00370042
:102140003d0290000404b200040032001d02780039
:10215000004a7800840ee800050037000000fb000c
:102160008d007800e3fd0700e10f40004e033200d0
:102170000e07e8004c03370084027800d2c2b30097
:1021800034437800824f53000900320005003c00c0
:10219000804f530008003200874f53000c003a0074
:1021a00007003700814f530009003a00060037004e
:1021b0000c30a000f0ff37000c00a000eeff37004d
:1021c0000c10a000ecff37000c20a000eaff370045
:1021d00062026600010032000c00a1006802660085
:1021e000010032000c20a1000602fb000403b10034
:1021f000e90f52000c003e00050378000002eb00de
:10220000b603fb006a22b9000703b100860278001a
:10221000048243009603fb000703b100e98f5300db
:10222000f7ff3600080037000002eb00a7c2b3003a
:10223000874f530004003a00afb197008502e800d1
:1022400043027800a3b79f000003eb0096b79f00fe
:10225000e6c2b300954f13000c003a000ce0a0005a
:1022600064435300d54f1300030032000503780088
:102270000000eb0009003700afb397008502e800cb
:1022800047047800a7b79f0098b79f000503780020
:10229000090037006a00b900008043008602780018
:1022a000b603fb000703b100e98f5300f9ff3600c6
:1022b00090b79f00f5ff3700b6427800cac6b3005a
:1022c000d6af9f008acf5200250032000f003c009d
:1022d00036c6b30086cf52009e00320004003c0098
:1022e000e0cf5200f50232006b4353000f0037007d
:1022f00046c6b30086cf5200170032006543430044
:1023000086cf5200b2003a001300370036c7b30040
:1023100086cf52001f00320007003c006443530088
:1023200086cf5200140032000643e80086cf5200e8
:10233000a7003a001300370056c7b30086cf5200fb
:10234000aa0032006343430086cf5200a0003a0047
:10235000e5779f000d003700e5779f00a500370067
:10236000f00366000501200001003200050028008e
:102370000c867200d0ff3700e5779f000c60a0004c
:102380009c003700e5779f000c50a0000c70a00067
:1023900098003700afb59700e5779f00cb02780033
:1023a000abb79f00b5b79f00e08f520002003a0024
:1023b00061082100b1b79f003fb397008002eb0096
:1023c000010037008502e800e6c37a00e0cf530041
:1023d000fcff3a00c5b79f001fb19700e00f510006
:1023e00005003200cfb19700830f51000200310089
:1023f00082027800c5b79f00cfb297000004eb00bf
:10240000850f520001003600050452006806660080
:1024100009c2b3000f003200290037003d029000ce
:102420000404b200040032001d027800094a78005a
:10243000840ee800050037008d00780000022000bf
:102440002cfd0700e10f4000010032000e07e800fc
:102450000804e900e00f5400f0ff3a000084eb00ac
:1024600017003700bd0290000504b20009003200d9
:10247000880278009d03780035437800864b780009
:1024800005047800870ee800e04f53000a003a0088
:1024900011003700880278008d0078003500fb00bd
:1024a00084bf9f000504780012fd07000fba970053
:1024b000e10f4000080032000e07e8000600370078
:1024c0000c027800080678003fb49700cfb497005c
:1024d0005fb59700efb59700890278008504e900a1
:1024e000e08f5200dfff3a00b8b79f00c9b79f00e6
:1024f000dab79f00ebb79f000c04780009c2b30065
:1025000004067800e00f56000f003a00660237001c
:102510003d0290000404b200040032001d02780065
:10252000094a7800840ee800050037008d00780025
:1025300000022000effc0700e10f40000100320024
:102540000e07e8000804e900e00f5400f0ff3a002d
:1025500055023700afb09700700366004104780061
:10256000a1b79f00cfc4de00090578008a05780076
:102570000800be000a01be004800de00c80add00f7
:1025800000807200e0779f00e00f530009003200e6
:10259000e04f500007003200e14f400005003200dc
:1025a00026002000f0779f00887f9f00c6b79f001d
:1025b0000300370017002000c7b79f00f8779f007f
:1025c00078fb2f0008844700b8b79f0082ff3700d0
:1025d00069fb2f001a00200089844700e5779f00df
:1025e000b9b79f00cab79f007bff3700e5779f0010
:1025f0000c0cb3008c027800050cb2003b003a00d2
:10260000e00f560005003d00afb297004501be0047
:102610004500be00a5b79f000f003700f00266001e
:10262000120032002fb497004803be00f69f9f00af
:1026300087a79f00a8b79f0098029000cfaade004e
:1026400095a79f00a5a79f007f9897008fa0970050
:102650001fa19700afa19700b0b79f00c1b79f001f
:10266000d2b79f00e3b79f000b003700afb09700d1
:10267000c102780005047800cfc4de0009057800a7
:102680008a057800a1b79f00b8b79f00c9b79f001f
:10269000dab79f00ebb79f003fb09700cfb097002d
:1026a0005fb19700efb19700e00f5000e08f580046
:1026b000e00f5900e08f590032003d006000b80083
:1026c0006011b8003fb49700cfb497005fb5970092
:1026d000efb597003c00b30008045000898458000f
:1026e0000a0559008b85590022003700e00f56007b
:1026f00005003d00afb297004501be004500be0099
:10270000a5b79f000f003700f002660012003200ec
:102710002fb497008004eb004803be000005eb00d7
:1027200096af9f00a7af9f00b9af9f00caaf9f00b1
:102730001fa89700afa897003fa99700cfa99700bf
:10274000a8b79f00b0b79f00c1b79f00d2b79f0046
:10275000e3b79f000b003700afb09700c1027800cd
:10276000a1b79f0005047800090020000a0020009e
:102770000b002000b8b79f00c9b79f00dab79f00d1
:10278000ebb79f009fb49700e08f54000d003a0014
:102790001a0020003fb09700cfb097005fb19700bc
:1027a000efb197009ab79f00e00f5000e08f5800fc
:1027b000e00f5900e08f5900020032008000eb006a
:1027c00091b79f000c01780005042000020cb200b4
:1027d00082b79f00850f51003400320003003c0097
:1027e000e00f5100080032004800370005082000c3
:1027f0008fb19700858f510014003200050c200026
:10280000858f510041003a00a6f3200015c0b300a7
:102810003600be003601be003fb49700cfb497002b
:102820005fb59700efb597000040e10001c8e100f7
:1028300002d0e10003d8e100330039008542e8000e
:10284000f4cf5200f2ff3a002f00370015c0b3005a
:1028500000012000010020006011b8003fb4970083
:10286000cfb497005fb59700efb597000040e10047
:1028700001c8e10002d0e10003d8e10022003900e4
:10288000490020000000d0008180d2000281d200e7
:102890008381d2008904e900faff3a008542e8000a
:1028a000f0cf5200edff3a001700370015c0b3001b
:1028b00080002000010020006011b8003fb49700a4
:1028c000cfb497005fb59700efb597000040e100e7
:1028d00001c8e10002d0e10003d8e1000a0039009c
:1028e000390020000000d0008180d2000281d20097
:1028f0008381d2008904e900faff3a008542e800aa
:10290000f5cf5200edff3a00e5779f006f75970015
:102910009fb597008a02fb008b8f520002003d009a
:10292000eb779f00040037001fb09700850f500021
:1029300001003d0095b79f00e00f520003003200f8
:10294000e3026600010032000402e90005002400f1
:1029500085026600060032009fb09700810f52008a
:102960000200340001025200010037000002eb00b7
:102970006f7197008001eb008202fb00f3af9f00b4
:10298000850f52000200340085025200f5af9f000f
:10299000640266003b003200e202660061026600eb
:1029a000e08f520011003200bd0290000504b20019
:1029b000080032009d027800b6c2b300e00f52005a
:1029c0000100320006c3e800864a7800850ee80060
:1029d00015003700b0022000e00f52000100320065
:1029e0000080e8008d0078000c003700e00f5200f6
:1029f0000e0032003d0290000404b20005003200d7
:102a00001d02780005c2b300054a7800840ee80074
:102a1000050037008d00780000022000b5fb07009c
:102a2000e10f4000010032000e07e8007faa970086
:102a3000e00f52004f00320008c3b3008404780056
:102a40003d0290000404b200040032001d02780030
:102a5000084a7800840ee800050037008d007800f1
:102a600000032000a3fb0700e10f4000010032003b
:102a70000e07e8008904e900f1ff3a00f9af9f0072
:102a80003c003700ffaa9700e08f5200140032008c
:102a90006802660012003a0008c2b300850478009c
:102aa0003d0290000404b200040032001d027800d0
:102ab000084a7800840ee800050037008d00780091
:102ac000000220008bfb0700e10f400001003200f4
:102ad0000e07e8008904e900f1ff3a00f9af9f0012
:102ae000e202660061026600e08f520011003200cf
:102af000bd0290000504b200080032009d0278007b
:102b0000b6c2b300e00f52000100320006c3e80075
:102b1000864a7800850ee80015003700b0022000d4
:102b2000e00f5200010032000080e8008d007800c4
:102b30000c003700e00f52000e0032003d02900002
:102b40000404b200050032001d02780005c2b30083
:102b5000054a7800840ee800050037008d007800f3
:102b60000002200063fb0700e10f4000010032007b
:102b70000e07e8001fb3970025f320000602e900c6
:102b8000f0046600c223dd000c057800c7a79f0093
:102b90000a02b2006323b900e99f9f00060478008f
:102ba0004322dd00b8a79f0085024200da9f9f0004
:102bb000e5af9f00a30037009fb597000fb09700c7
:102bc0008b05e900010420009bb79f00810f500096
:102bd0007300320003003c00e00f50000800320098
:102be0007e003700040820000fb19700840f5100c9
:102bf00056003200040c2000840f510077003a0088
:102c0000e00f56001f003d00efa997003304be00ff
:102c10002305be003fb09700cfb097005fb197008b
:102c2000efb197000802be000a03be007afc07005d
:102c30000802be000a03be00e0779f000000fb0010
:102c4000cf80de000101780082017800dbfc070004
:102c50003fb29700cfb297005fb39700efb39700f2
:102c60000002520081825a0002035b0083835b00f2
:102c7000b4b79f00c5b79f00d6b79f00e7b79f00c6
:102c80002e003700ef9a9700e08f520022003200aa
:102c90006fab97003fb29700cfb297003604be00eb
:102ca0002605be000400be000801be0084bf9f00d0
:102cb000f5b79f000005eb0096fb07000801be007a
:102cc000e0779f000000fb00cf80de00a1fb070043
:102cd0000fba9700ffb297008aaf9f00000452001e
:102ce00081845a00d8a79f00e9a79f008004eb00c9
:102cf000f9a79f005fa09700efa097007fa1970022
:102d00008fa99700b0b79f00c1b79f00d2b79f00af
:102d1000e3b79f0009003700efa897003fb1970085
:102d200011027800110009000481d800a4002000dd
:102d3000110009000480d800e1779f00ef7197002f
:102d40000343b000e3779f002400370054072100bd
:102d5000df9a9700e08f5200010032004406210004
:102d60003fb09700cfb097005fb19700efb19700e9
:102d70004fa397000603e900050033008301d1004b
:102d80000281d3008180d3000080d300f9ff370097
:102d90006f00600064407800e0779f000f0037000c
:102da0003fb29700cfb297005fb39700efb39700a1
:102db0003fa497000804e900050033008703d10011
:102dc0000683d3008582d3000482d300f9ff370045
:102dd000674262000443b000e4779f003d02900028
:102de0000404b200070032009d0278006f72970061
:102df000844a7800850ee800e04f520007003a0050
:102e000007003700ef7497008d0078000900fb0081
:102e1000b8fa0700e10f4000010032000e07e80099
:102e20004fa59700bfa597006fa8970064055500b0
:102e3000e385550068005000caa79f00bba79f000c
:102e4000e0af9f009fb09700e08f50005aff3a001c
:102e500068066600140032007fa99700e00f510059
:102e60001100340008c2b300820478003d029000d3
:102e70000404b200040032001d027800084a780001
:102e8000840ee800050037008d0078000002200065
:102e900098fa0700e10f4000010032000e07e80039
:102ea0008904e900f1ff3a00dfa997001340780098
:102eb000e0779f00e04f500095fc3a000e0078004c
:102ec0004f0778004f06be004f05be004f04be00fe
:082ed000ef03b1000000060051
:020000040000fa
:102ed8000a530000696300006b20000031200000e5
:102ee8003a200000256400000a53000069630000ce
:102ef8006b200000322000003a200000256400000a
:102f08000a530000696300006b20000033200000b2
:102f18003a200000256400000a530000696300009d
:102f28006b200000342000003a20000025640000d7
:102f38000a0000000000000002430000000000003a
:102f4800b442000000000000fa4400000000000045
:102f5800003f000066660000663f000000000000b9
:102f68002041000000000000b04000000000000008
:102f7800f041000000000000003f0000666600000d
:102f8800663f0000244400004f4e0000453b00000f
:102f98000024000046410000415800003b000000aa
:020000040000fa
:102fa800d800fa000002eb00347288008403200085
:102fb80004024700e579290009000900351a78005c
:102fc8006022b80064279800752798006022b8002e
:102fd800042f9800152f98006022b800242f98001d
:102fe800352f98006022b800442f9800552f98007c
:102ff8006022b800642f9800752f98000400200004
:1030080005f023000437980015379800a4702d00a8
:1030180035c223002437980035379800a4702d0056
:1030280035ca23004437980055379800f48747007d
:103038007482570086032000060347000900090030
:10304800361a78004401b1000e0078000427020007
:1030580000000000f4875700f8874700788257007f
:10306800c5042000850247000b000900351a7800c6
:103078008401b1000e0078008227020000000000e1
:10308800f88757002e329000be3290004e339000e1
:10309800de3390000e007800ec27020000000000ec
:1030a8006011b8000e0078005028020000000000ef
:1030b800460a200006034700247b2900090009006e
:1030c800341b78006022b800449f9800559f9800f0
:1030d8006022b800649f9800759f98006022b8002d
:1030e80004a7980015a798006022b80024a79800a4
:1030f80035a798006022b80044a7980055a7980003
:1031080004002000050a240064a7980075a7980009
:10311800a4702d0035c2230004af980015af9800a5
:10312800a4702d0035ca230024af980035af98004d
:10313800c40620000e024200f4874700f4825700bc
:10314800460a20000603470009000900b61a78005d
:103158004501b100040078000427020000000000c7
:10316800f4875700c40620000e024200f887470083
:10317800f8825700860b2000060347000b00090061
:10318800b61a78008501b100040078008227020091
:1031980000000000f8875700c00620000e0040001d
:1031a8000eaa90009eaa90002eab9000beab900095
:1031b800ec27020000000000c40620000e024200b6
:1031c8006011b800040078005028020000000000d8
:1031d8006022b80044728800557288006022b800e6
:1031e80064728800757288006022b8008472880052
:1031f80095728800f426210035a82300a47288005f
:10320800b5728800d4cc2c00c5fc2300c472880099
:10321800d572880064fd2000e472880064ff2000f5
:10322800f47288000002eb00047388006022b80082
:1032380014738800257388006022b80034738800ee
:10324800457388006022b80054738800657388004d
:103258006022b80074738800857388006022b80003
:1032680094738800a57388006022b800b47388003e
:10327800c573880064fd20005477880064ff20002f
:1032880064778800a4e720001b0009003e1a780034
:103298008e03b10025eb2000c60620000603470078
:1032a8001b000900b61a78000002eb00747788004a
:1032b8006022b800847788009577880064fd200034
:1032c8006479880064ff20007479880044ef200046
:1032d800c5062000850247001b000900351a780042
:1032e8000002eb00847988000080fa0000000600e4
:1032f8000000fa00a4e7200025fc2f008502470003
:103308001b000900351a780024eb2000a5f82f00cf
:10331800850247001b000900351a78000080fa0072
:10332800000006000200fa00000f78001e02780074
:10333800647788000080fa00000006000000fa00a8
:103348000002eb00347288000080fa0000000600da
:103358000000fa0014002000347288000080fa008f
:10336800000006000000fa002400200034728800e3
:103378000080fa00000006000000fa003400200077
:10338800347288000080fa00000006000000fa008d
:1033980044002000347288000080fa000000060013
:1033a8000000fa0094738000a57380000400be003a
:1033b8000080fa00000006000000fa00b4738000e4
:1033c800c57380000400be000080fa0000000600fb
:1033d8002800fa00889fbe008a9fbe00600f9800f0
:1033e800710f980002179800131798002417980077
:1033f80035179800b47f8000c57f8000048fbe0019
:10340800d67f8000e77f800026079800370798005e
:10341800f47f8000058080004407980055079800d5
:10342800168080002780800066079800770798003c
:103438003480800045808000040f9800150f9800a4
:103448002e1290001403be00260f9800370f980024
:10345800a4702d0035c22300440f9800550f980022
:103468002e1290001404be004e099000de09900050
:103478004e009000de0090000e08020000000000e0
:103488000002be000401be000800be0028040200bd
:10349800000000000002be000404be002e129000ce
:1034a8001405be004e099000de0990004e00900001
:1034b800de0090000e080200000000000002be00be
:1034c8000401be000a00be0026040200000000003d
:1034d8000002be000403be000802be000601be00d2
:1034e8006e089000fe089000483d020000000000b1
:1034f8000002be002e139000048bbe001e02be0008
:103508000403be0007f0a2002e1290001400be00b3
:103518001e02be000601be00483d02000000000079
:103528000002be002e139000048bbe003e129000d5
:103538001404be004e099000de0990006e00900051
:10354800fe0090000e080200000000000002be000d
:103558000401be000800be002804020000000000ac
:103568000002be000404be003e1290001405be0016
:103578004e099000de0990006e009000fe00900059
:103588000e080200000000000002be000401be0098
:103598000a00be0026040200000000000002be006f
:1035a8000403be000802be000601be000e10900013
:1035b8009e109000483d0200000000000002be007e
:1035c8003e139000048bbe002e029000be029000b5
:1035d8000403be0007f0a2003e1290001400be00d3
:1035e8002e029000be0290000601be00483d020077
:1035f800000000000002be003e139000048bbe00d5
:103608002e1290001403be003e1290001402be0059
:103618000401be000600be000e0802000000000003
:103628000002be0005f0a10018c0b3000e0990000a
:103638009e0990000400be0072060200000000000f
:1036480000027800e00f520001003c000044eb004b
:10365800e04f54006d0032002e1290001402be009c
:1036680018c0b3006011b8000400be007206020062
:103678000000000000027800e00f520001003c004a
:103688000044eb00e04f54002f0032004e09900038
:10369800de0990004e009000de0090000e08020047
:1036a800000000000002be002e099000be09900034
:1036b8000400be0028040200000000000002be0052
:1036c8000405be004e099000de0990004e009000ef
:1036d800de0090000e080200000000000002be009c
:1036e8000401be002e089000be08900026040200c7
:1036f800000000000002be000404be003e1290005c
:103708001402be0005f0a1000401be000e089000de
:103718009e089000ea050200000000000002be00ba
:103728000403be000a02be000801be000600be0077
:10373800483d0200000000000002be002e13900069
:10374800048bbe00310037004e099000de0990005e
:103758004e009000de0090000e08020000000000fd
:103768000002be002e099000be0990000400be00b1
:1037780028040200000000000002be000405be008c
:103788004e099000de0990004e009000de00900087
:103798000e080200000000000002be000401be0086
:1037a8002e089000be0890002604020000000000c9
:1037b8000002be000404be000e0a90009e0a90009b
:1037c8000403be0007f0a2003e1290001402be00df
:1037d80005f0a1000401be000600be00ea050200d3
:1037e800000000000002be000403be000a02be0082
:1037f8000801be000600be00483d020000000000af
:103808000002be002e139000048bbe004f05be00c0
:103818004f04be000080fa00000006001000fa0005
:103828005473800065738000048fbe007473800039
:1038380085738000240798003507980094738000ea
:10384800a57380004407980055079800b47380005a
:10385800c57380006407980075079800ec0247005c
:10386800680247002e019000be0190001e00be00b5
:10387800d7fe07004e029000de0290009473880085
:10388800a57388006e029000fe029000b473880051
:10389800c57388000080fa00000006000600fa00e0
:1038a800889fbe008a9fbe00000f7800110798000d
:1038b8002207980034728000cfa2de004600200064
:1038c80007002000860f5200878f5a0033003e0001
:1038d80004600100040037001000370019003700a9
:1038e80022003700260037001e0390006022b8002f
:1038f800048bbe002e0390006022b800048bbe002b
:1039080024e7200025fe20003504be002505be0062
:10391800089abe000a92be00200037002e019000cf
:103928009e0090001e00780066000700144080008a
:10393800e00f5200180032000840020000000000aa
:103948001600370014408000e00f520002003200d9
:10395800b63f0200000000002e0190009e0090007b
:103968001e007800110007000c0037002e0190009f
:103978009e0090001e007800ac0107000700370089
:103988002e0190009e0090001e007800e9010700bb
:103998000000000001003700000000004f05be00d5
:1039a8004f04be000080fa00000006000e00fa0076
:1039b80040079800510798006207980024e7200004
:1039c80020fe20005403be004402be005001be0089
:1039d8004000be0004260200000000008fff070020
:1039e80094738000a57380000401be00a0e7200046
:1039f8005028020000000000b4738000c5738000e6
:103a08000401be0020eb2000502802000000000046
:103a18004e02900074029000f4029000640290003c
:103a28000401be00a0e72000662802000000000094
:103a38004e02900074029000940a9000040a9000cc
:103a48000401be0020eb20006628020000000000f0
:103a5800a0e72000e6290200000000000002be00e6
:103a6800048fbe0020eb2000e629020000000000c1
:103a78000002be0024079800350798002e01900028
:103a8800be0190001e00be002604020000000000d7
:103a98000002be005e039000048bbe002e01900061
:103aa800be0190001e00be002804020000000000b5
:103ab8000002be006e039000048bbe000080fa0076
:103ac800000006002a00fa00889fbe008a9fbe00f8
:103ad8002017980031179800421798004472800008
:103ae80055728000040f9800150f980066728000c8
:103af80077728000260f9800370f98002e129000da
:103b0800740290001403be00460f9800570f9800e7
:103b18002e1290007402900024039000b4039000c9
:103b2800660f9800770f98004e099000de09900004
:103b38000e0890009e089000260402000000000075
:103b48000002be000404be004e099000de09900089
:103b58000e0890009e089000260402000000000055
:103b68000002be000401be000800be000e080200ec
:103b7800000000000002be000404be006e099000b0
:103b8800fe0990002e089000be089000260402004e
:103b9800000000000002be000405be006e0990008f
:103ba800fe0990002e089000be089000260402002e
:103bb800000000000002be000401be000a00be00b2
:103bc8000e080200000000000002be000401be0052
:103bd8000800be0028040200000000000002be0029
:103be8000400be004c090200000000000002be00f4
:103bf800048fbe004e099000de0990000e08900068
:103c08009e08900026040200000000000002be008a
:103c18000404be006e099000fe0990002e08900072
:103c2800be08900026040200000000000002be004a
:103c38000801be000400be00e2040200000000000b
:103c48000003be002e12900074029000d40290006f
:103c5800440290000401be000600be0026040200d3
:103c6800000000000002be000400be00d43d0200b7
:103c7800000000000002be002407980035079800e5
:103c8800c4972d0005ea230004179800151798001b
:103c9800a4728000b572800018c0b3001e01be0077
:103ca8000400be0072060200000000000002780056
:103cb800e00f520001003c000044eb00e04f5400cc
:103cc8000900320014002000047388003e1390009d
:103cd8006022b800048bbe004e1390006022b8002a
:103ce800048bbe00cd003700147f8000257f800044
:103cf80018c0b3006011b8000400be0072060200cc
:103d08000000000000027800e00f520001003c00b3
:103d18000044eb00e04f5400270032002e029000d0
:103d2800be0290000404be0009f0a100b2fd20000c
:103d380093fc23000e1090009e10900028040200af
:103d4800000000000002be001ac0b3000401be005b
:103d58000800be00720602000000000000027800a1
:103d6800e00f520001003c000045eb00e04f550019
:103d7800370032001e02be0005f0a200048fbe000c
:103d8800b2fd2000930424002e009000be00900095
:103d980028040200000000000002be000400be006b
:103da800d43d0200000000000002be002407980075
:103db80035079800260037002e029000be029000ba
:103dc8000404be0009f0a1000e1190009e1190009d
:103dd800b0fd200091fc2300260402000000000032
:103de8000002be001ac0b3000401be000800be00f5
:103df800720602000000000000027800e00f520086
:103e080001003c000045eb00e04f55001000320077
:103e18001e02be0005f0a200048fbe00b2fd200005
:103e2800930424002e009000be0090002804020095
:103e3800000000000002be000400be00d43d0200e5
:103e4800000000000002be00240798003507980013
:103e58001e02be0005f0a10018c0b300d2cc2c0091
:103e6800c3dc23000400be006e0602000000000050
:103e780000027800e00f5200010035000044eb001a
:103e8800e04f540037003200c4728000d5728000c1
:103e98001e01be000400be000e0802000000000063
:103ea8000002be000404be002e029000be02900074
:103eb80005f0a10032982f0023f223000400be0071
:103ec8000e080200000000000002be000401be004f
:103ed8000000200001f82300260402000000000072
:103ee8000002be000401be000800be000e08020069
:103ef800000000000002be00440798005507980023
:103f0800c4728000d572800002002000031a2400c9
:103f18000400be000e080200000000000002be00ff
:103f28002e019000be0190000400be000e080200a1
:103f3800000000000002be000403be001e02be0016
:103f480005f0a1000401be000600be000e08020034
:103f5800000000000002be00640798007507980082
:103f680018003700c4728000d57280001e01be00a0
:103f78000400be000e080200000000000002be009f
:103f88004407980055079800c4728000d5728000d5
:103f98000401be000400be00280402000000000066
:103fa8000002be002e019000be0190000400be0079
:103fb8000e080200000000000002be00640798001e
:103fc800750798004e029000de0290005473880036
:103fd800657388006e039000fe0390007673880076
:103fe800877388004e119000be1090002e1090002c
:103ff8006efe070014408000e00f520007003200f8
:104008001e02be0014738800257388002e039000da
:10401800be03900036738800477388004f05be00c2
:104028004f04be000080fa00000006000e00fa00ef
:10403800881f780040079800510798006207980089
:1040480086778000977780004e0290007402900077
:10405800d4029000440290000401be000600be0095
:1040680026040200000000000002be000400be009a
:10407800d43d0200000000000002be00048fbe0014
:104088001e02be0005f0a10018c0b300a2702d00ea
:1040980033ca23000400be006e06020000000000c0
:1040a80000027800e00f5200010035000044eb00e8
:1040b800e04f540009003200140020008479880081
:1040c8005e0390006022b800048bbe006e0390006f
:1040d8006022b800048bbe00130037001e02be0029
:1040e8000401be000400be00280402000000000015
:1040f8000002be0024079800350798006022b80027
:1041080054738800657388002e029000be029000e8
:1041180074738800857388006e019000de0090003b
:104128004e00900021fe07004f0478000080fa003e
:10413800000006000600fa00000f7800110798003a
:104148002207980074818000e00f520007003a00af
:104158001e0390006022b800048bbe002e0390005e
:104168006022b800048bbe002c00370064818000f8
:104178006c22b90084027800c40021000482420045
:1041880085e42000b41a7800a4127800e482420082
:1041980064024200b41a7800a4127800e482420053
:1041a80064024200b41a7800a4127800e482420043
:1041b800640242006481800066024200c222dd007f
:1041c800c4002100048242001402be00a4728800c8
:1041d800b57288002e0190009e0090001e007800a5
:1041e80038fe070004738000e00f52000b00320015
:1041f8000002eb0004738800748180000402e90067
:10420800748188006481800004f0a7000402ea0039
:104218000402e9004f22de00648188000080fa0071
:10422800000006000000fa0034728000e00f52001f
:1042380002003a0014002000190037003472800090
:10424800e10f520002003a000473800014003700a6
:1042580034728000e20f520002003a007477800046
:104268000f00370034728000e30f520002003a005a
:10427800847980000a00370034728000e40f52000d
:1042880006003a007481800004f0a7000402ea00e6
:104298000402e9004f22de00010037000002eb00b3
:1042a800040078000080fa00000006002000fa00f0
:1042b800889fbe008a9fbe006022b800048fbe009f
:1042c8006022b80024079800350798006022b800db
:1042d80044079800550798006466260065ee230099
:1042e80064079800750798003433230035fb2300d2
:1042f800040f9800150f9800d4cc2c00c5e42300b7
:10430800240f9800350f9800d4cc2c00c5e4230066
:10431800440f9800550f9800d4cc2c00c5dc23001e
:10432800640f9800750f98000002eb005480880015
:1043380064ff20006e049000fe0490000e0d9000b3
:104348009e0d9000089abe000a92be0074024700b3
:10435800e5ff2000b41a7800a4127800e482420035
:1043680064024200b41a7800a4127800e482420081
:1043780064024200b41a7800a4127800e482420071
:10438800640242000002eb00648188000002eb0036
:10439800748188000e027800c5002100b41a7800e4
:1043a800a4127800e482420064024200b41a780041
:1043b800a4127800e482420064024200b41a780031
:1043c800a4127800e4824200640242000e027800df
:1043d80085012100b41a7800a4127800e482420012
:1043e80064024200b41a7800a4127800e482420001
:1043f80064024200b41a7800a4127800e4824200f1
:1044080064024200f426210035a823002481880094
:1044180035818800f426210035a8230044818800ce
:1044280055818800e231020000000000d417020024
:1044380000000000983f0200000000000400200077
:1044480005f82300947e8800a57e88004f05be00ed
:104458004f04be000080fa00000006000c00fa00bd
:10446800000f78001107980022079800330798007a
:1044780044079800550798000e02780065fd200053
:10448800b41a7800a4127800e48242006402420060
:10449800b41a7800a4127800e48242006402420050
:1044a800b41a7800a4127800e48242006402420040
:1044b8000080fa00000006000600fa00000f7800ed
:1044c80012079800230798001e0278001e03900028
:1044d800ae039000068abe000080fa0000000600c5
:1044e8000600fa00000f78001207980023079800ca
:1044f8001e0278001e039000ae039000260298006a
:10450800370298000080fa00000006000600fa0052
:10451800000f780012079800230798001e02780001
:104528001e039000ae0390004602980057029800c0
:104538000080fa00000006000a00fa00889fbe000a
:104548008a9fbe00000f780014079800250798007e
:1045580036079800470798001e0278001e0490004e
:10456800ae0490003e059000ce05900068029800c9
:10457800790298000a0a98001b0a98004f05be00a5
:104588004f04be000080fa00000006000600fa0092
:10459800000f780012079800230798001e02780081
:1045a8001e039000ae039000660298007702980000
:1045b8000080fa00000006000600fa00000f7800ec
:1045c80012079800230798001e0278001e03900027
:1045d800ae039000060a9800170a98000080fa00b7
:1045e800000006000e00fa00000f7800110798007e
:1045f8002207980033079800440798005507980049
:10460800660798009e0278000e82e800f482420055
:10461800b41a7800a4127800e482420064024200ce
:10462800b41a7800a4127800e482420064024200be
:10463800b41a7800a4127800e482420064024200ae
:104648000080fa00000006000600fa00000f78005b
:1046580012079800230798001e0278001e03900096
:10466800ae039000260a9800370a98000080fa00e6
:10467800000006000600fa00000f780012079800f4
:10468800230798001e0278001e039000ae039000d6
:10469800460a9800570a98000080fa0000000600b1
:1046a8000600fa00000f7800120798002307980008
:1046b8001e0278001e039000ae039000660a980060
:1046c800770a98000080fa00000006000000fa004f
:1046d8000003780064fd200086027800b41a780090
:1046e800a4127800e482420064024200b41a7800fe
:1046f800a4127800e482420064024200b41a7800ee
:10470800a4127800e48242006402420006007800a5
:104718000080fa00000006000000fa00889fbe0032
:104728008a9fbe000002780025fe20003504be00e6
:104738002505be00089abe000a92be000400780053
:104748004f05be004f04be000080fa0000000600be
:104758000000fa0000037800a4fe2000860278001a
:10476800b41a7800a4127800e4824200640242007d
:10477800b41a7800a4127800e4824200640242006d
:10478800b41a7800a4127800e4824200640242005d
:10479800060078000080fa00000006000400fa0015
:1047a800c4858000d58580000200200003f0230026
:1047b8000400be000e080200000000000002be0057
:1047c8000403be00347f8000457f80000401be00e2
:1047d8000600be000e080200000000000002be0035
:1047e800048fbe00147f8000257f80001e01be005c
:1047f8000400be0026040200000000000002be0003
:104808000400be000080fa00000006000400fa0060
:10481800c4858000d58580000200200003f02300b5
:104828000400be000e080200000000000002be00e6
:104838000403be00347f8000457f80000401be0071
:104848000600be000e080200000000000002be00c4
:10485800048fbe00147f8000257f80001e01be00eb
:104868000400be0028040200000000000002be0090
:104878000400be000080fa00000006000000fa00f4
:10488800a2190200000000000080fa0000000600e3
:104898000c00fa00000f7800110798002207980012
:1048a800330798004407980055079800f42621001c
:1048b80035a82300a4728800b57288000002eb00b6
:1048c800047388000e02780085e42000b41a78008a
:1048d800a4127800e482420064024200b41a78000c
:1048e800a4127800e482420064024200b41a7800fc
:1048f800a4127800e482420064024200ac1902006b
:10490800000000000080fa00000006000c00fa0019
:10491800000f7800110798002207980033079800c5
:1049280044079800550798000002eb0004738800bc
:104938000002eb0064818800240020007481880054
:104948000e027800c5002100b41a7800a41278007d
:10495800e482420064024200b41a7800a41278008b
:10496800e482420064024200b41a7800a41278007b
:10497800e48242006402420072025700850121006d
:10498800b41a7800a4127800e4824200640242005b
:10499800b41a7800a4127800e4824200640242004b
:1049a800b41a7800a4127800e4824200640242003b
:1049b800ca190200000000000080fa00000006008a
:1049c8001000fa00881f7800000f7800110798007f
:1049d8002207980033079800440798005507980065
:1049e800660798007707980018c0b300f2262100e0
:1049f80033a823006e009000fe0090006e060200af
:104a08000000000000027800e00f520001003500ad
:104a18000044eb00e04f540004003200f42621006b
:104a280035a82300640798007507980074818000f2
:104a3800e00f52001f003a000002eb0004738800e8
:104a48006481800066024200c222dd00c4002100a9
:104a5800048242006e039000fe039000068abe00a6
:104a6800648180006c22b90084027800c4002100af
:104a7800848242000e027800b41a7800a4127800ea
:104a8800e482420064024200b41a7800a41278005a
:104a9800e482420064024200b41a7800a41278004a
:104aa800e4824200640242001400200074818800fd
:104ab8002a0037006481800004f0a7000402ea009d
:104ac8000402e9004f22de0066024200c222dd0035
:104ad800c4002100048242006e039000fe0390008f
:104ae800068abe006481800004f0a7000402ea0080
:104af8000402e9004f22de006c22b900840278002b
:104b0800c4002100848242000e027800b41a7800a2
:104b1800a4127800e482420064024200b41a7800c9
:104b2800a4127800e482420064024200b41a7800b9
:104b3800a4127800e482420064024200748180007a
:104b48000402e8007481880074818000e20f52003a
:104b5800020034002400200074818800ca19020071
:104b6800000000004f0478000080fa0000000600f2
:104b78000800fa00889fbe008a9fbe00009fbe0002
:104b88000297be000002eb0074778800a4e62000bc
:104b98003e04be002e05be00089abe000a92be0062
:104ba800b6190200000000004f05be004f04be0009
:104bb8000080fa00000006000400fa00008fbe0022
:104bc8000002eb00847988001e02be00847788000a
:104bd80095778800c0190200000000000080fa00e4
:104be800000006000000fa00162102000000000084
:104bf80000027800040078000080fa000000060037
:104c08001000fa00881f7800009fbe000297be00bf
:104c1800440798005507980066079800770798009a
:104c28001e03be004e029000de0290000401be008a
:104c38000600be0026040200000000000002be00bc
:104c480005f0a10018c0b300d2cc2c00c3dc2300af
:104c58000400be0072060200000000000002780096
:104c6800e00f520001003c000044eb00e04f54000c
:104c780016003a002e039000be0390006e029000ca
:104c8800fe0290000401be000600be0026040200d9
:104c9800000000000002be0005f0a10018c0b3002b
:104ca800d2cc2c00c3ec23000400be007206020024
:104cb8000000000000027800e00f520001003c00f4
:104cc8000044eb00e04f54000d0032005580800096
:104cd80024032000848f520001003a00e7fe0700f9
:104ce8005580800024032000848f520006003c0079
:104cf800548080000402e8005480880002003700d5
:104d08000002eb00548088004f0478000080fa000d
:104d1800000006000a00fa00881f780010079800b3
:104d28002107980032079800430798000002eb001b
:104d3800040f7800947e8000a57e800018c0b30020
:104d48006011b8000400be00640702000000000003
:104d580000027800e00f520001003a000044eb0026
:104d6800084278000404a200e04f52000700320015
:104d78003e0390006022b800048bbe004e039000f2
:104d88006022b800048bbe001a0037002e01900084
:104d98009e009000200b2100be320200000000009f
:104da8004e019000be009000200b2100521c020012
:104db8000000000016210200000000000002780038
:104dc800e00f52000b00320034728000e00f5200f6
:104dd8000200320014002000040f7800a7fe07002c
:104de8001e027800e10f520002003a00143a020055
:104df800000000004f0478000080fa000000060060
:104e08000200fa00000f78001e027800fa0257002c
:104e180009000900351a78004401b1000080fa0041
:104e2800000006000600fa00000f7800120798003c
:104e3800230798001e0278001e039000ae0390001e
:104e4800068abe000080fa00000006000600fa008c
:104e5800000f780012079800230798001e027800b8
:104e68001e039000ae0390002602980037029800b7
:104e78000080fa00000006000600fa00000f780023
:104e880012079800230798001e0278001e0390005e
:104e9800ae03900046029800570298000080fa007e
:104ea800000006000600fa00000f780012079800bc
:104eb800230798001e0278001e039000ae0390009e
:104ec80066029800770298000080fa000000060049
:104ed8000600fa00000f78001207980023079800d0
:104ee8001e0278001e039000ae039000060a980088
:104ef800170a98000080fa00000006000200fa0075
:104f0800000f78001e027800f40242007e0357006a
:104f18000b000900b61a78000080fa0000000600ad
:104f28000600fa00000f780012079800230798007f
:104f38001e0278001e039000ae039000260a980017
:104f4800370a98000080fa00000006000600fa0000
:104f5800000f780012079800230798001e027800b7
:104f68001e039000ae039000660a9800770a980026
:104f78000080fa00000006000600fa00000f780022
:104f880012079800230798001e0278001e0390005d
:104f9800ae03900006129800171298000080fa00dd
:104fa800000006000600fa00000f780012079800bb
:104fb800230798001e0278001e039000ae0390009d
:104fc80046129800571298000080fa000000060068
:104fd8000a00fa00889fbe008a9fbe00000f780072
:104fe8001407980025079800360798004707980087
:104ff8001e0278001e049000ae0490003e0590004a
:10500800ce05900068129800791298000a1a980044
:105018001b1a98004f05be004f04be000080fa001e
:10502800000006000600fa00000f7800120798003a
:10503800230798001e0278001e039000ae0390001c
:1050480066129800771298000080fa0000000600a7
:105058000600fa00000f780012079800230798004e
:105068001e0278001e039000ae039000061a9800f6
:10507800171a98000080fa00000006000200fa00e3
:10508800000f78006011b8001e007800afff07001d
:105098000080fa00000006000600fa00000f780001
:1050a80012079800230798001e0278001e0390003c
:1050b800ae039000261a9800371a98000080fa006c
:1050c800000006000a00fa0020079800320798003e
:1050d800430798002e029000240b9000b40b900018
:1050e800068fbe003e019000ce0190002e00900079
:1050f8000b0007001e01be002e0090006f00070085
:105108002e029000b40a9000240a90000401be0008
:105118002e009000440007000080fa0000000600fe
:105128000600fa00889fbe008a9fbe00000f780024
:1051380012079800230798001e0278006403900065
:10514800f40390001e027800d40a9000440a9000ec
:105158000401be000600be000e08020000000000a8
:105168000002be000404be001e027800f402900093
:10517800640290000401be000000200001f8230032
:1051880026040200000000000002be000405be0064
:105198001e027800b41a9000241a90001e01900094
:1051a800ae0190000400be002604020000000000ca
:1051b8000002be000401be000a00be000e08020084
:1051c800000000000002be000401be000800be008e
:1051d80028040200000000000002be001e03780040
:1051e800440b9800550b98001e027800b41a9000e2
:1051f800241a90001e019000ae0190000400be0029
:1052080026040200000000000002be001e03780011
:10521800240b9800350b98004f05be004f04be00c4
:105228000080fa00000006000600fa00889fbe0011
:105238008a9fbe00000f7800120798002307980085
:105248001e02780044159000d41590001e027800c4
:10525800d4129000441290000404be0009f0a20089
:105268001e027800f40a9000640a90001e01900063
:10527800ae0190000400be002804020000000000f7
:105288000002be000403be000a02be000801be0000
:105298000600be00483d0200000000000002be00fb
:1052a8001e037800640b9800750b98004f05be002c
:1052b8004f04be000080fa00000006000600fa0055
:1052c800889fbe008a9fbe00000f780012079800d2
:1052d800230798001e027800040b9000940b90009e
:1052e8001e027800b4129000241290000401be003f
:1052f8000600be000e080200000000000002be000a
:105308000404be001e027800940a9000040a90006b
:105318000401be000000200001f82300260402005a
:10532800000000000002be000405be001e02780056
:10533800b40a9000240a90001e019000ae0190006b
:105348000400be0026040200000000000002be00a7
:105358000401be000a00be000e08020000000000a2
:105368000002be000401be000800be0028040200be
:10537800000000000002be001e03780024139800fd
:10538800351398001e027800b40a9000240a900091
:105398001e019000ae0190000400be002604020029
:1053a800000000000002be001e03780004139800ed
:1053b800151398004f05be004f04be000080fa0088
:1053c800000006000200fa00889fbe008a9fbe0007
:1053d8008c9fbe00000f78001e0278001404be00e7
:1053e8001e027800b40a9000240a9000d2cc2c0047
:1053f800c3e423000400be000e0802000000000001
:105408000002be000405be001e027800d40a900007
:10541800440a9000d2cc2c00c3f423000400be0040
:105428000e080200000000000002be000401be00d9
:105438000a00be0028040200000000000002be00ae
:105448000401be000800be000e08020000000000b3
:105458000002be000404be001e027800240390006f
:10546800b40390001e027800f40a9000640a9000c9
:105478000401be000600be000e0802000000000085
:105488000002be000401be000800be00280402009d
:10549800000000000002be000404be001e027800e6
:1054a80044059000d40590001e02780094129000e4
:1054b80004129000d2cc2c00c3e423000400be00e8
:1054c8000e080200000000000002be000406be0034
:1054d8001e027800b412900024129000d2cc2c0046
:1054e800c3f423000400be000e0802000000000000
:1054f8000002be000401be000c00be002804020029
:10550800000000000002be000401be000a00be0048
:105518000e080200000000000002be000401be00e8
:105528000800be0028040200000000000002be00bf
:105538000400be004f06be004f05be004f04be006b
:105548000080fa00000006000000fa00881f7800ba
:105558003eaa9700ceaa97000403be0007f0a10058
:105568007eb297008eba970018c0b3000401be003f
:105578000600be006e06020000000000000278006f
:10558800e00f5200010034000044eb00e04f5400eb
:10559800130032001eb29700aeb297000403be009b
:1055a80007f0a1001eba9700aeba970018c0b30062
:1055b8000401be000600be006e06020000000000e6
:1055c80000027800e00f5200010034000044eb00b4
:1055d800e04f5400020032001400200001003700a0
:1055e8000002eb00040078004f0478000080fa0005
:1055f800000006000000fa00c1e1a800040e8000c7
:105608000420a1000430a100040e8800040e8000cc
:105618000400a1000410a100040e8800c45d20004d
:10562800240e8800c921a800c941a800c881a80083
:10563800c8a1a800c8c1a900c801a900c821a9001b
:10564800c841a900c45d2000240e88000002eb00b8
:10565800b40e88000002eb00c40e8800c0e2a90066
:10566800c962a900c9e2a900c9a2a900c4e2a900a7
:10567800cd62a900cde2a900cda2a9000080fa0060
:10568800000006000000fa00e1a1a800040f800055
:105698000480a1000490a00004a0a000040f8800ca
:1056a800e041a900e021a900e534800004fe2f00b4
:1056b800048262008401b300e4348800e534800089
:1056c800f40f2e008482620004602100050272003b
:1056d800e4348800f1a1a800840f80000480a100b0
:1056e8000490a00004a0a000840f8800f041a90045
:1056f800f021a9000535800004fe2f000482620015
:105708007401b3000435880005358000f40f2e00bd
:10571800848262000490210005027200043588002a
:105728000080fa00000006000a00fa00881f7800ce
:10573800100798002107980032079800430798003f
:1057480018c0b3006011b8003e009000ce00900071
:10575800720602000000000000027800e00f52000c
:1057680001003d000044eb00e04f5400020032000d
:10577800cda2a90001003700cda2a80018c0b3002f
:105788006011b8001e009000ae0090007206020082
:105798000000000000027800e00f520001003d0008
:1057a8000044eb00e04f540002003200cde2a800b4
:1057b80001003700cde2a900180020006011b800f0
:1057c8001e009000ae0090006e060200000000006f
:1057d80000027800e00f5200010035000004eb00e1
:1057e800080f7800c45d2000240e88000400200003
:1057f800852c240002002000832c2c001e00900021
:10580800ae009000483d0200000000000002be000b
:10581800140798002507980004002000852c240010
:1058280002002000832c2c003e009000ce00900047
:10583800483d0200000000000002be003407980046
:10584800450798001e029000ae02900005f0a100e6
:1058580002002000031f24000400be000e080200fe
:10586800000000000002be000400be007606020030
:10587800000000000002be0004027800b40e880098
:105888003e029000ce02900005f0a1000200200028
:10589800031f24000400be000e08020000000000e0
:1058a8000002be000400be007606020000000000f0
:1058b8000002be0004027800c40e88004f0478007d
:1058c8000080fa00000006000e00fa00881f780029
:1058d800100798002107980032079800430798009e
:1058e8005407980065079800180020006011b80058
:1058f8005e009000ee0090007206020000000000ba
:1059080000027800e00f520001003d000004eb00a7
:10591800080f7800180020006011b8003e009000c1
:10592800ce0090006e060200000000000002780021
:10593800e00f5200010035000004eb00080f78006a
:105948001e019000ae0190000068290081c124006a
:10595800ea050200000000000002be000400be00cc
:1059680076060200000000000003be0004d02700f5
:1059780005002000c25d2000030020000600be00d4
:105988009c3d0200000000000002be0004027800f6
:10599800240e880004002000852c2400020020002a
:1059a800832c2c003e009000ce009000483d020061
:1059b800000000000002be00340798004507980068
:1059c80004002000852c240002002000832c2c00d9
:1059d8005e009000ee009000483d020000000000cc
:1059e8000002be005407980065079800240e800046
:1059f80004024200050020000400be00be060200aa
:105a0800000000000003be003e029000ce0290009d
:105a180005f0a1000401be000600be000e08020049
:105a2800000000000002be0002002000832c2400b9
:105a38000400be00ea050200000000000002be00eb
:105a48003407980045079800240e8000040242009d
:105a5800050020000400be00be0602000000000091
:105a68000003be005e029000ee02900005f0a10067
:105a78000401be000600be000e080200000000007f
:105a88000002be0002002000832c24000400be0097
:105a9800ea050200000000000002be00540798005a
:105aa800650798003e009000ce0090007606020040
